:020000040800F2
:1000000080070020810200089F2B00084923000878
:100010009D2B00089F0600087F34000800000000A8
:100020000000000000000000000000007B2F00081E
:10003000A106000800000000A12B00087D2F000889
:100040009B0200089B0200089B0200089B0200081C
:100050009B0200089B0200089B0200089B0200080C
:100060009B0200089B0200089B0200089B020008FC
:100070009B0200089B0200089B0200089B020008EC
:100080009B020008000000009B0200089B02000881
:100090009B0200089B0200089B0200089B020008CC
:1000A0009B0200089B020008013000089B02000828
:1000B0009B0200080D3000089B0200089B0200080C
:1000C0009B0200089B0200089B0200089B0200089C
:1000D0009B0200089B0200089B0200089B0200088C
:1000E0009B0200089B0200089B0200089B0200087C
:1000F0009B0200089B0200089B0200080000000011
:10010000000000009B020008000000009B020008A5
:100110009B020008000000009B0200089B020008F0
:100120009B0200089B0200089B0200089B0200083B
:100130009B02000800000000000000009B02000875
:100140009B0200089B020008000000000000000065
:10015000000000000000000000000000000000009F
:100160000000000000000000000000009B020008EA
:100170009B020008000000000000000000000000DA
:10018000000000009B0200080000000000000000CA
:10019000000000000000000000000000000000005F
:1001A00000000000000000009B0200089B02000805
:1001B0009B0200089B0200089B0200080000000050
:1001C000000000009B02000800000000000000008A
:1001D0009B0200089B02000800F002F800F041F8C2
:1001E0000AA090E8000C82448344AAF10107DA4592
:1001F00001D100F036F8AFF2090EBAE80F0013F0A3
:10020000010F18BFFB1A43F001031847E444000034
:1002100004450000103A24BF78C878C1FAD85207C4
:1002200024BF30C830C144BF04680C607047000070
:100230000023002400250026103A28BF78C1FBD8EF
:10024000520728BF30C148BF0B607047752900F0C6
:100250007380002070471FB503F04BF91FBD10B528
:1002600010BD00F0E2F91146FFF7F5FF03F020F9A9
:1002700000F000FA03B4FFF7F2FF03BC00F008FA45
:100280000948804709480047FEE7FEE7FEE7FEE72A
:10029000FEE7FEE7FEE7FEE7FEE7FEE70448054966
:1002A000054A064B70470000F12F0008D9010008ED
:1002B00080010020800700208003002080030020B0
:1002C0000FB41CB5074B06AA7B44694600900598FD
:1002D00000F093F90020694600F0A2F91CBC5DF81B
:1002E00014FB00005503000070B5044685690068E2
:1002F000C10601D5302600E02026C00707D070BD1A
:10030000D4E9012130469047206A401C20626D1ECE
:10031000F6D570BD70B5044685690078C00707D171
:1003200070BDD4E9012120209047206A401C206242
:100330006D1EF6D570BD00002DE9F0410646002483
:1003400010687529314616A510D0AFF3008000283B
:1003500002DA404213A507E031688A0701D512A5E9
:1003600002E0490704D511A5012401E0AFF30080A4
:1003700000210A2206F1240709E0B0FBF2FCB0FBE1
:10038000F2F302FB1C00303078541846491C002858
:10039000F3D123462A463046BDE8F04100F0CEB8FE
:1003A000000000002D0000002B00000020000000D5
:1003B0002DE9F05F894604464FF0000ADFF824B1CA
:1003C000FB44C0F820A02046E168884700287DD083
:1003D000252806D0D4E901219047206A401C2062DC
:1003E000F1E700255F462046E16888472028064659
:1003F00007DB312E05D2B81910F8200C08B10543DF
:10040000F1E7A80701D525F00405C4F81CA00027D2
:10041000C4F818A02A2E09D0304603F041F838B3AA
:1004200004EB8708303EC8F8186019E059F8041B3F
:10043000204604EB87029161E1688847012F064658
:1004400018D1E069002820DA25F020051DE0D8F851
:10045000180000EB800006EB40003038C8F81800A8
:100460002046E1688847064603F01AF80028EED1D6
:10047000012F0AD02E2E08D12046E16888477F1C24
:100480000646022F45F02005C4DBA069002803DAE8
:10049000404245F00105A061E80701D025F01005B4
:1004A000A6B1A6F14100192802D8203645F400650E
:1004B0004A463146204625604D46FFF7C7FE60B1EB
:1004C000012807D0ED1D25F0070000E007E000F14E
:1004D000080978E705F1040975E730467AE7206AEC
:1004E000BDE8F09F184300004FF0000200B513462E
:1004F00094469646203922BFA0E80C50A0E80C5044
:10050000B1F12001BFF4F7AF090728BFA0E80C50F4
:1005100048BF0CC05DF804EB890028BF40F8042BED
:1005200008BF704748BF20F8022B11F0804F18BF5A
:1005300000F8012B70477047704770472DE9F0476E
:100540000D4699469246044600F124080168880643
:1005500004D5E06921F01001216000E00120A842EB
:1005600001DD471B00E00027A1697A1902EB0900B1
:10057000081AA0612078C00602D42046FFF7B4FE16
:10058000002608E0D4E901211AF806009047206A05
:10059000401C761C20624E45F4DB2078C0060AD54C
:1005A0002046FFF7A1FE06E0D4E901213020904764
:1005B000206A401C2062381EA7F10107F4DC07E026
:1005C000D4E9012118F805009047206A401C2062F8
:1005D000281EA5F10105F3DC2046FFF79BFE2078DD
:1005E000000602D50220BDE8F0870120FBE70000ED
:1005F00001694A1C02610878704700B58FB0CDE9E7
:1006000001310021059105497944CDE903101146D6
:100610006846FFF7CDFE0FB000BD0000E5FFFFFF0D
:100620000A6802F8010B0A607047754600F02CF862
:10063000AE4605006946534620F00700854618B0CF
:1006400020B5FFF72BFEBDE820404FF000064FF02D
:1006500000074FF000084FF0000B21F00701AC46F7
:10066000ACE8C009ACE8C009ACE8C009ACE8C00916
:100670008D46704710B50446AFF300802046BDE8B4
:100680001040FFF7F7BD0000004870471C01002034
:1006900001491820ABBEFEE7260002007047FEE7C6
:1006A0007047002240F6B83306E00021491C89B2A9
:1006B0009942FBD3521C92B28242F6D3704700009B
:1006C0002DE9F05F9D4CE07900287DD0A079DFF81E
:1006D00070A201259B4E4FF0080B4FF002084FF01F
:1006E0000409092870D2DFE800F0050C2232688680
:1006F000CCE5EB0030682169401AB0F57A7F63D30E
:10070000A571002220214FF0904000F0AEFADAF8F7
:100710000000FA2141630021894801F03FFD8AA1D0
:10072000C02001F00FFF3068206184F80680306837
:100730002169401AB0F57A6F46D30021804801F054
:10074000ABFD87A1C02001F0FDFE0320A071207841
:10075000E179401E05FA00F0864F884212DA657191
:100760004FF001024FF010014FF0904000F07DFA81
:1007700039684FF4487048630021384601F00EFD97
:100780007DA113E015DD84F805804FF000024FF0E5
:1007900010014FF0904000F068FA39684FF416707D
:1007A00048630021734801F0F9FC79A1C02001F0F1
:1007B000C9FE3068206184F8069030682169401ACB
:1007C00041F27071884200E087E060797ED30128B1
:1007D00002D0022803D005E02078401C01E02078F8
:1007E000401E20702078A0213030C2B2602001F07D
:1007F0009DFE0520A0712178491E05FA01F0E179DE
:10080000084271D000215B4801F046FD2078A0210C
:100810003030C2B2602001F089FEFA2000F0EAF820
:100820002022A021602001F081FEFA2000F0E2F8F1
:100830002078A0213030C2B2602001F077FEFA208B
:1008400000F0D8F82022A021602001F06FFEFA20ED
:1008500000F0D0F854A1C02001F074FE0122202144
:100860004FF0904000F001FADAF800004FF4967172
:1008700041630021324801F091FC3068206106207C
:10088000A07130682169401AB0F57A6F25D3002134
:100890002B4801F001FD4AA1C02001F053FE207851
:1008A000401E05FA00F1E0798843E07101F0FAFF9B
:1008B0000720A071E079B8B33068206184F806B0F1
:1008C00030682169401AB0F5FA6F00E007E004D300
:1008D00041A1C02001F036FEA571BDE8F09F0128BE
:1008E00003D0022809D00EE019E060784006000E1F
:1008F0006070102807D1657005E06078400860706E
:1009000001D184F801B0E079617800EB0110C0B248
:1009100001F0C8FFBDE8F05FFA2000F06BB8306866
:10092000206184F80690D8E7FFE70020A071BDE8B9
:10093000F05F29A1C02001F005BE000008000020E2
:10094000D000002028000020446F6F7220436C6F9D
:1009500073696E67202020202020202000000000E6
:10096000446F6F7220436C6F7365642020202020D9
:10097000202020008400002020454C657661746FA3
:10098000722055702E2E2E202020202000000000E6
:1009900020454C657661746F7220446F776E2E2E01
:1009A0002E2020200000000020202020446F6F72A5
:1009B000204F70656E2E2E2E20202020000000007B
:1009C0002020446F6F72204F70656E656420202078
:1009D0002020202000000000202020202020202097
:1009E0002020202020202020202020200000000087
:1009F00072B6FEE770B5044600F03CF90546601C8F
:100A000002D004484068044400F034F9401BA0427E
:100A1000FAD370BD200000202DE9F04FDFF82092BE
:100A2000002301260324A9F1040B85B00F2709F147
:100A3000040AABF1040EFAE006FA03F52A407CD072
:100A400091F804C00CF0030CBCF1010F02D0BCF112
:100A5000020F26D1D0F808C0CDF800C04FEA430CF1
:100A600004FA0CF8CDF810C0DDF800C02CEA080C30
:100A7000CDF800C0D1F80C80DDF810C008FA0CF8F1
:100A8000DDF800C048EA0C08C0F80880D0F804C0BF
:100A90002CEA050C0D79C5F300159D4045EA0C05BF
:100AA00045600D79ED43AD070ED0C5684FEA4308A8
:100AB00004FA08FC25EA0C05D1F808C00CFA08FC79
:100AC0004CEA050CC0F80CC00D7905F00305022DA9
:100AD00016D1DD0800EB850CCDF808C0DCF82080CD
:100AE0005D074FEAD56C07FA0CF528EA05080D6991
:100AF00005FA0CF5DDF808C045EA0805CCF82050E9
:100B000005684FEA430CCDF808C004FA0CFC25EA4E
:100B10000C0591F804C00CF00308DDF808C008FAD1
:100B20000CF848EA0508C0F800804D6815F4403F0D
:100B30007CD0444DD5F860C000E077E04CF0010C6B
:100B4000C5F860C02D6E23F0030C05F0010500957B
:100B50003D4D65440295AD684FEA837C4FEA1C78B1
:100B600007FA08FC25EA0C05B0F1904F06D0DFF833
:100B7000DCC0604505D14FF0010C20E04FF0000CC7
:100B80001DE0DFF8CCC0604502D14FF0020C16E04A
:100B9000DFF8C0C0604502D14FF0030C0FE0DFF872
:100BA000B8C0604502D14FF0040C08E0DFF8ACC0DB
:100BB000604502D14FF0050C01E04FF0060C0CFA35
:100BC00008FC4CEA050C029DC5F808C0D9F8005095
:100BD000CC46D1F8048095435FEAC82800D5154378
:100BE000CCF80050DAF80050D446D1F80480954390
:100BF0005FEA882800D51543CCF80050DBF8005098
:100C0000DC46D1F8048095435FEA883800D5154367
:100C1000CCF80050DEF80050F446D1F8048095433B
:100C20005FEAC83800D51543CCF800505B1C0A6851
:100C300032FA03F57FF400AF05B0BDE8F08F000095
:100C40000804014000100240000001400004004878
:100C500000080048000C004800100048001400483C
:100C60000069084000D0012070470AB181617047D7
:100C700081627047014880687047000020000020B2
:100C8000024881684268114481607047200000205A
:100C900010B50024032000F073F80F2000F008F8CE
:100CA00008B1012401E000F025F8204610BD000045
:100CB00070B50E4E05460024706898B14FF47A71F5
:100CC000B1FBF0F00A490968B1FBF0F000F0D3FE87
:100CD00040B9102D06D200222946501E00F030F8EF
:100CE000356000E00124204670BD00002000002097
:100CF0002C0000200A4882B0016E41F0010101661B
:100D0000016E01F001010091816D41F0805181651A
:100D1000806D00F08050009002B000F0A1B800009B
:100D200000100240002809DB00F01F020121914061
:100D30004009800000F1E020C0F800117047000079
:100D4000F0B40E4B1B680C46C3F30223C3F1070536
:100D5000042D00D90425191D072901D2002300E024
:100D6000DB1E012606FA05F1491E214099409E40EE
:100D7000761E16403143F0BC02F082BB0CED00E061
:100D8000064900F0070208684FF6FF03184040EAE2
:100D90000220034A10430860704700000CED00E099
:100DA0000000FA052B492C4B0A6832214A432B4993
:100DB00040B1B0F5007F086829D020F4C06040F44D
:100DC00080602CE00868C0F34120022804D051F86C
:100DD000800F20F4807022E0D1F8800020F4807031
:100DE000C1F88000086820F4C06040F4007008601A
:100DF000B2FBF3F0401C00E0401E4A69520501D5E9
:100E00000028F9D1486940050AD503207047C0F38E
:100E10004120022806D051F8800F40F4807008600D
:100E200000207047D1F8800040F48070C1F8800045
:100E3000086820F4C06040F400700860B2FBF3F072
:100E4000401C00E0401E4A695205DBD50028F9D15C
:100E5000D8E700002C00002040420F000070004046
:100E60000248816841F48041816070470070004011
:100E70002DE9F8430446006800269D4D00035ED529
:100E8000A86D0027C00008D4A86D40F08050A86568
:100E9000A86D012700F080500090DFF85892D9F833
:100EA000001041F48071C9F80010FFF7E3FE80469E
:100EB00006E000BFFFF7DEFEA0EB080002282BD8FB
:100EC000D9F80000C005F5D5D5F8900010F44070B1
:100ED00014D0216C814211D0D5F89000D5F8901033
:100EE00020F4407041F48031C5F89010D5F890108E
:100EF00021F48031C5F89010C5F89000C00711D0DA
:100F0000FFF7B8FE804641F2883907E0FFF7B2FEEE
:100F1000A0EB0801494501D903260BE0D5F8900064
:100F20008007F3D5D5F89000216C20F44070084379
:100F3000C5F890001FB1A86D20F08050A8652078FA
:100F4000C00707D0D5F88800616820F00300084387
:100F5000C5F888002078800707D5D5F88800A168F3
:100F600020F00C000843C5F888002078400707D51A
:100F7000D5F88800E16820F030000843C5F8880003
:100F80002078000707D5D5F88800216920F0C00037
:100F90000843C5F888002078800607D5D5F8880072
:100FA000616920F440600843C5F888002078400655
:100FB00007D5D5F88800A16920F440500843C5F84A
:100FC00088002078000607D5D5F88800E16920F46C
:100FD00040400843C5F888002088C00507D5D5F8EB
:100FE0008800216A20F440300843C5F88800208832
:100FF000800507D5D5F88800616A20F440200843B1
:10100000C5F88800208840050FD5D5F88800A16A6A
:1010100020F440100843C5F88800A06AB0F5801F8E
:1010200003D1E86840F48010E860208800050FD5FF
:10103000D5F88800E16A20F440000843C5F888002C
:10104000E06AB0F5800F03D1E86840F48010E860F2
:101050002088C0040FD5D5F88800216B20F040709F
:101060000843C5F88800206BB0F1807F03D1E868A1
:1010700040F48010E86020884FF0006180040ED5B5
:10108000D5F88800626B20F040601043C5F88800F6
:10109000606B884203D1E86840F48010E8602088E3
:1010A00040040ED5D5F88800A26B20F040601043B4
:1010B000C5F88800A06B884203D1E86840F480102E
:1010C000E860208800040FD5D5F88800E16B20F097
:1010D00040500843C5F88800E06BB0F1805F03D151
:1010E000E86840F48030E8603046BDE8F8830000EE
:1010F00000100240007000402DE9F0470E46050048
:101100004FF0000725D0DFF8AC81D8F8000000F0E0
:101110000F00B0420CD2D8F8001021F00F0131437B
:10112000C8F80010D8F8000000F00F00B04210D14D
:101130002968614CC80741F2883A5AD06868DFF8DC
:101140007C91032808D0022820682DD04005002873
:101150002CDB0120BDE8F08720688001F9D5E0682C
:1011600000F00302E068C0F30310401C032A19D00A
:10117000534A00BFB2FBF0F0E268C2F306225043CC
:10118000E268C2F34162521C5200B0FBF2F04845E3
:1011900017D9A06810F0F00F0CD0880711D5A868F7
:1011A00040B10EE0474AE5E78003D0E700F092F84F
:1011B000484506D9A06820F0F00040F08000A0600B
:1011C0008027A068696820F003000843A060FFF74B
:1011D00051FD814606E000BFFFF74CFDA0EB090181
:1011E00051453AD8A068696800F00C00B0EB810F57
:1011F000F2D12868810714D5400703D5A06840F4D0
:10120000E060A0602878000705D5A06820F4605051
:1012100040F4E060A060A068A96820F0F0000843F6
:1012200004E0802F03D1A06820F0F000A060D8F87F
:101230000010404601F00F01B14216D9016821F0BB
:101240000F0131430160FFF715FD074607E000BFBE
:10125000FFF710FDC11B514501D903207AE7D8F8EB
:10126000000000F00F00B042F2D12878400705D509
:10127000A068E96820F4E0600843A06028780007CF
:1012800006D5A068296920F4605040EAC100A0603A
:1012900000F020F8A1680C4AC1F30311515C01F081
:1012A0001F01C8400949086009480068BDE8F047C7
:1012B000FFF7FEBC002002400010024000B4C4044E
:1012C0000024F40000366E01CC4600082C000020FB
:1012D00020000020184910B58868C0F38102174823
:1012E000012A0BD08A68164BC2F38102022A06D06B
:1012F0008A68C2F38102032A03D0002010BD184679
:1013000010BDCA6802F00304CA68C2F30312521C7B
:10131000032C02D0B0FBF2F001E0B3FBF2F0CA689C
:10132000C968C2F306225043C1F34161491C490018
:10133000B0FBF1F010BD0000001002400024F400EA
:1013400000366E012DE9F84304007AD02078FA4D7A
:10135000C00747D0A868E96800F00C0001F003015D
:101360000C2802D0082817D001E0032914D06068A7
:10137000B0F5803F17D0B0F5A02F286817D020F423
:1013800080302860286820F4802028606068E0B100
:10139000FFF770FC064614E02868800322D56068D9
:1013A0000028D2D01EE0286840F48030EDE740F4F9
:1013B00080202860F7E700BFFFF75CFC801B6428F3
:1013C00070D828688003F7D50CE0FFF753FC064679
:1013D00005E000BFFFF74EFC801B6428F0D82868AA
:1013E0008003F7D4207880074CD5A868E96800F01E
:1013F0000C0001F003010C2802D004280DD001E0FC
:1014000002290AD0E068002828682BD040F48070B8
:101410002860FFF72FFC064619E02868400502D532
:10142000E068002891D06868217C20F0FE4040EA06
:1014300001606860C1480068FFF73AFC002800D1ED
:1014400020E076E1FFF716FC801B0228B8D8286858
:101450004005F7D56868217C20F0FE4040EA016035
:1014600068600FE020F480702860FFF703FC0646F8
:1014700005E000BFFFF7FEFB801B0228A0D828680C
:101480004005F7D42078000729D560690028D5F8F1
:10149000940013D040F00100C5F89400FFF7EAFB78
:1014A000064606E090E000BFFFF7E4FB801B022841
:1014B00086D8D5F894008007F6D510E020F001001A
:1014C000C5F89400FFF7D6FB064604E0FFF7D2FB11
:1014D000801B022878D8D5F894008007F6D42078AD
:1014E000400761D5A86D0026C00008D4A86D40F063
:1014F0008050A865A86D012600F0805000909048AB
:101500000168C90511D40168804641F48071016009
:10151000FFF7B0FB074604E0FFF7ACFBC01B022857
:1015200052D8D8F80000C005F6D5A068012815D01B
:101530000528D5F8900016D020F00100C5F89000DD
:10154000D5F8900020F00400C5F89000A06841F2A2
:101550008838B8B1FFF78EFB07460EE0D5F890004B
:1015600040F00100F0E740F00400C5F89000F5E716
:10157000FFF780FBC11B414526D8D5F890008007B6
:10158000F6D50CE0FFF776FB074604E0FFF772FBA9
:10159000C11B414518D8D5F890008007F6D41EB17C
:1015A000A86D20F08050A8652078800629D5A06914
:1015B0000028D5F8980013D040F00100C5F8980035
:1015C000FFF758FB064606E077E000BFFFF752FB47
:1015D000801B022877D8D5F898008007F6D510E050
:1015E00020F00100C5F89800FFF744FB064604E030
:1015F000FFF740FB801B022865D8D5F898008007CC
:10160000F6D4E069F0B3A968C1F38101032961D080
:101610000228286820F0807028600BD0E86820F04D
:101620000300E860E86847490840E860FFF722FBEC
:1016300004464BE0FFF71EFB064604E0FFF71AFBEB
:10164000801B02283FD828688001F7D4F4E90801FC
:101650006FF00F0202EB01110843218A520449087E
:1016600002EB4151A26841EA02210843217D4FF07B
:101670007E42490802EB41610843217B40EAC16098
:10168000E96800E062E0304A11400843E8602868F9
:1016900040F080702860E86840F08070E860FFF7F4
:1016A000E9FA044605E000BFFFF7E4FA001B022850
:1016B00009D828688001F7D548E004E0FFF7DAFA96
:1016C000001B022802D90320BDE8F88328688001A6
:1016D000F4D43BE00128F7D0E868226A00F0030167
:1016E000914226D1616A00F0F0020901103991425D
:1016F0001FD1A26A00F4FE41B1EB022F19D194F878
:101700002C2000F07841B1EBC26F12D1218E00F491
:10171000C00249084905A1F50011914209D194F888
:10172000341000F0C06049084906A1F100718142FF
:101730000CD00120C8E7000000100240200000206B
:1017400000700040FFFFEEFE0C809F010020BBE711
:1017500010B500680B4641680D480140080CD87070
:10176000C1F304245C7001F03F049C70C1F342316A
:10177000197052B901F09FFBD870587801F09BFBAB
:101780005870987801F097FB9870002010BD000009
:101790003FFFFF0010B50B4601688968596001687A
:1017A0000969C1F30E019960006801680D480140A4
:1017B000C1F305401870C1F306245C7001F07F048A
:1017C0009C70890DD97052B901F075FB187058786A
:1017D00001F071FB5870987801F06DFB9870002053
:1017E00010BD00007F7F7F0070B504004FF0010046
:1017F00040D094F8250028B9002084F82400204621
:1018000000F03CF8022084F825002168CA204862D4
:10181000216853204862204601F062FB10BB20681B
:101820008169154A11408161216888696268A369EC
:10183000104322691A43104388612189E06840EA15
:10184000014021680861204601F06FFB50B9D4E9DE
:101850000721114322686369956925F060452B4390
:10186000194391612268FF215162002802D10121B0
:1018700084F8251070BD0000BFFF8FFB10B592B03B
:10188000044644216846FEF72FFE1049206888422E
:101890001AD14FF4002000904FF440701090684629
:1018A000FFF7E6FA08B1FFF7A3F8094850F8901FD0
:1018B00041F4004140F83819016841F48061016049
:1018C000006800F48060119012B010BD0028004044
:1018D0000010024070B5044690F824000B46012821
:1018E0001BD0012684F82460022084F82500B2B1C0
:1018F0009878D97840EA014558781978000240EA8A
:10190000413005432168CA2048622168532048625B
:10191000204601F0E5FAD0B120E0022070BD5878F1
:10192000C10603D500F0EF000A305870D87801F0F6
:10193000CBFA0504587801F0C7FA45EA00259878F3
:1019400001F0C2FA0543187845EA4035DAE708485D
:10195000054020684560204601F0E7FA2268FF2133
:10196000516208B984F82560002184F8241070BD04
:101970003FFFFF002DE9F041044690F82400904617
:101980000D46012811D0012784F82470022084F824
:1019900025002168CA2048622168532048622046F9
:1019A00001F09EFA002618B129E00220BDE8F0817E
:1019B0002068B8F1000F80694FEA406024D0002809
:1019C00000DBEE70A8782978EA7840EA014069786F
:1019D000090241EA82510843184908402168086019
:1019E0002068816921F480218161D5E903010843E0
:1019F00021688A6910438861204601F096FA2268BE
:101A0000FF215162A0B115E0002800DBEE702878BC
:101A100001F05AFA0304687801F056FA43EA002309
:101A2000A87801F051FA0343E87843EA8050D3E7FD
:101A300084F8257084F82460B8E700007F7F7F0079
:101A400070B504460068C16821F02001C160FFF74D
:101A500011F905464FF47A7607E000BFFFF70AF95F
:101A6000401BB04201D9032070BD2068C0688006C9
:101A7000F4D5002070BD10B5401EB0F1807F01D3B9
:101A8000012010BD4FF0E02460610F21601701F0CC
:101A9000F7FC0020A06107202061002010BD7047E6
:101AA00070477047F0B590F83C20012A4AD00122D7
:101AB00080F83C20CA688B6822F440721A434B6855
:101AC00022F480621A430B6822F400621A430B6905
:101AD00022F480521A434B6922F400521A430B6BD2
:101AE00022F480421A430B8B22F4702242EA034212
:101AF000154C03680026154DA34201D0AB4203D11B
:101B0000CF6922F080523A43A34201D0AB4214D1B4
:101B10000F8D22F4700242EA07520F6A22F080729F
:101B20003A434F6A22F000723A43A34201D0AB42DB
:101B300003D1C96A22F000520A435A6480F83C601B
:101B40000020F0BD0220F0BD002C01400034014017
:101B50007047704770470000F0B590F83C20012AAC
:101B60003AD0012580F83C50022280F83D200368DD
:101B70005A689C68194E1A4FB34201D0BB4204D137
:101B800022F4700C4A6842EA0C02DFF858C002EAFC
:101B90000C02D1F800C04CEA020CC3F804C0026881
:101BA000B2420DD0B2F1804F0AD00F4B9A4207D00B
:101BB0000E4B9A4204D0BA4202D00D4B9A4204D145
:101BC000896824F080031943916080F83D5000211A
:101BD00080F83C100846F0BD0220F0BD002C01400A
:101BE000003401408FFFFFFD00040040000800406A
:101BF00000400140704710B5040003D094F83D0048
:101C000010B107E0012010BD002084F83C00204600
:101C100000F022F8022084F83D00211D206801F028
:101C2000FBF9012084F8480084F83E0084F83F0066
:101C300084F8400084F8410084F8420084F84300AE
:101C400084F8440084F8450084F8460084F847008E
:101C500084F83D00002010BD30B587B00446142143
:101C60006846FEF741FC2468264D002326490222DF
:101C70004FF09040AC421ED18C6D44F002048C6554
:101C80008C6D04F002040594CC6C44F00104CC6427
:101C9000C96C01F00101059140218DE80E00CDE9EC
:101CA00003326946FEF7B8FE002203211D20FFF72C
:101CB00047F81D2021E0154DAC4220D10C6E44F4B4
:101CC00080240C660C6E04F480240594CC6C44F0E3
:101CD0000104CC64C96C01F00101059180218DE8FB
:101CE0000E000121CDE903316946FEF795FE002281
:101CF00003211A20FFF724F81A20FFF713F807B082
:101D000030BD0000000400400010024000480140C7
:101D100070B5044690F83C000025012814D0012637
:101D200084F83C60022084F83D0022689068364BBD
:101D3000184020F47F409060086870282ED010DC96
:101D400010F00F0F03D021E04FF0020070BD4FEAFA
:101D50002012072A1AD2DFE802F0525252524A38B1
:101D600040002A4BC21A984249D009DCB0F5805F86
:101D70000DD0B0F5005F1CD0B0F1101F06D13EE0D1
:101D8000102A3CD0202A3AD0502A38D0012584F895
:101D90003D60002084F83C00284670BDCB68D1E946
:101DA0000121206801F09DF92068816841F07701E8
:101DB00009E0CB68D1E90121206801F092F920689F
:101DC000816841F480418160E1E7CA684968206820
:101DD00001F032FB5021206806E0CA68496820689B
:101DE00001F03BFB6021206801F086F9CFE7CA686B
:101DF0004968206801F020FB40212068F4E7226850
:101E000001461046F0E7000088FFCEFF20001000DA
:101E1000704770B50446006801694FF00005C9437A
:101E2000890715D4C168C943890711D4E91E016126
:101E300001202077206880698007204602D0FFF7C4
:101E4000E7FF04E000F0E3F8204600F0A5F925776D
:101E500020680169C943490717D4C168C9434907C4
:101E600013D46FF00401016102202077206880699B
:101E700010F4407F204602D0FFF7CAFF04E000F0D4
:101E8000C6F8204600F088F9257720680169C94323
:101E9000090716D4C168C943090712D46FF00801B5
:101EA0000161042020772068C0698007204602D0A5
:101EB000FFF7AEFF04E000F0AAF8204600F06CF94E
:101EC000257720680169C943C90617D4C168C94389
:101ED000C90613D46FF01001016108202077206833
:101EE000C06910F4407F204602D0FFF791FF04E064
:101EF00000F08DF8204600F04FF925772068016941
:101F0000C943C90708D1C168C943C90704D1891E9B
:101F10000161204600F016FA20680169C9430906EC
:101F200009D4C168C943090605D46FF08001016175
:101F30002046FFF7B5FD20680169C943C90509D4EA
:101F4000C168C943090605D46FF480710161204658
:101F5000FFF7A5FD20680169C943490609D4C16896
:101F6000C943490605D46FF040010161204600F0E5
:101F7000EAF920680169C943890609D4C168C943DF
:101F8000890605D46FF0200101612046FFF789FD25
:101F900020680169C943C90209D4C168C943C9029B
:101FA00005D46FF4801101612046FFF7D2FD20684F
:101FB0000169C943890209D4C168C943890205D4AA
:101FC0006FF4001101612046FFF7C2FD206801692E
:101FD000C943490209D4C168C943490205D46FF411
:101FE000800101612046FFF7B5FD20680169C94302
:101FF00009020BD4C168C943090207D46FF4000178
:1020000001612046BDE87040FFF7F4BD70BD704728
:1020100070B5044690F83C0000260D4601280BD010
:10202000012084F83C000C2A4AD007DC82B1042A43
:1020300020D0082A06D131E0022070BD102A53D0EA
:10204000142A63D00126002084F83C00304670BD7D
:10205000206801F05BF82068816941F00801816126
:102060002068816921F004018161206881692A6901
:10207000114311E0206801F097F82068816941F46C
:10208000006181612068816921F48061816120683B
:1020900081692A6941EA02218161D4E7206801F05F
:1020A000CBF82068C16941F00801C1612068C169AD
:1020B00021F00401C1612068C1692A69114311E05E
:1020C000206801F001F92068C16941F40061C16133
:1020D0002068C16921F48061C1612068C1692A69F1
:1020E00041EA0221C161AEE7206801F035F92068BC
:1020F000016D41F0080101652068016D21F00401C6
:1021000001652068016D2A69114311E0206801F022
:102110005BF92068016D41F4006101652068016D83
:1021200021F4806101652068016D2A6941EA02217C
:10213000016588E710B5040003D094F83D0010B1A4
:1021400007E0012010BD002084F83C00204600F08C
:1021500022F8022084F83D00211D206800F05CFF79
:10216000012084F8480084F83E0084F83F0084F899
:10217000400084F8410084F8420084F8430084F869
:10218000440084F8450084F8460084F8470084F849
:102190003D00002010BD70477047000030B5044678
:1021A000022269B1042912D0082917D00C291CD0A9
:1021B000102921D094F84300012824D0012030BDFB
:1021C00094F83E000128F9D184F83E201DE094F8EF
:1021D0003F000128F2D184F83F2016E094F8400037
:1021E0000128EBD184F840200FE094F84100012849
:1021F000E4D184F8412008E094F842000128DDD1C0
:1022000084F8422001E084F843200122206800F095
:102210005BFF194B20681949194A984209D0884236
:1022200007D0904205D0174DA84202D0164DA842C3
:1022300003D1456C45F400454564206898420CD0B4
:10224000B0F1804F09D0114B984206D0104B984204
:1022500003D0884201D0904207D181680D4A1140D5
:10226000062906D0B1F5803F03D0016841F0010195
:102270000160002030BD0000002C0140003401400E
:10228000004001400044014000480140000400407B
:10229000000800400700010030B504460D46006804
:1022A000002200F011FF224B41F2111120688A0038
:1022B00098420BD01F4B984208D01F4B984205D034
:1022C0001E4B984202D01E4B984209D1036A0B4222
:1022D00006D1036A134203D1436C23F400434364E1
:1022E0002068036A0B4206D1016A114203D10168DA
:1022F00021F00101016001205DB1042D0CD0082DF9
:102300000DD00C2D0ED0102D0FD084F843000020DE
:1023100030BD84F83E00FAE784F83F00F7E784F820
:102320004000F4E784F84100F1E784F84200EEE76A
:10233000002C0140003401400040014000440140B5
:102340000048014070477047FEE7000070B5214D1E
:102350002868214CE168401A322839D92868E060A1
:1023600000F03CF8A070217920EA0101E1702071B1
:10237000A2792ABB012906D002290BD0032911D04A
:1023800004291DD115E02178012919D0E17941F006
:10239000010105E02178022912D0E17941F0020122
:1023A000E1710DE0217803290AD0E17941F00401BF
:1023B000F6E72178042903D0E17941F00801EFE73D
:1023C00008B128682061E079BDE8704000F06ABA81
:1023D00070BD0000280000200800002070B50E4DE0
:1023E000002401212846FEF73BFC00B9012402210C
:1023F0002846FEF735FC00B9022404212846FEF7E2
:102400002FFC00B9032401214FF09040FEF728FC77
:1024100000B90424204670BD0004004800B585B012
:1024200014216846FEF760F84FF6FF700090002018
:102430000321CDE90201019069460248FEF7ECFA5A
:1024400005B000BD0008004800B585B014216846FD
:10245000FEF74AF84FF6FF7000900120019003202C
:1024600003900020029069460248FEF7D5FA05B0B5
:1024700000BD00000008004870B500240646214653
:10248000204600F003F900F041F94FF4963530464C
:1024900000F010F9641CAC42F9D370BD30B587B0C0
:1024A00014216846FEF720F81E48C16C41F0040173
:1024B000C164C16C01F004010591C16C41F00101DE
:1024C000C164C16C01F001010591C16C41F00201D0
:1024D000C164C06C012500F0020005904FF4487003
:1024E000CDE9000500240394694602940E48FEF7E6
:1024F00093FA280203940090CDE901544FF09044E0
:1025000069462046FEF788FAFFF79EFFA06940F46F
:102510008070A06104481830016841F408710160BE
:1025200007B030BD0010024000040048203AD2B28B
:10253000034B02EB420203EB021200F019B8000059
:10254000FC340008F0B50E460746002540F23F1463
:1025500007E021463846FFF7E9FF103C6D1CA4B2A6
:10256000761C3278002A01D0142DF2D3F0BD000081
:102570002DE9F04791468A460026044600F086F889
:10258000DFF84080012700BF00F0C0F85FF00005D1
:1025900039F8160007FA05F10842404601D1408893
:1025A00000E0008800F086F86D1C102DF0D3641C4C
:1025B000E4B25146204600F069F8761C182EE3D3A9
:1025C000BDE8F0870000002010B5FFF767FF00208E
:1025D00000F014F8084CA080A088A0F50241303922
:1025E00006D000F067FB002000F008F8A08010BDC6
:1025F00000F0D7FAF7E700000000002070B51D4991
:102600000A6842F400720A600A6842F480720A6042
:10261000184C103C226842F020022260164A1060DA
:10262000086840F02000086000BF00BF00BF2068BD
:1026300040F020002060206840F480702060FFF7A8
:10264000EDFE4FF09041886A40F48070886200BFD0
:1026500000BF00BF0848001F006885B2886940F4C9
:1026600080708861FFF7F0FE206840F40070206001
:10267000284670BD280400481408004801B5BDF87C
:1026800000000149488008BD0000002010B50C463C
:102690000146202000F068F82146BDE810402120C6
:1026A00000F062B801B5BDF800000149088008BD1E
:1026B00000000020134A116841F4007111601149B3
:1026C00010390B6843F480730B600B6843F02003F0
:1026D0000B600D4B1860106840F02000106000BFC8
:1026E00000BF00BF086840F020000860086840F4A0
:1026F0008070086000BF00BF00BF086840F4007031
:102700000860704728040048140800481449086805
:1027100040F400700860086840F480700860104859
:102720001038026842F0200202600E4B22221A602A
:102730000A6842F020020A6000BF00BF00BF0168C3
:1027400041F020010160016841F48071016000BF27
:1027500000BF00BF016841F40071016070470000D4
:102760002804004814080048184B10B51A6842F4B1
:1027700000721A601A6842F480721A60134A103AA2
:10278000146844F020041460114C2060186840F074
:102790002000186000BF00BF00BF106840F020009C
:1027A0001060106840F4807010602160186840F07C
:1027B0002000186000BF00BF00BF106840F020007C
:1027C0001060106840F48070106010BD280400484C
:1027D0001408004838B51B4801681B4CA268891AC8
:1027E00064292ED90068A06018A11E48FDF768FD75
:1027F0001C493020FFF7A6FE22781BA11948FDF7DF
:102800005FFD18496020FFF79DFE16490022183130
:102810001C48FEF7BFFF002204F114011948FEF71F
:1028200097FF10481830817800914378027816A1FC
:102830001838FDF745FDBDE838400A499020FFF7FC
:1028400081BE38BD280000200800002020204375EC
:102850007272656E7420506C6174666F726D2020A8
:102860000000000030000020202020202020202018
:1028700020202531752020202020202020202020ED
:10288000000000005C0000202020202020202530B7
:1028900032752D253032752D2530327520202020BF
:1028A0002000000070B5124D044601224FF47F4114
:1028B0002846FEF7DAF90F4E012204213046FEF7D2
:1028C000D4F9002204213046FEF7CFF9210200227C
:1028D0002846FEF7CAF9012204213046FEF7C5F961
:1028E0003046BDE8704000220421FEF7BEB900006A
:1028F00000080048000C0048F0B587B01421684675
:10290000FDF7F2FD2D48C16C41F00401C164C16CBA
:1029100001F004010591C16C41F02001C164C16C5A
:1029200001F020010591C16C41F00101C164C16C4D
:1029300001F001010591C16C41F00201C164C16C5B
:1029400001F002010591C16C41F00801C164C06C45
:102950001B4E00F008004FF47F44059001222146F1
:102960003046FEF782F9174F002204213846FEF761
:102970007CF90125CDE900450024029469463046E2
:102980000394FEF749F8CDE9005469464FF09040B2
:102990000294FEF741F80720CDE9000469460A4891
:1029A0000294FEF739F804200090CDE901546946FD
:1029B00038460394FEF730F807B0F0BD001002402F
:1029C00000080048000C00480004004810B586B01C
:1029D00014216846FDF788FD214800241F4905940D
:1029E000C0E900147D21816041F27071C0E90314D7
:1029F0004FF080414461C0E906410462FEF7F4FEF5
:102A000008B1FDF7F5FF15208DF8000010208DF8B6
:102A1000010005208DF8020001940394012269460B
:102A20000F480494FEF7A6FF08B1FDF7E1FF03206D
:102A30008DF8140009208DF8150001208DF816007E
:102A400021208DF81700012205A90548FEF742FF55
:102A5000002801D0FDF7CCFF06B010BD00280040D3
:102A60005C00002010B594B01C210DA8FDF73CFDC2
:102A700034216846FDF738FD20481F4900240160D5
:102A80004F21C0E901144FF4FA71C0E90314802109
:102A9000C0E90541FFF7AFF808B1FDF7A9FF1748F6
:102AA000FFF748FB08B1FDF7A3FF60200D9040F24F
:102AB0002B10CDE90E0410941194129400220DA94C
:102AC0000E481394FFF7A4FA08B1FDF791FF0094A4
:102AD0004FF40050CDE9044001940294039406940D
:102AE000694606480C94FEF7DDFF002801D0FDF78B
:102AF0007FFF14B010BD000000480140D00000204E
:102B000010B58EB000240794089409940A940B948D
:102B10000C941C2168460D94FDF7E6FC1E481D49E7
:102B200001604F21C0E9011440F2E731C0E903140C
:102B300080218161FFF75FF808B1FDF759FF4FF47D
:102B40008050079007A91448FFF7E2F808B1FDF795
:102B50004FFF1148FFF7EEFA08B1FDF749FF0B945C
:102B60000BA90D480D94FEF7F7FF08B1FDF740FFE4
:102B7000602000904FF49670CDE901040022694670
:102B800005480494FFF744FA002801D0FDF730FF10
:102B90000EB010BD0004004084000020FEE7FEE7F8
:102BA000704730B501210020FFF7DEFD4FF47A7049
:102BB000FDF777FD00210120FFF7D6FD41F290716E
:102BC0001020FFF7D1FD4FF41C516020FFF7CCFD22
:102BD00001216120FFF7C8FD02214620FFF7C4FD57
:102BE00048F210011320FFF7BFFD48F2FE0112204A
:102BF000FFF7BAFD4FF4A0610220FFF7B5FD41F2E7
:102C000030010320FFF7B0FD40F2033421463020AD
:102C1000FFF7AAFD21463120FFF7A6FD214632200D
:102C2000FFF7A2FDE51E29463320FFF79DFD032196
:102C30003420FFF799FD21463520FFF795FD14213B
:102C40003620FFF791FD21463720FFF78DFD214605
:102C50003820FFF789FD21463920FFF785FD2946F9
:102C60003A20FFF781FD03213B20FFF77DFD214640
:102C70003C20FFF779FD4FF4A0513D20FFF774FD94
:102C80004FF400719220FFF76FFD21469320FFF76C
:102C90006BFD40F60D019020FFF766FD41F2180133
:102CA0000320FFF761FDBDE8304040F273110720BB
:102CB000FFF75ABD10B543F20801E320FFF754FDBA
:102CC0001221E720FFF750FD41F23121EF20FFF7FD
:102CD0004BFD00210120FFF747FD4FF4E06102208A
:102CE000FFF742FD41F230010320FFF73DFD0021D7
:102CF0000420FFF739FD40F207210820FFF734FDDB
:102D000000210920FFF730FD00210A20FFF72CFDEC
:102D100000210C20FFF728FD00210D20FFF724FDE6
:102D200000210F20FFF720FD00211020FFF71CFDE0
:102D300007211120FFF718FD00211220FFF714FDD5
:102D400000211320FFF710FDC820FDF753FE41F2CC
:102D500090611020FFF708FD40F227211120FFF7B6
:102D600003FD3220FDF746FE1D211220FFF7FCFC7B
:102D70003220FDF73FFE4FF400611320FFF7F4FC13
:102D800014212920FFF7F0FC0B212B20FFF7ECFC8E
:102D90003220FDF72FFE00212020FFF7E5FC002167
:102DA0002120FFF7E1FC07213020FFF7DDFC40F296
:102DB00007713120FFF7D8FC06213220FFF7D4FC41
:102DC00040F204713520FFF7CFFC41F60471362044
:102DD000FFF7CAFC04213720FFF7C6FC002138208A
:102DE000FFF7C2FC40F206713920FFF7BDFC40F24C
:102DF00001713C20FFF7B8FC0F213D20FFF7B4FC28
:102E000000215020FFF7B0FCEF215120FFF7ACFC70
:102E100000215220FFF7A8FC40F23F115320FFF79A
:102E2000A3FC4FF41C516020FFF79EFC01216120A0
:102E3000FFF79AFC00216A20FFF796FC0021802012
:102E4000FFF792FC00218120FFF78EFC00218220F9
:102E5000FFF78AFC00218320FFF786FC00218420F5
:102E6000FFF782FC00218520FFF77EFC10219020D7
:102E7000FFF77AFC00219220FFF776FC03219320D4
:102E8000FFF772FC4FF488719520FFF76DFC00216D
:102E90009720FFF769FC00219820FFF765FC41F2BD
:102EA00018010320FFF760FCBDE8104040F27311E9
:102EB0000720FFF759BC010901EB810100F00F0069
:102EC00000EB4100C0B270470022014602E00A391F
:102ED000C9B2521C0A29FAD2100741EA10607047A1
:102EE0002DE9F041044600680025C168490619D45F
:102EF000C16841F08001C160FDF7BCFE06464FF499
:102F00007A78032708E000BFFDF7B4FE801B404538
:102F100002D9032584F825702068C068400601D4D2
:102F2000032DF1D12846BDE8F08170B50446006854
:102F30000025C16821F08001C160206881694FF0DF
:102F40000306890607D42046FEF77AFD98B184F877
:102F5000256003250FE0816921F020018161204671
:102F6000FEF76EFD10B184F82560032520688169A5
:102F700041F020018161284670BD7047FDF780BE99
:102F800010B594B038216846FDF7AEFA14210EA8AA
:102F9000FDF7AAFA4FF40070FDF704FF03244FF485
:102FA0008030CDE9004000120390402004900220C0
:102FB0000121CDE908010A21CDE90A1007900C9002
:102FC0000D906846FEF7BEF908B172B6FEE70F2015
:102FD000CDE90E04002010901190129002210EA84D
:102FE000FEF78AF8002801D072B6FEE714B010BDD3
:102FF0000248016841F470010160704788ED00E00B
:103000000148FEF706BF0000D00000200148FEF78F
:1030100000BF0000840000202DE9F0430268234B2C
:10302000234D244E244C4FF08049984207D0484508
:1030300005D0A84203D0B04201D0A04203D122F073
:1030400070074A683A431D4FDFF874C0DFF8748098
:1030500098420DD048450BD0A84209D0B04207D0C5
:10306000A04205D0B84203D0604501D0404503D10D
:1030700022F44075CA682A434D6922F080022A432F
:1030800002608A68C2620A688262984207D0A042DF
:1030900005D0B84203D0604501D0404501D109694F
:1030A000016301214161BDE8F0830000002C014073
:1030B000000400400008004000340140004001408E
:1030C000004401400048014010B501F01F030121F8
:1030D000046A99408C430462016A9A401143016278
:1030E00010BD10B5846842EA032224F47F440A43E9
:1030F0002243826010BD00008268034B1A400A43DD
:1031000042F00701816070478FFFCFFF2DE9F04348
:10311000026A22F001020262056A436882691C4C5D
:1031200025F0020522400C6822F0030214438A684D
:10313000194E2A43174D194FDFF864C0DFF8649029
:10314000A84207D0B04205D0B84203D0604501D0B4
:10315000484506D122F00808CA6842EA080222F06F
:103160000402A84207D0B04205D0B84203D060455F
:1031700001D0484505D14D6923F440731D438B6947
:103180002B4343608461496841630262BDE8F08378
:103190008FFFFEFF002C0140003401400040014041
:1031A0000044014000480140F0B5026A22F01002DC
:1031B0000262056A42688369194C1B4E23400C6801
:1031C00023F4407343EA042425F020038D6843EA86
:1031D0000513144DA84201D0B04206D1CF6823F0A8
:1031E000800343EA071323F04003A8420AD0B04209
:1031F00008D00E4DA84205D00D4DA84202D00D4D6D
:10320000A84207D14D6922F4406242EA85028D69E5
:1032100042EA850242608461496881630362F0BDCD
:10322000FF8FFFFE002C01400034014000400140B0
:103230000044014000480140F0B5026A22F4807267
:103240000262056A4368C269194C1B4E22400C6831
:1032500022F00302144325F400728D6842EA05222D
:10326000144DA84201D0B04206D1CF6822F40062CA
:1032700042EA072222F48062A8420AD0B04208D073
:103280000E4DA84205D00E4DA84202D00D4DA842C9
:1032900007D14D6923F4405343EA05138D6943EA8E
:1032A00005134360C4614968C1630262F0BD000058
:1032B0008FFFFEFF002C0140003401400040014020
:1032C0000044014000480140F0B5026A22F48052F7
:1032D0000262056A4268C369194C1B4E23400C68A0
:1032E00023F4407343EA042425F400538D6843EA31
:1032F0000533144DA84201D0B04206D1CF6823F463
:10330000004343EA073323F48043A8420AD0B04283
:1033100008D00E4DA84205D00D4DA84202D00D4D4B
:10332000A84207D14D6922F4404242EA85128D69D4
:1033300042EA85124260C461496801640362F0BDDB
:10334000FF8FFFFE002C014000340140004001408F
:10335000004401400048014030B5026A22F4803246
:103360000262046A4268036D114D2B400D681D43D3
:1033700024F400330C8943EA04430E4CA0420BD0E2
:103380000D4CA04208D00D4CA04205D00C4CA042E0
:1033900002D00C4CA04204D14C6922F4803242EAA3
:1033A00004224260056549688164036230BD000003
:1033B0008FFFFEFF002C014000340140004001401F
:1033C000004401400048014030B5026A22F48012F6
:1033D0000262046A4268036D114D24F400142B400C
:1033E0000D6843EA05230D8944EA05540D4DA842B2
:1033F0000BD00D4DA84208D00C4DA84205D00C4D65
:10340000A84202D00B4DA84204D14D6922F480227B
:1034100042EA8522426003654968C164046230BDA6
:10342000FF8FFFFE002C01400034014000400140AE
:10343000004401400048014010B5036A046A24F0CA
:1034400001040462846924F0F00444EA021423F0C5
:103450000A020A438461026210BD10B5036A23F0B8
:10346000100303628369046A23F4704343EA02325F
:1034700024F0A00343EA01118261016210BDFEE75E
:103480000907090E002804DB00F1E02080F8001491
:10349000704700F00F0000F1E02080F8141D704725
:1034A00030380A2801D20120704700207047000000
:1034B000FDF7EEFBFFF764FDFFF71EFAFFF720FBB9
:1034C000FFF7D0FAFFF782FAFFF77EF84FF6FF74A6
:1034D0002046FEF7D1FF2046FFF7D0F80020FFF787
:1034E000E1F800BFFEF732FFFFF774F9FDF7E8F8E7
:1034F000F8E74FF04070E1EE100A7047000000005E
:1035000000000000000000000000000000000000BB
:1035100000000000000000000000000000000000AB
:10352000000000000000000000000000000080011A
:103530008001800180018001800180018001800183
:103540008001800180018001000000008001800175
:10355000000000000000000000000000000000006B
:10356000CC00CC00CC00CC00CC00CC000000000093
:10357000000000000000000000000000000000004B
:10358000000000000000000000000000000000003B
:103590000000000000000000600C600C600C3006B1
:1035A0003006FE1FFE1F300638071803FE1FFE1FE1
:1035B000180318038C018C018C01000000008000AE
:1035C000E003F80F9C0E8C1C8C188C009800F801FE
:1035D000E007800E801C8C188C189C18B80CF00F1B
:1035E000E0038000800000000000000000000000F8
:1035F00000000E181B0C110C11061106110311030B
:103600009B018E01C038C06C60446044304430443B
:103610001844186C0C380000000000000000E001A5
:10362000F0033807180618063003F001F000F80020
:103630009C310E33061E061C061C063FFC73F0214F
:10364000000000000000000000000000000000007A
:103650000C000C000C000C000C000C000000000022
:10366000000000000000000000000000000000005A
:103670000000000000000000000000000000000248
:1036800000038001C000C000600060003000300016
:10369000300030003000300030003000600060004A
:1036A000C000C000800100030002000000002000F4
:1036B0006000C000800180010003000300060006D6
:1036C00000060006000600060006000600030003D0
:1036D00080018001C00060002000000000000000A8
:1036E0000000000000000000C000C000D806F8077D
:1036F000E001300338070000000000000000000077
:1037000000000000000000000000000000000000B9
:1037100000000000000000008001800180018001A5
:103720008001FC3FFC3F800180018001800180011D
:103730000000000000000000000000000000000089
:103740000000000000000000000000000000000079
:1037500000000000000000000000000000008001E8
:103760008001000100018000000000000000000056
:103770000000000000000000000000000000000049
:1037800000000000E007E00700000000000000006B
:103790000000000000000000000000000000000029
:1037A0000000000000000000000000000000000019
:1037B0000000000000000000000000000000C00049
:1037C000C000000000000000000000000000000C2D
:1037D000000C00060006000600030003000380033F
:1037E000800180018001C000C000C0006000600056
:1037F0000000000000000000000000000000E003E6
:10380000F007380E180C0C180C180C180C180C18A3
:103810000C180C180C180C18180C380EF007E003D4
:103820000000000000000000000000000000000197
:103830008001C001F00198018801800180018001B0
:103840008001800180018001800180018001800170
:103850000000000000000000000000000000E00385
:10386000F80F180C0C180C1800180018000C0006A3
:1038700000038001C000600030001800FC1FFC1F26
:103880000000000000000000000000000000E00157
:10389000F807180E0C0C0C0C000C0006C003C00737
:1038A000000C001800180C180C18180CF807E0038E
:1038B0000000000000000000000000000000000CFC
:1038C000000E000F000F800DC00C600C600C300C5F
:1038D000180C0C0CFC3FFC3F000C000C000C000C06
:1038E0000000000000000000000000000000F80FD1
:1038F000F80F180018000C00EC03FC071C0E001C4D
:103900000018001800180C181C0C180EF807E0031B
:103910000000000000000000000000000000C007E0
:10392000F00F381C181818000C00CC03EC0F3C0EDC
:103930001C1C0C180C180C18181C380EF007E0038F
:103940000000000000000000000000000000FC1F5C
:10395000FC1F000C00060006000380038001C0016C
:10396000C000E000600060007000300030003000F7
:103970000000000000000000000000000000E00364
:10398000F007380E180C180C180C3806F007F00762
:10399000180C0C180C180C180C18380CF80FE00345
:1039A0000000000000000000000000000000E00334
:1039B000F007380E1C0C0C180C180C181C1C381EA8
:1039C000F81BE0190018000C000C1C0EF807F001A1
:1039D00000000000000000000000000000000000E7
:1039E00000000000000000008001800100000000D5
:1039F00000000000000000000000000080018001C5
:103A000000000000000000000000000000000000B6
:103A100000000000000000008001800100000000A4
:103A20000000000000000000000000008001800194
:103A30000001000180000000000000000000000004
:103A40000000000000000000000000000010001C4A
:103A5000800FE003F8001800F800E003800F001C5E
:103A60000010000000000000000000000000000046
:103A7000000000000000000000000000F81F00002F
:103A800000000000F81F000000000000000000001F
:103A90000000000000000000000000000000000026
:103AA00000000000000000000000000008003800D6
:103AB000F001C007001F0018001FC007F001380008
:103AC0000800000000000000000000000000E0030B
:103AD000F80F180C0C180C180018000C0006000346
:103AE0008001C000C000C00000000000C000C00095
:103AF00000000000000000000000000000000000C6
:103B0000E00718180420C229224A11440944094434
:103B1000094409221113E20C024004201818E0079E
:103B20000000000000000000000000000000800312
:103B30008003C006C006C006600C600C3018301848
:103B40003018F83FF83F1C700C600C6006C006C0CF
:103B50000000000000000000000000000000FC0366
:103B6000FC0F0C0C0C180C180C180C0CFC07FC0FA0
:103B70000C180C300C300C300C300C18FC1FFC07EF
:103B80000000000000000000000000000000C0076E
:103B9000F01F38381C300C70066006000600060066
:103BA00006000600060006600C701C30F01FE007DF
:103BB0000000000000000000000000000000FE0304
:103BC000FE0F060E061806180630063006300630C0
:103BD00006300630063006180618060EFE0FFE03E5
:103BE0000000000000000000000000000000FC3F9A
:103BF000FC3F0C000C000C000C000C00FC1FFC1F18
:103C00000C000C000C000C000C000C00FC3FFC3FF6
:103C10000000000000000000000000000000F83F6D
:103C2000F83F18001800180018001800F81FF81FB7
:103C300018001800180018001800180018001800C4
:103C40000000000000000000000000000000E00F85
:103C5000F83F3C780E6006E007C00300030003FE57
:103C600003FE03C007C006C00EC03CF0F83FE00FE3
:103C700000000000000000000000000000000C3008
:103C80000C300C300C300C300C300C30FC3FFC3F56
:103C90000C300C300C300C300C300C300C300C3044
:103CA0000000000000000000000000000000800193
:103CB00080018001800180018001800180018001FC
:103CC00080018001800180018001800180018001EC
:103CD00000000000000000000000000000000006DE
:103CE00000060006000600060006000600060006A4
:103CF000000600060006180618063807F003E00163
:103D0000000000000000000000000000000006307D
:103D10000618060C060606038601C6006600760035
:103D2000DE008E0106030606060C06180630066045
:103D3000000000000000000000000000000018006B
:103D400018001800180018001800180018001800B3
:103D5000180018001800180018001800F81FF81FA5
:103D600000000000000000000000000000000EE065
:103D70001EF01EF01EF036D836D836D836D866CCAF
:103D800066CC66CCC6C6C6C6C6C6C6C686C386C30D
:103D900000000000000000000000000000000C30E7
:103DA0001C303C303C306C306C30CC30CC308C3102
:103DB0000C330C330C360C360C3C0C3C0C380C30F1
:103DC0000000000000000000000000000000E0070C
:103DD000F81F1C380E70066003C003C003C003C088
:103DE00003C003C003C006600E701C38F81FE00754
:103DF0000000000000000000000000000000FC0FB8
:103E0000FC1F0C380C300C300C300C300C18FC1F24
:103E1000FC070C000C000C000C000C000C000C004B
:103E20000000000000000000000000000000E007AB
:103E3000F81F1C380E70066003E003C003C003C007
:103E400003C003C007E006630E3F1C3CF83FE0F7E9
:103E500000C0000000000000000000000000FE0F95
:103E6000FE1F06380630063006300638FE1FFE07F5
:103E700006030606060C061806180630063006600D
:103E80000000000000000000000000000000E0034F
:103E9000F80F1C0C0C180C180C001C00F803E00F99
:103EA000001E0038063006300E301C1CF80FE007EC
:103EB0000000000000000000000000000000FE7F85
:103EC000FE7F8001800180018001800180018001EE
:103ED00080018001800180018001800180018001DA
:103EE00000000000000000000000000000000C3096
:103EF0000C300C300C300C300C300C300C300C30E2
:103F00000C300C300C300C300C301818F81FE00757
:103F1000000000000000000000000000000003603E
:103F20000630063006300C180C180C18180C180C3B
:103F3000380E30063006700760036003C001C00110
:103F4000000000000000000000000000000003600E
:103F5000C361C361C36166336633663366336633F8
:103F600066336C1B6C1B6C1B2C1A3C1E380E380EF7
:103F700000000000000000000000000000000FE052
:103F80000C7018303018700C600EC007800380036E
:103F9000C003E006700C301C18180C300E6007E0EF
:103FA000000000000000000000000000000003C04E
:103FB00006600C301C383818300C6006E007C0036F
:103FC00080018001800180018001800180018001E9
:103FD0000000000000000000000000000000FC7F66
:103FE000FC7F006000300018000C00060003800118
:103FF000C0006000300018000C000600FE7FFE7F4D
:104000000000000000000000000000000000E003CD
:10401000E00360006000600060006000600060001D
:104020006000600060006000600060006000600090
:10403000600060006000E003E0030000000030006A
:104040003000600060006000C000C000C000C0011F
:1040500080018001800100030003000300060006C8
:104060000000000000000000000000000000E0036D
:10407000E003000300030003000300030003000348
:104080000003000300030003000300030003000318
:10409000000300030003E003E00300000000000051
:1040A000C001C00160036003600330063006180CD5
:1040B000180C0000000000000000000000000000DC
:1040C00000000000000000000000000000000000F0
:1040D00000000000000000000000000000000000E0
:1040E0000000000000000000000000000000FFFFD2
:1040F000FFFF0000000000000000000000000C00B6
:104100000C000C000C000C000C0000000000000073
:10411000000000000000000000000000000000009F
:10412000000000000000000000000000000000008F
:104130000000000000000000F003F8071C0C0C0C4D
:10414000000FF00FF80C0C0C0C0C1C0FF80FF018F3
:104150000000000000000000000000000000180047
:104160001800180018001800D803F80F380C181899
:1041700018181818181818181818380CF80FD80329
:10418000000000000000000000000000000000002F
:104190000000000000000000C003F007300E180C03
:1041A0001800180018001800180C300EF007C00393
:1041B00000000000000000000000000000000018E7
:1041C0000018001800180018C01BF01F301C181829
:1041D00018181818181818181818301CF01FC01BB9
:1041E00000000000000000000000000000000000CF
:1041F0000000000000000000C003F00F300C181891
:10420000F81FF81F180018003818301CF00FC007EE
:104210000000000000000000000000000000800F0F
:10422000C00FC000C000C000F007F007C000C00011
:10423000C000C000C000C000C000C000C000C0007E
:10424000000000000000000000000000000000006E
:104250000000000000000000E00DF80F180E0C0C2C
:104260000C0C0C0C0C0C0C0C0C0C180EF80FE00DBC
:10427000000C0C0C1C06F807F001000000001800F0
:104280001800180018001800D807F80F381C181864
:10429000181818181818181818181818181818189E
:1042A0000000000000000000000000000000C0004E
:1042B000C000000000000000C000C000C000C0003E
:1042C000C000C000C000C000C000C000C000C000EE
:1042D0000000000000000000000000000000C0001E
:1042E000C000000000000000C000C000C000C0000E
:1042F000C000C000C000C000C000C000C000C000BE
:10430000C000C000C000F8007800000000000C00F1
:104310000C000C000C000C000C0C0C060C038C01A7
:10432000CC006C00FC009C018C030C030C060C0CF4
:104330000000000000000000000000000000C000BD
:10434000C000C000C000C000C000C000C000C0006D
:10435000C000C000C000C000C000C000C000C0005D
:10436000000000000000000000000000000000004D
:1043700000000000000000007C3CFF7EC7E383C11A
:1043800083C183C183C183C183C183C183C183C10D
:10439000000000000000000000000000000000001D
:1043A00000000000000000009807F80F381C1818E3
:1043B000181818181818181818181818181818187D
:1043C00000000000000000000000000000000000ED
:1043D0000000000000000000C003F00F300C1818AF
:1043E00018181818181818181818300CF00FC003DF
:1043F00000000000000000000000000000000000BD
:104400000000000000000000D803F80F380C181856
:1044100018181818181818181818380CF80FD80386
:104420001800180018001800180000000000000014
:104430000000000000000000C01BF01F301C181816
:1044400018181818181818181818301CF01FC01B46
:1044500000180018001800180018000000000000E4
:104460000000000000000000B007F0037000300002
:1044700030003000300030003000300030003000BC
:10448000000000000000000000000000000000002C
:104490000000000000000000E003F003380E180CDC
:1044A0003800F003C007000C180C380EF007E003CA
:1044B00000000000000000000000000000000000FC
:1044C0008000C000C000C000F007F007C000C000BE
:1044D000C000C000C000C000C000C000C00780070E
:1044E00000000000000000000000000000000000CC
:1044F00000000000000000001818181818181818FC
:1045000018181818181818181818381CF01FE0195F
:10451000000000000000000000000000000000009B
:1045200000000000000000000C18180C180C180CFB
:10453000300630063006600360036003C001C0012E
:10454000000000000000000000000000000000006B
:104550000000000000000000C141C141C36163636D
:10456000636363633636363636361C1C1C1C1C1CD3
:10457000000000000000000000000000000000003B
:1045800000000000000000001C38381C300C6006E1
:1045900060036003600360036006300C381C1C3845
:1045A000000000000000000000000000000000000B
:1045B000000000000000000018303018301870189B
:1045C000600C600CE00CC006C00680038003800312
:1045D00080018001C001F0007000000000000000B8
:1045E0000000000000000000FC1FFC1F000C000683
:1045F00000038001C000600030001800FC1FFC1F99
:1046000000000000000000000000000000000003A7
:104610008001C000C000C000C000C000C000600039
:104620006000300060004000C000C000C000C0005A
:10463000C000C000800100030000000000008001F5
:104640008001800180018001800180018001800162
:104650008001800180018001800180018001800152
:104660008001800180018001800100000000600065
:10467000C000C00180018001800180018001000331
:104680000003000600030001800180018001800119
:1046900080018001C00060000000000000000000F8
:1046A000000000000000000000000000F010F81FF3
:1046B000080F0000000000000000000000000000E3
:1046C00000000000000000000000000000000000EA
:1046D00000000000010203040607080904000008A6
:1046E00000000000000000020001000010000000B7
:1046F00010470008000000203000000014020008ED
:104700004047000830000020500700003002000839
:104710000000FFFF00000000010100000000000099
:104720000000000000000000000000000000000089
:104730001000000001000000000000000024F40050
:04000005080001D915
:00000001FF
