:020000040800F2
:1000000008070020810200083B21000801160008B3
:1000100039210008BD060008BF29000800000000C3
:10002000000000000000000000000000F5240008AF
:1000300019070008000000003D210008F72400080F
:100040009B0200089B0200089B0200089B0200081C
:100050009B0200089B0200089B0200089B0200080C
:100060009B0200089B0200089B0200089B020008FC
:100070009B0200089B0200089B0200089B020008EC
:100080009B020008000000009B0200089B02000881
:100090009B0200089B0200089B0200089B020008CC
:1000A0009B0200089B0200089B0200089B020008BC
:1000B0009B0200089B0200089B0200089B020008AC
:1000C0009B0200089B0200089B0200089B0200089C
:1000D0009B0200089B0200089B0200089B0200088C
:1000E0009B0200089B0200089B0200089B0200087C
:1000F0009B0200089B0200089B0200080000000011
:10010000000000009B020008000000009B020008A5
:100110009B020008000000009B0200089B020008F0
:100120009B0200089B0200089B0200089B0200083B
:100130009B02000800000000000000009B02000875
:100140009B0200089B020008000000000000000065
:10015000000000000000000000000000000000009F
:100160000000000000000000000000009B020008EA
:100170009B020008000000000000000000000000DA
:10018000000000009B0200080000000000000000CA
:10019000000000000000000000000000000000005F
:1001A00000000000000000009B0200089B02000805
:1001B0009B0200089B0200089B0200080000000050
:1001C000000000009B02000800000000000000008A
:1001D0009B0200089B02000800F002F800F041F8C2
:1001E0000AA090E8000C82448344AAF10107DA4592
:1001F00001D100F036F8AFF2090EBAE80F0013F0A3
:10020000010F18BFFB1A43F001031847503A0000D2
:10021000703A0000103A24BF78C878C1FAD8520763
:1002200024BF30C830C144BF04680C607047000070
:100230000023002400250026103A28BF78C1FBD8EF
:10024000520728BF30C148BF0B607047752900F0C6
:100250007380002070471FB502F00AFC1FBD10B567
:1002600010BD00F0CCF91146FFF7F5FF02F0C6FB18
:1002700000F0EAF903B4FFF7F2FF03BC00F0F2F973
:100280000948804709480047FEE7FEE7FEE7FEE72A
:10029000FEE7FEE7FEE7FEE7FEE7FEE70448054966
:1002A000054A064B7047000065250008D901000883
:1002B0000801002008070020080300200803002090
:1002C0000FB41CB5074B06AA7B44694600900598FD
:1002D00000F07DF90020694600F08CF91CBC5DF847
:1002E00014FB00002903000070B50446856900680E
:1002F000C10601D5302600E02026C00707D070BD1A
:10030000D4E9012130469047206A401C20626D1ECE
:10031000F6D570BD70B5044685690078C00707D171
:1003200070BDD4E9012120209047206A401C206242
:100330006D1EF6D570BD00002DE9F0410646002483
:1003400010687529314616A510D0AFF3008000283B
:1003500002DA404213A507E031688A0701D512A5E9
:1003600002E0490704D511A5012401E0AFF30080A4
:1003700000210A2206F1240709E0B0FBF2FCB0FBE1
:10038000F2F302FB1C00303078541846491C002858
:10039000F3D123462A463046BDE8F04100F0B9B813
:1003A000000000002D0000002B00000020000000D5
:1003B0002DE9F0474FF0000A89460446C0F820A016
:1003C0002046E1688847002876D0252806D0D4E961
:1003D00001219047206A401C2062F1E7E168204635
:1003E00000258847C4F81CA006460027C4F818A0BA
:1003F0002A2E09D0304602F0F3FA38B304EB87080E
:10040000303EC8F8186019E059F8041B204604EB88
:1004100087029161E1688847012F064618D1E0699B
:10042000002820DA25F020051DE0D8F8180000EBA0
:10043000800006EB40003038C8F818002046E1681C
:100440008847064602F0CCFA0028EED1012F0AD0E8
:100450002E2E08D12046E16888477F1C0646022FD1
:1004600045F02005C4DBA069002803DA404245F0CE
:100470000105A061E80701D025F01005B6B1A6F18D
:100480004100192802D8203645F400654A46314615
:10049000204625604D46FFF7D9FE58B1012806D009
:1004A000ED1D25F0070000F1080989E704E005F1DA
:1004B000040985E730468AE7206ABDE8F0874FF0F7
:1004C000000200B5134694469646203922BFA0E8A4
:1004D0000C50A0E80C50B1F12001BFF4F7AF0907B0
:1004E00028BFA0E80C5048BF0CC05DF804EB8900A1
:1004F00028BF40F8042B08BF704748BF20F8022BE4
:1005000011F0804F18BF00F8012B704770477047FB
:1005100070472DE9F0470D4699469246044600F192
:1005200024080168880604D5E06921F010012160E3
:1005300000E00120A84201DD471B00E00027A1697F
:100540007A1902EB0900081AA0612078C00602D4CB
:100550002046FFF7C9FE002608E0D4E901211AF879
:1005600006009047206A401C761C20624E45F4DB52
:100570002078C0060AD52046FFF7B6FE06E0D4E98B
:10058000012130209047206A401C2062381EA7F1CC
:100590000107F4DC07E0D4E9012118F805009047D1
:1005A000206A401C2062281EA5F10105F3DC2046CC
:1005B000FFF7B0FE2078000602D50220BDE8F087E4
:1005C0000120FBE701694A1C02610878704700B509
:1005D0008FB0CDE901310021059105497944CDE97C
:1005E000031011466846FFF7E3FE0FB000BD0000A0
:1005F000E5FFFFFF0A6802F8010B0A6070477546C5
:1006000000F02CF8AE4605006946534620F007007E
:10061000854618B020B5FFF741FEBDE820404FF0F9
:1006200000064FF000074FF000084FF0000B21F0DC
:100630000701AC46ACE8C009ACE8C009ACE8C009A9
:10064000ACE8C0098D46704710B50446AFF3008092
:100650002046BDE81040FFF70DBE0000004870477F
:10066000A400002001491820ABBEFEE726000200CE
:100670007047000010480021827A012A0BD0022A1C
:1006800011D0032A06D14279521CD2B242713B2AC0
:1006900000D941717047C278521CD2B2C270172A79
:1006A000F8D9C17070470279521CD2B202713B2A4C
:1006B000F8D901717047000008000020FEE7000033
:1006C000134810B5817A042921D112490A68C369F7
:1006D000D21AB2F57A7F1AD30968C161416A4FF420
:1006E0006162491EB1FBF2F34162C370B1FBF2F3E8
:1006F00002FB13143C23B4FBF3F40471B1FBF2F4DA
:1007000002FB1411B1FBF3F203FB1211417110BD96
:1007100008000020380000207047002240F6B8335F
:1007200006E00021491C89B29942FBD3521C92B2C7
:100730008242F6D3704772B6FEE7000070B50446F9
:1007400000F03CF90546601C02D0044840680444AF
:1007500000F034F9401BA042FAD370BD30000020F5
:100760002DE9F04FDFF82092002301260324A9F1A0
:10077000040B85B00F2709F1040AABF1040EFAE06F
:1007800006FA03F52A407CD091F804C00CF0030C63
:10079000BCF1010F02D0BCF1020F26D1D0F808C085
:1007A000CDF800C04FEA430C04FA0CF8CDF810C0A5
:1007B000DDF800C02CEA080CCDF800C0D1F80C80A0
:1007C000DDF810C008FA0CF8DDF800C048EA0C08A3
:1007D000C0F80880D0F804C02CEA050C0D79C5F3E8
:1007E00000159D4045EA0C0545600D79ED43AD07C8
:1007F0000ED0C5684FEA430804FA08FC25EA0C0548
:10080000D1F808C00CFA08FC4CEA050CC0F80CC082
:100810000D7905F00305022D16D1DD0800EB850CDE
:10082000CDF808C0DCF820805D074FEAD56C07FAE8
:100830000CF528EA05080D6905FA0CF5DDF808C085
:1008400045EA0805CCF8205005684FEA430CCDF87E
:1008500008C004FA0CFC25EA0C0591F804C00CF061
:100860000308DDF808C008FA0CF848EA0508C0F8E3
:1008700000804D6815F4403F7CD0444DD5F860C0F1
:1008800000E077E04CF0010CC5F860C02D6E23F05D
:10089000030C05F0010500953D4D65440295AD68DA
:1008A0004FEA837C4FEA1C7807FA08FC25EA0C051E
:1008B000B0F1904F06D0DFF8DCC0604505D14FF0B5
:1008C000010C20E04FF0000C1DE0DFF8CCC06045CB
:1008D00002D14FF0020C16E0DFF8C0C0604502D133
:1008E0004FF0030C0FE0DFF8B8C0604502D14FF0C5
:1008F000040C08E0DFF8ACC0604502D14FF0050CF5
:1009000001E04FF0060C0CFA08FC4CEA050C029DC5
:10091000C5F808C0D9F80050CC46D1F804809543FA
:100920005FEAC82800D51543CCF80050DAF800502B
:10093000D446D1F8048095435FEA882800D5154352
:10094000CCF80050DBF80050DC46D1F80480954329
:100950005FEA883800D51543CCF80050DEF8005027
:10096000F446D1F8048095435FEAC83800D51543B2
:10097000CCF800505B1C0A6832FA03F57FF400AF34
:1009800005B0BDE8F08F00000804014000100240EF
:10099000000001400004004800080048000C004826
:1009A00000100048001400480069084000D00120F1
:1009B00070470AB181617047816270470148806861
:1009C00070470000300000200248816842681144EE
:1009D000816070473000002010B50024032000F033
:1009E00065F80F2000F008F808B1012401E000F0DC
:1009F00025F8204610BD000070B50E4E05460024B7
:100A0000706898B14FF47A71B1FBF0F00A49096847
:100A1000B1FBF0F000F0ECFB40B9102D06D2002243
:100A20002946501E00F022F8356000E001242046DF
:100A300070BD0000300000203C0000200A4882B059
:100A4000016E41F001010166016E01F001010091AA
:100A5000816D41F080518165806D00F08050009083
:100A600002B000F093B8000000100240F0B40E4B4A
:100A70001B680C46C3F30223C3F10705042D00D9FC
:100A80000425191D072901D2002300E0DB1E0126E1
:100A900006FA05F1491E214099409E40761E1640F7
:100AA0003143F0BC01F08CBF0CED00E0064900F0D2
:100AB000070208684FF6FF03184040EA0220034A85
:100AC00010430860704700000CED00E00000FA05DC
:100AD0002B492C4B0A6832214A432B4940B1B0F5CF
:100AE000007F086829D020F4C06040F480602CE0CA
:100AF0000868C0F34120022804D051F8800F20F488
:100B0000807022E0D1F8800020F48070C1F880006D
:100B1000086820F4C06040F400700860B2FBF3F095
:100B2000401C00E0401E4A69520501D50028F9D159
:100B3000486940050AD503207047C0F341200228C8
:100B400006D051F8800F40F4807008600020704794
:100B5000D1F8800040F48070C1F88000086820F46B
:100B6000C06040F400700860B2FBF3F0401C00E08D
:100B7000401E4A695205DBD50028F9D1D8E70000AC
:100B80003C00002040420F00007000400248816895
:100B900041F4804181607047007000402DE9F047CA
:100BA0000E4605004FF0000725D0DFF8AC81D8F8DD
:100BB000000000F00F00B0420CD2D8F8001021F075
:100BC0000F013143C8F80010D8F8000000F00F0002
:100BD000B04210D12968614CC80741F2883A5AD016
:100BE0006868DFF87C91032808D0022820682DD09F
:100BF000400500282CDB0120BDE8F087206880013B
:100C0000F9D5E06800F00302E068C0F30310401C6F
:100C1000032A19D0534A00BFB2FBF0F0E268C2F3D6
:100C200006225043E268C2F34162521C5200B0FBFC
:100C3000F2F0484517D9A06810F0F00F0CD08807E3
:100C400011D5A86840B10EE0474AE5E78003D0E738
:100C500000F092F8484506D9A06820F0F00040F076
:100C60008000A0608027A068696820F00300084326
:100C7000A060FFF7A3FE814606E000BFFFF79EFEDF
:100C8000A0EB090151453AD8A068696800F00C0052
:100C9000B0EB810FF2D12868810714D5400703D546
:100CA000A06840F4E060A0602878000705D5A0683F
:100CB00020F4605040F4E060A060A068A96820F0D3
:100CC000F000084304E0802F03D1A06820F0F0007A
:100CD000A060D8F80010404601F00F01B14216D9CB
:100CE000016821F00F0131430160FFF767FE0746FD
:100CF00007E000BFFFF762FEC11B514501D9032089
:100D00007AE7D8F8000000F00F00B042F2D128785E
:100D1000400705D5A068E96820F4E0600843A060BA
:100D20002878000706D5A068296920F4605040EAB9
:100D3000C100A06000F020F8A1680C4AC1F30311C3
:100D4000515C01F01F01C84009490860094800686A
:100D5000BDE8F047FFF750BE0020024000100240FF
:100D600000B4C4040024F40000127A004A3C0008D5
:100D70003C00002030000020184910B58868C0F3FE
:100D800081021748012A0BD08A684310C2F38102FE
:100D9000022A06D08A68C2F38102032A03D0002007
:100DA00010BD184610BDCA6802F00304CA68C2F339
:100DB0000312521C032C02D0B0FBF2F001E0B3FB93
:100DC000F2F0CA68C968C2F306225043C1F3416118
:100DD000491C4900B0FBF1F010BD000000100240BA
:100DE0000024F4002DE9F84304007AD02078FA4D6D
:100DF000C00747D0A868E96800F00C0001F00301C3
:100E00000C2802D0082817D001E0032914D060680C
:100E1000B0F5803F17D0B0F5A02F286817D020F488
:100E200080302860286820F4802028606068E0B165
:100E3000FFF7C4FD064614E02868800322D56068E9
:100E40000028D2D01EE0286840F48030EDE740F45E
:100E500080202860F7E700BFFFF7B0FD801B642803
:100E600070D828688003F7D50CE0FFF7A7FD064689
:100E700005E000BFFFF7A2FD801B6428F0D82868BA
:100E80008003F7D4207880074CD5A868E96800F083
:100E90000C0001F003010C2802D004280DD001E061
:100EA00002290AD0E068002828682BD040F480701E
:100EB0002860FFF783FD064619E02868400502D543
:100EC000E068002891D06868217C20F0FE4040EA6C
:100ED00001606860C1480068FFF78EFD002800D1FE
:100EE00020E076E1FFF76AFD801B0228B8D8286869
:100EF0004005F7D56868217C20F0FE4040EA01609B
:100F000068600FE020F480702860FFF757FD064608
:100F100005E000BFFFF752FD801B0228A0D828681B
:100F20004005F7D42078000729D560690028D5F856
:100F3000940013D040F00100C5F89400FFF73EFD87
:100F4000064606E090E000BFFFF738FD801B022850
:100F500086D8D5F894008007F6D510E020F001007F
:100F6000C5F89400FFF72AFD064604E0FFF726FDCA
:100F7000801B022878D8D5F894008007F6D4207812
:100F8000400761D5A86D0026C00008D4A86D40F0C8
:100F90008050A865A86D012600F080500090904810
:100FA0000168C90511D40168804641F4807101606F
:100FB000FFF704FD074604E0FFF700FDC01B022811
:100FC00052D8D8F80000C005F6D5A068012815D081
:100FD0000528D5F8900016D020F00100C5F8900043
:100FE000D5F8900020F00400C5F89000A06841F208
:100FF0008838B8B1FFF7E2FC07460EE0D5F890005C
:1010000040F00100F0E740F00400C5F89000F5E77B
:10101000FFF7D4FCC11B414526D8D5F890008007C6
:10102000F6D50CE0FFF7CAFC074604E0FFF7C6FC64
:10103000C11B414518D8D5F890008007F6D41EB1E1
:10104000A86D20F08050A8652078800629D5A06979
:101050000028D5F8980013D040F00100C5F898009A
:10106000FFF7ACFC064606E077E000BFFFF7A6FC02
:10107000801B022877D8D5F898008007F6D510E0B5
:1010800020F00100C5F89800FFF798FC064604E040
:10109000FFF794FC801B022865D8D5F898008007DC
:1010A000F6D4E069F0B3A968C1F38101032961D0E6
:1010B0000228286820F0807028600BD0E86820F0B3
:1010C0000300E860E86847490840E860FFF776FCFD
:1010D00004464BE0FFF772FC064604E0FFF76EFCA7
:1010E000801B02283FD828688001F7D4F4E9080162
:1010F0006FF00F0202EB01110843218A52044908E4
:1011000002EB4151A26841EA02210843217D4FF0E0
:101110007E42490802EB41610843217B40EAC160FD
:10112000E96800E062E0304A11400843E86028685E
:1011300040F080702860E86840F08070E860FFF759
:101140003DFC044605E000BFFFF738FC001B022809
:1011500009D828688001F7D548E004E0FFF72EFCA5
:10116000001B022802D90320BDE8F883286880010B
:10117000F4D43BE00128F7D0E868226A00F00301CC
:10118000914226D1616A00F0F002090110399142C2
:101190001FD1A26A00F4FE41B1EB022F19D194F8DD
:1011A0002C2000F07841B1EBC26F12D1218E00F4F7
:1011B000C00249084905A1F50011914209D194F8EE
:1011C000341000F0C06049084906A1F10071814265
:1011D0000CD00120C8E700000010024030000020C1
:1011E00000700040FFFFEEFE0C809F010020BBE777
:1011F00010B5401EB0F1807F01D3012010BD4FF02B
:10120000E02460610F21601701F0DAFB0020A0618B
:1012100007202061002010BDF0B590F83C20012A85
:101220003AD0012580F83C50022280F83D20036826
:101230005A689C68194E1A4FB34201D0BB4204D180
:1012400022F4700C4A6842EA0C02DFF858C002EA45
:101250000C02D1F800C04CEA020CC3F804C00268CA
:10126000B2420DD0B2F1804F0AD00F4B9A4207D054
:101270000E4B9A4204D0BA4202D00D4B9A4204D18E
:10128000896824F080031943916080F83D50002163
:1012900080F83C100846F0BD0220F0BD002C014053
:1012A000003401408FFFFFFD0004004000080040B3
:1012B0000040014010B5040003D094F83D0010B187
:1012C00007E0012010BD002084F83C00204600F01B
:1012D00023F8022084F83D00211D206801F04AF91E
:1012E000012084F8480084F83E0084F83F0084F828
:1012F000400084F8410084F8420084F8430084F8F8
:10130000440084F8450084F8460084F8470084F8D7
:101310003D00002010BD000010B586B00446142129
:101320006846FFF7CCF81249206888421DD1114861
:10133000816D41F002018165816D01F0020105912D
:10134000C16C41F00101C164C06C002100F00100DA
:101350000590402000900220CDE90101CDE9031065
:1013600069464FF09040FFF7FBF906B010BD000052
:10137000000400400010024070B5044690F83C00A4
:101380000025012814D0012684F83C60022084F84E
:101390003D0022689068364B184020F47F409060F2
:1013A000086870282ED010DC10F00F0F03D021E059
:1013B0004FF0020070BD4FEA2012072A1AD2DFE870
:1013C00002F0525252524A3840002A4BC21A9842F6
:1013D00049D009DCB0F5805F0DD0B0F5005F1CD0BE
:1013E000B0F1101F06D13EE0102A3CD0202A3AD09E
:1013F000502A38D0012584F83D60002084F83C0054
:10140000284670BDCB68D1E90121206801F00AF9B6
:101410002068816841F0770109E0CB68D1E90121BA
:10142000206801F0FFF82068816841F48041816004
:10143000E1E7CA684968206801F09EFA50212068F7
:1014400006E0CA684968206801F0A7FA60212068B0
:1014500001F0F2F8CFE7CA684968206801F08CFA19
:1014600040212068F4E7226801461046F0E70000BA
:1014700088FFCEFF2000100070B5044690F83C00B5
:1014800000260D4601280BD0012084F83C000C2AD0
:101490004AD007DC82B1042A20D0082A06D131E0E4
:1014A000022070BD102A53D0142A63D001260020D8
:1014B00084F83C00304670BD206801F0C7F8206811
:1014C000816941F0080181612068816921F004018E
:1014D0008161206881692A69114311E0206801F067
:1014E00003F92068816941F40061816120688169A4
:1014F00021F480618161206881692A6941EA0221C1
:101500008161D4E7206801F037F92068C16941F0B2
:101510000801C1612068C16921F00401C16120682E
:10152000C1692A69114311E0206801F06DF9206852
:10153000C16941F40061C1612068C16921F4806121
:10154000C1612068C1692A6941EA0221C161AEE72F
:10155000206801F0A1F92068016D41F008010165E2
:101560002068016D21F0040101652068016D2A6980
:10157000114311E0206801F0C7F92068016D41F4C2
:10158000006101652068016D21F4806101652068BA
:10159000016D2A6941EA0221016588E710B504005E
:1015A00003D094F83D0010B107E0012010BD0020E9
:1015B00084F83C00204600F022F8022084F83D0028
:1015C000211D206800F0D6FF012084F8480084F82F
:1015D0003E0084F83F0084F8400084F8410084F81D
:1015E000420084F8430084F8440084F8450084F8FD
:1015F000460084F8470084F83D00002010BD704785
:10160000FEE7000000B585B014216846FEF757FFDD
:10161000C0200090012001900290022003906946B2
:101620000248FFF79DF805B000BD00000004004827
:1016300070B50824002500F025FF13E06806050EAC
:10164000002000F007FF142001F0D1F9142001F070
:10165000CEF9012000F0FEFE142001F0C8F900F0E0
:1016600005FF0543641EE4B2E8D2002000F0F2FE5C
:10167000142001F0BCF900F027FF284670BD10B51A
:10168000002000F015FF142001F0B1F9142001F042
:10169000AEF9012000F0DEFE142001F0A8F90020D0
:1016A00000F0D8FEBDE81040142001F0A0B970B5DC
:1016B0000446082516E000F0CDFE142001F097F94D
:1016C00004F0800000F0F4FE142001F090F96006B0
:1016D000040E142001F08BF9012000F0BBFE142051
:1016E00001F085F96D1EEDB24FF00000E3D200F07D
:1016F000B1FEBDE87040142001F079B910B50120A9
:1017000000F0D6FE142001F072F9142001F06FF9F8
:10171000012000F09FFE142001F069F9002000F084
:1017200099FEBDE81040142001F061B910B5012008
:1017300000F0BEFE142001F05AF9012000F08AFEEC
:10174000142001F054F9002000F0B2FE142001F042
:101750004EF9002000F07EFEBDE81040142001F09C
:1017600046B910B5002000F075FE142001F03FF9D5
:10177000002000F09DFE142001F039F9012000F056
:1017800069FE142001F033F9012000F091FEBDE85C
:101790001040142001F02BB910B5052400F072FEA2
:1017A000142001F024F9012000F054FE142001F06F
:1017B0001EF905E0641EA4B2142001F018F96CB102
:1017C00000F054FE0028F5D100F07EFE002000F06D
:1017D00041FE142001F00BF9002010BD00F074FE52
:1017E000FFF7BFFF012010BD70B515460E46044639
:1017F000FFF79CFFA020FFF75AFFFFF7CDFF304611
:10180000FFF755FFFFF7C8FFFFF790FFA120FFF795
:101810004EFFFFF7C1FF09E0FFF70AFF04F8010BD5
:1018200015B1FFF72CFF01E0FFF768FF6D1EEDB269
:10183000F2D2BDE87040FFF794BF000070B51546C6
:101840000E460446FFF772FFA020FFF730FFFFF7B8
:10185000A3FF304602E000BF14F8010BFFF727FF9B
:10186000FFF79AFF6D1EEDB2F6D2FFF77AFFBDE8E3
:1018700070404FF4FA7001F0BAB800002DE9F04161
:101880004C4D28684C4C6169401A322852D3286864
:10189000606100F093F8A071217A30EA010281EAD8
:1018A0000001E27121EA00016172207201D02A6810
:1018B000A2612A68A369404DD21A002701260B3580
:1018C000B2F5487F4AD8012919D0022934D003291A
:1018D0006BD004292ED1A07800282BD0A07A042820
:1018E00036D2E0784FF4616110FB01F02179C1EB51
:1018F000011100EB810061790844606229E0A07A5F
:10190000002817D1207800F10100C0B2207006280D
:1019100000D1267020780322401E00EB4000C1B2A7
:1019200025480B30FFF760FF2878E0706878207159
:10193000A8786071BDE8F081A770A07A30B1042862
:10194000F8D2401CC0B2A0720428F3D1A672F1E70D
:1019500001D0042000E00520A072EBE702280AD0A5
:10196000032822D00428E5D1A07A042801D0052834
:10197000E0D1A772DEE7A07A012803D0022801D0C7
:101980000328D7D1E0782870207968706079A87032
:1019900020780322401E00EB4000C1B206480B3005
:1019A000FFF74CFFA772A670C4E7BDE8F041FEF751
:1019B00061BE0000380000200800002070B50E4D08
:1019C000002401212846FEF7EFFF00B9012402217F
:1019D0002846FEF7E9FF00B9022404212846FEF755
:1019E000E3FF00B9032401214FF09040FEF7DCFF34
:1019F00000B90424204670BD0004004800B585B03D
:101A000014216846FEF75BFD4FF6FF700090002042
:101A10000321CDE90201019069460248FEF7A0FECC
:101A200005B000BD0008004800B585B01421684627
:101A3000FEF745FD4FF6FF70009001200190032056
:101A400003900020029069460248FEF789FE05B027
:101A500000BD00000008004870B50024064621467D
:101A6000204600F003F900F041F94FF49635304676
:101A700000F010F9641CAC42F9D370BD30B587B0EA
:101A800014216846FEF71BFD1E48C16C41F004019D
:101A9000C164C16C01F004010591C16C41F0010108
:101AA000C164C16C01F001010591C16C41F00201FA
:101AB000C164C06C012500F0020005904FF448702D
:101AC000CDE9000500240394694602940E48FEF710
:101AD00047FE280203940090CDE901544FF0904452
:101AE00069462046FEF73CFEFFF79EFFA06940F4E2
:101AF0008070A06104481830016841F408710160E9
:101B000007B030BD0010024000040048203AD2B2B5
:101B1000034B02EB420203EB021200F019B8000083
:101B20007A2A0008F0B50E460746002540F23F1419
:101B300007E021463846FFF7E9FF103C6D1CA4B2D0
:101B4000761C3278002A01D0142DF2D3F0BD0000AB
:101B50002DE9F04791468A460026044600F086F8B3
:101B6000DFF84080012700BF00F0C0F85FF00005FB
:101B700039F8160007FA05F10842404601D14088BD
:101B800000E0008800F086F86D1C102DF0D3641C76
:101B9000E4B25146204600F069F8761C182EE3D3D3
:101BA000BDE8F0870000002010B5FFF767FF0020B8
:101BB00000F014F8084CA080A088A0F5024130394C
:101BC00006D000F045FB002000F008F8A08010BD12
:101BD00000F0B5FAF7E700000000002070B51D49DD
:101BE0000A6842F400720A600A6842F480720A606D
:101BF000184C103C226842F020022260164A106005
:101C0000086840F02000086000BF00BF00BF2068E7
:101C100040F020002060206840F480702060FFF7D2
:101C2000EDFE4FF09041886A40F48070886200BFFA
:101C300000BF00BF0848001F006885B2886940F4F3
:101C400080708861FFF7F0FE206840F4007020602B
:101C5000284670BD280400481408004801B5BDF8A6
:101C600000000149488008BD0000002010B50C4666
:101C70000146202000F068F82146BDE810402120F0
:101C800000F062B801B5BDF800000149088008BD48
:101C900000000020134A116841F4007111601149DD
:101CA00010390B6843F480730B600B6843F020031A
:101CB0000B600D4B1860106840F02000106000BFF2
:101CC00000BF00BF086840F020000860086840F4CA
:101CD0008070086000BF00BF00BF086840F400705B
:101CE0000860704728040048140800481449086830
:101CF00040F400700860086840F480700860104884
:101D00001038026842F0200202600E4B22221A6054
:101D10000A6842F020020A6000BF00BF00BF0168ED
:101D200041F020010160016841F48071016000BF51
:101D300000BF00BF016841F40071016070470000FE
:101D40002804004814080048184B10B51A6842F4DB
:101D500000721A601A6842F480721A60134A103ACC
:101D6000146844F020041460114C2060186840F09E
:101D70002000186000BF00BF00BF106840F02000C6
:101D80001060106840F4807010602160186840F0A6
:101D90002000186000BF00BF00BF106840F02000A6
:101DA0001060106840F48070106010BD2804004876
:101DB000140800482DE9F04145480168454C226966
:101DC000891A642977D300682061227842A14848A3
:101DD000FEF776FA46494820FFF7A4FEA07A4FF4B2
:101DE0007847012802D13846FFF738FFE0780A2506
:101DF000B0FBF5F03030C2B2E0217820FFF786FE6C
:101E0000E078B0FBF5F105FB1102D02178203032EB
:101E1000FFF77CFE4FF6FF763046FFF71FFF3A22B2
:101E2000C0217820FFF772FEA07A022802D138463E
:101E3000FFF714FF2079B021B0FBF5F03030C2B2CB
:101E40007820FFF763FE2079B0FBF5F105FB110266
:101E5000A02178203032FFF759FE3046FFF7FEFE12
:101E60003A2290217820FFF751FEA07A032802D170
:101E70003846FFF7F3FE60798021B0FBF5F0303093
:101E8000C2B27820FFF742FE6079B0FBF5F105FBA6
:101E90001102702178203032FFF738FE3046FFF70C
:101EA000DDFEA07A062811D2DFE800F00306060660
:101EB000080A10A105E009E014A102E019A100E060
:101EC0001EA1BDE8F041A820FFF72CBEBDE8F081BF
:101ED0003800002008000020202020202020202082
:101EE0004E6F2E253175202020202020000000007C
:101EF000400000202020202020205374616E646266
:101F0000792E2020202020202000000020202020CA
:101F1000202053657474696E672E202020202020B5
:101F20002000000020202020202052756E6E696E57
:101F3000672E2020202020200000000020202020CC
:101F400020202050617573652E2020202020200045
:101F500070B5124D044601224FF47F412846FEF72A
:101F600028FD0F4E012204213046FEF722FD0022FB
:101F700004213046FEF71DFD210200222846FEF70F
:101F800018FD012204213046FEF713FD3046BDE85E
:101F9000704000220421FEF70CBD0000000800483C
:101FA000000C00480A4802680A490B6AD21AB2F5C6
:101FB0007A7F0CD300680862887A042803D0002056
:101FC0004870FFF7C5BF487880F00100F8E7704718
:101FD0003800002008000020F0B587B014216846C2
:101FE000FEF76DFA2948C16C41F00401C164C16C6F
:101FF00001F004010591C16C41F00101C164C16CA3
:1020000001F001010591C16C41F00201C164C16C94
:1020100001F002010591C16C41F00801C164C06C7E
:102020001B4E00F008004FF47F440590012221462A
:102030003046FEF7BEFC174F002204213846FEF75B
:10204000B8FC0125CDE900450024029469463046DC
:102050000394FEF785FBCDE9005469464FF09040AC
:102060000294FEF77DFB0720CDE9000469460A488B
:102070000294FEF775FB04200090CDE901546946F7
:1020800038460394FEF76CFB07B0F0BD0010024029
:1020900000080048000C00480004004810B58EB04D
:1020A00000240794089409940A940B940C941C211E
:1020B00068460D94FEF703FA1E481D4901604F2142
:1020C000C0E9011440F2E731C0E9031480218161C5
:1020D000FFF7F0F808B1FEF72EFB4FF480500790A1
:1020E00007A91448FFF748F908B1FEF724FB114887
:1020F000FFF754FA08B1FEF71EFB0B940BA90D482D
:102100000D94FFF789F808B1FEF715FB60200090E9
:102110004FF44870CDE90104002269460548049453
:10212000FFF7AAF9002801D0FEF705FB0EB010BD9D
:102130000004004058000020FEE7FEE7704730B57D
:1021400001210020FFF700FE4FF47A70FEF7E5FA58
:1021500000210120FFF7F8FD41F290711020FFF7F8
:10216000F3FD4FF41C516020FFF7EEFD01216120CB
:10217000FFF7EAFD02214620FFF7E6FD48F21001D5
:102180001320FFF7E1FD48F2FE011220FFF7DCFD0E
:102190004FF4A0610220FFF7D7FD41F23001032088
:1021A000FFF7D2FD40F2033421463020FFF7CCFD8B
:1021B00021463120FFF7C8FD21463220FFF7C4FD3C
:1021C000E51E29463320FFF7BFFD03213420FFF72A
:1021D000BBFD21463520FFF7B7FD14213620FFF760
:1021E000B3FD21463720FFF7AFFD21463820FFF72A
:1021F000ABFD21463920FFF7A7FD29463A20FFF71E
:10220000A3FD03213B20FFF79FFD21463C20FFF764
:102210009BFD4FF4A0513D20FFF796FD4FF4007158
:102220009220FFF791FD21469320FFF78DFD40F6A8
:102230000D019020FFF788FD41F218010320FFF700
:1022400083FDBDE8304040F273110720FFF77CBDED
:1022500010B543F20801E320FFF776FD1221E720D5
:10226000FFF772FD41F23121EF20FFF76DFD0021F4
:102270000120FFF769FD4FF4E0610220FFF764FDE4
:1022800041F230010320FFF75FFD00210420FFF73A
:102290005BFD40F207210820FFF756FD00210920D1
:1022A000FFF752FD00210A20FFF74EFD00210C2010
:1022B000FFF74AFD00210D20FFF746FD00210F200A
:1022C000FFF742FD00211020FFF73EFD07211120FE
:1022D000FFF73AFD00211220FFF736FD0021132001
:1022E000FFF732FDC820FEF729FA41F29061102075
:1022F000FFF72AFD40F227211120FFF725FD3220AC
:10230000FEF71CFA1D211220FFF71EFD3220FEF7FA
:1023100015FA4FF400611320FFF716FD1421292050
:10232000FFF712FD0B212B20FFF70EFD3220FEF7E9
:1023300005FA00212020FFF707FD00212120FFF7EB
:1023400003FD07213020FFF7FFFC40F20771312029
:10235000FFF7FAFC06213220FFF7F6FC40F2047189
:102360003520FFF7F1FC41F604713620FFF7ECFC55
:1023700004213720FFF7E8FC00213820FFF7E4FCB8
:1023800040F206713920FFF7DFFC40F201713C207A
:10239000FFF7DAFC0F213D20FFF7D6FC002150208B
:1023A000FFF7D2FCEF215120FFF7CEFC0021522095
:1023B000FFF7CAFC40F23F115320FFF7C5FC4FF472
:1023C0001C516020FFF7C0FC01216120FFF7BCFC1D
:1023D00000216A20FFF7B8FC00218020FFF7B4FC41
:1023E00000218120FFF7B0FC00218220FFF7ACFC28
:1023F00000218320FFF7A8FC00218420FFF7A4FC24
:1024000000218520FFF7A0FC10219020FFF79CFC05
:1024100000219220FFF798FC03219320FFF794FC02
:102420004FF488719520FFF78FFC00219720FFF76C
:102430008BFC00219820FFF787FC41F21801032054
:10244000FFF782FCBDE8104040F273110720FFF750
:102450007BBC000008B1044801E00348103001686B
:1024600041F04001016070471804004810B5802118
:102470000348FEF799FA012800D0002010BD0000A3
:102480000004004800B585B014216846FEF717F82F
:1024900080200090002001900120029002200390F3
:1024A00069460248FEF75CF905B000BD000400482B
:1024B00008B1044801E003481030016841F0800190
:1024C000016070471804004800B585B014216846C3
:1024D000FDF7F5FF80200090112001900020029070
:1024E0000220039069460248FEF73AF905B000BDA4
:1024F000000400487047FEF767BA00B593B0382172
:102500006846FDF7DCFF14210EA8FDF7D8FF4FF455
:102510000070FEF7DDFA0220C10103914021049111
:102520000121CDE9080100900A21CDE90A100790A8
:102530000C900D906846FEF755FC08B172B6FEE7A8
:102540000F200E9003200F900020109011901290F9
:1025500002210EA8FEF722FB002801D072B6FEE78A
:1025600013B000BD0248016841F47001016070477A
:1025700088ED00E02DE9F0430268234B234D244E03
:10258000244C4FF08049984207D0484505D0A842D6
:1025900003D0B04201D0A04203D122F070074A68B4
:1025A0003A431D4FDFF874C0DFF8748098420DD0B5
:1025B00048450BD0A84209D0B04207D0A04205D070
:1025C000B84203D0604501D0404503D122F44075A4
:1025D000CA682A434D6922F080022A4302608A6851
:1025E000C2620A688262984207D0A04205D0B8420F
:1025F00003D0604501D0404501D109690163012143
:102600004161BDE8F0830000002C0140000400405F
:1026100000080040003401400040014000440140F7
:102620000048014010B5846842EA032224F47F4444
:102630000A432243826010BD8268034B1A400A435A
:1026400042F00701816070478FFFCFFF2DE9F04313
:10265000026A22F001020262056A436882691C4C28
:1026600025F0020522400C6822F0030214438A6818
:10267000194E2A43174D194FDFF864C0DFF86490F4
:10268000A84207D0B04205D0B84203D0604501D07F
:10269000484506D122F00808CA6842EA080222F03A
:1026A0000402A84207D0B04205D0B84203D060452A
:1026B00001D0484505D14D6923F440731D438B6912
:1026C0002B4343608461496841630262BDE8F08343
:1026D0008FFFFEFF002C014000340140004001400C
:1026E0000044014000480140F0B5026A22F01002A7
:1026F0000262056A42688369194C1B4E23400C68CC
:1027000023F4407343EA042425F020038D6843EA50
:102710000513144DA84201D0B04206D1CF6823F072
:10272000800343EA071323F04003A8420AD0B042D3
:1027300008D00E4DA84205D00D4DA84202D00D4D37
:10274000A84207D14D6922F4406242EA85028D69B0
:1027500042EA850242608461496881630362F0BD98
:10276000FF8FFFFE002C014000340140004001407B
:102770000044014000480140F0B5026A22F4807232
:102780000262056A4368C269194C1B4E22400C68FC
:1027900022F00302144325F400728D6842EA0522F8
:1027A000144DA84201D0B04206D1CF6822F4006295
:1027B00042EA072222F48062A8420AD0B04208D03E
:1027C0000E4DA84205D00E4DA84202D00D4DA84294
:1027D00007D14D6923F4405343EA05138D6943EA59
:1027E00005134360C4614968C1630262F0BD000023
:1027F0008FFFFEFF002C01400034014000400140EB
:102800000044014000480140F0B5026A22F48052C1
:102810000262056A4268C369194C1B4E23400C686A
:1028200023F4407343EA042425F400538D6843EAFB
:102830000533144DA84201D0B04206D1CF6823F42D
:10284000004343EA073323F48043A8420AD0B0424E
:1028500008D00E4DA84205D00D4DA84202D00D4D16
:10286000A84207D14D6922F4404242EA85128D699F
:1028700042EA85124260C461496801640362F0BDA6
:10288000FF8FFFFE002C014000340140004001405A
:10289000004401400048014030B5026A22F4803211
:1028A0000262046A4268036D114D2B400D681D439E
:1028B00024F400330C8943EA04430E4CA0420BD0AD
:1028C0000D4CA04208D00D4CA04205D00C4CA042AB
:1028D00002D00C4CA04204D14C6922F4803242EA6E
:1028E00004224260056549688164036230BD0000CE
:1028F0008FFFFEFF002C01400034014000400140EA
:10290000004401400048014030B5026A22F48012C0
:102910000262046A4268036D114D24F400142B40D6
:102920000D6843EA05230D8944EA05540D4DA8427C
:102930000BD00D4DA84208D00C4DA84205D00C4D2F
:10294000A84202D00B4DA84204D14D6922F4802246
:1029500042EA8522426003654968C164046230BD71
:10296000FF8FFFFE002C0140003401400040014079
:10297000004401400048014010B5036A046A24F095
:1029800001040462846924F0F00444EA021423F090
:102990000A020A438461026210BD10B5036A23F083
:1029A000100303628369046A23F4704343EA02322A
:1029B00024F0A00343EA01118261016210BDFEE729
:1029C0000907090E002804DB00F1E02080F800145C
:1029D000704700F00F0000F1E02080F8141D7047F0
:1029E00030380A2801D201207047002070470021AA
:1029F00000E0491C8142FCD370470000FDF7ECFF6A
:102A0000FFF77BFDFFF7E8FAFFF748FBFFF7CCF88D
:102A10004FF6FF742046FFF71FF82046FFF71EF918
:102A20000020FFF72FF9FEF7EDFD032200210F48EC
:102A3000FEF7DAFE0D49A1F10B000C78C4704A785C
:102A400002718B7800214371182C00D9C1703C2A87
:102A500000D901713C2B00D94171FFF7ABF9FEF7AA
:102A60000DFFFDF72DFEFFF79DFAF6E7130000209E
:102A70004FF04070E1EE100A7047000000000000C7
:102A80000000000000000000000000000000000046
:102A90000000000000000000000000000000000036
:102AA0000000000000000000000000008001800124
:102AB000800180018001800180018001800180010E
:102AC0008001800180010000000080018001000081
:102AD0000000000000000000000000000000CC002A
:102AE000CC00CC00CC00CC00CC00000000000000EA
:102AF00000000000000000000000000000000000D6
:102B000000000000000000000000000000000000C5
:102B1000000000000000600C600C600C3006300605
:102B2000FE1FFE1F300638071803FE1FFE1F180386
:102B300018038C018C018C01000000008000E00370
:102B4000F80F9C0E8C1C8C188C009800F801E00784
:102B5000800E801C8C188C189C18B80CF00FE003A9
:102B60008000800000000000000000000000000065
:102B70000E181B0C110C11061106110311039B01F9
:102B80008E01C038C06C6044604430443044184406
:102B9000186C0C380000000000000000E001F00399
:102BA0003807180618063003F001F000F8009C31D1
:102BB0000E33061E061C061C063FFC73F0210000A7
:102BC00000000000000000000000000000000C00F9
:102BD0000C000C000C000C000C00000000000000B9
:102BE00000000000000000000000000000000000E5
:102BF00000000000000000000000000000020003D0
:102C00008001C000C0006000600030003000300073
:102C10003000300030003000300060006000C00044
:102C2000C0008001000300020000000020006000DE
:102C3000C0008001800100030003000600060006BA
:102C400000060006000600060006000300038001DF
:102C50008001C000600020000000000000000000B3
:102C6000000000000000C000C000D806F807E00126
:102C700030033807000000000000000000000000E2
:102C80000000000000000000000000000000000044
:102C900000000000000080018001800180018001AF
:102CA000FC3FFC3F80018001800180018001000029
:102CB0000000000000000000000000000000000014
:102CC0000000000000000000000000000000000004
:102CD00000000000000000000000000080018001F2
:102CE0000001000180000000000000000000000062
:102CF00000000000000000000000000000000000D4
:102D00000000E007E00700000000000000000000F5
:102D100000000000000000000000000000000000B3
:102D200000000000000000000000000000000000A3
:102D3000000000000000000000000000C000C00013
:102D4000000000000000000000000000000C000C6B
:102D50000006000600060003000300038003800154
:102D600080018001C000C000C00060006000000061
:102D7000000000000000000000000000E003F00779
:102D8000380E180C0C180C180C180C180C180C1801
:102D90000C180C180C18180C380EF007E003000083
:102DA00000000000000000000000000000018001A1
:102DB000C001F0019801880180018001800180013B
:102DC000800180018001800180018001800100007C
:102DD000000000000000000000000000E003F80F09
:102DE000180C0C180C1800180018000C0006000332
:102DF0008001C000600030001800FC1FFC1F0000B4
:102E0000000000000000000000000000E001F807E2
:102E1000180E0C0C0C0C000C0006C003C007000CB4
:102E2000001800180C180C18180CF807E003000024
:102E3000000000000000000000000000000C000E78
:102E4000000F000F800DC00C600C600C300C180CD3
:102E50000C0CFC3FFC3F000C000C000C000C0000B4
:102E6000000000000000000000000000F80FF80F54
:102E7000180018000C00EC03FC071C0E001C0018C6
:102E8000001800180C181C0C180EF807E0030000BE
:102E9000000000000000000000000000C007F00F6C
:102EA000381C181818000C00CC03EC0F3C0E1C1C2E
:102EB0000C180C180C18181C380EF007E003000052
:102EC000000000000000000000000000FC1FFC1FCC
:102ED000000C00060006000380038001C001C00052
:102EE000E000600060007000300030003000000042
:102EF000000000000000000000000000E003F007F8
:102F0000380E180C180C180C3806F007F007180CBF
:102F10000C180C180C180C18380CF80FE0030000F3
:102F2000000000000000000000000000E003F007C7
:102F3000380E1C0C0C180C180C181C1C381EF81B16
:102F4000E0190018000C000C1C0EF807F00100003E
:102F50000000000000000000000000000000000071
:102F6000000000000000800180010000000000005F
:102F7000000000000000000000008001800100004F
:102F80000000000000000000000000000000000041
:102F9000000000000000800180010000000000002F
:102FA000000000000000000000008001800100011E
:102FB0000001800000000000000000000000000090
:102FC000000000000000000000000010001C800F46
:102FD000E003F8001800F800E003800F001C001068
:102FE00000000000000000000000000000000000E1
:102FF00000000000000000000000F81F00000000BA
:103000000000F81F000000000000000000000000A9
:1030100000000000000000000000000000000000B0
:103020000000000000000000000008003800F0016F
:10303000C007001F0018001FC007F001380008007B
:10304000000000000000000000000000E003F80F96
:10305000180C0C180C180018000C00060003800156
:10306000C000C000C00000000000C000C0000000A0
:103070000000000000000000000000000000E00769
:1030800018180420C229224A114409440944094459
:1030900009221113E20C024004201818E007000076
:1030A000000000000000000000000000800380031A
:1030B000C006C006C006600C600C3018301830180E
:1030C000F83FF83F1C700C600C6006C006C00000A2
:1030D000000000000000000000000000FC03FC0FE6
:1030E0000C0C0C180C180C180C0CFC07FC0F0C1812
:1030F0000C300C300C300C300C18FC1FFC0700009E
:10310000000000000000000000000000C007F01FE9
:1031100038381C300C7006600600060006000600F9
:103120000600060006600C701C30F01FE00700006F
:10313000000000000000000000000000FE03FE0F81
:10314000060E061806180630063006300630063021
:103150000630063006180618060EFE0FFE030000A5
:10316000000000000000000000000000FC3FFC3FE9
:103170000C000C000C000C000C00FC1FFC1F0C00D1
:103180000C000C000C000C000C00FC3FFC3F00008D
:10319000000000000000000000000000F83FF83FC1
:1031A00018001800180018001800F81FF81F180061
:1031B0001800180018001800180018001800000067
:1031C000000000000000000000000000E00FF83FD9
:1031D0003C780E6006E007C00300030003FE03FE18
:1031E00003C007C006C00EC03CF0F83FE00F00006F
:1031F0000000000000000000000000000C300C3057
:103200000C300C300C300C300C30FC3FFC3F0C30E0
:103210000C300C300C300C300C300C300C3000000A
:10322000000000000000000000000000800180019C
:103230008001800180018001800180018001800186
:1032400080018001800180018001800180010000F7
:103250000000000000000000000000000006000662
:10326000000600060006000600060006000600062E
:1032700000060006180618063807F003E0010000F3
:1032800000000000000000000000000006300618EA
:10329000060C060606038601C60066007600DE0000
:1032A0008E0106030606060C0618063006600000AE
:1032B00000000000000000000000000018001800DE
:1032C000180018001800180018001800180018003E
:1032D00018001800180018001800F81FF81F000048
:1032E0000000000000000000000000000EE01EF0E2
:1032F0001EF01EF036D836D836D836D866CC66CC16
:1033000066CCC6C6C6C6C6C6C6C686C386C30000C9
:103310000000000000000000000000000C301C3025
:103320003C303C306C306C30CC30CC308C310C3399
:103330000C330C360C360C3C0C3C0C380C300000BA
:10334000000000000000000000000000E007F81F7F
:103350001C380E70066003C003C003C003C003C066
:1033600003C003C006600E701C38F81FE0070000A1
:10337000000000000000000000000000FC0FFC1F27
:103380000C380C300C300C300C300C18FC1FFC07C7
:103390000C000C000C000C000C000C000C000000D9
:1033A000000000000000000000000000E007F81F1F
:1033B0001C380E70066003E003C003C003C003C0E6
:1033C00003C007E006630E3F1C3CF83FE0F700C077
:1033D000000000000000000000000000FE0FFE1FC3
:1033E00006380630063006300638FE1FFE07060394
:1033F0000606060C061806180630063006600000A1
:10340000000000000000000000000000E003F80FD2
:103410001C0C0C180C180C001C00F803E00F001E0C
:103420000038063006300E301C1CF80FE007000094
:10343000000000000000000000000000FE7FFE7F92
:103440008001800180018001800180018001800174
:1034500080018001800180018001800180010000E5
:103460000000000000000000000000000C300C30E4
:103470000C300C300C300C300C300C300C300C306C
:103480000C300C300C300C301818F81FE00700001E
:103490000000000000000000000000000360063093
:1034A000063006300C180C180C18180C180C380EB6
:1034B00030063006700760036003C001C0010000E1
:1034C0000000000000000000000000000360C36175
:1034D000C361C3616633663366336633663366330E
:1034E0006C1B6C1B6C1B2C1A3C1E380E380E00001B
:1034F0000000000000000000000000000FE00C7061
:1035000018303018700C600EC00780038003C003B1
:10351000E006700C301C18180C300E6007E000003C
:1035200000000000000000000000000003C0066072
:103530000C301C383818300C6006E007C0038001DE
:1035400080018001800180018001800180010000F4
:10355000000000000000000000000000FC7FFC7F75
:10356000006000300018000C000600038001C0005D
:103570006000300018000C000600FE7FFE7F000097
:10358000000000000000000000000000E003E00375
:10359000600060006000600060006000600060002B
:1035A000600060006000600060006000600060001B
:1035B00060006000E003E003000000003000300025
:1035C000600060006000C000C000C000C001800159
:1035D00080018001000300030003000600060000D4
:1035E000000000000000000000000000E003E00315
:1035F00000030003000300030003000300030003B3
:1036000000030003000300030003000300030003A2
:1036100000030003E003E003000000000000C0011D
:10362000C00160036003600330063006180C180CFC
:10363000000000000000000000000000000000008A
:10364000000000000000000000000000000000007A
:10365000000000000000000000000000000000006A
:10366000000000000000000000000000FFFFFFFF5E
:103670000000000000000000000000000C000C0032
:103680000C000C000C000C0000000000000000000A
:10369000000000000000000000000000000000002A
:1036A000000000000000000000000000000000001A
:1036B000000000000000F003F8071C0C0C0C000FC9
:1036C000F00FF80C0C0C0C0C1C0FF80FF01800008D
:1036D00000000000000000000000000018001800BA
:1036E000180018001800D803F80F380C181818180C
:1036F0001818181818181818380CF80FD8030000E4
:1037000000000000000000000000000000000000B9
:10371000000000000000C003F007300E180C180075
:10372000180018001800180C300EF007C003000035
:103730000000000000000000000000000018001859
:10374000001800180018C01BF01F301C181818189B
:103750001818181818181818301CF01FC01B000073
:103760000000000000000000000000000000000059
:10377000000000000000C003F00F300C1818F81F04
:10378000F81F180018003818301CF00FC007000090
:10379000000000000000000000000000800FC00FCB
:1037A000C000C000C000F007F007C000C000C000AB
:1037B000C000C000C000C000C000C000C0000000C9
:1037C00000000000000000000000000000000000F9
:1037D000000000000000E00DF80F180E0C0C0C0C9F
:1037E0000C0C0C0C0C0C0C0C180EF80FE00D000C53
:1037F0000C0C1C06F807F00100000000180018006F
:10380000180018001800D807F80F381C18181818D6
:103810001818181818181818181818181818000058
:10382000000000000000000000000000C000C00018
:10383000000000000000C000C000C000C000C000C8
:10384000C000C000C000C000C000C000C000000038
:10385000000000000000000000000000C000C000E8
:10386000000000000000C000C000C000C000C00098
:10387000C000C000C000C000C000C000C000C00048
:10388000C000C000F8007800000000000C000C0030
:103890000C000C000C000C0C0C060C038C01CC0072
:1038A0006C00FC009C018C030C030C060C0C00004B
:1038B000000000000000000000000000C000C00088
:1038C000C000C000C000C000C000C000C000C000F8
:1038D000C000C000C000C000C000C000C0000000A8
:1038E00000000000000000000000000000000000D8
:1038F0000000000000007C3CFF7EC7E383C183C161
:1039000083C183C183C183C183C183C183C10000DB
:1039100000000000000000000000000000000000A7
:103920000000000000009807F80F381C181818183D
:103930001818181818181818181818181818000037
:103940000000000000000000000000000000000077
:10395000000000000000C003F00F300C1818181809
:103960001818181818181818300CF00FC003000099
:103970000000000000000000000000000000000047
:10398000000000000000D803F80F380C18181818B1
:103990001818181818181818380CF80FD803180029
:1039A00018001800180018000000000000000000B7
:1039B000000000000000C01BF01F301C1818181871
:1039C0001818181818181818301CF01FC01B0018E9
:1039D0000018001800180018000000000000000087
:1039E000000000000000B007F0037000300030005D
:1039F0003000300030003000300030003000000077
:103A000000000000000000000000000000000000B6
:103A1000000000000000E003F003380E180C38002E
:103A2000F003C007000C180C380EF007E00300008C
:103A30000000000000000000000000000000800006
:103A4000C000C000C000F007F007C000C000C00008
:103A5000C000C000C000C000C000C0078007000058
:103A60000000000000000000000000000000000056
:103A70000000000000001818181818181818181856
:103A80001818181818181818381CF01FE01900001A
:103A90000000000000000000000000000000000026
:103AA0000000000000000C18180C180C180C300650
:103AB00030063006600360036003C001C0010000EF
:103AC00000000000000000000000000000000000F6
:103AD000000000000000C141C141C3616363636332
:103AE00063633636363636361C1C1C1C1C1C000024
:103AF00000000000000000000000000000000000C6
:103B00000000000000001C38381C300C6006600308
:103B10006003600360036006300C381C1C38000032
:103B20000000000000000000000000000000000095
:103B30000000000000001830301830187018600CB9
:103B4000600CE00CC006C006800380038003800187
:103B50008001C001F00070000000000000000000C3
:103B6000000000000000FC1FFC1F000C000600030A
:103B70008001C000600030001800FC1FFC1F000026
:103B800000000000000000000000000000038001B1
:103B9000C000C000C000C000C000C00060006000E5
:103BA000300060004000C000C000C000C000C00085
:103BB000C0008001000300000000000080018001BF
:103BC00080018001800180018001800180018001ED
:103BD00080018001800180018001800180018001DD
:103BE0008001800180018001000000006000C000B1
:103BF000C001800180018001800180010003000379
:103C00000006000300018001800180018001800125
:103C10008001C00060000000000000000000000003
:103C200000000000000000000000F010F81F080F66
:103C30000000000000000000000000000000000084
:103C40000000000000000000000000000000000074
:103C50000000010203040607080900007C3C00087C
:103C6000000000204000000014020008BC3C0008D6
:103C700040000020C8060000300200080000FFFFDE
:103C80000000000001010000000000000000000032
:103C90000000000000000000000000000000000024
:103CA0000000000000000000000000001000000004
:0C3CB00001000000000000000024F400EF
:04000005080001D915
:00000001FF
