:020000040800F2
:1000000018080020990200085B4100089137000899
:100010005941000849160008E74A0008000000009E
:100020000000000000000000000000007344000811
:100030004B160008000000005D41000875440008F0
:10004000B3020008B3020008B3020008B3020008BC
:10005000B3020008B3020008B3020008B3020008AC
:10006000B3020008B3020008B3020008B30200089C
:10007000B3020008B3020008B3020008B30200088C
:10008000B302000800000000B3020008B302000839
:10009000B3020008B3020008B3020008B30200086C
:1000A000B3020008B3020008B3020008B30200085C
:1000B000F544000801450008B3020008B302000837
:1000C000B3020008B3020008B3020008B30200083C
:1000D000B3020008B3020008B3020008B30200082C
:1000E000B3020008B3020008B3020008B30200081C
:1000F000B3020008B3020008B302000800000000C9
:1001000000000000B302000800000000B302000875
:10011000B302000800000000B3020008B3020008A8
:10012000B3020008B3020008B3020008B3020008DB
:10013000B30200080000000000000000B302000845
:10014000B3020008B3020008000000000000000035
:10015000000000000000000000000000000000009F
:10016000000000000000000000000000B3020008D2
:10017000B3020008000000000000000000000000C2
:1001800000000000B30200080000000000000000B2
:10019000000000000000000000000000000000005F
:1001A0000000000000000000B3020008B3020008D5
:1001B000B3020008B3020008B30200080000000008
:1001C00000000000B3020008000000000000000072
:1001D000B3020008B302000800F002F800F04CF887
:1001E0000AA090E8000C82448344AAF10107DA4592
:1001F00001D100F041F8AFF2090EBAE80F0013F098
:10020000010F18BFFB1A43F0010318477462000086
:1002100094620000103A24BF78C878C1FAD8520717
:1002200024BF30C830C144BF04680C607047000070
:100230000023002400250026103A28BF78C1FBD8EF
:10024000520728BF30C148BF0B607047662904F0D1
:10025000DA87752900F07C80002070471FB504F014
:10026000CDFF00F011FC04000020002104F09CFCF4
:10027000E0601FBD10B510BD00F006FD1146FFF790
:10028000EDFF04F061FC00F024FD03B4FFF7F2FF82
:1002900003BC00F067FD000009488047094800479B
:1002A000FEE7FEE7FEE7FEE7FEE7FEE7FEE7FEE726
:1002B000FEE7FEE704480549054A064B7047000083
:1002C000E5440008D90100081802002018080020A1
:1002D00018040020180400200FB41CB5074B06AA10
:1002E0007B4469460090059800F0B5FB0020694604
:1002F00000F0C4FB1CBC5DF814FB00009907000073
:1003000070B5044685690068C10601D5302600E055
:100310002026C00707D070BDD4E9012130469047A0
:10032000206A401C20626D1EF6D570BD70B5044673
:1003300085690078C00707D170BDD4E9012120206C
:100340009047206A401C20626D1EF6D570BD0000EB
:100350002DE9F0410646002410687529314616A59E
:1003600010D0AFF30080002802DA404213A507E066
:1003700031688A0701D512A502E0490704D511A505
:10038000012401E0AFF3008000210A2206F12407D6
:1003900009E0B0FBF2FCB0FBF2F302FB1C003030D2
:1003A00078541846491C0028F3D123462A46304683
:1003B000BDE8F04100F0E2B8000000002D000000B0
:1003C0002B000000200000002DE9F0474FF0000A4C
:1003D00089460446C0F820A02046E16888470028E6
:1003E00076D0252806D0D4E901219047206A401C08
:1003F0002062F1E7E168204600268847C4F81CA087
:1004000005460027C4F818A02A2D09D0284604F074
:1004100093FB38B304EB8708303DC8F8185019E057
:1004200059F8041B204604EB87029161E168884774
:10043000012F054618D1E069002820DA26F02006B1
:100440001DE0D8F8180000EB800005EB40003038C4
:10045000C8F818002046E1688847054604F06CFBA0
:100460000028EED1012F0AD02E2D08D12046E168B8
:1004700088477F1C0546022F46F02006C4DBA06992
:10048000002803DA404246F00106A061F00701D0DF
:1004900026F010066C2D0AD0682D08D04C2D39D0CE
:1004A0006A2D35D0742D35D07A2D33D016E0E16821
:1004B0002F4620468847B84205460AD16C2F27D0E0
:1004C0004FF48060E168064320468847054605E012
:1004D00027E06C2F1AD04FF4807006430DB3A5F1BE
:1004E0004100192802D8203546F400664A462946BC
:1004F000204626604E46FFF7A9FE80B101280BD0AA
:10050000F61D26F0070000F1080965E74020E4E742
:100510008020D7E70020D5E706F104095CE72846EC
:1005200061E7206ABDE8F0874FF0000200B513468E
:1005300094469646203922BFA0E80C50A0E80C5003
:10054000B1F12001BFF4F7AF090728BFA0E80C50B4
:1005500048BF0CC05DF804EB890028BF40F8042BAD
:1005600008BF704748BF20F8022B11F0804F18BF1A
:1005700000F8012B70477047704770472DE9F0472E
:100580000D4699469246044600F124080168880603
:1005900004D5E06921F01001216000E00120A842AB
:1005A00001DD471B00E00027A1697A1902EB090071
:1005B000081AA0612078C00602D42046FFF7A0FEEA
:1005C000002608E0D4E901211AF806009047206AC5
:1005D000401C761C20624E45F4DB2078C0060AD50C
:1005E0002046FFF78DFE06E0D4E901213020904738
:1005F000206A401C2062381EA7F10107F4DC07E0E6
:10060000D4E9012118F805009047206A401C2062B7
:10061000281EA5F10105F3DC2046FFF787FE2078B0
:10062000000602D50220BDE8F0870120FBE77047F5
:100630002DE9FF4F0C461E464FF0FF378BB0D2E935
:100640000001DDF860800A908A46C1F30A5505B9B9
:100650003D46002108464FF00000BAF1000F00F4BB
:10066000400005DA00EB80004FF4400101EA500041
:100670004FEA9059B9F1010F00DDB9460A9850EAE6
:100680004A000ED044F61050A5F2FF3545432F1412
:10069000B8F1000F1ED07542291E1EDDC9F10002FF
:1006A0001CE0B8F1010F4FF0000001D0302103E051
:1006B000F24305E02154401CB042FBDB30460022EF
:1006C000002121540B99C1F80880C1E900200FB026
:1006D000BDE8F08FBD1B6D1CDEE74A4600DA6942BB
:1006E00006A800F05BFA06AB93E8070003AB83E8CB
:1006F000070050460A9900F03CFB8DE80700A0F582
:1007000000501F3800900398002D0ADD42F21F01AF
:100710004A460844002303A90390684600F0A5FD5B
:1007200009E0A0F500504A461F38002303A90390B2
:10073000684600F0AFFD8DE807000004000C03D010
:100740004FF0FF30410800E01046B8F1000F03D031
:100750000022009215461EE0751E05D400F098F99F
:10076000303262556D1EF9D5B3460122084302D0DE
:1007700000227F1C04E02078302801D100227F1E57
:10078000002A099784D01DE0112D07DA00F080F9C6
:10079000303262556D1C50EA0102F5D1084302D097
:1007A0000098C8B10EE00021681E05E0235C625C81
:1007B00063542254401E491C8142F7DBAB46A81B00
:1007C000401E0990002004F80B000B98099AC0F80D
:1007D0000880C0E9002B7AE711264FF0000857E7A0
:1007E0002DE9F04F88460446D21D22F0070191B052
:1007F000D1E90001CDE90A0104F076F902460B982F
:10080000C00F01D02D2007E02068810701D52B20E3
:1008100002E0202101EAC000032A099001D0072A42
:1008200005DB03464146204600F078F90BE12078CD
:10083000800601D5E06900E00620B8F1650F814629
:1008400006D0B8F1660F18D0B8F1670F70D131E05B
:100850000020B9F1110F009001DB112301E009F133
:1008600001030AAA01A90CA8FFF7E2FEDDE90C705A
:10087000002609F10105834647E001204B46009020
:100880004FF000470AAA01A90CA8FFF7D1FEDDE945
:100890000DB00C995D46002610B909F101000D1844
:1008A000B9EB050003D4C0F1FF3609F10105A5EB52
:1008B00009002BE0B9F1010F01DA4FF00109002026
:1008C000B9F1110F0090484601DD112300E0034605
:1008D0000AAA01A90CA8FFF7ABFEDDE90C704D4692
:1008E00000268346207800070AD4AB4500DA5D462F
:1008F00001A8012D04DD411911F8011C302907D090
:100900004F4502DA17F1040F04DA012082460FE0A6
:100910006D1EEEE7002F02DCED1B3E4403E0781C69
:10092000A84200DD7D1CB81B00F1010A4FF0004712
:100930002078000703D4AA4501DB4FF0FF3A0021DD
:10094000B7F1004F0DF143088DF8431024D0022079
:100950002B23002F01DA7F422D230A21021EA0F152
:10096000010000DC5FB197FBF1FC97FBF1F201FBAA
:100970001C7C17460CF1300C08F801CDEEE7A8F10D
:10098000010003702188090501D5452100E065219A
:10099000A0F1010800F8011C09980FA9A1EB0807B4
:1009A000FF1D00B10120411901EBEA70A169384433
:1009B000081A401EA0612078C00602D42046FFF726
:1009C0009FFC099828B1D4E901219047206A401C76
:1009D00020622078C00622D52046FFF791FC1EE059
:1009E000002E04DBB34502DD01A8805D00E030206D
:1009F000D4E901219047206A401C2062761CAAF1AC
:100A000001005FEA000A0AD100F03EF8C068016800
:100A1000405CD4E901219047206A401C2062281ED6
:100A2000A5F10105DCDC07E0D4E9012118F8010B90
:100A30009047206A401C2062381EA7F10107F3DCB2
:100A40002046FFF773FC032011B041E601694A1C00
:100A500002610878704700B58FB0CDE901310021FF
:100A6000059105497944CDE9031011466846FFF721
:100A7000ABFC0FB000BD0000E5FFFFFF0A6802F805
:100A8000010B0A607047000000487047D801002041
:100A900030B5B0F10A024FEA900E71F100034EEA50
:100AA000817EB0EB0E0061EB91014FEA101E4EEA21
:100AB000017E10EB0E0041EB11114FEA102E4EEAB1
:100AC000016E10EB0E0041EB11214FEA104E4EEA81
:100AD000014E10EB0E0041EB1141401841F10001B5
:100AE0004FEAD00040EA41704FEAD10110EB800597
:100AF0004FEA810444EA907444EB01046D1944EB1D
:100B00000404521BA3414FF0000348BF0A3200D532
:100B100030BD401C41F1000130BD00002DE9F04125
:100B20001F46044603260168072A01F4006004DB1F
:100B300008B116A505E016A503E008B115A500E06B
:100B400015A521F010002060A069C01EA0610FB1A2
:100B5000401EA0612046FFF7D3FB4FB1D4E901212D
:100B600038469047206A401C2062C01C206206E084
:100B7000206AFAE7D4E9012115F8010B9047761EA7
:100B8000F8D22046FFF7D2FBBDE8F0814E414E007F
:100B90006E616E00494E4600696E66002DE9F047B1
:100BA000814616468AB0354878440DC88DE80D0058
:100BB00032487844801C03AC0DC884E80D0041F62F
:100BC0009B300844372190FBF1F290FBF1F5A5F141
:100BD000800501FB12041B3C02D56442012000E0A9
:100BE0000020DFF898A080460027FA44AAF1BE0A48
:100BF0000EE0E0070AD03246684607EB47010123C2
:100C00000AEB810100F046FB8DE8070064107F1CB1
:100C1000002CEED1194F7F44AE3F19E0E80715D004
:100C200007EB04100DF1180A90E80E008AE80E0098
:100C3000C068F04201D1981908903246012306A9F4
:100C400003A800F027FB03AB83E807006D10641CCA
:100C5000002DE3D14FF0010332466946B8F1000F91
:100C600003A802D000F001FB01E000F013FBC9E98A
:100C70000001C9F808200AB0BDE8F087BC580000A0
:100C800000487047B80100207546FFF7F9FFAE46EF
:100C900005006946534620F00700854618B020B588
:100CA000FFF708FBBDE820404FF000064FF00007BB
:100CB0004FF000084FF0000B21F00701AC46ACE804
:100CC000C009ACE8C009ACE8C009ACE8C0098D4671
:100CD000704710B50446AFF300802046BDE81040D1
:100CE000FFF7D3BA4FF0013C50F8042B51F8043B06
:100CF0009A4221D1A2EB0C03934313EACC1317D1F0
:100D000050F8042B51F8043B9A4215D1A2EB0C0386
:100D1000934313EACC130BD150F8042B51F8043B46
:100D20009A4209D1A2EB0C03934313EACC13DBD014
:100D30004FF00000704700BFD01A01BAB1FA81F13C
:100D400001F0180122FA01F0CB40C1F12001DBB221
:100D5000C0B2C01A2CFA01F3D11A914311EAC3119F
:100D6000E6D1704701491820ABBEFEE7260002001D
:100D700070475FEA400C08BF91F0000F4FEA8C23E8
:100D80004FEAC12243EA51514FEA1C5018BF00F507
:100D9000F0404FEA300018BF41F000415FEA6C5C60
:100DA00000F02980BCF1FF3F08BF40F08040704751
:100DB000130C06BF12044FF0100C4FF0000C130E72
:100DC00004BF12020CF1080C130F04BF12010CF146
:100DD000040C930F04BF92000CF1020CD30F04BF5C
:100DE00052000CF1010C11464FF00002A0F11F005F
:100DF000A0EB0C00704711F0004F08BF704731F0B6
:100E000000413FF4D5AF0B0C06BF09044FF0100CA6
:100E10004FF0000C0B0E04BF09020CF1080C0B0F75
:100E200004BF09010CF1040C8B0F04BF89000CF105
:100E3000020CCB0F04BF49000CF1010CCCF12003D4
:100E4000A0EB0C0022FA03F302FA0CF241EA0301D0
:100E500000F10100704720F07F4C80EA030023F08E
:100E60007F47ACEB070303F57C5300F0004003F130
:100E7000FF032DE980494FEA154B09B44FEA1443AB
:100E800025EA0B4E24EA03480FF2042606EB13274B
:100E900049083E785FEA320203FB0667C7F50007A0
:100EA00007FB06F64FEA54374FEAD64606F102062C
:100EB00007FB066CCCF1005C4FEA1C472CEA074CA0
:100EC00007FB06F40CFB06F504EB15464FEA9616F5
:100ED00034BF00204FF000404FEAD13706FB07FC3B
:100EE0004FEA1C4C0CFB0BF7D21B03FB0CF761EB1E
:100EF00007010CFB0EF7B0EB074072EB17420CFB3F
:100F000008F734BFA2EB0742B2EB074261EB17418F
:100F10004FEA0C444FEA910706FB07FC4FEA1C4CD2
:100F20000CFB0BF7B0EBC74072EB573203FB0CF72F
:100F300034BFA2EBC742B2EBC74261EB57310CFBA7
:100F40000EF7B0EBC70072EB57720CFB08F734BF1B
:100F5000A2EBC702B2EBC70261EB5771039F4FEAE6
:100F6000816141EA921104EBCC044FEAD1374FEA98
:100F7000826206FB07FC42EA90124FEA80604FEA69
:100F80001C4C0CFB0BF7D21B03FB0CF761EB0701AE
:100F90000CFB0EF7B0EB074072EB17420CFB08F7A7
:100FA00034BFA2EB0742B2EB074261EB17414FEAB5
:100FB0008C554FEA910704EB9C2406FB07FC4FEA93
:100FC0001C4C0CFB0BF7B0EBC74072EB573203FB2A
:100FD0000CF734BFA2EBC742B2EBC74261EB57310B
:100FE0000CFB0EF7B0EBC70072EB57720CFB08F767
:100FF00034BFA2EBC702B2EBC70261EB577115EB2E
:101000004C254FEA816141EA92114FEA82624FEA30
:10101000D13742EA901206FB07FC44F100044FEA84
:1010200080604FEA1C4C0CFB0BF7D21B03FB0CF748
:1010300061EB07010CFB0EF7B0EB074072EB1742B8
:101040000CFB08F734BFA2EB0742B2EB074261EB9F
:10105000174115EB1C154FEA813141EA92414FEAE5
:10106000823242EA90424FEA80304FEA0C7644F1F5
:10107000000448EA03434EEA0B484FF0000EB2EB7F
:10108000080C71EB030724BF624639464EEB0E0E87
:101090004FF0000B0018524149414BEB0B0BB2EBE8
:1010A000080C71EB03077BF1000B24BF6246394645
:1010B0004EEB0E0E4FF0000B0018524149414BEB26
:1010C0000B0BB2EB080C71EB03077BF1000B24BF99
:1010D000624639464EEB0E0E51EA020718BF46F043
:1010E000010616EB0E7655F1000254F1000103D50E
:1010F000BDE88901BDE80088BDE88901BDE8004878
:10110000B619524141EB0101A3F101037047808000
:101110007F7E7D7C7B7A7978777676757473727151
:1011200071706F6E6E6D6C6C6B6A6A696868676609
:1011300066656464636362616160605F5F5E5E5D9B
:101140005D5C5C5B5B5A5A5959585857575656550F
:1011500055555454535352525251515050504F4F71
:101160004F4E4E4D4D4D4C4C4C4B4B4B4A4A4A49C1
:101170004949484848474747474646464545454404
:101180004444444343434342424242414141002B91
:101190009C4630D477002BD01CB54FEA370703B4F8
:1011A0004FF010004FF01001BAF1000F06D0BCF163
:1011B000000FDCBF40F0080040F008014FF00000D5
:1011C0000FBCBDE810400BF1010BBBF1010F08BFD4
:1011D0005FEA170722BF12F1010211F101014FF07E
:1011E000004143F1000300F0004043EA0000704773
:1011F000F9D35708D0E746EA064613F1400F4FEA05
:1012000016461FDD13F1200FDFBF16430A460021EB
:1012100020335B42BED0C3F1200746EA064602FAFD
:1012200007F74FEA164646EA0706C3F1200722FAF7
:1012300003F201FA07F721FA03F14FF0000342EA43
:101240000702A7E746EA020646EA06464FEA1646BE
:1012500046EA0106BCBF46EA0646360C4FF00003DC
:101260004FF000024FF0000194E72DE9804C9A46C0
:10127000934670B491E8380007C831EA400C48BF83
:1012800034EA430C03D5FFF7E6FDFFF780FFF0BC1F
:10129000BDE8008C2DE9804C9A46934670B491E8E5
:1012A000380007C810F0804F08BF13F0804F03D1FB
:1012B00000F005F8FFF76BFFF0BCBDE8008C20F0F4
:1012C0007F4780EA030023F07F4C07EB0C03A3F574
:1012D0007C5300F00040A3F1FE0392F0000F00F0F9
:1012E000B38095F0000F00F077802DE901494FEAB7
:1012F00011404FEA144621EA004800FB06FC24EAAC
:10130000064708FB06F607FB08F800FB07F718EB93
:1013100006484CEB164C4FEA124B18EB07484FEAC5
:1013200015464CEB174022EA0B4E0BFB06FC25EA58
:1013300006470EFB06F607FB0EFE0BFB07F71EEB40
:10134000064E4CEB164C4FF000061EEB074E4CEBD6
:10135000174B18EB0B0840F1000018EB0E0B58EB85
:10136000000840F100008F1A4FF000013CBFC94354
:10137000661B14BFB5EB040C00213CBFC943F61B30
:101380004FEA17444EEA8E0E27EA04454FEA1C47FF
:1013900004FB07622CEA074C05FB07F70CFB05F67C
:1013A00004FB0CFC16EB074642EB174216EB0C460F
:1013B00042EB1C421BEB060658EB0202414146EA97
:1013C0009E0601D5BDE80189B619524141EB0101E4
:1013D000A3F10103BDE801894FEA14454FEA114723
:1013E00024EA054621EA074C05FB07F406FB07F74C
:1013F0000CFB06F105FB0CFC11EB074144EB174419
:101400004FEA124711EB0C4144EB1C4422EA074C13
:1014100005FB07F206FB07F70CFB06F605FB0CFCC9
:1014200016EB074642EB174216EB0C4642EB1C4507
:101430006A1854F1000148BF7047B619524141EB98
:101440000101A3F10103704795F0000F37D04FEA77
:1014500011424FEA144721EA024624EA074C02FBF4
:1014600007F106FB07F70CFB06F402FB0CFC14EB80
:10147000074441EB17414FEA154714EB0C4441EB8D
:101480001C4125EA074C02FB07F506FB07F70CFB9E
:1014900006F602FB0CFC16EB074645EB174516EB70
:1014A0000C4645EB1C42121951F1000148BF704730
:1014B000B619524141EB0101A3F1010370474FEA14
:1014C00014454FEA114724EA054621EA074C05FB7B
:1014D00007F106FB07F70CFB06F24FF0000605FBD1
:1014E0000CFC12EB074241EB174112EB0C4251EBA3
:1014F0001C4148BF7047921841EB0101A3F1010361
:101500007047000070B504460068816811F0010F53
:101510002DD18168174A11421AD18168D5432940DB
:10152000491C816000F0B2FD06461BE0816811F0A5
:10153000010F03D181682940491C816000F0A6FD9C
:10154000801B02280ED920680068C043C00709D05C
:10155000E06D40F01000E065206E40F00100206674
:10156000012070BD20680168C943C907DED1002091
:1015700070BD00003F00008010B528482DED048BA1
:101580000168274C2269891A642944D900682061BE
:1015900000F06CF803F0AFFC9FED229B53EC192B8D
:1015A00003F0F8FC9FED211B53EC112B03F01EFB05
:1015B00041EC180B53EC192B84ED0A8B03F016FB4E
:1015C00094ED081B53EC112B03F0E4FC41EC100BE1
:1015D00084ED0C0B03F062FC1649096848639FED2B
:1015E000160B51EC180B53EC102B03F097FC0AD39D
:1015F0009FED130B53EC102B94ED0A0B51EC100BD9
:1016000003F0C6FD03D8E07840F0040002E0E07883
:1016100020F00400E070BDEC048B10BD48000020F9
:10162000080000206666666666660A4000000000E4
:1016300000FEAF406C010020000000000000F03F01
:101640000000000000000840FEE77047002240F65E
:10165000B83306E00021491C89B29942FBD3521CE1
:1016600092B28242F6D3704772B6FEE710B50448D4
:1016700000F052FB024800F011FA80B210BD0000E9
:10168000680000202DE9F84F00270446009790F8E5
:101690005800DFF8D8930D46B846012811D001262E
:1016A00084F85860206802F0C9FA60B1E06D40F03B
:1016B0002000E0655FF0010784F858803846BDE8F7
:1016C000F88F0220FBE7D5E900210C23206803EA0C
:1016D00091131844036B01F01F014FF01F0C0CFA1B
:1016E00001FCC2F3846223EA0C038A4013430363C0
:1016F000206802F0A3FA8246206802F09BFA5AEAB8
:1017000000003CD1AA6829682068B2F1004F37D0A8
:1017100002F098FA2068416921F000414161206897
:101720006969C268C2F3C102520091402A69042A61
:1017300031D000EB82002B68026EDFF834C303F077
:10174000F84302EA0C020B431A4342F000410166DF
:1017500020682A69A96900EB8200026E22F080727B
:101760000A430266297F22682869012910D00021D6
:1017700002EB8000026E22F000720A4302667DE0F6
:10178000002202F05FFA2068416941F00041C5E79C
:101790004FF00071ECE7002102F046FA40032068A8
:1017A0004FF0000172D002F03FFA90FAA0F0B0FAC8
:1017B00080F1286842036ED090FAA0F0B0FA80F071
:1017C000814204D100221146206802F04AFA012128
:1017D000206802F029FA400320684FF001015DD033
:1017E00002F022FA90FAA0F0B0FA80F128684203E1
:1017F00059D090FAA0F0B0FA80F0814204D10022D2
:101800000121206802F02DFA0221206802F00CFA72
:10181000400320684FF0020148D002F005FA90FA28
:10182000A0F0B0FA80F12868420344D090FAA0F00A
:10183000B0FA80F0814204D100220221206802F037
:1018400010FA0321206802F0EFF9400320684FF0FE
:10185000030133D002F0E8F990FAA0F0B0FA80F179
:10186000286842032FD090FAA0F0B0FA80F08142AD
:1018700004D100220321206802F0F3F92068816876
:1018800011F0010F22D0A8E000E004E002F0CCF952
:10189000C0F384618DE7C0F3846091E702F0C4F97E
:1018A000C0F38461A2E7C0F38460A6E702F0BCF94C
:1018B000C0F38461B7E7C0F38460BBE702F0B4F91A
:1018C000C0F38461CCE7C0F38460D0E7EB6829689B
:1018D0004B4550F8B03FC1F3120101D10B4300E07A
:1018E0008B430360E868484577D1286841031CD0E2
:1018F00090FAA0F1B1FA81F1491C01F01F01092908
:101900004FEA403132D8002912D000BF90FAA0F13E
:10191000B1FA81F101F1010101F01F0106FA01F6AE
:1019200009D100BFC0F3846109E0C0F38461E3E73B
:10193000C0F38461EEE790FAA0F1B1FA81F101F110
:10194000010101F01F0146EA816102D1C0F3846008
:1019500003E090FAA0F0B0FA80F000F1010000F08E
:101960001F0000EB400041EA005132E000290ED098
:1019700090FAA0F1B1FA81F101F1010101F01F012A
:1019800006FA01F606D100BFC0F3846106E0C0F399
:101990008461F1E790FAA0F1B1FA81F101F101015E
:1019A00001F01F0146EA816102D1C0F3846003E0C7
:1019B00090FAA0F0B0FA80F000F1010000F01F00F2
:1019C0002C4A00EB400002EB005041EA000141F0DC
:1019D0000071AA68206802F035F927482A68024297
:1019E0003FF46AAE25488168254B01F0E0719A42C8
:1019F00002D0244B9A421CD10B021AD42268B2F1B5
:101A0000A04F7FF459AE826841F4000122F0E072E9
:101A10000A4382601C481D490068B0FBF1F0401C7D
:101A200000EB4000800000E0401E00900028FBD149
:101A300042E6174D174BAA4207D1CD0105D42268C3
:101A40009A42F5D041F0807109E0134DAA42EFD1DE
:101A50004A02EDD422689A42EAD041F480018268B9
:101A600022F0E0720A43826026E6000000007F4018
:101A700000F0FF03000020FE00000880000300507B
:101A8000000021C31000C0904C000020400D030056
:101A9000000052C700010050000084CB0068006CB9
:101AA00070470000F8B54FF0000504002E46009581
:101AB00002D0E06D10B107E00120F8BD204600F033
:101AC000EFF8266684F8586020688168C1F3407199
:101AD00019B181686A4A1140816020688168C1F348
:101AE000007189B98168674A114041F08051816075
:101AF000654866490068B0FBF1F04000801C00E0DA
:101B0000401E00900028FBD120688168C1F300715D
:101B100041B9E16D41F01001E165216E41F0010133
:101B20002166012502F08AF8E16DC90600D430B1C2
:101B3000E06D40F01000E06501252846F8BDE06D3D
:101B400020F4807040F00200E0652068806810F0AA
:101B5000010F11D14FF0A04080684D4900F0010005
:101B6000896801F00101084306D14A48616882682A
:101B700022F47C120A438260E168E06B627F0843D2
:101B8000A16841EA4231084394F8241040EA014038
:101B9000012904D1218D404A02EB41410843E16A09
:101BA00029B101F47871226B014342EA01002168F6
:101BB000CA683A4B1A400243CA6020680169626BE6
:101BC00021F0406111430161206802F037F80646B8
:101BD000206802F02FF830432ED1207F94F838107F
:101BE000800340EA41022068C16844F2020399433D
:101BF0001143C16020690028206801690AD041F4BE
:101C000080310161206850F8C01F22696FF30D0117
:101C1000114307E021F480310161206850F8C01FB2
:101C20006FF30D01016094F8400001280CD020688A
:101C3000016921F001010161606901282068016BDF
:101C400021F00F0111D013E0D4E911010843D4E9C8
:101C500013121143084321680A6940F2FC739A4346
:101C6000104340F001000861E6E7226A521E11436A
:101C70000163E06D20F0020040F00100E0655CE7E8
:101C8000C0FFFF5FC0FFFF7F4C000020400D03003E
:101C900000010050000300500000FEFF0740F0FF6D
:101CA00010B598B00446142111A8FEF73DFC44215C
:101CB0006846FEF739FC15492068884223D1C401E3
:101CC000400500940F90684600F0DEFA08B1FFF777
:101CD000CBFC0F48C16C41F40051C164C16C01F4EC
:101CE00000511691C16C41F00201C164C06C11A990
:101CF00000F0020016900320CDE91140002013905F
:101D0000044800F095F818B010BD00000001005024
:101D100000100240000400482DE9F0410446384814
:101D2000806800F01F05206801F088FF18B10221CB
:101D30000846BDE8F08194F8580001280CD0012035
:101D400084F858002046FFF7DDFB01004FF0000348
:101D500004D084F85830EBE70220EAE7E06D40F663
:101D60000162904340F48070E065264A20684FF09D
:101D7000A046904201D1374600E00746874200D096
:101D80001DB9E76D27F48017E765E76DFF0404D5FB
:101D9000276E27F00607276600E023661C270760EA
:101DA00084F858302068904201D1334600E0034661
:101DB000834215D0A5B1052D12D0092D10D0E36DA9
:101DC00043F48013E365904200D13046C06880013F
:101DD000AED5E06D20F4005040F48050E065A7E7F8
:101DE000C268920105D5E26D22F4005242F480529D
:101DF000E2658268044B1A40121D826098E7000079
:101E00000003005000010050C0FFFF7F70B5044682
:101E100000F03CF90546601C02D0044840680444C8
:101E200000F034F9401BA042FAD370BD40000020FE
:101E30002DE9F04FDFF82092002301260324A9F1B9
:101E4000040B85B00F2709F1040AABF1040EFAE088
:101E500006FA03F52A407CD091F804C00CF0030C7C
:101E6000BCF1010F02D0BCF1020F26D1D0F808C09E
:101E7000CDF800C04FEA430C04FA0CF8CDF810C0BE
:101E8000DDF800C02CEA080CCDF800C0D1F80C80B9
:101E9000DDF810C008FA0CF8DDF800C048EA0C08BC
:101EA000C0F80880D0F804C02CEA050C0D79C5F301
:101EB00000159D4045EA0C0545600D79ED43AD07E1
:101EC0000ED0C5684FEA430804FA08FC25EA0C0561
:101ED000D1F808C00CFA08FC4CEA050CC0F80CC09C
:101EE0000D7905F00305022D16D1DD0800EB850CF8
:101EF000CDF808C0DCF820805D074FEAD56C07FA02
:101F00000CF528EA05080D6905FA0CF5DDF808C09E
:101F100045EA0805CCF8205005684FEA430CCDF897
:101F200008C004FA0CFC25EA0C0591F804C00CF07A
:101F30000308DDF808C008FA0CF848EA0508C0F8FC
:101F400000804D6815F4403F7CD0444DD5F860C00A
:101F500000E077E04CF0010CC5F860C02D6E23F076
:101F6000030C05F0010500953D4D65440295AD68F3
:101F70004FEA837C4FEA1C7807FA08FC25EA0C0537
:101F8000B0F1904F06D0DFF8DCC0604505D14FF0CE
:101F9000010C20E04FF0000C1DE0DFF8CCC06045E4
:101FA00002D14FF0020C16E0DFF8C0C0604502D14C
:101FB0004FF0030C0FE0DFF8B8C0604502D14FF0DE
:101FC000040C08E0DFF8ACC0604502D14FF0050C0E
:101FD00001E04FF0060C0CFA08FC4CEA050C029DDF
:101FE000C5F808C0D9F80050CC46D1F80480954314
:101FF0005FEAC82800D51543CCF80050DAF8005045
:10200000D446D1F8048095435FEA882800D515436B
:10201000CCF80050DBF80050DC46D1F80480954342
:102020005FEA883800D51543CCF80050DEF8005040
:10203000F446D1F8048095435FEAC83800D51543CB
:10204000CCF800505B1C0A6832FA03F57FF400AF4D
:1020500005B0BDE8F08F0000080401400010024008
:10206000000001400004004800080048000C00483F
:1020700000100048001400480069084000D001200A
:1020800070470AB18161704781627047014880687A
:1020900070470000400000200248816842681144F7
:1020A000816070474000002010B50024032000F03C
:1020B00073F80F2000F008F808B1012401E000F0E7
:1020C00025F8204610BD000070B50E4E05460024D0
:1020D000706898B14FF47A71B1FBF0F00A49096861
:1020E000B1FBF0F000F03EFD40B9102D06D2002209
:1020F0002946501E00F030F8356000E001242046EB
:1021000070BD0000400000204C0000200A4882B052
:10211000016E41F001010166016E01F001010091C3
:10212000816D41F080518165806D00F0805000909C
:1021300002B000F0A1B8000000100240002809DB46
:1021400000F01F02012191404009800000F1E020D1
:10215000C0F8001170470000F0B40E4B1B680C462D
:10216000C3F30223C3F10705042D00D90425191D6B
:10217000072901D2002300E0DB1E012606FA05F143
:10218000491E214099409E40761E16403143F0BCC6
:1021900002F0C2BC0CED00E0064900F0070208683E
:1021A0004FF6FF03184040EA0220034A104308603C
:1021B000704700000CED00E00000FA052B492C4BA5
:1021C0000A6832214A432B4940B1B0F5007F0868C4
:1021D00029D020F4C06040F480602CE00868C0F38F
:1021E0004120022804D051F8800F20F4807022E0B2
:1021F000D1F8800020F48070C1F88000086820F4D5
:10220000C06040F400700860B2FBF3F0401C00E0D6
:10221000401E4A69520501D50028F9D14869400598
:102220000AD503207047C0F34120022806D051F898
:10223000800F40F48070086000207047D1F8800063
:1022400040F48070C1F88000086820F4C06040F459
:1022500000700860B2FBF3F0401C00E0401E4A69C9
:102260005205DBD50028F9D1D8E700004C0000204A
:1022700040420F00007000400248816841F48041F4
:1022800081607047007000402DE9F8430446006803
:1022900000269D4D00035ED5A86D0027C00008D420
:1022A000A86D40F08050A865A86D012700F080500F
:1022B0000090DFF85892D9F8001041F48071C9F805
:1022C0000010FFF7E3FE804606E000BFFFF7DEFEEA
:1022D000A0EB080002282BD8D9F80000C005F5D5DE
:1022E000D5F8900010F4407014D0216C814211D0C8
:1022F000D5F89000D5F8901020F4407041F480316A
:10230000C5F89010D5F8901021F48031C5F89010E0
:10231000C5F89000C00711D0FFF7B8FE804641F223
:10232000883907E0FFF7B2FEA0EB0801494501D963
:1023300003260BE0D5F890008007F3D5D5F8900080
:10234000216C20F440700843C5F890001FB1A86DBF
:1023500020F08050A8652078C00707D0D5F8880005
:10236000616820F003000843C5F8880020788007E2
:1023700007D5D5F88800A16820F00C000843C5F8FF
:1023800088002078400707D5D5F88800E16820F05C
:1023900030000843C5F888002078000707D5D5F835
:1023A0008800216920F0C0000843C5F88800207823
:1023B000800607D5D5F88800616920F4406008439D
:1023C000C5F888002078400607D5D5F88800A169AF
:1023D00020F440500843C5F888002078000607D54F
:1023E000D5F88800E16920F440400843C5F888002A
:1023F0002088C00507D5D5F88800216A20F4403030
:102400000843C5F888002088800507D5D5F88800DE
:10241000616A20F440200843C5F888002088400500
:102420000FD5D5F88800A16A20F440100843C5F8FC
:102430008800A06AB0F5801F03D1E86840F48010DE
:10244000E860208800050FD5D5F88800E16A20F4FF
:1024500040000843C5F88800E06AB0F5800F03D15A
:10246000E86840F48010E8602088C0040FD5D5F8F3
:102470008800216B20F040700843C5F88800206B6D
:10248000B0F1807F03D1E86840F48010E8602088D4
:102490004FF0006180040ED5D5F88800626B20F003
:1024A00040601043C5F88800606B884203D1E8683B
:1024B00040F48010E860208840040ED5D5F88800EC
:1024C000A26B20F040601043C5F88800A06B8842E2
:1024D00003D1E86840F48010E860208800040FD53C
:1024E000D5F88800E16B20F040500843C5F888001B
:1024F000E06BB0F1805F03D1E86840F48030E860C1
:102500003046BDE8F8830000001002400070004033
:102510002DE9F0470E4605004FF0000725D0DFF803
:10252000AC81D8F8000000F00F00B0420CD2D8F80F
:10253000001021F00F013143C8F80010D8F8000056
:1025400000F00F00B04210D12968614CC80741F279
:10255000883A5AD06868DFF87C91032808D00228AE
:1025600020682DD0400500282CDB0120BDE8F08735
:1025700020688001F9D5E06800F00302E068C0F34C
:102580000310401C032A19D0534A00BFB2FBF0F0DD
:10259000E268C2F306225043E268C2F34162521C71
:1025A0005200B0FBF2F0484517D9A06810F0F00FC8
:1025B0000CD0880711D5A86840B10EE0474AE5E77E
:1025C0008003D0E700F092F8484506D9A06820F0D3
:1025D000F00040F08000A0608027A068696820F0CB
:1025E00003000843A060FFF751FD814606E000BFED
:1025F000FFF74CFDA0EB090151453AD8A068696886
:1026000000F00C00B0EB810FF2D12868810714D5DF
:10261000400703D5A06840F4E060A0602878000778
:1026200005D5A06820F4605040F4E060A060A06888
:10263000A96820F0F000084304E0802F03D1A068CF
:1026400020F0F000A060D8F80010404601F00F0123
:10265000B14216D9016821F00F0131430160FFF743
:1026600015FD074607E000BFFFF710FDC11B5145F0
:1026700001D903207AE7D8F8000000F00F00B0423B
:10268000F2D12878400705D5A068E96820F4E06019
:102690000843A0602878000706D5A068296920F4BF
:1026A000605040EAC100A06000F020F8A1680C4A28
:1026B000C1F30311515C01F01F01C84009490860D2
:1026C00009480068BDE8F047FFF7FEBC0020024063
:1026D0000010024000B4C4040024F40000127A0088
:1026E000DA6300084C00002040000020184910B5B3
:1026F0008868C0F381021748012A0BD08A6843100A
:10270000C2F38102022A06D08A68C2F38102032A38
:1027100003D0002010BD184610BDCA6802F00304A3
:10272000CA68C2F30312521C032C02D0B0FBF2F0B1
:1027300001E0B3FBF2F0CA68C968C2F30622504355
:10274000C1F34161491C4900B0FBF1F010BD00002C
:10275000001002400024F4002DE9F84304007AD070
:102760002078FA4DC00747D0A868E96800F00C004F
:1027700001F003010C2802D0082817D001E003293A
:1027800014D06068B0F5803F17D0B0F5A02F28684E
:1027900017D020F480302860286820F4802028603A
:1027A0006068E0B1FFF772FC064614E02868800319
:1027B00022D560680028D2D01EE0286840F480301E
:1027C000EDE740F480202860F7E700BFFFF75EFCEC
:1027D000801B642870D828688003F7D50CE0FFF7C9
:1027E00055FC064605E000BFFFF750FC801B64283F
:1027F000F0D828688003F7D4207880074CD5A868E3
:10280000E96800F00C0001F003010C2802D0042854
:102810000DD001E002290AD0E068002828682BD0FA
:1028200040F480702860FFF731FC064619E0286804
:10283000400502D5E068002891D06868217C20F02E
:10284000FE4040EA01606860C1480068FFF73CFC58
:10285000002800D120E076E1FFF718FC801B022859
:10286000B8D828684005F7D56868217C20F0FE407C
:1028700040EA016068600FE020F480702860FFF794
:1028800005FC064605E000BFFFF700FC801B0228A0
:10289000A0D828684005F7D42078000729D56069BA
:1028A0000028D5F8940013D040F00100C5F894003A
:1028B000FFF7ECFB064606E090E000BFFFF7E6FB03
:1028C000801B022886D8D5F894008007F6D510E042
:1028D00020F00100C5F89400FFF7D8FB064604E09D
:1028E000FFF7D4FB801B022878D8D5F89400800726
:1028F000F6D42078400761D5A86D0026C00008D422
:10290000A86D40F08050A865A86D012600F08050A9
:10291000009090480168C90511D40168804641F4CF
:1029200080710160FFF7B2FB074604E0FFF7AEFBE2
:10293000C01B022852D8D8F80000C005F6D5A06800
:10294000012815D00528D5F8900016D020F00100F8
:10295000C5F89000D5F8900020F00400C5F890006C
:10296000A06841F28838B8B1FFF790FB07460EE047
:10297000D5F8900040F00100F0E740F00400C5F801
:102980009000F5E7FFF782FBC11B414526D8D5F83B
:1029900090008007F6D50CE0FFF778FB074604E0CF
:1029A000FFF774FBC11B414518D8D5F8900080078C
:1029B000F6D41EB1A86D20F08050A865207880065E
:1029C00029D5A0690028D5F8980013D040F001005F
:1029D000C5F89800FFF75AFB064606E077E000BF0F
:1029E000FFF754FB801B022877D8D5F898008007A2
:1029F000F6D510E020F00100C5F89800FFF746FB7F
:102A0000064604E0FFF742FB801B022865D8D5F894
:102A100098008007F6D4E069F0B3A968C1F381019A
:102A2000032961D00228286820F0807028600BD02C
:102A3000E86820F00300E860E86847490840E8607B
:102A4000FFF724FB04464BE0FFF720FB064604E0BB
:102A5000FFF71CFB801B02283FD828688001F7D4B1
:102A6000F4E908016FF00F0202EB01110843218A1B
:102A70005204490802EB4151A26841EA022108438D
:102A8000217D4FF07E42490802EB41610843217BE2
:102A900040EAC160E96800E062E0304A1140084362
:102AA000E860286840F080702860E86840F0807036
:102AB000E860FFF7EBFA044605E000BFFFF7E6FA2F
:102AC000001B022809D828688001F7D548E004E0F7
:102AD000FFF7DCFA001B022802D90320BDE8F883C7
:102AE00028688001F4D43BE00128F7D0E868226A26
:102AF00000F00301914226D1616A00F0F002090161
:102B0000103991421FD1A26A00F4FE41B1EB022FAD
:102B100019D194F82C2000F07841B1EBC26F12D19A
:102B2000218E00F4C00249084905A1F50011914227
:102B300009D194F8341000F0C06049084906A1F1A9
:102B4000007181420CD00120C8E700000010024053
:102B50004000002000700040FFFFEEFE0C809F014F
:102B60000020BBE710B5401EB0F1807F01D30120EB
:102B700010BD4FF0E02460610F21601701F0CCFF21
:102B80000020A06107202061002010BD7047704721
:102B900070470000F0B590F83C20012A4AD001228D
:102BA00080F83C20CA688B6822F440721A434B6854
:102BB00022F480621A430B6822F400621A430B6904
:102BC00022F480521A434B6922F400521A430B6BD1
:102BD00022F480421A430B8B22F4702242EA034211
:102BE000154C03680026154DA34201D0AB4203D11A
:102BF000CF6922F080523A43A34201D0AB4214D1B4
:102C00000F8D22F4700242EA07520F6A22F080729E
:102C10003A434F6A22F000723A43A34201D0AB42DA
:102C200003D1C96A22F000520A435A6480F83C601A
:102C30000020F0BD0220F0BD002C01400034014016
:102C40007047704770470000F0B590F83C20012AAB
:102C50003AD0012580F83C50022280F83D200368DC
:102C60005A689C68194E1A4FB34201D0BB4204D136
:102C700022F4700C4A6842EA0C02DFF858C002EAFB
:102C80000C02D1F800C04CEA020CC3F804C0026880
:102C9000B2420DD0B2F1804F0AD00F4B9A4207D00A
:102CA0000E4B9A4204D0BA4202D00D4B9A4204D144
:102CB000896824F080031943916080F83D50002119
:102CC00080F83C100846F0BD0220F0BD002C014009
:102CD000003401408FFFFFFD000400400008004069
:102CE00000400140704710B5040003D094F83D0047
:102CF00010B107E0012010BD002084F83C00204600
:102D000000F022F8022084F83D00211D206801F027
:102D1000FDFB012084F8480084F83E0084F83F0061
:102D200084F8400084F8410084F8420084F84300AD
:102D300084F8440084F8450084F8460084F847008D
:102D400084F83D00002010BD70B586B00446142103
:102D50006846FDF7E9FB226800243D49022501236E
:102D60004FF09040B2F1804F36D03A4EB24252D13D
:102D70008A6D42F002028A658A6D02F002020592B3
:102D8000CA6C42F00102CA64CA6C02F001020592E8
:102D9000CA6C42F00202CA64C96C10260096CDE9E2
:102DA000015401F00201CDE9045103946946FFF793
:102DB0003FF80096CDE9015469462748CDE903451F
:102DC000FFF736F8002203211D20FFF7C5F91D206B
:102DD000FFF7B4F906B070BD8A6D42F001028A6552
:102DE0008A6D02F001020592CA6C42F00102CA64C7
:102DF000C96C0095CDE9015401F00101CDE9043120
:102E000003946946FFF714F8002203211C20FFF702
:102E1000A3F91C20DCE7114EB242DBD10A6E42F46A
:102E200080220A660A6E02F480220592CA6C42F081
:102E30000102CA64C96C01F0010105918021009171
:102E4000CDE90154CDE903436946FEF7F1FFC1E73F
:102E50000010024000040040000400480048014007
:102E600070B5044690F83C000025012814D00126D6
:102E700084F83C60022084F83D0022689068364B5C
:102E8000184020F47F409060086870282ED010DC35
:102E900010F00F0F03D021E04FF0020070BD4FEA99
:102EA0002012072A1AD2DFE802F0525252524A3850
:102EB00040002A4BC21A984249D009DCB0F5805F25
:102EC0000DD0B0F5005F1CD0B0F1101F06D13EE070
:102ED000102A3CD0202A3AD0502A38D0012584F834
:102EE0003D60002084F83C00284670BDCB68D1E9E5
:102EF0000121206801F06FFB2068816841F07701B3
:102F000009E0CB68D1E90121206801F064FB206869
:102F1000816841F480418160E1E7CA6849682068BE
:102F200001F06CFD5021206806E0CA6849682068FD
:102F300001F0ACFD6021206801F058FBCFE7CA68C2
:102F40004968206801F05AFD40212068F4E72268B2
:102F500001461046F0E7000088FFCEFF2000100079
:102F600070B50168B1F1804F2CD1007F022829D1C2
:102F70000421154800F0CBFB401C144C81B21448CE
:102F80006181B0FBF1F18DB22581A178B5FBF1F142
:102F9000B0FBF1F001F0AFFF41EC100B84ED080B3A
:102FA00001F07CFF0B490A68D062C860A5F57A750C
:102FB000E078B5F57A6F02D940F0080001E020F022
:102FC0000800E07070BD0000D40000200800002060
:102FD00040420F006C0100202DE9F041054690F8B9
:102FE0003C0000260C46012810D0012085F83C004A
:102FF00072B1042A1CD0082A2CD00C2A50D00126E9
:10300000002085F83C003046BDE8F0810220FBE757
:10301000D4E90012E368286801F002FD286881699C
:1030200021F00C01816128688169A26811430FE0D9
:10303000D4E90012E368286801F03AFD2868816944
:1030400021F44061816128688169A26841EA022116
:103050008161D5E72868D4E9002C277B016A21F437
:1030600080710162C169036A21F0030141EA0C0128
:1030700021F0F00C39074FF420674CEA116123F47A
:10308000206307EA02221A43C16102622868C1690B
:1030900021F00C01C1612868C169A268114328E0D0
:1030A0002868D4E90027E168036A23F480530362A7
:1030B000D0F81CC0036A2CF4407C4CEA07274FF67A
:1030C000FF7C27F470470CEA013139434FF4204765
:1030D00023F4204307EA02321A43C16102622868DE
:1030E000C16921F44061C1612868C169A26841EAEF
:1030F0000221C16184E710B5040003D094F83D00BB
:1031000010B107E0012010BD002084F83C002046EB
:1031100000F022F8022084F83D00211D206801F013
:10312000F5F9012084F8480084F83E0084F83F0057
:1031300084F8400084F8410084F8420084F8430099
:1031400084F8440084F8450084F8460084F8470079
:1031500084F83D00002010BD7047000030B50446E3
:10316000002571B1042911D0082914D00C2917D0D9
:10317000102918D094F8430094F84720012817D15B
:1031800014E094F83E0094F84420F7E794F83F00E8
:1031900094F84520F2E794F8400094F84620EDE7D3
:1031A00094F84100E8E794F84200E5E7012A01D0ED
:1031B000012030BD022079B1042916D008291DD084
:1031C0000C2949D010294AD084F8430084F84700DC
:1031D0000C2947D001253DE084F83E0084F84400E6
:1031E0002068C26842F0020210E084F83F0084F8D0
:1031F00045002068C26842F0040207E084F84000FD
:1032000084F846002068C26842F00802C2600122C9
:10321000206801F0D3F91649206888420ED0B0F139
:10322000804F0BD01349884208D01349884205D0FB
:103230001249884202D01249884207D18168114A56
:103240001140062906D0B1F5803F03D0016841F056
:1032500001010160284630BD84F84100B6E784F8DA
:103260004200B3E72068C26842F01002CEE70000D7
:10327000002C0140000400400008004000340140E0
:10328000004001400700010070B504460068016974
:103290004FF00005C943890715D4C168C9438907A0
:1032A00011D4E91E01610120207720688069800720
:1032B000204602D0FFF754FE04E000F0E3F8204679
:1032C00000F0A5F9257720680169C943490717D49B
:1032D000C168C943490713D46FF00401016102209A
:1032E00020772068806910F4407F204602D0FFF7E5
:1032F00037FE04E000F0C6F8204600F088F9257794
:1033000020680169C943090716D4C168C943090780
:1033100012D46FF008010161042020772068C06991
:103320008007204602D0FFF71BFE04E000F0AAF859
:10333000204600F06CF9257720680169C943C90669
:1033400017D4C168C943C90613D46FF010010161D5
:10335000082020772068C06910F4407F204602D002
:10336000FFF7FEFD04E000F08DF8204600F04FF975
:10337000257720680169C943C90708D1C168C943D5
:10338000C90704D1891E0161204600F0BFF92068F9
:103390000169C943090609D4C168C943090605D4AE
:1033A0006FF0800101612046FFF7F1FB20680169A1
:1033B000C943C90509D4C168C943090605D46FF4D6
:1033C000807101612046FFF7E1FB20680169C94374
:1033D000490609D4C168C943490605D46FF04001C4
:1033E0000161204600F0D3F920680169C9438906CC
:1033F00009D4C168C943890605D46FF02001016171
:103400002046FFF7C5FB20680169C943C90209D4FA
:10341000C168C943C90205D46FF480110161204617
:10342000FFF70FFC20680169C943890209D4C1680C
:10343000C943890205D46FF4001101612046FFF7EA
:10344000FFFB20680169C943490209D4C168C94327
:10345000490205D46FF4800101612046FFF7F2FBB9
:1034600020680169C94309020BD4C168C943090234
:1034700007D46FF4000101612046BDE87040FFF7FA
:1034800031BC70BD704770B5044690F83C00002612
:103490000D4601280BD0012084F83C000C2A4AD0AC
:1034A00007DC82B1042A20D0082A06D131E00220AC
:1034B00070BD102A53D0142A63D00126002084F84E
:1034C0003C00304670BD206801F09AF820688169A0
:1034D00041F0080181612068816921F00401816166
:1034E000206881692A69114311E0206801F0D6F84B
:1034F0002068816941F4006181612068816921F45B
:1035000080618161206881692A6941EA02218161C3
:10351000D4E7206801F00AF92068C16941F0080188
:10352000C1612068C16921F00401C1612068C169DD
:103530002A69114311E0206801F040F92068C1694F
:1035400041F40061C1612068C16921F48061C161F9
:103550002068C1692A6941EA0221C161AEE7206899
:1035600001F074F92068016D41F0080101652068DF
:10357000016D21F0040101652068016D2A69114384
:1035800011E0206801F09AF92068016D41F40061B2
:1035900001652068016D21F4806101652068016D7D
:1035A0002A6941EA0221016588E710B5040003D0C9
:1035B00094F83D0010B107E0012010BD002084F810
:1035C0003C00204600F022F8022084F83D00211D36
:1035D000206800F09BFF012084F8480084F83E003A
:1035E00084F83F0084F8400084F8410084F84200E9
:1035F00084F8430084F8440084F8450084F84600C9
:1036000084F8470084F83D00002010BD70477047E3
:1036100030B50446022269B1042912D0082917D016
:103620000C291CD0102921D094F84300012824D063
:10363000012030BD94F83E000128F9D184F83E20E5
:103640001DE094F83F000128F2D184F83F2016E0F5
:1036500094F840000128EBD184F840200FE094F862
:1036600041000128E4D184F8412008E094F84200A8
:103670000128DDD184F8422001E084F843200122B2
:10368000206800F09BFF194B20681949194A98429D
:1036900009D0884207D0904205D0174DA84202D0E9
:1036A000164DA84203D1456C45F400454564206899
:1036B00098420CD0B0F1804F09D0114B984206D0FF
:1036C000104B984203D0884201D0904207D18168C4
:1036D0000D4A1140062906D0B1F5803F03D001689C
:1036E00041F001010160002030BD0000002C0140CC
:1036F00000340140004001400044014000480140C6
:103700000004004000080040070001007047024626
:10371000002041B1042909D008290AD00C2901D17F
:103720001068006C70471068406B70471068806BC1
:1037300070471068C06B704770B5044690F83C0045
:10374000012812D0012584F83C50022084F83D0065
:10375000204601F0EBF801004FF0000007D084F89C
:103760003D5084F83C00012070BD022070BD2168EE
:10377000CA6822F04002CA602168CA6822F4804206
:10378000CA6084F83D5084F83C00002070BD70474A
:10379000FEE70000244810B50168244C6269891ACC
:1037A000322916D90068606100F042F82071A179D1
:1037B000012220EA01016171A0710020012909D0D4
:1037C000022918D0032921D0042902D1617849B3F4
:1037D000607010BD217839B12070E07820F00200CF
:1037E00040F00100E07010BD2270E07820F0010090
:1037F00040F00200F6E720780028F4D0A078801C82
:10380000C0B2A0700A28EED9022009E02078002872
:10381000E9D0A078801EC0B2A0700228E3D20A20AE
:10382000A07010BD627010BD48000020080000208C
:1038300070B50E4D002401212846FEF71DFC00B98D
:10384000012402212846FEF717FC00B902240421B6
:103850002846FEF711FC00B9032401214FF09040E7
:10386000FEF70AFC00B90424204670BD000400489D
:1038700000B585B014216846FCF756FE4FF6FF7080
:10388000009000200321CDE9020101906946024821
:10389000FEF7CEFA05B000BD0008004800B585B0BF
:1038A00014216846FCF740FE4FF6FF70009001209F
:1038B0000190032003900020029069460248FEF721
:1038C000B7FA05B000BD00000008004870B500243C
:1038D00006462146204600F003F900F041F94FF476
:1038E0009635304600F010F9641CAC42F9D370BD37
:1038F00030B587B014216846FCF716FE1E48C16C2F
:1039000041F00401C164C16C01F004010591C16C76
:1039100041F00101C164C16C01F001010591C16C6C
:1039200041F00201C164C06C012500F00200059065
:103930004FF44870CDE900050024039469460294D1
:103940000E48FEF775FA280203940090CDE9015461
:103950004FF0904469462046FEF76AFAFFF79EFF53
:10396000A06940F48070A06104481830016841F4F7
:103970000871016007B030BD00100240000400482B
:10398000203AD2B2034B02EB420203EB021200F0E8
:1039900019B800000A520008F0B50E460746002587
:1039A00040F23F1407E021463846FFF7E9FF103C9C
:1039B0006D1CA4B2761C3278002A01D0142DF2D3EB
:1039C000F0BD00002DE9F04791468A4600260446E6
:1039D00000F086F8DFF84080012700BF00F0C0F853
:1039E0005FF0000539F8160007FA05F10842404675
:1039F00001D1408800E0008800F086F86D1C102D91
:103A0000F0D3641CE4B25146204600F069F8761CFD
:103A1000182EE3D3BDE8F0870000002010B5FFF7B3
:103A200067FF002000F014F8084CA080A088A0F5E3
:103A30000241303906D000F01BFC002000F008F8ED
:103A4000A08010BD00F08BFBF7E700000000002015
:103A500070B51D490A6842F400720A600A6842F4AF
:103A600080720A60184C103C226842F020022260EA
:103A7000164A1060086840F02000086000BF00BFD0
:103A800000BF206840F020002060206840F4807073
:103A90002060FFF7EDFE4FF09041886A40F480709F
:103AA000886200BF00BF00BF0848001F006885B2E1
:103AB000886940F480708861FFF7F0FE206840F468
:103AC00000702060284670BD280400481408004893
:103AD00001B5BDF800000149488008BD0000002084
:103AE00010B50C460146202000F068F82146BDE8DC
:103AF0001040212000F062B801B5BDF80000014976
:103B0000088008BD00000020134A116841F40071CC
:103B10001160114910390B6843F480730B600B6816
:103B200043F020030B600D4B1860106840F020003C
:103B3000106000BF00BF00BF086840F020000860B0
:103B4000086840F48070086000BF00BF00BF0868CC
:103B500040F40070086070472804004814080048CA
:103B60001449086840F400700860086840F48070E8
:103B7000086010481038026842F0200202600E4BC4
:103B800022221A600A6842F020020A6000BF00BFC9
:103B900000BF016841F020010160016841F48071BB
:103BA000016000BF00BF00BF016841F40071016007
:103BB000704700002804004814080048184B10B54E
:103BC0001A6842F400721A601A6842F480721A602D
:103BD000134A103A146844F020041460114C206019
:103BE000186840F02000186000BF00BF00BF1068D8
:103BF00040F020001060106840F480701060216078
:103C0000186840F02000186000BF00BF00BF1068B7
:103C100040F020001060106840F48070106010BD0B
:103C2000280400481408004800EB8100006E00F0F2
:103C3000F84070478068C0F3C00070478068C0F3E8
:103C400080007047042303EAD15310B51844436938
:103C5000C1F3045107248C40A3438A4013434361BA
:103C600010BD00EB8100016E21F00041114301669F
:103C70007047000010B51B4801681B4CE268891AA8
:103C800064292DD90068E060207890B117A1182030
:103C9000FFF782FEA2781BA12048FCF71DFB1F49FD
:103CA0004820FFF779FE1EA1BDE810407820FFF7FD
:103CB00073BE21A11820FFF76FFE228924A11748A7
:103CC000FCF70AFB15494820FFF766FE94ED0A0B46
:103CD00025A153EC102B1148FCF7FEFA0F49E3E73E
:103CE00010BD0000480000200800002020202020F7
:103CF00020202050617261202020202020202020C0
:103D000000000000202020202020523A253275207B
:103D10002020202020202020200000005000002013
:103D20002020202020202020202020202020202093
:103D300020202020000000002020202020202044DF
:103D4000617461202020202020202020000000001D
:103D50002020204652513A253575487A20202020CF
:103D600020202020200000002020205233373A2538
:103D7000332E326C66562020202020202020200068
:103D800070B5124D044601224FF47F412846FEF7DC
:103D900078F90F4E012204213046FEF772F9002215
:103DA00004213046FEF76DF9210200222846FEF775
:103DB00068F9012204213046FEF763F93046BDE878
:103DC000704000220421FEF75CB9000000080048A2
:103DD000000C004808490A6808488369D21A322A48
:103DE00008D909688161417809B1C07800E00020F4
:103DF000FFF7C6BF70470000480000200800002001
:103E000030B589B020216846FCF78EFB1948184967
:103E1000002401604902C0E90114C4600425046162
:103E2000C0E90545047744770121016280F8244008
:103E3000C462046380F83840C46380F84040FDF7F2
:103E400031FE08B1FDF710FC0B4800900620CDE9CB
:103E500001047F200594CDE9030569460548FDF777
:103E600011FC002801D0FDF7FFFB09B030BD0000B8
:103E700000010050680000200080F03EF0B587B0DF
:103E800014216846FCF750FB2948C16C41F004013D
:103E9000C164C16C01F004010591C16C41F00101E4
:103EA000C164C16C01F001010591C16C41F00201D6
:103EB000C164C16C01F002010591C16C41F00801BF
:103EC000C164C06C1B4E00F008004FF47F440590A5
:103ED000002221463046FEF7D4F8174F0022042175
:103EE0003846FEF7CEF80125CDE9004500240294BE
:103EF000694630460394FDF79BFFCDE900546946BF
:103F00004FF090400294FDF793FF0720CDE90004A5
:103F100069460A480294FDF78BFF04200090CDE922
:103F20000154694638460394FDF782FF07B0F0BD9F
:103F30000010024000080048000C0048000400483F
:103F400010B594B01C210DA8FCF7EEFA3421684698
:103F5000FCF7EAFA1E481D49002401604F21C0E920
:103F600001144FF47A71C0E9031444618461FEF7CF
:103F7000BAFE08B1FDF778FB1548FFF716FB08B14C
:103F8000FDF772FB6020CDE90D040F94109411949D
:103F9000129400220DA90E481394FFF774FA08B189
:103FA000FDF762FB00944FF40050CDE9044001940A
:103FB000029403940694694605480C94FEF7EAFDC2
:103FC000002801D0FDF750FB14B010BD004801409F
:103FD0006C01002010B590B0002409940A940B9451
:103FE000142104A80C94FCF79FFA27480D940F9411
:103FF0000E940094019402944FF080410394016068
:104000004F21C0E901144FF6FF71C0E90314846128
:10401000FEF769FE08B1FDF727FB4FF480500990C9
:1040200009A91948FEF71CFF08B1FDF71DFB16484A
:10403000FFF761F808B1FDF717FB0420049060203A
:10404000CDE9050404A910480894FFF775FB08B1F1
:10405000FDF70AFB0D940DA90B480F94FEF7F4FD34
:1040600008B1FDF701FB0120CDE9004002940422D4
:10407000694605480394FEF7AFFF002801D0FDF71D
:10408000F3FA10B010BD0000D400002010B590B0BD
:10409000002409940A940B94142104A80C94FCF7AE
:1040A00043FA2C480D940F940E94009401940294BA
:1040B0002749039401604F21C0E901144FF6FF71B5
:1040C000C0E903148461FEF70EFE08B1FDF7CCFAD7
:1040D0004FF48050099009A91E48FEF7C1FE08B1AF
:1040E000FDF7C2FA1B48FFF706F808B1FDF7BCFA66
:1040F000042004906020CDE9050404A91548089423
:10410000FFF71AFB08B1FDF7AFFA0D940DA911489E
:104110000F94FEF799FD08B1FDF7A6FA0120CDE94D
:1041200000400294002269460A480394FEF754FFB7
:1041300008B1FDF799FA022001900422694605486A
:10414000FEF74AFF002801D0FDF78EFA10B010BD2F
:104150000004004020010020FEE7FEE7704730B574
:1041600001210020FFF72AFD4FF47A70FDF76EFA67
:1041700000210120FFF722FD41F290711020FFF78E
:104180001DFD4FF41C516020FFF718FD0121612037
:10419000FFF714FD02214620FFF710FD48F2100141
:1041A0001320FFF70BFD48F2FE011220FFF706FD7A
:1041B0004FF4A0610220FFF701FD41F2300103201E
:1041C000FFF7FCFC40F2033421463020FFF7F6FCF9
:1041D00021463120FFF7F2FC21463220FFF7EEFCAA
:1041E000E51E29463320FFF7E9FC03213420FFF7C1
:1041F000E5FC21463520FFF7E1FC14213620FFF7CE
:10420000DDFC21463720FFF7D9FC21463820FFF797
:10421000D5FC21463920FFF7D1FC29463A20FFF78B
:10422000CDFC03213B20FFF7C9FC21463C20FFF7D2
:10423000C5FC4FF4A0513D20FFF7C0FC4FF40071C6
:104240009220FFF7BBFC21469320FFF7B7FC40F616
:104250000D019020FFF7B2FC41F218010320FFF797
:10426000ADFCBDE8304040F273110720FFF7A6BC5B
:1042700010B543F20801E320FFF7A0FC1221E7206C
:10428000FFF79CFC41F23121EF20FFF797FC002162
:104290000120FFF793FC4FF4E0610220FFF78EFC52
:1042A00041F230010320FFF789FC00210420FFF7D1
:1042B00085FC40F207210820FFF780FC002109203F
:1042C000FFF77CFC00210A20FFF778FC00210C207E
:1042D000FFF774FC00210D20FFF770FC00210F2078
:1042E000FFF76CFC00211020FFF768FC072111206C
:1042F000FFF764FC00211220FFF760FC002113206F
:10430000FFF75CFCC820FDF781FD41F290611020B1
:10431000FFF754FC40F227211120FFF74FFC322019
:10432000FDF774FD1D211220FFF748FC3220FDF738
:104330006DFD4FF400611320FFF740FC142129208C
:10434000FFF73CFC0B212B20FFF738FC3220FDF758
:104350005DFD00212020FFF731FC00212120FFF727
:104360002DFC07213020FFF729FC40F20771312096
:10437000FFF724FC06213220FFF720FC40F20471F5
:104380003520FFF71BFC41F604713620FFF716FCC1
:1043900004213720FFF712FC00213820FFF70EFC24
:1043A00040F206713920FFF709FC40F201713C2010
:1043B000FFF704FC0F213D20FFF700FC00215020F7
:1043C000FFF7FCFBEF215120FFF7F8FB0021522003
:1043D000FFF7F4FB40F23F115320FFF7EFFB4FF4E0
:1043E0001C516020FFF7EAFB01216120FFF7E6FB8B
:1043F00000216A20FFF7E2FB00218020FFF7DEFBAF
:1044000000218120FFF7DAFB00218220FFF7D6FB95
:1044100000218320FFF7D2FB00218420FFF7CEFB91
:1044200000218520FFF7CAFB10219020FFF7C6FB73
:1044300000219220FFF7C2FB03219320FFF7BEFB70
:104440004FF488719520FFF7B9FB00219720FFF703
:10445000B5FB00219820FFF7B1FB41F218010320C2
:10446000FFF7ACFBBDE8104040F273110720FFF7E7
:10447000A5BB7047FDF710BE00B593B03821684664
:10448000FCF752F814210EA8FCF74EF84FF4007018
:10449000FDF794FE0220C101039140210491012106
:1044A000CDE9080100900A21CDE90A1007900C908F
:1044B0000D906846FEF750F908B172B6FEE70F207E
:1044C0000E9003200F900020109011901290022166
:1044D0000EA8FEF71DF8002801D072B6FEE713B053
:1044E00000BD00000248016841F47001016070479E
:1044F00088ED00E00148FEF7C7BE0000D4000020B0
:104500000148FEF7C1BE0000200100202DE9F04364
:104510000268234B234D244E244C4FF0804998428F
:1045200007D0484505D0A84203D0B04201D0A042F0
:1045300003D122F070074A683A431D4FDFF874C078
:10454000DFF8748098420DD048450BD0A84209D0BE
:10455000B04207D0A04205D0B84203D0604501D098
:10456000404503D122F44075CA682A434D6922F0C0
:1045700080022A4302608A68C2620A6882629842A4
:1045800007D0A04205D0B84203D0604501D04045D5
:1045900001D10969016301214161BDE8F083000097
:1045A000002C01400004004000080040003401409D
:1045B00000400140004401400048014010B501F0B6
:1045C0001F030121046A99408C430462016A9A40E6
:1045D0001143016210BD10B5846842EA032224F43D
:1045E0007F440A432243826010BD00008268034B6F
:1045F0001A400A4342F00701816070478FFFCFFFE6
:104600002DE9F043026A22F001020262056A436862
:1046100082691C4C25F0020522400C6822F003023E
:1046200014438A68194E2A43174D194FDFF864C0A6
:10463000DFF86490A84207D0B04205D0B84203D05A
:10464000604501D0484506D122F00808CA6842EA10
:10465000080222F00402A84207D0B04205D0B842B6
:1046600003D0604501D0484505D14D6923F440731E
:104670001D438B692B434360846149684163026237
:10468000BDE8F0838FFFFEFF002C014000340140A5
:10469000004001400044014000480140F0B5026A7A
:1046A00022F010020262056A42688369194C1B4EAF
:1046B00023400C6823F4407343EA042425F02003CC
:1046C0008D6843EA0513144DA84201D0B04206D1CB
:1046D000CF6823F0800343EA071323F04003A84286
:1046E0000AD0B04208D00E4DA84205D00D4DA842C8
:1046F00002D00D4DA84207D14D6922F4406242EA32
:1047000085028D6942EA850242608461496881635D
:104710000362F0BDFF8FFFFE002C0140003401401A
:10472000004001400044014000480140F0B5026AE9
:1047300022F480720262056A4368C269194C1B4EFA
:1047400022400C6822F00302144325F400728D68A5
:1047500042EA0522144DA84201D0B04206D1CF68EA
:1047600022F4006242EA072222F48062A8420AD0C0
:10477000B04208D00E4DA84205D00E4DA84202D03E
:104780000D4DA84207D14D6923F4405343EA051368
:104790008D6943EA05134360C4614968C1630262DD
:1047A000F0BD00008FFFFEFF002C014000340140EF
:1047B000004001400044014000480140F0B5026A59
:1047C00022F480520262056A4268C369194C1B4E8A
:1047D00023400C6823F4407343EA042425F4005377
:1047E0008D6843EA0533144DA84201D0B04206D18A
:1047F000CF6823F4004343EA073323F48043A842FD
:104800000AD0B04208D00E4DA84205D00D4DA842A6
:1048100002D00D4DA84207D14D6922F4404242EA30
:1048200085128D6942EA85124260C461496801645B
:104830000362F0BDFF8FFFFE002C014000340140F9
:1048400000400140004401400048014030B5026A88
:1048500022F480320262046A4268036D114D2B40DB
:104860000D681D4324F400330C8943EA04430E4CC5
:10487000A0420BD00D4CA04208D00D4CA04205D058
:104880000C4CA04202D00C4CA04204D14C6922F442
:10489000803242EA0422426005654968816403620D
:1048A00030BD00008FFFFEFF002C014000340140AE
:1048B00000400140004401400048014030B5026A18
:1048C00022F480120262046A4268036D114D24F4DE
:1048D00000142B400D6843EA05230D8944EA055472
:1048E0000D4DA8420BD00D4DA84208D00C4DA8424A
:1048F00005D00C4DA84202D00B4DA84204D14D6901
:1049000022F4802242EA8522426003654968C1643C
:10491000046230BDFF8FFFFE002C014000340140D7
:1049200000400140004401400048014070B5056866
:104930000024AA682E4B1A404B6813432D4A13409B
:104940000A681A43AA604A68602A4AD00DDC302AF5
:104950001FD005DCEAB1102A1BD0202A18D118E09C
:10496000402A1FD0502A13D135E0234D531BAA42B1
:104970000FD009DC702A0ED0B2F1101F09D0203AF6
:10498000B2F5801F04D104E0102B02D0402B00D0E0
:104990000124204670BD0B69D1E902210068FFF7B0
:1049A0001AFEF6E70A68052A13D0B2F1011F10D0EB
:1049B0000268136A156A25F0010515620268956997
:1049C000096925F0F00545EA01119161006803626B
:1049D000DFE7012070BD0A698968006800F00EF801
:1049E000D7E70A698968006800F050F8D1E700004D
:1049F0008FFFCFFFF8FFFEFF3000100010B5036AF5
:104A0000046A24F001040462846924F0F00444EA96
:104A1000021423F00A020A438461026210BD0000FE
:104A200070B5046A24F0010404628469056A124EB8
:104A3000B0420ED0B0F1804F0BD0104EB04208D033
:104A40000F4EB04205D00F4EB04202D00E4EB042D3
:104A500003D124F00304144301E044F001041A07D5
:104A600024F0F00444EA126225F00A0301F00A017E
:104A700019438261016270BD002C014000040040B6
:104A800000080040003401400040014010B5036AB6
:104A900023F0100303628369046A23F4704343EA3A
:104AA000023224F0A00343EA01118261016210BDC9
:104AB00030B5046A24F0100404628469056A24F4A1
:104AC000407444EA022222F470444FF6FF7202EA74
:104AD00003322243A02425F0A00304EA0111194364
:104AE0008261016230BDFEE703B401984100009885
:104AF00050EAC12018BF04204A0D18BF40F0010041
:104B000040F2FF72B2EB515F08BF40F00200012893
:104B100008BF052002B070470907090E002804DB12
:104B200000F1E02080F80014704700F00F0000F161
:104B3000E02080F8141D704730380A2801D2012087
:104B40007047002070470000FDF7AEFAFFF794FCB5
:104B5000FFF794F9FFF754F9FFF73CFAFFF796FADD
:104B6000FFF7EEF9FEF75AFF0020FEF7AFFE002038
:104B7000FEF7AEFF4FF6FF70FEF7BEFF00210848BC
:104B8000FEF746FD04210748FEF7E8FAFFF772F842
:104B9000FCF7F2FCFEF7FEFDFFF71CF9F6E700005C
:104BA0006C010020D400002010B500290AD008783C
:104BB000002807D005487844FCF794F8002801D075
:104BC000002010BD0248784410BD0000EA18000023
:104BD000E2180000491058BFC1F140415B1058BFB6
:104BE000C3F140438B42EFF3008070472DE9C04191
:104BF00030B4DFF8A0C23CEA111418BF3CEA131429
:104C000000F0EC8081EA03051CEA111444EAD57433
:104C100018BF1CEA131500F0C780A4EB05044FF081
:104C2000004545EAC12145EAC32341EA505143EA20
:104C3000525304F17F74994204F500344FEAC020C6
:104C40004FEAC22208BF904200F09C804FEA1365F1
:104C50000FF24016765D4FEA134506FB05F7C7F1E4
:104C6000807706FB07F74FEAD737A7FB0368764242
:104C7000C8F58038A7FB06CE38BFA8F1010807FBAE
:104C800008E64FF0000EA6FB028CE6FB03CEDCF13B
:104C9000000CCEF1004E38BFAEF1010EA6FB0C5851
:104CA0004FF000074FF00005E6FB0E87A1FB08C69A
:104CB000A0FB07CE16EB0E0645F10005E1FB0765EC
:104CC00015F1E04E7EBFA4F580345FEA46066D41E3
:104CD00016F1800745F100054FEA17274FEA0666EF
:104CE00047EA0567A6F1DE46B6F1805F4FEA152573
:104CF0001FD9384624F0010C05EBC471BCF1FE6FDE
:104D000001EB0C1102D8F0BCBDE8008124425CBF6D
:104D100001F5801E9EEAC47F02D4F0BCBDE800818C
:104D2000244238D4F0BCA1F1C041BDE8004100F0FC
:104D300029BA4FEAD22242EA43524FEAD323A7FBD1
:104D400002864FEAD02040EA415007FB03661EEA84
:104D50000E0F4FEAD12105FB026658BFA6EB0056A5
:104D6000B6EB00564FEA520E4EEAC37E18EB0E0E1B
:104D700056EB530EBDD518EB02085E417F1C55F172
:104D80000005B6E74FF480154FF000074FF000061E
:104D90004FF00008ADE7F0BC4FF0000001F1C0415A
:104DA00001F00041BDE8008111EA0C1F0CEA131567
:104DB00000D00CE013EA0C1F00F025804FF000003B
:104DC000F0BC81EA030101F00041BDE80081F0BCC4
:104DD000BDE8004181EA030100F0D4B9F0BCBDE8B0
:104DE000004170B500F080F9097EFC3E00F007B884
:104DF00081EA03014FF0000001F00041704781EAB1
:104E0000030100F0BFB9F0BCBDE800414FF0000065
:104E100021497047FFFDFBF9F7F5F4F2F0EEEDEBF9
:104E2000E9E8E6E4E3E1E0DEDDDBDAD8D7D5D4D3A8
:104E3000D1D0CFCDCCCBCAC8C7C6C5C4C2C1C0BFF4
:104E4000BEBDBCBBBAB9B8B7B6B5B4B3B2B1B0AFFA
:104E5000AEADACABAAA9A8A8A7A6A5A4A3A3A2A1DE
:104E6000A09F9F9E9D9C9C9B9A9999989797969599
:104E700095949393929191908F8F8E8E8D8C8C8B35
:104E80008B8A8989888887878685858484838382BD
:104E9000828181800000FF070000F87F4FEA1153F4
:104EA000A3F58063D3F11E03A8BFD3F1200C08DB68
:104EB0004FF0004242EAC12252EA505232FA03F065
:104EC000704709420BD4102BC4BF0020704703F574
:104ED000787CBCF1FF3F05D04FF0FF3070474FF0BA
:104EE0000000704770B500F0FFF800BF49922480C1
:104EF00000207047F0E7B0FA80F310FA03F10AD00F
:104F0000C3F11D0303F580634FEA41504FEA03529A
:104F100002EBD12170474FF00000704751EA030CBB
:104F200017D41CF5801F58BFBCF5801F00F1068008
:104F3000994218BF704708BF9042704707D711F5D4
:104F4000801F58BF13F5801F19D4994270478942BA
:104F500070471CF5801F08D5BCF5801FF7D58B4224
:104F600018BF704708BF824270474FF4001C1CEB0B
:104F7000410F38BF1CEB430F01D28B42704770B515
:104F800000F0B2F8922449004FF000514FF08053E6
:104F9000FFF720BEDFF848C170B51CEA111E1EBF26
:104FA0001CEA13159EEA0C0F95EA0C0F00F06F80B7
:104FB00081EA030423EA4C134EEAD47E21EA4C1121
:104FC00041F4801143F48013AE44A1FB024CA0FBDA
:104FD0000365AEF17F7E361955EB0C05A1FB034C42
:104FE0004CF10003A0FB021C16EB0C06654153F1CB
:104FF0000003094218BF46F0010613F4007F0BD1ED
:105000004FEA03314FEA0530340341EA155140EAD3
:1050100016506FF003020AE04FEAC3214FEAC520A1
:10502000F40241EA555140EA56506FF0020202EB99
:105030002E4201EB025585EACE710AD05FEA440C9C
:1050400018BF24F0004450F1000041F1000120EAB3
:10505000D47040F2FE7C624500D270BDA84214BFFD
:105060004FF080444FF04044002E08BF0024BEF1B2
:10507000806FA8BFA1F1C041BDE8704080F282807E
:105080004FF0000001F1C04101F0004170479EEA7D
:105090000C0F0CEA131518BF95EA0C0F06D04FF051
:1050A000000081EA030E0EF0004170BD00F01CF814
:1050B0008900013E00F007B800F009B84FEA430C40
:1050C0005FEA5C5C08D081EA030100F05BB84FEA5C
:1050D000410C5FEA5C5CF6D14FF00000014970477B
:1050E0000000FF070000F87F0EF1020E2EF0030E05
:1050F0005EF8046B364205D4012A43EB030515F52F
:10510000001F12D8012841EB010C1CF5001F0CD820
:105110000ED14FEAD17C15F5001F0CEB4C0C0CF1B5
:10512000020C08BF4CEBD37C04E04FF0080C01E00C
:105130004FEAD37C0CEB4C0526FA05F606F0070681
:10514000B6F1040C06D20EEB860CBDE870404CF0B4
:10515000010C6047DFE80CF0090B02024FF0004140
:105160004FF00000A1F5002170BD1946104601283E
:1051700051EB010418BFD4F5001484BF002001F0E6
:10518000004170BD0808A0F500114FEA31017047D9
:1051900053EA010C17D41CF5801F58BFBCF5801FC3
:1051A00000F106808B4218BF704708BF82427047EB
:1051B00007D713F5801F58BF11F5801F19D48B42F4
:1051C00070479B4270471CF5801F08D5BCF5801FB7
:1051D000F7D5994218BF704708BF904270474FF407
:1051E000001C1CEB430F38BF1CEB410F01D299424E
:1051F00070470FB40CBC03BCFFF7C1BE4FF040704A
:10520000E1EE100A7047FBF7EBBA00000000000067
:10521000000000000000000000000000000000008E
:10522000000000000000000000000000000000007E
:10523000000000000000000000000000800180016C
:105240008001800180018001800180018001800156
:1052500080018001800100000000800180010000C9
:105260000000000000000000000000000000CC0072
:10527000CC00CC00CC00CC00CC0000000000000032
:10528000000000000000000000000000000000001E
:10529000000000000000000000000000000000000E
:1052A000000000000000600C600C600C300630064E
:1052B000FE1FFE1F300638071803FE1FFE1F1803CF
:1052C00018038C018C018C01000000008000E003B9
:1052D000F80F9C0E8C1C8C188C009800F801E007CD
:1052E000800E801C8C188C189C18B80CF00FE003F2
:1052F00080008000000000000000000000000000AE
:105300000E181B0C110C11061106110311039B0141
:105310008E01C038C06C604460443044304418444E
:10532000186C0C380000000000000000E001F003E1
:105330003807180618063003F001F000F8009C3119
:105340000E33061E061C061C063FFC73F0210000EF
:1053500000000000000000000000000000000C0041
:105360000C000C000C000C000C0000000000000001
:10537000000000000000000000000000000000002D
:105380000000000000000000000000000002000318
:105390008001C000C00060006000300030003000BC
:1053A0003000300030003000300060006000C0008D
:1053B000C000800100030002000000002000600027
:1053C000C000800180010003000300060006000603
:1053D0000006000600060006000600030003800128
:1053E0008001C000600020000000000000000000FC
:1053F000000000000000C000C000D806F807E0016F
:10540000300338070000000000000000000000002A
:10541000000000000000000000000000000000008C
:1054200000000000000080018001800180018001F7
:10543000FC3FFC3F80018001800180018001000071
:10544000000000000000000000000000000000005C
:10545000000000000000000000000000000000004C
:10546000000000000000000000000000800180013A
:1054700000010001800000000000000000000000AA
:10548000000000000000000000000000000000001C
:105490000000E007E007000000000000000000003E
:1054A00000000000000000000000000000000000FC
:1054B00000000000000000000000000000000000EC
:1054C000000000000000000000000000C000C0005C
:1054D000000000000000000000000000000C000CB4
:1054E000000600060006000300030003800380019D
:1054F00080018001C000C000C000600060000000AA
:10550000000000000000000000000000E003F007C1
:10551000380E180C0C180C180C180C180C180C1849
:105520000C180C180C18180C380EF007E0030000CB
:1055300000000000000000000000000000018001E9
:10554000C001F00198018801800180018001800183
:1055500080018001800180018001800180010000C4
:10556000000000000000000000000000E003F80F51
:10557000180C0C180C1800180018000C000600037A
:105580008001C000600030001800FC1FFC1F0000FC
:10559000000000000000000000000000E001F8072B
:1055A000180E0C0C0C0C000C0006C003C007000CFD
:1055B000001800180C180C18180CF807E00300006D
:1055C000000000000000000000000000000C000EC1
:1055D000000F000F800DC00C600C600C300C180C1C
:1055E0000C0CFC3FFC3F000C000C000C000C0000FD
:1055F000000000000000000000000000F80FF80F9D
:10560000180018000C00EC03FC071C0E001C00180E
:10561000001800180C181C0C180EF807E003000006
:10562000000000000000000000000000C007F00FB4
:10563000381C181818000C00CC03EC0F3C0E1C1C76
:105640000C180C180C18181C380EF007E00300009A
:10565000000000000000000000000000FC1FFC1F14
:10566000000C00060006000380038001C001C0009A
:10567000E00060006000700030003000300000008A
:10568000000000000000000000000000E003F00740
:10569000380E180C180C180C3806F007F007180C08
:1056A0000C180C180C180C18380CF80FE00300003C
:1056B000000000000000000000000000E003F00710
:1056C000380E1C0C0C180C180C181C1C381EF81B5F
:1056D000E0190018000C000C1C0EF807F001000087
:1056E00000000000000000000000000000000000BA
:1056F00000000000000080018001000000000000A8
:105700000000000000000000000080018001000097
:105710000000000000000000000000000000000089
:105720000000000000008001800100000000000077
:105730000000000000000000000080018001000166
:1057400000018000000000000000000000000000D8
:10575000000000000000000000000010001C800F8E
:10576000E003F8001800F800E003800F001C0010B0
:105770000000000000000000000000000000000029
:1057800000000000000000000000F81F0000000002
:105790000000F81F000000000000000000000000F2
:1057A00000000000000000000000000000000000F9
:1057B0000000000000000000000008003800F001B8
:1057C000C007001F0018001FC007F00138000800C4
:1057D000000000000000000000000000E003F80FDF
:1057E000180C0C180C180018000C0006000380019F
:1057F000C000C000C00000000000C000C0000000E9
:105800000000000000000000000000000000E007B1
:1058100018180420C229224A1144094409440944A1
:1058200009221113E20C024004201818E0070000BE
:105830000000000000000000000000008003800362
:10584000C006C006C006600C600C30183018301856
:10585000F83FF83F1C700C600C6006C006C00000EA
:10586000000000000000000000000000FC03FC0F2E
:105870000C0C0C180C180C180C0CFC07FC0F0C185A
:105880000C300C300C300C300C18FC1FFC070000E6
:10589000000000000000000000000000C007F01F32
:1058A00038381C300C700660060006000600060042
:1058B0000600060006600C701C30F01FE0070000B8
:1058C000000000000000000000000000FE03FE0FCA
:1058D000060E06180618063006300630063006306A
:1058E0000630063006180618060EFE0FFE030000EE
:1058F000000000000000000000000000FC3FFC3F32
:105900000C000C000C000C000C00FC1FFC1F0C0019
:105910000C000C000C000C000C00FC3FFC3F0000D5
:10592000000000000000000000000000F83FF83F09
:1059300018001800180018001800F81FF81F1800A9
:1059400018001800180018001800180018000000AF
:10595000000000000000000000000000E00FF83F21
:105960003C780E6006E007C00300030003FE03FE60
:1059700003C007C006C00EC03CF0F83FE00F0000B7
:105980000000000000000000000000000C300C309F
:105990000C300C300C300C300C30FC3FFC3F0C3029
:1059A0000C300C300C300C300C300C300C30000053
:1059B00000000000000000000000000080018001E5
:1059C00080018001800180018001800180018001CF
:1059D0008001800180018001800180018001000040
:1059E00000000000000000000000000000060006AB
:1059F0000006000600060006000600060006000677
:105A000000060006180618063807F003E00100003B
:105A10000000000000000000000000000630061832
:105A2000060C060606038601C60066007600DE0048
:105A30008E0106030606060C0618063006600000F6
:105A40000000000000000000000000001800180026
:105A50001800180018001800180018001800180086
:105A600018001800180018001800F81FF81F000090
:105A70000000000000000000000000000EE01EF02A
:105A80001EF01EF036D836D836D836D866CC66CC5E
:105A900066CCC6C6C6C6C6C6C6C686C386C3000012
:105AA0000000000000000000000000000C301C306E
:105AB0003C303C306C306C30CC30CC308C310C33E2
:105AC0000C330C360C360C3C0C3C0C380C30000003
:105AD000000000000000000000000000E007F81FC8
