:020000040800F2
:1000000060090020990200082B4C0008A33D00085D
:10001000294C000895170008395F0008000000000F
:10002000000000000000000000000000E54F000894
:10003000D9170008000000002D4C0008E74F000809
:10004000B3020008B3020008B3020008B3020008BC
:10005000B3020008B3020008B3020008B3020008AC
:10006000B3020008B3020008B3020008B30200089C
:10007000B3020008B3020008B3020008B30200088C
:10008000B302000800000000B3020008B302000839
:10009000B3020008B3020008B3020008B30200086C
:1000A000B3020008B3020008B3020008B30200085C
:1000B000B302000865500008B3020008B30200084C
:1000C000B3020008B3020008B3020008B30200083C
:1000D000B3020008795D0008B3020008B30200080B
:1000E000B3020008B3020008B3020008B30200081C
:1000F000B3020008B3020008B302000800000000C9
:1001000000000000B302000800000000B302000875
:10011000B302000800000000B3020008B3020008A8
:10012000B3020008B3020008B3020008B3020008DB
:10013000B30200080000000000000000B302000845
:10014000B3020008B3020008000000000000000035
:10015000000000000000000000000000000000009F
:10016000000000000000000000000000B3020008D2
:10017000B3020008000000000000000000000000C2
:1001800000000000B30200080000000000000000B2
:10019000000000000000000000000000000000005F
:1001A0000000000000000000B3020008B3020008D5
:1001B000B3020008B3020008B30200080000000008
:1001C00000000000B3020008000000000000000072
:1001D000B3020008B302000800F002F800F04CF887
:1001E0000AA090E8000C82448344AAF10107DA4592
:1001F00001D100F041F8AFF2090EBAE80F0013F098
:10020000010F18BFFB1A43F00103184710790000D3
:1002100030790000103A24BF78C878C1FAD8520764
:1002200024BF30C830C144BF04680C607047000070
:100230000023002400250026103A28BF78C1FBD8EF
:10024000520728BF30C148BF0B607047662906F0CF
:100250001083642900F0F480002070471FB506F079
:10026000FEFA00F00BFD04000020002105F08CFFD9
:10027000E0601FBD10B510BD00F000FE1146FFF795
:10028000EDFF05F0AFFE00F01EFE03B4FFF7F2FF36
:1002900003BC00F021FE00000948804709480047E0
:1002A000FEE7FEE7FEE7FEE7FEE7FEE7FEE7FEE726
:1002B000FEE7FEE704480549054A064B7047000083
:1002C00055500008D9010008600300206009002093
:1002D000600500206005002053EA020C00F06980F0
:1002E0002DE9F04B4FF00006002B1FBFB3FA83F54A
:1002F00003FA05F424FA05F65E4012BF1643B2FA7B
:1003000082F502FA05F4C5F120051EBF22FA05FCAC
:1003100044EA0C04203556EA044C4FEA144418BF52
:10032000641C4FF000084FF00009904271EB030C81
:1003300039D3002919BFB1FA81F701FA07F6B0FAEB
:1003400080F700FA07F6C7F120071EBF20FA07FC66
:1003500046EA0C062037B6FBF4FCA7EB0507103F76
:1003600007F01F0BCBF120060CFA0BFB2CFA06F65C
:1003700044BFB3460026202FA4BF5E464FF0000BBB
:100380005BEA060C08BF4FF0010B19EB0B09ABFB46
:10039000027C48EB0608C01B06FB02CC0BFB03CC1F
:1003A00071EB0C01C1E70B46024641464846BDE8E9
:1003B000F08B13B54FF000004FF00001AFF3008059
:1003C000BDE81C40704700000FB41CB5074B06AADF
:1003D0007B4469460090059800F037FC0020694690
:1003E00000F046FC1CBC5DF814FB00009D080000FA
:1003F00070B5044685690068C10601D5302600E065
:100400002026C00707D070BDD4E9012130469047AF
:10041000206A401C20626D1EF6D570BD70B5044682
:1004200085690078C00707D170BDD4E9012120207B
:100430009047206A401C20626D1EF6D570BD0000FA
:100440002DE9F0410646002410687529314616A5AD
:1004500010D0AFF30080002802DA404213A507E075
:1004600031688A0701D512A502E0490704D511A514
:10047000012401E0AFF3008000210A2206F12407E5
:1004800009E0B0FBF2FCB0FBF2F302FB1C003030E1
:1004900078541846491C0028F3D123462A46304692
:1004A000BDE8F04100F063B9000000002D0000003D
:1004B0002B000000200000002DE9F0474FF0000A5B
:1004C00089460446C0F820A02046E16888470028F5
:1004D00076D0252806D0D4E901219047206A401C17
:1004E0002062F1E7E168204600268847C4F81CA096
:1004F00005460027C4F818A02A2D09D0284605F083
:1005000044FD38B304EB8708303DC8F8185019E0B3
:1005100059F8041B204604EB87029161E168884783
:10052000012F054618D1E069002820DA26F02006C0
:100530001DE0D8F8180000EB800005EB40003038D3
:10054000C8F818002046E1688847054605F01DFDFB
:100550000028EED1012F0AD02E2D08D12046E168C7
:1005600088477F1C0546022F46F02006C4DBA069A1
:10057000002803DA404246F00106A061F00701D0EE
:1005800026F010066C2D0AD0682D08D04C2D39D0DD
:100590006A2D35D0742D35D07A2D33D016E0E16830
:1005A0002F4620468847B84205460AD16C2F27D0EF
:1005B0004FF48060E168064320468847054605E021
:1005C00027E06C2F1AD04FF4807006430DB3A5F1CD
:1005D0004100192802D8203546F400664A462946CB
:1005E000204626604E46FFF731FE80B101280BD031
:1005F000F61D26F0070000F1080965E74020E4E752
:100600008020D7E70020D5E706F104095CE72846FB
:1006100061E7206ABDE8F08710B5431C02E010F8DE
:10062000011B71B18107FAD14FF0013202C88C1A57
:100630008C4314EAC211F9D0C01A0A0603D0C01EB6
:1006400010BDC01A10BD0A0401D0801E10BD0902E1
:10065000FCD0401E10BD4FF000020429C0F01280F3
:1006600010F0030C00F01B80CCF1040CBCF1020F65
:1006700018BF00F8012BA8BF20F8022BA1EB0C013A
:1006800000F00DB85FEAC17C24BF00F8012B00F830
:10069000012B48BF00F8012B70474FF0000200B556
:1006A000134694469646203922BFA0E80C50A0E895
:1006B0000C50B1F12001BFF4F7AF090728BFA0E843
:1006C0000C5048BF0CC05DF804EB890028BF40F80F
:1006D000042B08BF704748BF20F8022B11F0804F51
:1006E00018BF00F8012B70474FF0013C50F8042B65
:1006F00051F8043B9A4221D1A2EB0C03934313EA35
:10070000CC1317D150F8042B51F8043B9A4215D161
:10071000A2EB0C03934313EACC130BD150F8042B38
:1007200051F8043B9A4209D1A2EB0C03934313EA1C
:10073000CC13DBD04FF00000704700BFD01A01BAD5
:10074000B1FA81F101F0180122FA01F0CB40C1F1B8
:100750002001DBB2C0B2C01A2CFA01F3D11A9143C6
:1007600011EAC311E6D170477047704770472DE911
:10077000F0470D4699469246044600F12408016868
:10078000880604D5E06921F01001216000E0012015
:10079000A84201DD471B00E00027A1697A1902EB9E
:1007A0000900081AA0612078C00602D42046FFF78D
:1007B0001FFE002608E0D4E901211AF80600904740
:1007C000206A401C761C20624E45F4DB2078C0066F
:1007D0000AD52046FFF70CFE06E0D4E901213020BF
:1007E0009047206A401C2062381EA7F10107F4DC04
:1007F00007E0D4E9012118F805009047206A401C61
:100800002062281EA5F10105F3DC2046FFF706FE55
:100810002078000602D50220BDE8F0870120FBE722
:1008200070472DE9FF4F0C461E464FF0FF378BB047
:10083000D2E90001DDF860800A908A46C1F30A55CA
:1008400005B93D46002108464FF00000BAF1000FFF
:1008500000F4400005DA00EB80004FF4400101EAAB
:1008600050004FEA9059B9F1010F00DDB9460A98DE
:1008700050EA4A000ED044F61050A5F2FF35454329
:100880002F14B8F1000F1ED07542291E1EDDC9F1CC
:1008900000021CE0B8F1010F4FF0000001D0302140
:1008A00003E0F24305E02154401CB042FBDB30463C
:1008B0000022002121540B99C1F80880C1E90020D1
:1008C0000FB0BDE8F08FBD1B6D1CDEE74A4600DAB5
:1008D000694206A800F05CFA06AB93E8070003AB98
:1008E00083E8070050460A9900F0FDFA8DE80700FA
:1008F000A0F500501F3800900398002D0ADD42F249
:100900001F014A460844002303A90390684600F0EB
:1009100066FD09E0A0F500504A461F38002303A9F0
:100920000390684600F070FD8DE807000004000C9D
:1009300003D04FF0FF30410800E01046B8F1000F3F
:1009400003D00022009215461EE0751E05D400F06B
:1009500099F9303262556D1EF9D5B346012208432C
:1009600002D000227F1C04E02078302801D1002230
:100970007F1E002A099784D01DE0112D07DA00F0B0
:1009800081F9303262556D1C50EA0102F5D10843FD
:1009900002D00098C8B10EE00021681E05E0235C7B
:1009A000625C63542254401E491C8142F7DBAB4613
:1009B000A81B401E0990002004F80B000B98099A10
:1009C000C0F80880C0E9002B7AE711264FF0000834
:1009D00057E72DE9F04F88460446D21D22F0070163
:1009E00091B0D1E90001CDE90A0105F0A6FA02466D
:1009F0000B98C00F01D02D2007E02068810701D59A
:100A00002B2002E0202101EAC000032A099001D036
:100A1000072A05DB03464146204600F079F90BE141
:100A20002078800601D5E06900E00620B8F1650F66
:100A3000814606D0B8F1660F18D0B8F1670F70D1B3
:100A400031E00020B9F1110F009001DB112301E02A
:100A500009F101030AAA01A90CA8FFF7E2FEDDE9EA
:100A60000C70002609F10105834647E001204B4642
:100A700000904FF000470AAA01A90CA8FFF7D1FE89
:100A8000DDE90DB00C995D46002610B909F10100B1
:100A90000D18B9EB050003D4C0F1FF3609F10105CB
:100AA000A5EB09002BE0B9F1010F01DA4FF00109C4
:100AB0000020B9F1110F0090484601DD112300E03C
:100AC00003460AAA01A90CA8FFF7ABFEDDE90C70EA
:100AD0004D4600268346207800070AD4AB4500DA4D
:100AE0005D4601A8012D04DD411911F8011C3029D2
:100AF00007D04F4502DA17F1040F04DA01208246CD
:100B00000FE06D1EEEE7002F02DCED1B3E4403E01C
:100B1000781CA84200DD7D1CB81B00F1010A4FF0D3
:100B200000472078000703D4AA4501DB4FF0FF3AC5
:100B30000021B7F1004F0DF143088DF8431024D088
:100B400002202B23002F01DA7F422D230A21021ECF
:100B5000A0F1010000DC5FB197FBF1FC97FBF1F223
:100B600001FB1C7C17460CF1300C08F801CDEEE7B8
:100B7000A8F1010003702188090501D5452100E095
:100B80006521A0F1010800F8011C09980FA9A1EB4B
:100B90000807FF1D00B10120411901EBEA70A169AE
:100BA0003844081A401EA0612078C00602D42046AE
:100BB000FFF71EFC099828B1D4E901219047206A6B
:100BC000401C20622078C00622D52046FFF710FC8A
:100BD0001EE0002E04DBB34502DD01A8805D00E0CD
:100BE0003020D4E901219047206A401C2062761C05
:100BF000AAF101005FEA000A0AD100F03FF8C068DC
:100C00000168405CD4E901219047206A401C2062C1
:100C1000281EA5F10105DCDC07E0D4E9012118F864
:100C2000010B9047206A401C2062381EA7F1010783
:100C3000F3DC2046FFF7F2FB032011B041E6000091
:100C400001694A1C02610878704700B58FB0CDE990
:100C500001310021059105497944CDE90310114680
:100C60006846FFF729FC0FB000BD0000E5FFFFFF5D
:100C70000A6802F8010B0A607047000000487047DC
:100C80002003002030B5B0F10A024FEA900E71F156
:100C900000034EEA817EB0EB0E0061EB91014FEA5A
:100CA000101E4EEA017E10EB0E0041EB11114FEACF
:100CB000102E4EEA016E10EB0E0041EB11214FEAAF
:100CC000104E4EEA014E10EB0E0041EB1141401860
:100CD00041F100014FEAD00040EA41704FEAD101F2
:100CE00010EB80054FEA810444EA907444EB010460
:100CF0006D1944EB0404521BA3414FF0000348BF9D
:100D00000A3200D530BD401C41F1000130BD000069
:100D10002DE9F0411F46044603260168072A01F425
:100D2000006004DB08B116A505E016A503E008B1D4
:100D300015A500E015A521F010002060A069C01ED7
:100D4000A0610FB1401EA0612046FFF751FB4FB1DB
:100D5000D4E9012138469047206A401C2062C01C1B
:100D6000206206E0206AFAE7D4E9012115F8010BB8
:100D70009047761EF8D22046FFF750FBBDE8F08181
:100D80004E414E006E616E00494E4600696E66002F
:100D90002DE9F047814616468AB0354878440DC89B
:100DA0008DE80D0032487844801C03AC0DC884E8FF
:100DB0000D0041F69B300844372190FBF1F290FB87
:100DC000F1F5A5F1800501FB12041B3C02D564423C
:100DD000012000E00020DFF898A080460027FA44B8
:100DE000AAF1BE0A0EE0E0070AD03246684607EBD9
:100DF000470101230AEB810100F006FB8DE80700A3
:100E000064107F1C002CEED1194F7F44AE3F19E0D7
:100E1000E80715D007EB04100DF1180A90E80E0052
:100E20008AE80E00C068F04201D198190890324655
:100E3000012306A903A800F0E7FA03AB83E8070043
:100E40006D10641C002DE3D14FF00103324669465A
:100E5000B8F1000F03A802D000F0C1FA01E000F0E1
:100E6000D3FAC9E90001C9F808200AB0BDE8F08743
:100E7000646D000000487047000300207546FFF7CE
:100E8000F9FFAE4605006946534620F00700854647
:100E900018B020B5FFF70EFABDE820404FF000066D
:100EA0004FF000074FF000084FF0000B21F0070152
:100EB000AC46ACE8C009ACE8C009ACE8C009ACE895
:100EC000C0098D46704710B50446AFF30080204638
:100ED000BDE81040FFF7D9B901491820ABBEFEE7C5
:100EE0002600020070475FEA400C08BF91F0000F37
:100EF0004FEA8C234FEAC12243EA51514FEA1C507A
:100F000018BF00F5F0404FEA300018BF41F0004133
:100F10005FEA6C5C00F02980BCF1FF3F08BF40F045
:100F200080407047130C06BF12044FF0100C4FF0B6
:100F3000000C130E04BF12020CF1080C130F04BFB7
:100F400012010CF1040C930F04BF92000CF1020C7F
:100F5000D30F04BF52000CF1010C11464FF00002F8
:100F6000A0F11F00A0EB0C00704711F0004F08BF6C
:100F7000704731F000413FF4D5AF0B0C06BF0904B8
:100F80004FF0100C4FF0000C0B0E04BF09020CF1D7
:100F9000080C0B0F04BF09010CF1040C8B0F04BFEC
:100FA00089000CF1020CCB0F04BF49000CF1010CBD
:100FB000CCF12003A0EB0C0022FA03F302FA0CF2AE
:100FC00041EA030100F10100704720F07F4C80EA04
:100FD000030023F07F47ACEB070303F57C5300F0DD
:100FE000004003F1FF032DE980494FEA154B09B496
:100FF0004FEA144325EA0B4E24EA03480FF2042675
:1010000006EB132749083E785FEA320203FB0667C6
:10101000C7F5000707FB06F64FEA54374FEAD646F6
:1010200006F1020607FB066CCCF1005C4FEA1C4798
:101030002CEA074C07FB06F40CFB06F504EB1546FF
:101040004FEA961634BF00204FF000404FEAD137E8
:1010500006FB07FC4FEA1C4C0CFB0BF7D21B03FBF7
:101060000CF761EB07010CFB0EF7B0EB074072EBDE
:1010700017420CFB08F734BFA2EB0742B2EB074262
:1010800061EB17414FEA0C444FEA910706FB07FC5E
:101090004FEA1C4C0CFB0BF7B0EBC74072EB57321E
:1010A00003FB0CF734BFA2EBC742B2EBC74261EBC4
:1010B00057310CFB0EF7B0EBC70072EB57720CFB0D
:1010C00008F734BFA2EBC702B2EBC70261EB57715E
:1010D000039F4FEA816141EA921104EBCC044FEA8D
:1010E000D1374FEA826206FB07FC42EA90124FEAD0
:1010F00080604FEA1C4C0CFB0BF7D21B03FB0CF778
:1011000061EB07010CFB0EF7B0EB074072EB1742E7
:101110000CFB08F734BFA2EB0742B2EB074261EBCE
:1011200017414FEA8C554FEA910704EB9C2406FBCC
:1011300007FC4FEA1C4C0CFB0BF7B0EBC74072EB03
:10114000573203FB0CF734BFA2EBC742B2EBC742E6
:1011500061EB57310CFB0EF7B0EBC70072EB577227
:101160000CFB08F734BFA2EBC702B2EBC70261EB7E
:10117000577115EB4C254FEA816141EA92114FEA14
:1011800082624FEAD13742EA901206FB07FC44F133
:1011900000044FEA80604FEA1C4C0CFB0BF7D21B9B
:1011A00003FB0CF761EB07010CFB0EF7B0EB0740FC
:1011B00072EB17420CFB08F734BFA2EB0742B2EB0D
:1011C000074261EB174115EB1C154FEA813141EAEB
:1011D00092414FEA823242EA90424FEA80304FEA2F
:1011E0000C7644F1000448EA03434EEA0B484FF002
:1011F000000EB2EB080C71EB030724BF62463946C0
:101200004EEB0E0E4FF0000B0018524149414BEBD4
:101210000B0BB2EB080C71EB03077BF1000B24BF47
:10122000624639464EEB0E0E4FF0000B001852414D
:1012300049414BEB0B0BB2EB080C71EB03077BF155
:10124000000B24BF624639464EEB0E0E51EA0207F0
:1012500018BF46F0010616EB0E7655F1000254F168
:10126000000103D5BDE88901BDE80088BDE889011A
:10127000BDE80048B619524141EB0101A3F1010359
:10128000704780807F7E7D7C7B7A797877767675F3
:101290007473727171706F6E6E6D6C6C6B6A6A696B
:1012A0006868676666656464636362616160605F05
:1012B0005F5E5E5D5D5C5C5B5B5A5A59595858577E
:1012C00057565655555554545353525252515150E6
:1012D00050504F4F4F4E4E4D4D4D4C4C4C4B4B4B39
:1012E0004A4A4A494949484848474747474646467F
:1012F00045454544444444434343434242424241BA
:101300004141002B9C4630D477002BD01CB54FEACE
:10131000370703B44FF010004FF01001BAF1000F7F
:1013200006D0BCF1000FDCBF40F0080040F008011F
:101330004FF000000FBCBDE810400BF1010BBBF1FA
:10134000010F08BF5FEA170722BF12F1010211F176
:1013500001014FF0004143F1000300F0004043EA77
:1013600000007047F9D35708D0E746EA064613F164
:10137000400F4FEA16461FDD13F1200FDFBF164363
:101380000A46002120335B42BED0C3F1200746EA63
:10139000064602FA07F74FEA164646EA0706C3F181
:1013A000200722FA03F201FA07F721FA03F14FF0BE
:1013B000000342EA0702A7E746EA020646EA0646B3
:1013C0004FEA164646EA0106BCBF46EA0646360C18
:1013D0004FF000034FF000024FF0000194E72DE9B9
:1013E000804C9A46934670B491E8380007C831EAB9
:1013F000400C48BF34EA430C03D5FFF7E6FDFFF786
:1014000080FFF0BCBDE8008C2DE9804C9A469346E5
:1014100070B491E8380007C810F0804F08BF13F08F
:10142000804F03D100F005F8FFF76BFFF0BCBDE87B
:10143000008C20F07F4780EA030023F07F4C07EB0D
:101440000C03A3F57C5300F00040A3F1FE0392F0DF
:10145000000F00F0B38095F0000F00F077802DE9C9
:1014600001494FEA11404FEA144621EA004800FBC7
:1014700006FC24EA064708FB06F607FB08F800FB13
:1014800007F718EB06484CEB164C4FEA124B18EBDB
:1014900007484FEA15464CEB174022EA0B4E0BFB70
:1014A00006FC25EA06470EFB06F607FB0EFE0BFBC5
:1014B00007F71EEB064E4CEB164C4FF000061EEBEA
:1014C000074E4CEB174B18EB0B0840F1000018EBE4
:1014D0000E0B58EB000840F100008F1A4FF000018E
:1014E0003CBFC943661B14BFB5EB040C00213CBFD5
:1014F000C943F61B4FEA17444EEA8E0E27EA04450D
:101500004FEA1C4704FB07622CEA074C05FB07F770
:101510000CFB05F604FB0CFC16EB074642EB1742EE
:1015200016EB0C4642EB1C421BEB060658EB020284
:10153000414146EA9E0601D5BDE80189B6195241EE
:1015400041EB0101A3F10103BDE801894FEA144514
:101550004FEA114724EA054621EA074C05FB07F448
:1015600006FB07F70CFB06F105FB0CFC11EB074132
:1015700044EB17444FEA124711EB0C4144EB1C4477
:1015800022EA074C05FB07F206FB07F70CFB06F601
:1015900005FB0CFC16EB074642EB174216EB0C461C
:1015A00042EB1C456A1854F1000148BF7047B61958
:1015B000524141EB0101A3F10103704795F0000F87
:1015C00037D04FEA11424FEA144721EA024624EA93
:1015D000074C02FB07F106FB07F70CFB06F402FBC6
:1015E0000CFC14EB074441EB17414FEA154714EB91
:1015F0000C4441EB1C4125EA074C02FB07F506FBB6
:1016000007F70CFB06F602FB0CFC16EB074645EB56
:10161000174516EB0C4645EB1C42121951F100011F
:1016200048BF7047B619524141EB0101A3F10103D4
:1016300070474FEA14454FEA114724EA054621EA6C
:10164000074C05FB07F106FB07F70CFB06F24FF012
:10165000000605FB0CFC12EB074241EB174112EBB5
:101660000C4251EB1C4148BF7047921841EB0101FD
:10167000A3F101037047000070B50446006881685B
:1016800011F0010F2DD18168174A11421AD18168DA
:10169000D5432940491C816000F0E0FE06461BE06E
:1016A000816811F0010F03D181682940491C8160D4
:1016B00000F0D4FE801B02280ED920680068C043C9
:1016C000C00709D0E06D40F01000E065206E40F0EA
:1016D00001002066012070BD20680168C943C90768
:1016E000DED1002070BD00003F00008010B5214811
:1016F0002DED048B0168204C226A891A642936D3A7
:101700000068206200F07AF804F0EAFE9FED1B8B7F
:1017100053EC182B04F08CFD9FED1A9B53EC192B06
:1017200004F02EFFC4E90E0100F074F804F0D8FEB6
:1017300053EC182B04F07CFD53EC192B04F020FF24
:10174000C4E91001A069401EA06110D11420A0615D
:1017500000F022F8C0F30A0004F0C2FE9FED0B1B5C
:1017600053EC112B04F00CFF04F024FD6063BDEC7E
:10177000048B10BD64000020080000200000000061
:1017800000FEAF406666666666660A4000000000BE
:101790000000B03FFEE7000010B504F0CFFCCC2005
:1017A00004F0BAFC442004F0B7FC0A48401EFDD205
:1017B00004F0C4FCCC2004F0AFFCBE2004F0ACFC70
:1017C00004F0A7FC044604F0A4FC04EB002000B2E3
:1017D00010BD0000001BB7007047002240F6B83370
:1017E00006E00021491C89B29942FBD3521C92B2F7
:1017F0008242F6D3704772B6FEE7000010B5044887
:1018000000F000FC024800F089FA80B210BD000030
:10181000B801002010B5044800F0F4FB024800F0C5
:101820007DFA80B210BD00004C0100202DE9F04788
:10183000044690F858009CB00E464FF0000901286D
:1018400015D0012084F858000025179518952068B8
:101850004FF0A04840450ED1284F0097384602F07F
:10186000A9FF8246206802F0A5FF60B10EE00220C9
:101870001CB0BDE8F087E06D40F02000E06584F822
:1018800058500120F4E7BAF1000F09D0E06D40F0A4
:101890002000E0654FF0010984F858504846E7E71A
:1018A0001748326840F61F71002A826822F46042AD
:1018B00016D094F8383042EA433273681A43826093
:1018C000D8F80820BB6802F0010203F001031A43B4
:1018D000E2D1B36832681A4383688B431A430BE042
:1018E0008260D8F80820BB6802F0010203F001030F
:1018F0001A43D1D182688A438260CDE7000100504B
:10190000000300502DE9F84F00270446009790F897
:101910005800DFF8D8930D46B846012811D00126AB
:1019200084F85860206802F041FF60B1E06D40F03B
:101930002000E0655FF0010784F858803846BDE874
:10194000F88F0220FBE7D5E900210C23206803EA89
:1019500091131844036B01F01F014FF01F0C0CFA98
:1019600001FCC2F3846223EA0C038A40134303633D
:10197000206802F01BFF8246206802F013FF5AEA3B
:1019800000003CD1AA6829682068B2F1004F37D026
:1019900002F014FF2068416921F000414161206894
:1019A0006969C268C2F3C102520091402A69042ADF
:1019B00031D000EB82002B68026EDFF834C303F0F5
:1019C000F84302EA0C020B431A4342F0004101665D
:1019D00020682A69A96900EB8200026E22F08072F9
:1019E0000A430266297F22682869012910D0002154
:1019F00002EB8000026E22F000720A4302667DE074
:101A0000002202F0DBFE2068416941F00041C5E799
:101A10004FF00071ECE7002102F0BEFE40032068A9
:101A20004FF0000172D002F0B7FE90FAA0F0B0FAC9
:101A300080F1286842036ED090FAA0F0B0FA80F0EE
:101A4000814204D100221146206802F0C6FE012125
:101A5000206802F0A1FE400320684FF001015DD034
:101A600002F09AFE90FAA0F0B0FA80F128684203E2
:101A700059D090FAA0F0B0FA80F0814204D100224F
:101A80000121206802F0A9FE0221206802F084FEF4
:101A9000400320684FF0020148D002F07DFE90FA2A
:101AA000A0F0B0FA80F12868420344D090FAA0F088
:101AB000B0FA80F0814204D100220221206802F0B5
:101AC0008CFE0321206802F067FE400320684FF07F
:101AD000030133D002F060FE90FAA0F0B0FA80F17A
:101AE000286842032FD090FAA0F0B0FA80F081422B
:101AF00004D100220321206802F06FFE2068816873
:101B000011F0010F22D0A8E000E004E002F044FE52
:101B1000C0F384618DE7C0F3846091E702F03CFE7E
:101B2000C0F38461A2E7C0F38460A6E702F034FE4C
:101B3000C0F38461B7E7C0F38460BBE702F02CFE1A
:101B4000C0F38461CCE7C0F38460D0E7EB68296818
:101B50004B4550F8B03FC1F3120101D10B4300E0F7
:101B60008B430360E868484577D1286841031CD05F
:101B700090FAA0F1B1FA81F1491C01F01F01092985
:101B80004FEA403132D8002912D000BF90FAA0F1BC
:101B9000B1FA81F101F1010101F01F0106FA01F62C
:101BA00009D100BFC0F3846109E0C0F38461E3E7B9
:101BB000C0F38461EEE790FAA0F1B1FA81F101F18E
:101BC000010101F01F0146EA816102D1C0F3846086
:101BD00003E090FAA0F0B0FA80F000F1010000F00C
:101BE0001F0000EB400041EA005132E000290ED016
:101BF00090FAA0F1B1FA81F101F1010101F01F01A8
:101C000006FA01F606D100BFC0F3846106E0C0F316
:101C10008461F1E790FAA0F1B1FA81F101F10101DB
:101C200001F01F0146EA816102D1C0F3846003E044
:101C300090FAA0F0B0FA80F000F1010000F01F006F
:101C40002C4A00EB400002EB005041EA000141F059
:101C50000071AA68206802F0B1FD27482A68024294
:101C60003FF46AAE25488168254B01F0E0719A4245
:101C700002D0244B9A421CD10B021AD42268B2F132
:101C8000A04F7FF459AE826841F4000122F0E07267
:101C90000A4382601C481D490068B0FBF1F0401CFB
:101CA00000EB4000800000E0401E00900028FBD1C7
:101CB00042E6174D174BAA4207D1CD0105D4226841
:101CC0009A42F5D041F0807109E0134DAA42EFD15C
:101CD0004A02EDD422689A42EAD041F48001826837
:101CE00022F0E0720A43826026E6000000007F4096
:101CF00000F0FF03000020FE0000088000030050F9
:101D0000000021C31000C09068000020400D0300B7
:101D1000000052C700010050000084CB0068006C36
:101D200070470000F8B54FF0000504002E460095FE
:101D300002D0E06D10B107E00120F8BD204600F0B0
:101D4000EFF8266684F8586020688168C1F3407116
:101D500019B181686A4A1140816020688168C1F3C5
:101D6000007189B98168674A114041F080518160F2
:101D7000654866490068B0FBF1F04000801C00E057
:101D8000401E00900028FBD120688168C1F30071DB
:101D900041B9E16D41F01001E165216E41F00101B1
:101DA0002166012502F002FDE16DC90600D430B1C3
:101DB000E06D40F01000E06501252846F8BDE06DBB
:101DC00020F4807040F00200E0652068806810F028
:101DD000010F11D14FF0A04080684D4900F0010083
:101DE000896801F00101084306D14A4861688268A8
:101DF00022F47C120A438260E168E06B627F084350
:101E0000A16841EA4231084394F8241040EA0140B5
:101E1000012904D1218D404A02EB41410843E16A86
:101E200029B101F47871226B014342EA0100216873
:101E3000CA683A4B1A400243CA6020680169626B63
:101E400021F0406111430161206802F0AFFC0646B9
:101E5000206802F0A7FC30432ED1207F94F8381080
:101E6000800340EA41022068C16844F202039943BA
:101E70001143C16020690028206801690AD041F43B
:101E800080310161206850F8C01F22696FF30D0195
:101E9000114307E021F480310161206850F8C01F30
:101EA0006FF30D01016094F8400001280CD0206808
:101EB000016921F001010161606901282068016B5D
:101EC00021F00F0111D013E0D4E911010843D4E946
:101ED00013121143084321680A6940F2FC739A43C4
:101EE000104340F001000861E6E7226A521E1143E8
:101EF0000163E06D20F0020040F00100E0655CE766
:101F0000C0FFFF5FC0FFFF7F68000020400D03009F
:101F100000010050000300500000FEFF0740F0FFEA
:101F20002DE9F04397B00446142111A8FEF7B5FB44
:101F300044216846FEF7B1FB4FF0005021682D4D5B
:101F40000327DFF8B49086132C4C4FF00008B1F152
:101F5000A04F10D02A4A914248D100960F9068466F
:101F600000F07AFB08B1FFF746FC2868401C2860A7
:101F7000012824D02BE000960F90684600F06CFBFF
:101F800008B1FFF738FC2868401C2860012807D1F9
:101F9000E06C40F40050E064E06C00F400501690F7
:101FA000E06C40F00200E064E06C11A900F0020077
:101FB00016904FF4805081E88101484614E0E06CAF
:101FC00040F40050E064E06C00F400501690E06CC7
:101FD00040F00200E064E06C11AA00F002001690EC
:101FE00082E8C00111A9484600F00AF917B0BDE81F
:101FF000F083000058000020000400480010024058
:10200000000100502DE9F04104463848806800F096
:102010001F05206802F0CAFB18B102210846BDE87E
:10202000F08194F8580001280CD0012084F8580061
:102030002046FFF721FB01004FF0000304D084F895
:102040005830EBE70220EAE7E06D40F6016290438A
:1020500040F48070E065264A20684FF0A046904228
:1020600001D1374600E00746874200D01DB9E76D31
:1020700027F48017E765E76DFF0404D5276E27F086
:102080000607276600E023661C27076084F858309F
:102090002068904201D1334600E00346834215D0C8
:1020A000A5B1052D12D0092D10D0E36D43F4801396
:1020B000E365904200D13046C0688001AED5E06D46
:1020C00020F4005040F48050E065A7E7C268920118
:1020D00005D5E26D22F4005242F48052E265826836
:1020E000044B1A40121D826098E700000003005064
:1020F00000010050C0FFFF7F10B590F8253000218F
:102100000122022B03D00421C163012122E00368D4
:102110001C6824F00E041C60836C1C6824F480741A
:102120001C6003681C6824F001041C6090F84430B3
:10213000046C03F01F0302FA03F36360D0E9133465
:102140005C60436D33B11C6824F480741C60D0E97A
:1021500016345C6080F82520002280F82420084690
:1021600010BD70B590F82520002401212346022AD5
:1021700007D00422C26380F8251080F8243001249F
:1021800029E00268156825F00E05156002681568DB
:1021900025F001051560826C156825F480751560C1
:1021A00090F84420056C02F01F0201FA02F26A6006
:1021B000D0E913255560426D32B1156825F480755C
:1021C0001560D0E91625556080F8251080F8243078
:1021D000816B01B18847204670BD000070B5044690
:1021E00000F03CF90546601C02D0044840680444F5
:1021F00000F034F9401BA042FAD370BD5C0000200F
:102200002DE9F04FDFF82092002301260324A9F1E5
:10221000040B85B00F2709F1040AABF1040EFAE0B4
:1022200006FA03F52A407CD091F804C00CF0030CA8
:10223000BCF1010F02D0BCF1020F26D1D0F808C0CA
:10224000CDF800C04FEA430C04FA0CF8CDF810C0EA
:10225000DDF800C02CEA080CCDF800C0D1F80C80E5
:10226000DDF810C008FA0CF8DDF800C048EA0C08E8
:10227000C0F80880D0F804C02CEA050C0D79C5F32D
:1022800000159D4045EA0C0545600D79ED43AD070D
:102290000ED0C5684FEA430804FA08FC25EA0C058D
:1022A000D1F808C00CFA08FC4CEA050CC0F80CC0C8
:1022B0000D7905F00305022D16D1DD0800EB850C24
:1022C000CDF808C0DCF820805D074FEAD56C07FA2E
:1022D0000CF528EA05080D6905FA0CF5DDF808C0CB
:1022E00045EA0805CCF8205005684FEA430CCDF8C4
:1022F00008C004FA0CFC25EA0C0591F804C00CF0A7
:102300000308DDF808C008FA0CF848EA0508C0F828
:1023100000804D6815F4403F7CD0444DD5F860C036
:1023200000E077E04CF0010CC5F860C02D6E23F0A2
:10233000030C05F0010500953D4D65440295AD681F
:102340004FEA837C4FEA1C7807FA08FC25EA0C0563
:10235000B0F1904F06D0DFF8DCC0604505D14FF0FA
:10236000010C20E04FF0000C1DE0DFF8CCC0604510
:1023700002D14FF0020C16E0DFF8C0C0604502D178
:102380004FF0030C0FE0DFF8B8C0604502D14FF00A
:10239000040C08E0DFF8ACC0604502D14FF0050C3A
:1023A00001E04FF0060C0CFA08FC4CEA050C029D0B
:1023B000C5F808C0D9F80050CC46D1F80480954340
:1023C0005FEAC82800D51543CCF80050DAF8005071
:1023D000D446D1F8048095435FEA882800D5154398
:1023E000CCF80050DBF80050DC46D1F8048095436F
:1023F0005FEA883800D51543CCF80050DEF800506D
:10240000F446D1F8048095435FEAC83800D51543F7
:10241000CCF800505B1C0A6832FA03F57FF400AF79
:1024200005B0BDE8F08F0000080401400010024034
:10243000000001400004004800080048000C00486B
:1024400000100048001400480069084000D0012036
:1024500070470AB1816170478162704701488068A6
:10246000704700005C000020024881684268114407
:10247000816070475C00002010B50024032000F04C
:1024800073F80F2000F008F808B1012401E000F013
:1024900025F8204610BD000070B50E4E05460024FC
:1024A000706898B14FF47A71B1FBF0F00A4909688D
:1024B000B1FBF0F000F062FD40B9102D06D2002211
:1024C0002946501E00F030F8356000E00124204617
:1024D00070BD00005C000020680000200A4882B047
:1024E000016E41F001010166016E01F001010091F0
:1024F000816D41F080518165806D00F080500090C9
:1025000002B000F0A1B8000000100240002809DB72
:1025100000F01F02012191404009800000F1E020FD
:10252000C0F8001170470000F0B40E4B1B680C4659
:10253000C3F30223C3F10705042D00D90425191D97
:10254000072901D2002300E0DB1E012606FA05F16F
:10255000491E214099409E40761E16403143F0BCF2
:1025600003F003BD0CED00E0064900F00702086827
:102570004FF6FF03184040EA0220034A1043086068
:10258000704700000CED00E00000FA052B492C4BD1
:102590000A6832214A432B4940B1B0F5007F0868F0
:1025A00029D020F4C06040F480602CE00868C0F3BB
:1025B0004120022804D051F8800F20F4807022E0DE
:1025C000D1F8800020F48070C1F88000086820F401
:1025D000C06040F400700860B2FBF3F0401C00E003
:1025E000401E4A69520501D50028F9D148694005C5
:1025F0000AD503207047C0F34120022806D051F8C5
:10260000800F40F48070086000207047D1F880008F
:1026100040F48070C1F88000086820F4C06040F485
:1026200000700860B2FBF3F0401C00E0401E4A69F5
:102630005205DBD50028F9D1D8E70000680000205A
:1026400040420F00007000400248816841F4804120
:1026500081607047007000402DE9F843044600682F
:1026600000269D4D00035ED5A86D0027C00008D44C
:10267000A86D40F08050A865A86D012700F080503B
:102680000090DFF85892D9F8001041F48071C9F831
:102690000010FFF7E3FE804606E000BFFFF7DEFE16
:1026A000A0EB080002282BD8D9F80000C005F5D50A
:1026B000D5F8900010F4407014D0216C814211D0F4
:1026C000D5F89000D5F8901020F4407041F4803196
:1026D000C5F89010D5F8901021F48031C5F890100D
:1026E000C5F89000C00711D0FFF7B8FE804641F250
:1026F000883907E0FFF7B2FEA0EB0801494501D990
:1027000003260BE0D5F890008007F3D5D5F89000AC
:10271000216C20F440700843C5F890001FB1A86DEB
:1027200020F08050A8652078C00707D0D5F8880031
:10273000616820F003000843C5F88800207880070E
:1027400007D5D5F88800A16820F00C000843C5F82B
:1027500088002078400707D5D5F88800E16820F088
:1027600030000843C5F888002078000707D5D5F861
:102770008800216920F0C0000843C5F8880020784F
:10278000800607D5D5F88800616920F440600843C9
:10279000C5F888002078400607D5D5F88800A169DB
:1027A00020F440500843C5F888002078000607D57B
:1027B000D5F88800E16920F440400843C5F8880056
:1027C0002088C00507D5D5F88800216A20F440305C
:1027D0000843C5F888002088800507D5D5F888000B
:1027E000616A20F440200843C5F88800208840052D
:1027F0000FD5D5F88800A16A20F440100843C5F829
:102800008800A06AB0F5801F03D1E86840F480100A
:10281000E860208800050FD5D5F88800E16A20F42B
:1028200040000843C5F88800E06AB0F5800F03D186
:10283000E86840F48010E8602088C0040FD5D5F81F
:102840008800216B20F040700843C5F88800206B99
:10285000B0F1807F03D1E86840F48010E860208800
:102860004FF0006180040ED5D5F88800626B20F02F
:1028700040601043C5F88800606B884203D1E86867
:1028800040F48010E860208840040ED5D5F8880018
:10289000A26B20F040601043C5F88800A06B88420E
:1028A00003D1E86840F48010E860208800040FD568
:1028B000D5F88800E16B20F040500843C5F8880047
:1028C000E06BB0F1805F03D1E86840F48030E860ED
:1028D0003046BDE8F8830000001002400070004060
:1028E0002DE9F0470E4605004FF0000725D0DFF830
:1028F000AC81D8F8000000F00F00B0420CD2D8F83C
:10290000001021F00F013143C8F80010D8F8000082
:1029100000F00F00B04210D12968614CC80741F2A5
:10292000883A5AD06868DFF87C91032808D00228DA
:1029300020682DD0400500282CDB0120BDE8F08761
:1029400020688001F9D5E06800F00302E068C0F378
:102950000310401C032A19D0534A00BFB2FBF0F009
:10296000E268C2F306225043E268C2F34162521C9D
:102970005200B0FBF2F0484517D9A06810F0F00FF4
:102980000CD0880711D5A86840B10EE0474AE5E7AA
:102990008003D0E700F0B6F8484506D9A06820F0DB
:1029A000F00040F08000A0608027A068696820F0F7
:1029B00003000843A060FFF751FD814606E000BF19
:1029C000FFF74CFDA0EB090151453AD8A0686968B2
:1029D00000F00C00B0EB810FF2D12868810714D50C
:1029E000400703D5A06840F4E060A06028780007A5
:1029F00005D5A06820F4605040F4E060A060A068B5
:102A0000A96820F0F000084304E0802F03D1A068FB
:102A100020F0F000A060D8F80010404601F00F014F
:102A2000B14216D9016821F00F0131430160FFF76F
:102A300015FD074607E000BFFFF710FDC11B51451C
:102A400001D903207AE7D8F8000000F00F00B04267
:102A5000F2D12878400705D5A068E96820F4E06045
:102A60000843A0602878000706D5A068296920F4EB
:102A7000605040EAC100A06000F044F8A1680C4A30
:102A8000C1F30311515C01F01F01C84009490860FE
:102A900009480068BDE8F047FFF7FEBC002002408F
:102AA0000010024000B4C4040024F40000127A00B4
:102AB0006E7A0008680000205C0000200548064986
:102AC00000688968054AC1F30221515C01F01F01C9
:102AD000C840704768000020001002407E7A00085D
:102AE0000548064900688968054AC1F3C221515C5E
:102AF00001F01F01C840704768000020001002402C
:102B00007E7A0008184910B58868C0F3810217481A
:102B1000012A0BD08A684310C2F38102022A06D030
:102B20008A68C2F38102032A03D0002010BD184630
:102B300010BDCA6802F00304CA68C2F30312521C33
:102B4000032C02D0B0FBF2F001E0B3FBF2F0CA6854
:102B5000C968C2F306225043C1F34161491C4900D0
:102B6000B0FBF1F010BD0000001002400024F400A2
:102B70002DE9F84304007AD02078FA4DC00747D0F9
:102B8000A868E96800F00C0001F003010C2802D0ED
:102B9000082817D001E0032914D06068B0F5803F01
:102BA00017D0B0F5A02F286817D020F48030286007
:102BB000286820F4802028606068E0B1FFF74EFCB0
:102BC000064614E02868800322D560680028D2D029
:102BD0001EE0286840F48030EDE740F48020286053
:102BE000F7E700BFFFF73AFC801B642870D828681D
:102BF0008003F7D50CE0FFF731FC064605E000BF87
:102C0000FFF72CFC801B6428F0D828688003F7D4D9
:102C1000207880074CD5A868E96800F00C0001F026
:102C200003010C2802D004280DD001E002290AD0AB
:102C3000E068002828682BD040F480702860FFF7F7
:102C40000DFC064619E02868400502D5E06800281A
:102C500091D06868217C20F0FE4040EA0160686005
:102C6000C1480068FFF718FC002800D120E076E199
:102C7000FFF7F4FB801B0228B8D828684005F7D579
:102C80006868217C20F0FE4040EA016068600FE047
:102C900020F480702860FFF7E1FB064605E000BFE6
:102CA000FFF7DCFB801B0228A0D828684005F7D47A
:102CB0002078000729D560690028D5F8940013D042
:102CC00040F00100C5F89400FFF7C8FB064606E097
:102CD00090E000BFFFF7C2FB801B022886D8D5F822
:102CE00094008007F6D510E020F00100C5F89400AC
:102CF000FFF7B4FB064604E0FFF7B0FB801B022899
:102D000078D8D5F894008007F6D42078400761D5AC
:102D1000A86D0026C00008D4A86D40F08050A865BA
:102D2000A86D012600F08050009090480168C90508
:102D300011D40168804641F480710160FFF78EFB79
:102D4000074604E0FFF78AFBC01B022852D8D8F8D8
:102D50000000C005F6D5A068012815D00528D5F8D3
:102D6000900016D020F00100C5F89000D5F8900032
:102D700020F00400C5F89000A06841F28838B8B18E
:102D8000FFF76CFB07460EE0D5F8900040F001001D
:102D9000F0E740F00400C5F89000F5E7FFF75EFBB0
:102DA000C11B414526D8D5F890008007F6D50CE028
:102DB000FFF754FB074604E0FFF750FBC11B4145FA
:102DC00018D8D5F890008007F6D41EB1A86D20F071
:102DD0008050A8652078800629D5A0690028D5F8FC
:102DE000980013D040F00100C5F89800FFF736FBBB
:102DF000064606E077E000BFFFF730FB801B0228A5
:102E000077D8D5F898008007F6D510E020F00100BB
:102E1000C5F89800FFF722FB064604E0FFF71EFB0B
:102E2000801B022865D8D5F898008007F6D4E069A1
:102E3000F0B3A968C1F38101032961D00228286891
:102E400020F0807028600BD0E86820F00300E86074
:102E5000E86847490840E860FFF700FB04464BE09C
:102E6000FFF7FCFA064604E0FFF7F8FA801B022899
:102E70003FD828688001F7D4F4E908016FF00F0209
:102E800002EB01110843218A5204490802EB415127
:102E9000A26841EA02210843217D4FF07E424908A1
:102EA00002EB41610843217B40EAC160E96800E030
:102EB00062E0304A11400843E860286840F08070C2
:102EC0002860E86840F08070E860FFF7C7FA0446C1
:102ED00005E000BFFFF7C2FA001B022809D82868E6
:102EE0008001F7D548E004E0FFF7B8FA001B02289C
:102EF00002D90320BDE8F88328688001F4D43BE0C0
:102F00000128F7D0E868226A00F00301914226D137
:102F1000616A00F0F0020901103991421FD1A26AE2
:102F200000F4FE41B1EB022F19D194F82C2000F0EF
:102F30007841B1EBC26F12D1218E00F4C002490872
:102F40004905A1F50011914209D194F8341000F01F
:102F5000C06049084906A1F1007181420CD00120EE
:102F6000C8E70000001002405C0000200070004034
:102F7000FFFFEEFE0C809F010020BBE710B5401E56
:102F8000B0F1807F01D3012010BD4FF0E0246061DB
:102F90000F21601702F0E9FF0020A06107202061E7
:102FA000002010BD704770477047704770477047EA
:102FB000F0B590F83C20012A3AD0012580F83C5029
:102FC000022280F83D2003685A689C68194E1A4F07
:102FD000B34201D0BB4204D122F4700C4A6842EAE9
:102FE0000C02DFF858C002EA0C02D1F800C04CEA2B
:102FF000020CC3F804C00268B2420DD0B2F1804F97
:103000000AD00F4B9A4207D00E4B9A4204D0BA42D4
:1030100002D00D4B9A4204D1896824F080031943F1
:10302000916080F83D50002180F83C100846F0BDCA
:103030000220F0BD002C0140003401408FFFFFFD55
:10304000000400400008004000400140704710B5F7
:10305000040003D094F83D0010B107E0012010BD3A
:10306000002084F83C00204600F022F8022084F87A
:103070003D00211D206801F0FBFF012084F848007D
:1030800084F83E0084F83F0084F8400084F8410052
:1030900084F8420084F8430084F8440084F8450032
:1030A00084F8460084F8470084F83D00002010BDF5
:1030B00010B586B0044614216846FDF7EEFA1549AE
:1030C0002068884224D11448816D41F00201816555
:1030D000816D01F002010591C16C41F00201C164F2
:1030E000C06C002100F0020005901020009002202A
:1030F000CDE90101CDE9031069460848FFF780F8E2
:10310000002201211D20FFF70FFA1D20FFF7FEF915
:1031100006B010BD0004004000100240000400484A
:1031200070B5044690F83C000025012814D0012613
:1031300084F83C60022084F83D0022689068364B99
:10314000184020F47F409060086870282ED010DC72
:1031500010F00F0F03D021E04FF0020070BD4FEAD6
:103160002012072A1AD2DFE802F0525252524A388D
:1031700040002A4BC21A984249D009DCB0F5805F62
:103180000DD0B0F5005F1CD0B0F1101F06D13EE0AD
:10319000102A3CD0202A3AD0502A38D0012584F871
:1031A0003D60002084F83C00284670BDCB68D1E922
:1031B0000121206801F0C1FF2068816841F077019A
:1031C00009E0CB68D1E90121206801F0B6FF206851
:1031D000816841F480418160E1E7CA6849682068FC
:1031E00002F028F85021206806E0CA684968206883
:1031F00002F068F86021206801F0AAFFCFE7CA68F2
:103200004968206802F016F840212068F4E7226837
:1032100001461046F0E7000088FFCEFF20001000B6
:1032200010B5007F124C012808D0022805D10421D6
:10323000104800F07AFA401C208210BD00210D4891
:1032400000F073FA401C80B2E081218A00EE101A6F
:10325000F8EE400A00EE100AB8EE401A80EE810A3D
:1032600010EE100A03F08AFAC4E9120110BD000042
:1032700008000020240200202DE9F041054690F8C6
:103280003C0000260C46012810D0012085F83C00A7
:1032900072B1042A1CD0082A2CD00C2A50D0012646
:1032A000002085F83C003046BDE8F0810220FBE7B5
:1032B000D4E90012E368286801F0CEFF286881692C
:1032C00021F00C01816128688169A26811430FE037
:1032D000D4E90012E368286802F006F828688169DA
:1032E00021F44061816128688169A26841EA022174
:1032F0008161D5E72868D4E9002C277B016A21F495
:1033000080710162C169036A21F0030141EA0C0185
:1033100021F0F00C39074FF420674CEA116123F4D7
:10332000206307EA02221A43C16102622868C16968
:1033300021F00C01C1612868C169A268114328E02D
:103340002868D4E90027E168036A23F48053036204
:10335000D0F81CC0036A2CF4407C4CEA07274FF6D7
:10336000FF7C27F470470CEA013139434FF42047C2
:1033700023F4204307EA02321A43C161026228683B
:10338000C16921F44061C1612868C169A26841EA4C
:103390000221C16184E710B5040003D094F83D0018
:1033A00010B107E0012010BD002084F83C00204649
:1033B00000F022F8022084F83D00211D206801F071
:1033C00057FE012084F8480084F83E0084F83F004E
:1033D00084F8400084F8410084F8420084F84300F7
:1033E00084F8440084F8450084F8460084F84700D7
:1033F00084F83D00002010BD7047000030B5044641
:10340000002571B1042911D0082914D00C2917D036
:10341000102918D094F8430094F84720012817D1B8
:1034200014E094F83E0094F84420F7E794F83F0045
:1034300094F84520F2E794F8400094F84620EDE730
:1034400094F84100E8E794F84200E5E7012A01D04A
:10345000012030BD022079B1042916D008291DD0E1
:103460000C2949D010294AD084F8430084F8470039
:103470000C2947D001253DE084F83E0084F8440043
:103480002068C26842F0020210E084F83F0084F82D
:1034900045002068C26842F0040207E084F840005A
:1034A00084F846002068C26842F00802C260012227
:1034B000206801F035FE1649206888420ED0B0F130
:1034C000804F0BD01349884208D01349884205D059
:1034D0001249884202D01249884207D18168114AB4
:1034E0001140062906D0B1F5803F03D0016841F0B4
:1034F00001010160284630BD84F84100B6E784F838
:103500004200B3E72068C26842F01002CEE7000034
:10351000002C01400004004000080040003401403D
:10352000004001400700010070B5044600680169D1
:103530004FF00005C943890715D4C168C9438907FD
:1035400011D4E91E0161012020772068806980077D
:10355000204602D0FFF764FE04E000F0E3F82046C6
:1035600000F0E1F8257720680169C943490717D4BD
:10357000C168C943490713D46FF0040101610220F7
:1035800020772068806910F4407F204602D0FFF742
:1035900047FE04E000F0C6F8204600F0C4F82577A6
:1035A00020680169C943090716D4C168C9430907DE
:1035B00012D46FF008010161042020772068C069EF
:1035C0008007204602D0FFF72BFE04E000F0AAF8A7
:1035D000204600F0A8F8257720680169C943C9068C
:1035E00017D4C168C943C90613D46FF01001016133
:1035F000082020772068C06910F4407F204602D060
:10360000FFF70EFE04E000F08DF8204600F08BF886
:10361000257720680169C943C90708D1C168C94332
:10362000C90704D1891E0161204600F07DF8206899
:103630000169C943090609D4C168C943090605D40B
:103640006FF0800101612046FFF7ADFC2068016941
:10365000C943C90509D4C168C943090605D46FF433
:10366000807101612046FFF79DFC20680169C94314
:10367000490609D4C168C943490605D46FF0400121
:103680000161204600F091F820680169C94389066C
:1036900009D4C168C943890605D46FF020010161CE
:1036A0002046FFF781FC20680169C943C90209D49B
:1036B000C168C943C90205D46FF480110161204675
:1036C000FFF774FC20680169C943890209D4C16805
:1036D000C943890205D46FF4001101612046FFF748
:1036E00064FC20680169C943490209D4C168C9431F
:1036F000490205D46FF4800101612046FFF757FCB1
:1037000020680169C94309020BD4C168C943090291
:1037100007D46FF4000101612046BDE87040FFF757
:1037200095BC70BD7047704770470246002041B19C
:10373000042909D008290AD00C2901D11068006C8D
:1037400070471068406B70471068806B7047106856
:10375000C06B704770B5044690F83C00012812D049
:10376000012584F83C50022084F83D00204601F0F9
:10377000F9FC01004FF0000007D084F83D5084F8B8
:103780003C00012070BD022070BD2168CA6822F093
:103790004002CA602168CA6822F48042CA6084F884
:1037A0003D5084F83C00002070BD704790F88010B8
:1037B000012918D0012180F880102421C0F884103C
:1037C00050F8641B0A680B6823F001030B6022F0B9
:1037D00000510022026050F8643C1960202101620F
:1037E000027710467047022070477047704770B5E7
:1037F000044690F8800001281DD0012084F8800044
:103800002420C4F8840020680568026822F00102C0
:1038100002602068826822F060620A43826020466B
:1038200001F07EFD206805602020C4F8840000209F
:1038300084F8800070BD022070BD70B5044690F819
:10384000800001281DD0012084F880002420C4F8C5
:10385000840020680568026822F001020260206886
:10386000826822F060420A438260204601F058FDDF
:10387000206805602020C4F88400002084F88000BF
:1038800070BD022070BD7047704770472DE9F04150
:1038900003680446D86919689A6840F60F052842FB
:1038A0004FF0000509D186067ED501F0200602F012
:1038B00080573E4378D0216F27E1A94EA94F16408B
:1038C0000F40374370D0C70709D0CF0507D5012770
:1038D0001F62D4F88C3043F00103C4F88C308307A6
:1038E0000AD5D30708D0276802233B62D4F88C306E
:1038F00043F00403C4F88C3043070AD5D30708D03B
:10390000276804233B62D4F88C3043F00203C4F8E8
:103910008C3003070CD501F02003334308D0266810
:1039200008233362D4F88C3043F00803C4F88C3099
:1039300003050BD54B0109D526684FF400633362AC
:10394000D4F88C3043F02003C4F88C30D4F88C3099
:10395000002B3AD0800609D501F0200002F08051FA
:10396000084303D0216F09B120468847D4F88C0062
:1039700021688968490602D410F0280F27D0204614
:1039800001F08EFD2068806840061BD52068083055
:1039900050E8001F21F0400140E80012002AF5D154
:1039A000E06F78B1704900E017E08163E06FFEF7E7
:1039B000D8FB002809D0E06F816B00E02046BDE80D
:1039C000F04108472046FFF760FFBDE8F081204640
:1039D000FFF75BFFC4F88C50F7E7E76E2026012F56
:1039E0007ED1C7067CD5CF067AD510201862206814
:1039F0008068400642D5E16F086840680004000C0A
:103A0000E3D0B4F85C208242DFD9A4F85E000868F5
:103A1000006880062BD4206850E8001F21F48071D4
:103A200040E80012002AF6D12068083050E8001F54
:103A300021F0010140E80012002AF5D12068083089
:103A400050E8001F21F0400140E80012002AF5D1A3
:103A5000C4F88860E566216851E8000F20F0100086
:103A600041E80002002AF6D1E06FFEF745FBB4F80A
:103A70005C00B4F85E10401A81B22CE0B4F85C002F
:103A8000B4F85E10401A81B2B4F85E0000289CD0F1
:103A900000299AD0226852E8000F20F4907042E882
:103AA0000003002BF6D12E4BDB432068083050E892
:103AB000002F1A4040E80027002FF6D1C4F8886094
:103AC000E5662567226852E8000F20F0100042E802
:103AD0000003002BF6D12046FFF787FE75E7FFE7CE
:103AE000C70209D5570207D54FF480101862204647
:103AF000BDE8F041FFF7C8BE03060AD501F0800318
:103B000002F40002134304D0616F00297FF456AF22
:103B10005BE7420611D54A060FD52046016851E8F9
:103B2000002F22F0400241E80023002BF6D1C0F81C
:103B30008460456700F034F947E7020206D54A0081
:103B400004D52046BDE8F041FFF79DBEC001C5D5B4
:103B50000029C3DA2046BDE8F041FFF747BE000068
:103B600001000010200100048D54000810B504006D
:103B700003D0D4F8840010B107E0012010BD00206C
:103B800084F88000204600F027F82420C4F8840040
:103B90002068016821F001010160204601F0C2FEA9
:103BA0000128EBD0A06A10B1204601F0DBFB2068B1
:103BB000416821F4904141602068816821F02A0128
:103BC00081602068016841F0010101602046BDE884
:103BD000104001F02BBC000010B598B00446142131
:103BE00011A8FCF75AFD44216846FCF756FD1B4915
:103BF0002068884230D101200024CDE900046846C5
:103C0000FEF72AFD08B1FDF7F6FD1548016E41F4F7
:103C100080410166016E01F480411691C16C41F052
:103C20000101C164C06C11A900F0010016904FF4AD
:103C3000C06011900220CDE912040720CDE91440A4
:103C40004FF09040FEF7DCFA002201212520FEF71C
:103C50006BFC2520FEF75AFC18B010BD003801405F
:103C60000010024030B4D0F88830202B20D1E1B1D0
:103C7000DAB190F88030012B1AD0012380F880301F
:103C80000023C3660B4C0368A3420BD05B681B0286
:103C900008D5046854E8003F43F0806344E80035E9
:103CA000002DF6D130BC01F077BF012030BC704749
:103CB0000220FBE70080004007480121074B81728A
:103CC0008178027A5A54491C817000F1080101225E
:103CD0000348FFF7C7BF0000080000208100002054
:103CE000700200202DE9F8430446D0F884001F46F6
:103CF00016460D46202851D1DDB1D6B194F880008A
:103D000001284BD0012084F880004FF00008C4F84F
:103D10008C802120C4F884001834FEF79FFBA6870E
:103D20008146E68754F8100C183CB0F5805F03D04C
:103D300004E00120BDE8F883206920B12E4600256B
:103D400084F8808010E00026FAE78021204601F008
:103D5000AFFFB8B9C6B116F8010B21688862B4F894
:103D60005600401EA4F85600B4F856004B464FF0DB
:103D7000000200970028E8D14FF04001204601F0F2
:103D800097FF30B10320D5E735F8020BC0F30800E8
:103D9000E3E72020C4F884000020CBE70220C9E735
:103DA0007047FEE700B585B014216846FCF775FC46
:103DB000C0200090012001900290022003906946EB
:103DC0000248FEF71DFA05B000BD000000040048DF
:103DD00070B50824002501F0CDF813E06806050E43
:103DE000002001F0AFF8142002F0D6F8142002F001
:103DF000D3F8012001F0A6F8142002F0CDF801F06C
:103E0000ADF80543641EE4B2E8D2002001F09AF850
:103E1000142002F0C1F801F0CFF8284670BD10B5AB
:103E2000002001F0BDF8142002F0B6F8142002F0D2
:103E3000B3F8012001F086F8142002F0ADF800205C
:103E400001F080F8BDE81040142002F0A5B870B56C
:103E50000446082516E001F075F8142002F09CF8DD
:103E600004F0800001F09CF8142002F095F8600640
:103E7000040E142002F090F8012001F063F81420E1
:103E800002F08AF86D1EEDB24FF00000E3D201F0AF
:103E900059F8BDE87040142002F07EB810B501203A
:103EA00001F07EF8142002F077F8142002F074F884
:103EB000012001F047F8142002F06EF8002001F014
:103EC00041F8BDE81040142002F066B810B501209A
:103ED00001F066F8142002F05FF8012001F032F8DA
:103EE000142002F059F8002001F05AF8142002F0D2
:103EF00053F8002001F026F8BDE81040142002F02D
:103F00004BB810B5002001F01DF8142002F044F861
:103F1000002001F045F8142002F03EF8012001F0E5
:103F200011F8142002F038F8012001F039F8BDE84A
:103F30001040142002F030B810B5052401F01AF832
:103F4000142002F029F8012000F0FCFF142002F0F8
:103F500023F805E0641EA4B2142002F01DF86CB131
:103F600000F0FCFF0028F5D101F026F8002000F059
:103F7000E9FF142002F010F8002010BD01F01CF839
:103F8000FFF7BFFF012010BD70B515460E46044671
:103F9000FFF79CFFA020FFF75AFFFFF7CDFF304649
:103FA000FFF755FFFFF7C8FFFFF790FFA120FFF7CE
:103FB0004EFFFFF7C1FF09E0FFF70AFF04F8010B0E
:103FC00015B1FFF72CFF01E0FFF768FF6D1EEDB2A2
:103FD000F2D2BDE87040FFF794BF000070B51546FF
:103FE0000E460446FFF772FFA020FFF730FFFFF7F1
:103FF000A3FF304602E000BF14F8010BFFF727FFD4
:10400000FFF79AFF6D1EEDB2F6D2FFF77AFFBDE81B
:1040100070404FF4FA7001F0BFBF00002DE9F0418D
:104020003C4F38683C4C616A401A322855D3386896
:10403000606200F073F8E070627930EA020180EAB1
:104040000202217122EA0002A271607101D0386877
:10405000A06200260125012902D0022926D11DE0F7
:10406000E07910B3E671A08AE18A884203D1207812
:10407000617888421AD0608A2749401C0B316082DF
:104080000870000A48702448022200210B30FFF714
:10409000A5FF20786070A08AE08207E0E07928B16F
:1040A000401CC0B2E071032800D1E5713868A16AF4
:1040B000401AB0F5487F1FD8A079032805D00428FE
:1040C0000BD1E07901280FD002E0E079012806D079
:1040D000022802D1A08A68B1A682BDE8F0812078CA
:1040E0002828FAD2401C03E020781428F5D9401E75
:1040F0002070F2E7A582F0E7E078032805D00428D5
:10410000EBD1E0790128EFD0E7E7E0790128E6D0AC
:10411000E3E70000640000200800002070B50E4DA9
:10412000002401212846FEF78FF900B9012402215D
:104130002846FEF789F900B9022404212846FEF733
:1041400083F900B9032401214FF09040FEF77CF978
:1041500000B90424204670BD0004004800B585B0B5
:1041600014216846FCF799FA4FF6FF700090002082
:104170000321CDE90201019069460248FEF740F8AB
:1041800005B000BD0008004800B585B014216846A0
:10419000FCF783FA4FF6FF70009001200190032096
:1041A00003900020029069460248FEF729F805B006
:1041B00000BD00000008004870B5002406462146F6
:1041C000204600F045FA00F083FA4FF49635304669
:1041D00000F052FA641CAC42F9D370BD30B587B020
:1041E00014216846FCF759FA1E48C16C41F00401DD
:1041F000C164C16C01F004010591C16C41F0010181
:10420000C164C16C01F001010591C16C41F0020172
:10421000C164C06C012500F0020005904FF44870A5
:10422000CDE9000500240394694602940E48FDF789
:10423000E7FF280203940090CDE901544FF0904429
:1042400069462046FDF7DCFFFFF79EFFA06940F4BA
:104250008070A06104481830016841F40871016061
:1042600007B030BD0010024000040048203AD2B22E
:10427000034B02EB420203EB021200F019B80000FC
:1042800076680008F0B50E460746002540F23F1458
:1042900007E021463846FFF7E9FF103C6D1CA4B249
:1042A000761C3278002A01D0142DF2D3F0BD000024
:1042B0002DE9F04791468A460026044600F0C8F9E9
:1042C000DFF84080012700BF00F002FA5FF0000530
:1042D00039F8160007FA05F10842404601D1408836
:1042E00000E0008800F0C8F96D1C102DF0D3641CAC
:1042F000E4B25146204600F0ABF9761C182EE3D309
:10430000BDE8F0870000002010B5FFF767FF002030
:1043100000F056F9084CA080A088A0F50241303981
:1043200006D000F00DFD002000F04AF9A08010BD7D
:1043300000F07DFCF7E700000000002070B55B484E
:1043400001685B4CE269891AB1F5967F7ED30068FB
:10435000E061E07968B157A15C48FCF735F85B494A
:104360000020FFF78FFFE0794FF47845012853D004
:1043700055E057A15548FCF727F854490020FFF7AE
:1043800081FF59A15148FCF71FF850491820FFF749
:1043900079FF94ED0E0B5AA153EC102B4B48FCF710
:1043A00013F84A493020FFF76DFF94ED100B5AA126
:1043B00053EC102B4548FCF707F844494820FFF719
:1043C00061FF9FED5B0B53EC102B94ED120B51EC46
:1043D000100B02F0D5F841EC100B57A153EC102B49
:1043E0003A48FBF7F1FF39496020FFF74BFF606B5C
:1043F00002F0C4F941EC100B55A153EC102B3348DB
:10440000FBF7E2FF31497820FFF73CFF628A55A1B4
:104410002E48FBF7D9FF40E0284600F011F922783A
:1044200055A12A48FBF7D0FF28491820FFF72AFF9B
:10443000002000F005F92CA12448FBF7C5FF234913
:104440003020FFF71FFFE079022800E02DE002D1C5
:10445000284600F0F5F8A08A002824D04CA11B487B
:10446000FBF7B2FF19494820FFF70CFF002000F0CE
:10447000E7F81DA11548FBF7A7FF14496020FFF7D7
:1044800001FF19A11148FBF79FFF10497820FFF7A2
:10449000F9FE15A10D48FBF797FFBDE870400B49E9
:1044A0009020FFF7EFBE40A1D9E770BD6400002067
:1044B0000800002020202020202020205061726150
:1044C0002020202020202020200000006C00002040
:1044D00020202020202020204D61696E20202020D7
:1044E000202020202020000020202020202020200C
:1044F00020202020202020202020202020200000FC
:104500002020202020205233373A25332E326C666B
:104510005620202020202000202020202020523340
:10452000383A25332E326C66562020202020200079
:10453000000000000000594020202020202050577B
:104540004D323A252E306C66252520202020000093
:1045500020202020202054656D703A252E3266439D
:10456000202000002020202020204E3A25642020FA
:104570002020202020200000202020202020205447
:104580003A25642020202020202020202000000028
:1045900020202020202020583A414F322020202067
:1045A0002020202000000000202020202020205853
:1045B0003A414F3120202020202020200000000000
:1045C00070B51D490A6842F400720A600A6842F434
:1045D00080720A60184C103C226842F0200222606F
:1045E000164A1060086840F02000086000BF00BF55
:1045F00000BF206840F020002060206840F48070F8
:104600002060FFF7ABFD4FF09041886A40F4807066
:10461000886200BF00BF00BF0848001F006885B265
:10462000886940F480708861FFF7AEFD206840F42F
:1046300000702060284670BD280400481408004817
:1046400001B5BDF800000149488008BD0000002008
:1046500010B50C460146202000F068F82146BDE860
:104660001040212000F062B801B5BDF800000149FA
:10467000088008BD00000020134A116841F4007151
:104680001160114910390B6843F480730B600B689B
:1046900043F020030B600D4B1860106840F02000C1
:1046A000106000BF00BF00BF086840F02000086035
:1046B000086840F48070086000BF00BF00BF086851
:1046C00040F400700860704728040048140800484F
:1046D0001449086840F400700860086840F480706D
:1046E000086010481038026842F0200202600E4B49
:1046F00022221A600A6842F020020A6000BF00BF4E
:1047000000BF016841F020010160016841F480713F
:10471000016000BF00BF00BF016841F4007101608B
:10472000704700002804004814080048184B10B5D2
:104730001A6842F400721A601A6842F480721A60B1
:10474000134A103A146844F020041460114C20609D
:10475000186840F02000186000BF00BF00BF10685C
:1047600040F020001060106840F4807010602160FC
:10477000186840F02000186000BF00BF00BF10683C
:1047800040F020001060106840F48070106010BD90
:10479000280400481408004800EB8100006E00F077
:1047A000F84070478068C0F3C00070478068C0F36D
:1047B000800070478068C0F380007047042303EADC
:1047C000D15310B518444369C1F3045107248C40F8
:1047D000A3438A401343436110BD00EB8100016E87
:1047E00021F00041114301667047000070B5124D81
:1047F000044601224FF47F412846FDF72AFE0F4E62
:10480000012204213046FDF724FE00220421304617
:10481000FDF71FFE210200222846FDF71AFE0122A5
:1048200004213046FDF715FE3046BDE870400022F9
:104830000421FDF70EBE000000080048000C0048EF
:1048400010B528482DED028B0168274C226B891A80
:10485000C82944D3006820636078D4ED0D0A00EEC7
:10486000100A9FED228B2046B8EE400A407AF4EE03
:10487000C00AF1EE10FA02DD80F0800001E020F0C5
:104880008000607294ED120B53EC182B51EC100B5E
:1048900001F076FE94ED0E1B53EC112B01F034FE6B
:1048A0000ED394ED120B53EC182B51EC100B01F0BE
:1048B00067FE94ED101B53EC112B01F025FE03D283
:1048C000607A40F0010002E0607A20F0010060723E
:1048D000C0B2BDEC028BBDE81040FFF787BFBDEC56
:1048E000028B10BD6400002008000020666666662A
:1048F00066660A4030B58BB00024089409942021E4
:1049000068460A94FBF7C9FE1D484FF0A0410425F4
:1049100001604FF40031C0E90114C4600461C0E9D2
:104920000545047744770121016280F82440C46280
:10493000046380F83840C46380F84040FDF7F2F922
:1049400008B1FCF758FF08A90D480894FCF76EFF62
:1049500008B1FCF750FF0B4800900620019007209B
:1049600002907F200594CDE9030569460448FCF7D1
:10497000C9FF002801D0FCF73EFF0BB030BD00009E
:104980004C0100200008302E30B589B02021684647
:10499000FBF783FE19481849002401604902C0E969
:1049A0000114C46004250461C0E905450477447717
:1049B0000121016280F82440C462046380F8384019
:1049C000C46380F84040FDF7ADF908B1FCF713FF70
:1049D0000B48009006200190072002907F2005944C
:1049E000CDE9030569460548FCF78CFF002801D096
:1049F000FCF701FF09B030BD00010050B8010020F4
:104A00000080F03E2DE9F04387B014216846FBF7A3
:104A100044FE3348C16C41F00401C164C16C01F033
:104A200004010591C16C41F00101C164C16C01F048
:104A300001010591C16C41F00201C164C16C01F03A
:104A400002010591C16C41F00801C164C06C254FA1
:104A500000F008004FF47F440590002221463846BC
:104A6000FDF7F7FCDFF880804FF400660022314646
:104A70004046FDF7EEFCDFF8749000220421484622
:104A8000FDF7E7FC0125CDE90045002402946946C5
:104A900038460394FDF7B4FBCDE9005469464FF066
:104AA00090400295FDF7ACFB07208DE83100694688
:104AB0004046FDF7A5FB0220CDE90204CDE90065E3
:104AC00069464046FDF79CFB04200090CDE9015467
:104AD000694648460394FDF793FB07B0BDE8F083B1
:104AE000001002400008004800040048000C004884
:104AF00010B590B0002409940A940B94142104A8D2
:104B00000C94FBF7CAFD2D480D940F940E9400945D
:104B1000019402942849039401604F21C0E90114D3
:104B20004FF6FF71C0E903148461FEF790FA08B1F3
:104B3000FCF761FE4FF48050099009A91F48FEF769
:104B4000EFFA08B1FCF757FE1C48FEF724FC08B149
:104B5000FCF751FE042004905020CDE9050404A97F
:104B600016480894FEF7F6FD08B1FCF744FE0D94D4
:104B70000DA912480F94FEF71BFA08B1FCF73BFE93
:104B80000120CDE900400294002269460B480394BD
:104B9000FEF772FB08B1FCF72EFE02200090019098
:104BA000042269460548FEF767FB002801D0FCF7A0
:104BB00022FE10B010BD00000004004024020020BE
:104BC000184810B5164901604FF416514160002194
:104BD00081600C22C160C0E904128161C16101627F
:104BE00041628162FEF7C2FF08B1FCF704FE0021BA
:104BF0000C48FEF722FE08B1FCF7FDFD0021094834
:104C0000FEF7F5FD08B1FCF7F6FD0648FEF7CEFD10
:104C1000002803D0BDE81040FCF7EDBD10BD00003A
:104C20000038014070020020FEE7FEE7704730B513
:104C300001210020FFF77AFD4FF47A70FCF7CDFDDB
:104C400000210120FFF772FD41F290711020FFF763
:104C50006DFD4FF41C516020FFF768FD01216120BC
:104C6000FFF764FD02214620FFF760FD48F21001C6
:104C70001320FFF75BFD48F2FE011220FFF756FDFF
:104C80004FF4A0610220FFF751FD41F230010320F3
:104C9000FFF74CFD40F2033421463020FFF746FD7C
:104CA00021463120FFF742FD21463220FFF73EFD2D
:104CB000E51E29463320FFF739FD03213420FFF795
:104CC00035FD21463520FFF731FD14213620FFF751
:104CD0002DFD21463720FFF729FD21463820FFF71B
:104CE00025FD21463920FFF721FD29463A20FFF70F
:104CF0001DFD03213B20FFF719FD21463C20FFF756
:104D000015FD4FF4A0513D20FFF710FD4FF4007149
:104D10009220FFF70BFD21469320FFF707FD40F699
:104D20000D019020FFF702FD41F218010320FFF76B
:104D3000FDFCBDE8304040F273110720FFF7F6BCE0
:104D400010B543F20801E320FFF7F0FC1221E72041
:104D5000FFF7ECFC41F23121EF20FFF7E7FC0021E7
:104D60000120FFF7E3FC4FF4E0610220FFF7DEFCD7
:104D700041F230010320FFF7D9FC00210420FFF7A6
:104D8000D5FC40F207210820FFF7D0FC00210920C4
:104D9000FFF7CCFC00210A20FFF7C8FC00210C2003
:104DA000FFF7C4FC00210D20FFF7C0FC00210F20FD
:104DB000FFF7BCFC00211020FFF7B8FC07211120F1
:104DC000FFF7B4FC00211220FFF7B0FC00211320F4
:104DD000FFF7ACFCC820FDF701FA41F2906110200A
:104DE000FFF7A4FC40F227211120FFF79FFC32209F
:104DF000FDF7F4F91D211220FFF798FC3220FDF792
:104E0000EDF94FF400611320FFF790FC14212920E5
:104E1000FFF78CFC0B212B20FFF788FC3220FDF7DD
:104E2000DDF900212020FFF781FC00212120FFF780
:104E30007DFC07213020FFF779FC40F2077131201B
:104E4000FFF774FC06213220FFF770FC40F204717A
:104E50003520FFF76BFC41F604713620FFF766FC46
:104E600004213720FFF762FC00213820FFF75EFCA9
:104E700040F206713920FFF759FC40F201713C20E5
:104E8000FFF754FC0F213D20FFF750FC002150207C
:104E9000FFF74CFCEF215120FFF748FC0021522086
:104EA000FFF744FC40F23F115320FFF73FFC4FF463
:104EB0001C516020FFF73AFC01216120FFF736FC0E
:104EC00000216A20FFF732FC00218020FFF72EFC32
:104ED00000218120FFF72AFC00218220FFF726FC19
:104EE00000218320FFF722FC00218420FFF71EFC15
:104EF00000218520FFF71AFC10219020FFF716FCF7
:104F000000219220FFF712FC03219320FFF70EFCF3
:104F10004FF488719520FFF709FC00219720FFF7D7
:104F200005FC00219820FFF701FC41F21801032045
:104F3000FFF7FCFBBDE8104040F273110720FFF7BC
:104F4000F5BB000008B1044801E0034810300168D7
:104F500041F04001016070471804004810B58021FD
:104F60000348FDF771FA012800D0002010BD0000B1
:104F70000004004800B585B014216846FBF78DFB9E
:104F800080200090002001900120029002200390D8
:104F900069460248FDF734F905B000BD0004004839
:104FA00008B1044801E003481030016841F0800175
:104FB000016070471804004800B585B014216846A8
:104FC000FBF76BFB802000901120019000200290E5
:104FD0000220039069460248FDF712F905B000BDB2
:104FE000000400487047FDF73FBA00B593B0382180
:104FF0006846FBF752FB14210EA8FBF74EFB4FF45B
:105000000070FDF7C3FA0220C10103914021049111
:105010000121CDE9080100900A21CDE90A1007908D
:105020000C900D906846FDF7A3FD08B172B6FEE73F
:105030000F200E9003200F900020109011901290DE
:1050400002210EA8FDF74CFC002801D072B6FEE745
:1050500013B000BD0248016841F47001016070475F
:1050600088ED00E00148FEF75FBA0000240200204E
:105070002DE9F0430268234B234D244E244C4FF07E
:105080008049984207D0484505D0A84203D0B04295
:1050900001D0A04203D122F070074A683A431D4F65
:1050A000DFF874C0DFF8748098420DD048450BD00B
:1050B000A84209D0B04207D0A04205D0B84203D0E0
:1050C000604501D0404503D122F44075CA682A43A7
:1050D0004D6922F080022A4302608A68C2620A682F
:1050E0008262984207D0A04205D0B84203D0604502
:1050F00001D0404501D10969016301214161BDE849
:10510000F0830000002C0140000400400008004033
:10511000003401400040014000440140004801408B
:1051200010B501F01F030121046A99408C43046209
:10513000016A9A401143016210BD10B5846842EAC9
:10514000032224F47F440A432243826010BD0000FE
:105150008268034B1A400A4342F00701816070479E
:105160008FFFCFFF70B505680024AA682E4B1A4048
:105170004B6813432D4A13400A681A43AA604A68D1
:10518000602A4AD00DDC302A1FD005DCEAB1102A93
:105190001BD0202A18D118E0402A1FD0502A13D142
:1051A00035E0234D531BAA420FD009DC702A0ED0E4
:1051B000B2F1101F09D0203AB2F5801F04D104E0EB
:1051C000102B02D0402B00D00124204670BD0B696B
:1051D000D1E902210068FFF7B0FFF6E70A68052A67
:1051E00013D0B2F1011F10D00268136A156A25F0BE
:1051F0000105156202689569096925F0F00545EA1F
:105200000111916100680362DFE7012070BD0A6946
:105210008968006800F00EF8D7E70A6989680068B5
:1052200000F050F8D1E700008FFFCFFFF8FFFEFF3E
:105230003000100010B5036A046A24F0010404620F
:10524000846924F0F00444EA021423F00A020A43B9
:105250008461026210BD000070B5046A24F001048C
:1052600004628469056A124EB0420ED0B0F1804FDC
:105270000BD0104EB04208D00F4EB04205D00F4EAA
:10528000B04202D00E4EB04203D124F003041443C6
:1052900001E044F001041A0724F0F00444EA126229
:1052A00025F00A0301F00A0119438261016270BD11
:1052B000002C014000040040000800400034014080
:1052C0000040014010B5036A23F0100303628369B4
:1052D000046A23F4704343EA023224F0A00343EA51
:1052E00001118261016210BD30B5046A24F010041E
:1052F00004628469056A24F4407444EA022222F4B8
:1053000070444FF6FF7202EA03322243A02425F0D4
:10531000A00304EA011119438261016230BD00005B
:1053200030B5416EB9B1026891689268C1F34261CB
:105330000B4B520F9C5CE50003F10804A25CB5FB2B
:10534000F2F2A0F86A205A5C615CD200B2FBF1F183
:10535000A0F8681030BD0121A0F86A10F8E700003D
:105360005E7A000890F82810C90706D001684A68DC
:10537000C36A22F400321A434A6090F82810890761
:1053800006D501684A68036B22F480321A434A60EA
:1053900090F82810490706D501684A68436B22F443
:1053A00080221A434A6090F82810090706D5016840
:1053B0004A68836B22F400421A434A6090F828102E
:1053C000C90606D501688A68C36B22F480521A4365
:1053D0008A6090F82810890606D501688A68036CEF
:1053E00022F400521A438A6090F82810490611D519
:1053F00001684A68436C22F480121A434A60416C87
:10540000B1F5801F06D101684A68836C22F4C0029E
:105410001A434A6090F82810090606D501684A68C0
:10542000C06C22F4002202434A607047F8B500269F
:105430000446C0F88C60FDF711F805462068006846
:105440006FF07E47000708D52B4600224FF400116D
:105450002046009700F02CFC60B9206800684007E7
:105460000AD52B4600224FF480012046009700F019
:105470001FFC08B10320F8BD2020C4F88400C4F844
:10548000880044F86C6F00202675F8BD10B5806A5E
:105490000021A0F85E10A0F85610FEF7F6F910BD36
:1054A00010B5026852E8001F21F4907142E8001321
:1054B000002BF6D10E4B0268083252E8001F19404B
:1054C00042E80014002CF6D1C16E012908D1016810
:1054D00051E8002F22F0100241E80023002BF6D102
:1054E0002021C0F888100021C166016710BD0000AE
:1054F000FEFFFFEF10B5B0F86020D0F888300168EB
:10550000222B04D0886940F00800886110BD496AE8
:10551000836D11401980816D891C8165B0F85E1022
:10552000491EA0F85E10B0F85E100029EED10268A6
:1055300052E8001F21F4907142E80013002BF6D1CD
:105540000168083151E8002F22F0010241E80023F0
:10555000002BF5D12021C0F8881000210167C26E10
:10556000012A02D0FEF7A8FB10BDC166026852E80E
:10557000001F21F0100142E80013002BF6D1016852
:10558000CA69D243D20601D410220A62B0F85C1074
:10559000FEF72BF910BD00002DE9F0470446B0F8E6
:1055A00060600068C569D0F800A0D0F80880D4F821
:1055B0008810222905D0816941F008018161BDE888
:1055C000F087B4F868704FF0000963E02068406A23
:1055D000A16D30400880A06D801CA065B4F85E000D
:1055E000401EA4F85E002068C569690730D0E9074D
:1055F0000AD05FEACA5107D501210162D4F88C00B4
:1056000040F00100C4F88C00A8070BD55FEAC87011
:1056100008D0216802200862D4F88C0040F0040011
:10562000C4F88C0068070BD55FEAC87008D0216801
:1056300004200862D4F88C0040F00200C4F88C000A
:10564000D4F88C0020B12046FEF71FF9C4F88C90E6
:10565000B4F85E00F0B9216851E8000F20F48070C2
:1056600041E80002002AF6D1264A2068083050E8B6
:10567000001F114040E80013002BF6D12020C4F891
:105680008800C4F87090E16E4846012923D0204676
:10569000FEF712FB0FB1A80698D4B4F85E000028FC
:1056A0008DD0B4F86810814289D92068083050E85C
:1056B000001F21F0805140E80012002AF5D1124865
:1056C0002067206850E8001F41F0200140E80012E8
:1056D000002AF6D173E7E066216851E8000F20F058
:1056E000100041E80002002AF6D12068C169C943D0
:1056F000C90601D410210162B4F85C102046FEF7FF
:1057000074F8C7E7FEFFFFEFF554000810B5B0F8D6
:105710006020D0F888300168222B04D0886940F0DE
:105720000800886110BD496A1140826D1170816D59
:10573000491C8165B0F85E10491EA0F85E10B0F8F3
:105740005E100029EED1026852E8001F21F490712A
:1057500042E80013002BF6D10168083151E8002F10
:1057600022F0010241E80023002BF5D12021C0F8EE
:10577000881000210167C26E012A02D0FEF79CFA50
:1057800010BDC166026852E8001F21F0100142E816
:105790000013002BF6D10168CA69D243D20601D4A6
:1057A00010220A62B0F85C10FEF71FF810BD00006E
:1057B0002DE9F0470446B0F860600068C569D0F88C
:1057C00000A0D0F80880D4F88810222905D081697B
:1057D00041F008018161BDE8F087B4F868704FF0CE
:1057E000000963E02068406AA16D30400870A06D38
:1057F000401CA065B4F85E00401EA4F85E0020685E
:10580000C569690730D0E9070AD05FEACA5107D5F0
:1058100001210162D4F88C0040F00100C4F88C0032
:10582000A8070BD55FEAC87008D02168022008627B
:10583000D4F88C0040F00400C4F88C0068070BD545
:105840005FEAC87008D0216804200862D4F88C0090
:1058500040F00200C4F88C00D4F88C0020B120463F
:10586000FEF713F8C4F88C90B4F85E00F0B9216824
:1058700051E8000F20F4807041E80002002AF6D1C0
:10588000264A2068083050E8001F114040E8001305
:10589000002BF6D12020C4F88800C4F87090E16E87
:1058A0004846012923D02046FEF706FA0FB1A80684
:1058B00098D4B4F85E0000288DD0B4F86810814206
:1058C00089D92068083050E8001F21F0805140E855
:1058D0000012002AF5D112482067216851E8000F14
:1058E00040F0200041E80002002AF6D173E7E066AC
:1058F000216851E8000F20F0100041E80002002A62
:10590000F6D12068C169C943C90601D410210162DA
:10591000B4F85C102046FDF768FFC7E7FEFFFFEF15
:105920000D5700082DE9F04104460168806822699E
:10593000E3691043626900251A431043DFF82CC263
:105940000A688B4B1A4002430A6020684168E2688B
:1059500021F44051114341602168A069614501D0A3
:10596000226A10438A68834B1A4002438A60206887
:10597000C16A626A21F00F011143C1627E49236846
:105980007E488B420DD1D0F8880010F0030006D07D
:10599000012855D0022842D003283FD152E00120EF
:1059A0003DE077498B420BD1D0F8880010F00C0015
:1059B00035D0042833D0082840D00C282ED141E01F
:1059C00070498B420BD1D0F8880010F0300026D0FF
:1059D000102835D0202831D030281FD132E06A4934
:1059E0008B420BD1D0F8880010F0C00017D04028AF
:1059F00026D0802822D0C02810D123E063450DD1C5
:105A0000D0F8880010F4406009D0B0F5806F17D04E
:105A1000B0F5006F12D0B0F5406F13D010205B4985
:105A20005B4F00264FF4004263453BD160B1022832
:105A300013D004280BD0082872D10DE00220EEE725
:105A40000420ECE70820EAE7FDF738F801E0FDF76D
:105A500059F8010001D17CE01146606A37F8102046
:105A60006768B1FBF2F007EB4703834270D8B0EBF5
:105A7000073F6DD8002308461946FAF72DFC0902A6
:105A800041EA106102027808101871413A46002379
:105A9000FAF722FC3F4AA0F54071914258D821689C
:105AA000C86056E0E3694FF6EF7893422CD109289D
:105AB0004ED2DFE800F00508114D0D4D4D4D1000A0
:105AC000FCF7FCFF01E0FDF70BF8010004D140E01A
:105AD000FDF718F8F9E71146606A37F81000B1FBD6
