:020000040800F2
:100000009807002099020008C33800082F30000824
:10001000C1380008F1160008193D00080000000072
:10002000000000000000000000000000DB3B0008B2
:10003000F316000800000000C5380008DD3B00088A
:10004000B3020008B3020008B3020008B3020008BC
:10005000B3020008B3020008B3020008B3020008AC
:10006000B3020008B3020008B3020008B30200089C
:10007000B3020008B3020008B3020008B30200088C
:10008000B302000800000000B3020008B302000839
:10009000B3020008B3020008B3020008B30200086C
:1000A000B3020008B3020008B3020008B30200085C
:1000B000B3020008B3020008B3020008B30200084C
:1000C000B3020008B3020008B3020008B30200083C
:1000D000B3020008B3020008B3020008B30200082C
:1000E000B3020008B3020008B3020008B30200081C
:1000F000B3020008B3020008B302000800000000C9
:1001000000000000B302000800000000B302000875
:10011000B3020008000000005D3C0008B3020008C4
:10012000B3020008B3020008B3020008B3020008DB
:10013000B30200080000000000000000B302000845
:10014000B3020008B3020008000000000000000035
:10015000000000000000000000000000000000009F
:10016000000000000000000000000000B3020008D2
:10017000B3020008000000000000000000000000C2
:1001800000000000B30200080000000000000000B2
:10019000000000000000000000000000000000005F
:1001A0000000000000000000B3020008B3020008D5
:1001B000B3020008B3020008B30200080000000008
:1001C00000000000B3020008000000000000000072
:1001D000B3020008B302000800F002F800F04CF887
:1001E0000AA090E8000C82448344AAF10107DA4592
:1001F00001D100F041F8AFF2090EBAE80F0013F098
:10020000010F18BFFB1A43F001031847685700009D
:1002100088570000103A24BF78C878C1FAD852072E
:1002200024BF30C830C144BF04680C607047000070
:100230000023002400250026103A28BF78C1FBD8EF
:10024000520728BF30C148BF0B607047662904F0D1
:100250004C82752900F07C80002070471FB504F0A7
:100260003FFA00F025FC04000020002103F0A8FD67
:10027000E0601FBD10B510BD00F01AFD1146FFF77C
:10028000EDFF03F079FD00F038FD03B4FFF7F2FF56
:1002900003BC00F07BFD0000094880470948004787
:1002A000FEE7FEE7FEE7FEE7FEE7FEE7FEE7FEE726
:1002B000FEE7FEE704480549054A064B7047000083
:1002C0004D3C0008D9010008980100209807002043
:1002D00098030020980300200FB41CB5074B06AA12
:1002E0007B4469460090059800F0C9FB00206946F0
:1002F00000F0D8FB1CBC5DF814FB0000C107000037
:1003000070B5044685690068C10601D5302600E055
:100310002026C00707D070BDD4E9012130469047A0
:10032000206A401C20626D1EF6D570BD70B5044673
:1003300085690078C00707D170BDD4E9012120206C
:100340009047206A401C20626D1EF6D570BD0000EB
:100350002DE9F0410646002410687529314616A59E
:1003600010D0AFF30080002802DA404213A507E066
:1003700031688A0701D512A502E0490704D511A505
:10038000012401E0AFF3008000210A2206F12407D6
:1003900009E0B0FBF2FCB0FBF2F302FB1C003030D2
:1003A00078541846491C0028F3D123462A46304683
:1003B000BDE8F04100F0F6B8000000002D0000009C
:1003C0002B000000200000002DE9F05F8946044664
:1003D0004FF0000ADFF874B1FB44C0F820A02046BB
:1003E000E1688847002874D0252806D0D4E9012187
:1003F0009047206A401C2062F1E700265F462046B5
:10040000E16888472028054607DB312D05D2781999
:1004100010F8200C08B10643F1E7B00701D526F02B
:100420000406C4F81CA00027C4F818A02A2D09D07F
:10043000284603F09AFC38B304EB8708303DC8F82F
:10044000185019E059F8041B204604EB870291610B
:10045000E1688847012F054618D1E069002820DAB5
:1004600026F020061DE0D8F8180000EB800005EB10
:1004700040003038C8F818002046E1688847054633
:1004800003F073FC0028EED1012F0AD02E2D08D1E5
:100490002046E16888477F1C0546022F46F020066B
:1004A000C4DBA069002803DA404246F00106A061DF
:1004B000F00701D026F010066C2D0BD0682D09D066
:1004C0004C2D39D06A2D35D0742D35D07A2D33D0BE
:1004D00016E038E0E1682F4620468847B8420546D6
:1004E00009D16C2F26D04FF48060E1680643204686
:1004F0008847054604E06C2F1AD04FF480700643FD
:100500000DB3A5F14100192802D8203546F4006644
:100510004A462946204626604E46FFF797FE80B1A0
:1005200001280BD0F61D26F0070000F1080956E758
:100530004020E4E78020D8E70020D6E706F1040950
:100540004DE7284652E7206ABDE8F09FF2540000CC
:100550004FF0000200B5134694469646203922BF5C
:10056000A0E80C50A0E80C50B1F12001BFF4F7AFA7
:10057000090728BFA0E80C5048BF0CC05DF804EB89
:10058000890028BF40F8042B08BF704748BF20F8F7
:10059000022B11F0804F18BF00F8012B70477047F5
:1005A000704770472DE9F0470D469946924604463C
:1005B00000F124080168880604D5E06921F01001E3
:1005C000216000E00120A84201DD471B00E0002778
:1005D000A1697A1902EB0900081AA0612078C00607
:1005E00002D42046FFF78CFE002608E0D4E9012162
:1005F0001AF806009047206A401C761C20624E457F
:10060000F4DB2078C0060AD52046FFF779FE06E025
:10061000D4E9012130209047206A401C2062381E16
:10062000A7F10107F4DC07E0D4E9012118F805007F
:100630009047206A401C2062281EA5F10105F3DCCA
:100640002046FFF773FE2078000602D50220BDE8A1
:10065000F0870120FBE770472DE9FF4F0C461E464F
:100660004FF0FF378BB0D2E90001DDF860800A90CF
:100670008A46C1F30A5505B93D46002108464FF0A8
:100680000000BAF1000F00F4400005DA00EB800032
:100690004FF4400101EA50004FEA9059B9F1010FBF
:1006A00000DDB9460A9850EA4A000ED044F61050D0
:1006B000A5F2FF3545432F14B8F1000F1ED0754247
:1006C000291E1EDDC9F100021CE0B8F1010F4FF038
:1006D000000001D0302103E0F24305E02154401C2A
:1006E000B042FBDB30460022002121540B99C1F8B7
:1006F0000880C1E900200FB0BDE8F08FBD1B6D1C64
:10070000DEE74A4600DA694206A800F05BFA06AB6B
:1007100093E8070003AB83E8070050460A9900F00E
:100720003CFB8DE80700A0F500501F3800900398AF
:10073000002D0ADD42F21F014A460844002303A9A6
:100740000390684600F0A5FD09E0A0F500504A4678
:100750001F38002303A90390684600F0AFFD8DE821
:1007600007000004000C03D04FF0FF30410800E008
:100770001046B8F1000F03D00022009215461EE08B
:10078000751E05D400F098F9303262556D1EF9D50A
:10079000B3460122084302D000227F1C04E02078E7
:1007A000302801D100227F1E002A099784D01DE045
:1007B000112D07DA00F080F9303262556D1C50EAD5
:1007C0000102F5D1084302D00098C8B10EE0002123
:1007D000681E05E0235C625C63542254401E491C81
:1007E0008142F7DBAB46A81B401E0990002004F8AD
:1007F0000B000B98099AC0F80880C0E9002B7AE733
:1008000011264FF0000857E72DE9F04F88460446BF
:10081000D21D22F0070191B0D1E90001CDE90A0112
:1008200003F07BFA02460B98C00F01D02D2007E0A1
:100830002068810701D52B2002E0202101EAC000B9
:10084000032A099001D0072A05DB034641462046CA
:1008500000F078F90BE12078800601D5E06900E02E
:100860000620B8F1650F814606D0B8F1660F18D0A2
:10087000B8F1670F70D131E00020B9F1110F00908D
:1008800001DB112301E009F101030AAA01A90CA867
:10089000FFF7E2FEDDE90C70002609F10105834651
:1008A00047E001204B4600904FF000470AAA01A9FB
:1008B0000CA8FFF7D1FEDDE90DB00C995D460026CE
:1008C00010B909F101000D18B9EB050003D4C0F10E
:1008D000FF3609F10105A5EB09002BE0B9F1010F85
:1008E00001DA4FF001090020B9F1110F00904846DC
:1008F00001DD112300E003460AAA01A90CA8FFF7B5
:10090000ABFEDDE90C704D460026834620780007DB
:100910000AD4AB4500DA5D4601A8012D04DD41197A
:1009200011F8011C302907D04F4502DA17F1040FE6
:1009300004DA012082460FE06D1EEEE7002F02DC94
:10094000ED1B3E4403E0781CA84200DD7D1CB81B73
:1009500000F1010A4FF000472078000703D4AA45B0
:1009600001DB4FF0FF3A0021B7F1004F0DF14308D2
:100970008DF8431024D002202B23002F01DA7F4270
:100980002D230A21021EA0F1010000DC5FB197FBBC
:10099000F1FC97FBF1F201FB1C7C17460CF1300CCB
:1009A00008F801CDEEE7A8F10100037021880905E0
:1009B00001D5452100E06521A0F1010800F8011CE6
:1009C00009980FA9A1EB0807FF1D00B101204119EB
:1009D00001EBEA70A1693844081A401EA061207832
:1009E000C00602D42046FFF78BFC099828B1D4E951
:1009F00001219047206A401C20622078C00622D541
:100A00002046FFF77DFC1EE0002E04DBB34502DD2F
:100A100001A8805D00E03020D4E901219047206AE0
:100A2000401C2062761CAAF101005FEA000A0AD18C
:100A300000F03EF8C0680168405CD4E901219047AD
:100A4000206A401C2062281EA5F10105DCDC07E0BD
:100A5000D4E9012118F8010B9047206A401C20625C
:100A6000381EA7F10107F3DC2046FFF75FFC0320E7
:100A700011B041E601694A1C02610878704700B56F
:100A80008FB0CDE901310021059105497944CDE9C7
:100A9000031011466846FFF797FC0FB000BD000039
:100AA000E5FFFFFF0A6802F8010B0A6070470000CB
:100AB000004870475801002030B5B0F10A024FEAF3
:100AC000900E71F100034EEA817EB0EB0E0061EBF7
:100AD00091014FEA101E4EEA017E10EB0E0041EB31
:100AE00011114FEA102E4EEA016E10EB0E0041EB91
:100AF00011214FEA104E4EEA014E10EB0E0041EB71
:100B00001141401841F100014FEAD00040EA417024
:100B10004FEAD10110EB80054FEA810444EA90745A
:100B200044EB01046D1944EB0404521BA3414FF044
:100B3000000348BF0A3200D530BD401C41F100011E
:100B400030BD00002DE9F0411F4604460326016830
:100B5000072A01F4006004DB08B116A505E016A51C
:100B600003E008B115A500E015A521F010002060F4
:100B7000A069C01EA0610FB1401EA0612046FFF712
:100B8000BFFB4FB1D4E9012138469047206A401C91
:100B90002062C01C206206E0206AFAE7D4E9012145
:100BA00015F8010B9047761EF8D22046FFF7BEFBE2
:100BB000BDE8F0814E414E006E616E00494E460028
:100BC000696E66002DE9F047814616468AB03548C1
:100BD00078440DC88DE80D0032487844801C03AC81
:100BE0000DC884E80D0041F69B300844372190FB86
:100BF000F1F290FBF1F5A5F1800501FB12041B3C1D
:100C000002D56442012000E00020DFF898A0804671
:100C10000027FA44AAF1BE0A0EE0E0070AD03246E5
:100C2000684607EB470101230AEB810100F046FB10
:100C30008DE8070064107F1C002CEED1194F7F4413
:100C4000AE3F19E0E80715D007EB04100DF1180AC4
:100C500090E80E008AE80E00C068F04201D19819B1
:100C600008903246012306A903A800F027FB03AB36
:100C700083E807006D10641C002DE3D14FF00103E1
:100C800032466946B8F1000F03A802D000F001FB1C
:100C900001E000F013FBC9E90001C9F808200AB01F
:100CA000BDE8F087884D00000048704738010020FB
:100CB0007546FFF7F9FFAE4605006946534620F03A
:100CC0000700854618B020B5FFF7F4FABDE82040CC
:100CD0004FF000064FF000074FF000084FF0000BF8
:100CE00021F00701AC46ACE8C009ACE8C009ACE8AB
:100CF000C009ACE8C0098D46704710B50446AFF393
:100D000000802046BDE81040FFF7BFBA4FF0013C1D
:100D100050F8042B51F8043B9A4221D1A2EB0C036A
:100D2000934313EACC1317D150F8042B51F8043B2A
:100D30009A4215D1A2EB0C03934313EACC130BD1C7
:100D400050F8042B51F8043B9A4209D1A2EB0C0352
:100D5000934313EACC13DBD04FF00000704700BF81
:100D6000D01A01BAB1FA81F101F0180122FA01F0AA
:100D7000CB40C1F12001DBB2C0B2C01A2CFA01F3A2
:100D8000D11A914311EAC311E6D1704701491820E5
:100D9000ABBEFEE72600020070475FEA400C08BFCA
:100DA00091F0000F4FEA8C234FEAC12243EA5151E0
:100DB0004FEA1C5018BF00F5F0404FEA300018BF52
:100DC00041F000415FEA6C5C00F02980BCF1FF3F1C
:100DD00008BF40F080407047130C06BF12044FF06C
:100DE000100C4FF0000C130E04BF12020CF1080C93
:100DF000130F04BF12010CF1040C930F04BF9200F7
:100E00000CF1020CD30F04BF52000CF1010C11467F
:100E10004FF00002A0F11F00A0EB0C00704711F092
:100E2000004F08BF704731F000413FF4D5AF0B0CC5
:100E300006BF09044FF0100C4FF0000C0B0E04BF5E
:100E400009020CF1080C0B0F04BF09010CF1040C92
:100E50008B0F04BF89000CF1020CCB0F04BF4900BB
:100E60000CF1010CCCF12003A0EB0C0022FA03F3EF
:100E700002FA0CF241EA030100F10100704720F090
:100E80007F4C80EA030023F07F47ACEB070303F5B8
:100E90007C5300F0004003F1FF032DE980494FEA45
:100EA000154B09B44FEA144325EA0B4E24EA0348D4
:100EB0000FF2042606EB132749083E785FEA320258
:100EC00003FB0667C7F5000707FB06F64FEA543732
:100ED0004FEAD64606F1020607FB066CCCF1005C31
:100EE0004FEA1C472CEA074C07FB06F40CFB06F5FF
:100EF00004EB15464FEA961634BF00204FF0004031
:100F00004FEAD13706FB07FC4FEA1C4C0CFB0BF7F2
:100F1000D21B03FB0CF761EB07010CFB0EF7B0EBE8
:100F2000074072EB17420CFB08F734BFA2EB0742F5
:100F3000B2EB074261EB17414FEA0C444FEA9107CD
:100F400006FB07FC4FEA1C4C0CFB0BF7B0EBC74051
:100F500072EB573203FB0CF734BFA2EBC742B2EB84
:100F6000C74261EB57310CFB0EF7B0EBC70072EBD9
:100F700057720CFB08F734BFA2EBC702B2EBC702F3
:100F800061EB5771039F4FEA816141EA921104EBD3
:100F9000CC044FEAD1374FEA826206FB07FC42EAF3
:100FA00090124FEA80604FEA1C4C0CFB0BF7D21BEF
:100FB00003FB0CF761EB07010CFB0EF7B0EB0740EE
:100FC00072EB17420CFB08F734BFA2EB0742B2EBFF
:100FD000074261EB17414FEA8C554FEA910704EB4A
:100FE0009C2406FB07FC4FEA1C4C0CFB0BF7B0EBF8
:100FF000C74072EB573203FB0CF734BFA2EBC7427A
:10100000B2EBC74261EB57310CFB0EF7B0EBC700F8
:1010100072EB57720CFB08F734BFA2EBC702B2EBBE
:10102000C70261EB577115EB4C254FEA816141EA2C
:1010300092114FEA82624FEAD13742EA901206FBE0
:1010400007FC44F100044FEA80604FEA1C4C0CFBA3
:101050000BF7D21B03FB0CF761EB07010CFB0EF740
:10106000B0EB074072EB17420CFB08F734BFA2EB62
:101070000742B2EB074261EB174115EB1C154FEA33
:10108000813141EA92414FEA823242EA90424FEA8C
:1010900080304FEA0C7644F1000448EA03434EEAFC
:1010A0000B484FF0000EB2EB080C71EB030724BFA6
:1010B000624639464EEB0E0E4FF0000B00185241BF
:1010C00049414BEB0B0BB2EB080C71EB03077BF1C7
:1010D000000B24BF624639464EEB0E0E4FF0000B5C
:1010E0000018524149414BEB0B0BB2EB080C71EB72
:1010F00003077BF1000B24BF624639464EEB0E0E10
:1011000051EA020718BF46F0010616EB0E7655F1BC
:10111000000254F1000103D5BDE88901BDE8008853
:10112000BDE88901BDE80048B619524141EB010113
:10113000A3F10103704780807F7E7D7C7B7A797884
:10114000777676757473727171706F6E6E6D6C6C8C
:101150006B6A6A696868676666656464636362612E
:101160006160605F5F5E5E5D5D5C5C5B5B5A5A59AF
:10117000595858575756565555555454535352521B
:101180005251515050504F4F4F4E4E4D4D4D4C4C73
:101190004C4B4B4B4A4A4A494949484848474747BC
:1011A00047464646454545444444444343434342F9
:1011B000424242414141002B9C4630D477002BD023
:1011C0001CB54FEA370703B44FF010004FF0100181
:1011D000BAF1000F06D0BCF1000FDCBF40F00800F0
:1011E00040F008014FF000000FBCBDE810400BF1CB
:1011F000010BBBF1010F08BF5FEA170722BF12F115
:10120000010211F101014FF0004143F1000300F030
:10121000004043EA00007047F9D35708D0E746EA98
:10122000064613F1400F4FEA16461FDD13F1200F5B
:10123000DFBF16430A46002120335B42BED0C3F114
:10124000200746EA064602FA07F74FEA164646EA3C
:101250000706C3F1200722FA03F201FA07F721FA81
:1012600003F14FF0000342EA0702A7E746EA02064D
:1012700046EA06464FEA164646EA0106BCBF46EA7B
:101280000646360C4FF000034FF000024FF000010D
:1012900094E72DE9804C9A46934670B491E8380063
:1012A00007C831EA400C48BF34EA430C03D5FFF7C6
:1012B000E6FDFFF780FFF0BCBDE8008C2DE9804C17
:1012C0009A46934670B491E8380007C810F0804FF2
:1012D00008BF13F0804F03D100F005F8FFF76BFF54
:1012E000F0BCBDE8008C20F07F4780EA030023F0CB
:1012F0007F4C07EB0C03A3F57C5300F00040A3F1F7
:10130000FE0392F0000F00F0B38095F0000F00F0A4
:1013100077802DE901494FEA11404FEA144621EA4E
:10132000004800FB06FC24EA064708FB06F607FB1C
:1013300008F800FB07F718EB06484CEB164C4FEA91
:10134000124B18EB07484FEA15464CEB174022EAC0
:101350000B4E0BFB06FC25EA06470EFB06F607FBC9
:101360000EFE0BFB07F71EEB064E4CEB164C4FF038
:1013700000061EEB074E4CEB174B18EB0B0840F129
:10138000000018EB0E0B58EB000840F100008F1A1C
:101390004FF000013CBFC943661B14BFB5EB040C02
:1013A00000213CBFC943F61B4FEA17444EEA8E0E9C
:1013B00027EA04454FEA1C4704FB07622CEA074C66
:1013C00005FB07F70CFB05F604FB0CFC16EB0746C8
:1013D00042EB174216EB0C4642EB1C421BEB060697
:1013E00058EB0202414146EA9E0601D5BDE801895B
:1013F000B619524141EB0101A3F10103BDE8018996
:101400004FEA14454FEA114724EA054621EA074C02
:1014100005FB07F406FB07F70CFB06F105FB0CFCCC
:1014200011EB074144EB17444FEA124711EB0C4113
:1014300044EB1C4422EA074C05FB07F206FB07F7C6
:101440000CFB06F605FB0CFC16EB074642EB1742BD
:1014500016EB0C4642EB1C456A1854F1000148BFDC
:101460007047B619524141EB0101A3F101037047E6
:1014700095F0000F37D04FEA11424FEA144721EAA6
:10148000024624EA074C02FB07F106FB07F70CFBB8
:1014900006F402FB0CFC14EB074441EB17414FEA46
:1014A000154714EB0C4441EB1C4125EA074C02FBA9
:1014B00007F506FB07F70CFB06F602FB0CFC16EB28
:1014C000074645EB174516EB0C4645EB1C42121937
:1014D00051F1000148BF7047B619524141EB01017B
:1014E000A3F1010370474FEA14454FEA114724EA7C
:1014F000054621EA074C05FB07F106FB07F70CFB45
:1015000006F24FF0000605FB0CFC12EB074241EB24
:10151000174112EB0C4251EB1C4148BF7047921827
:1015200041EB0101A3F101037047000010B504482D
:1015300000F03AFC024800F0F9FA80B210BD000059
:101540008000002070B504460068816811F0010F2A
:101550002DD18168174A11421AD18168D54329409B
:10156000491C816000F0DAFD06461BE0816811F03D
:10157000010F03D181682940491C816000F0CEFD34
:10158000801B02280ED920680068C043C00709D01C
:10159000E06D40F01000E065206E40F00100206634
:1015A000012070BD20680168C943C907DED1002051
:1015B00070BD00003F00008070B542482DED048BE7
:1015C0000168414C2269891A322978D90068206162
:1015D000002565719FED3D8B9FED3E9BFFF7A6FFBC
:1015E00002F010FE53EC182B02F05CFE53EC192BAA
:1015F00002F0B0FC94ED120B53EC102B02F0F6FB52
:10160000C4E912010A2000F049FC6079401CC0B214
:1016100060710A28E2D39FED310B53EC102B94ED4F
:10162000120B51EC100B02F095FC41EC100B9FEDEE
:101630002D1B84ED100B84ED121B94ED0E1B53EC4F
:10164000112B02F0F3FD01D20120207094ED0E0B5E
:1016500053EC102B94ED100B51EC100B02F020FF0B
:1016600017D294ED0C0B53EC102B94ED100B51ECA6
:10167000100B02F0DBFD0CD22078012809D10220EA
:101680002070A561A07940F00100A071174801F019
:1016900069FB94ED0C0B53EC102B94ED100B51ECFB
:1016A000100B02F0FDFE0AD2A07920F00100A0711B
:1016B0000E48BDEC048BBDE8704001F08FBBBDEC63
:1016C000048B70BD6000002008000020666666661E
:1016D00066660A400000000000FEAF400000000007
:1016E000000024400000000000000000EC0000208A
:1016F000FEE77047002240F6B83306E00021491C9F
:1017000089B29942FBD3521C92B28242F6D37047FF
:1017100072B6FEE72DE9F84F00270446009790F8CF
:101720005800DFF8D8930D46B846012811D001269D
:1017300084F85860206801F0A7FF60B1E06D40F0C8
:101740002000E0655FF0010784F858803846BDE866
:10175000F88F0220FBE7D5E900210C23206803EA7B
:1017600091131844036B01F01F014FF01F0C0CFA8A
:1017700001FCC2F3846223EA0C038A40134303632F
:10178000206801F081FF8246206801F079FF5AEA63
:1017900000003CD1AA6829682068B2F1004F37D018
:1017A00001F076FF2068416921F000414161206825
:1017B0006969C268C2F3C102520091402A69042AD1
:1017C00031D000EB82002B68026EDFF834C303F0E7
:1017D000F84302EA0C020B431A4342F0004101664F
:1017E00020682A69A96900EB8200026E22F08072EB
:1017F0000A430266297F22682869012910D0002146
:1018000002EB8000026E22F000720A4302667DE065
:10181000002201F03DFF2068416941F00041C5E729
:101820004FF00071ECE7002101F024FF4003206835
:101830004FF0000172D001F01DFF90FAA0F0B0FA55
:1018400080F1286842036ED090FAA0F0B0FA80F0E0
:10185000814204D100221146206801F028FF0121B5
:10186000206801F007FF400320684FF001015DD0C0
:1018700001F000FF90FAA0F0B0FA80F1286842036E
:1018800059D090FAA0F0B0FA80F0814204D1002241
:101890000121206801F00BFF0221206801F0EAFE1F
:1018A000400320684FF0020148D001F0E3FE90FAB7
:1018B000A0F0B0FA80F12868420344D090FAA0F07A
:1018C000B0FA80F0814204D100220221206801F0A8
:1018D000EEFE0321206801F0CDFE400320684FF0AA
:1018E000030133D001F0C6FE90FAA0F0B0FA80F107
:1018F000286842032FD090FAA0F0B0FA80F081421D
:1019000004D100220321206801F0D1FE2068816803
:1019100011F0010F22D0A8E000E004E001F0AAFEDF
:10192000C0F384618DE7C0F3846091E701F0A2FE0B
:10193000C0F38461A2E7C0F38460A6E701F09AFED9
:10194000C0F38461B7E7C0F38460BBE701F092FEA7
:10195000C0F38461CCE7C0F38460D0E7EB6829680A
:101960004B4550F8B03FC1F3120101D10B4300E0E9
:101970008B430360E868484577D1286841031CD051
:1019800090FAA0F1B1FA81F1491C01F01F01092977
:101990004FEA403132D8002912D000BF90FAA0F1AE
:1019A000B1FA81F101F1010101F01F0106FA01F61E
:1019B00009D100BFC0F3846109E0C0F38461E3E7AB
:1019C000C0F38461EEE790FAA0F1B1FA81F101F180
:1019D000010101F01F0146EA816102D1C0F3846078
:1019E00003E090FAA0F0B0FA80F000F1010000F0FE
:1019F0001F0000EB400041EA005132E000290ED008
:101A000090FAA0F1B1FA81F101F1010101F01F0199
:101A100006FA01F606D100BFC0F3846106E0C0F308
:101A20008461F1E790FAA0F1B1FA81F101F10101CD
:101A300001F01F0146EA816102D1C0F3846003E036
:101A400090FAA0F0B0FA80F000F1010000F01F0061
:101A50002C4A00EB400002EB005041EA000141F04B
:101A60000071AA68206801F013FE27482A68024224
:101A70003FF46AAE25488168254B01F0E0719A4237
:101A800002D0244B9A421CD10B021AD42268B2F124
:101A9000A04F7FF459AE826841F4000122F0E07259
:101AA0000A4382601C481D490068B0FBF1F0401CED
:101AB00000EB4000800000E0401E00900028FBD1B9
:101AC00042E6174D174BAA4207D1CD0105D4226833
:101AD0009A42F5D041F0807109E0134DAA42EFD14E
:101AE0004A02EDD422689A42EAD041F48001826829
:101AF00022F0E0720A43826026E6000000007F4088
:101B000000F0FF03000020FE0000088000030050EA
:101B1000000021C31000C09064000020400D0300AD
:101B2000000052C700010050000084CB0068006C28
:101B300070470000F8B54FF0000504002E460095F0
:101B400002D0E06D10B107E00120F8BD204600F0A2
:101B5000EFF8266684F8586020688168C1F3407108
:101B600019B181686A4A1140816020688168C1F3B7
:101B7000007189B98168674A114041F080518160E4
:101B8000654866490068B0FBF1F04000801C00E049
:101B9000401E00900028FBD120688168C1F30071CD
:101BA00041B9E16D41F01001E165216E41F00101A3
:101BB0002166012501F068FDE16DC90600D430B150
:101BC000E06D40F01000E06501252846F8BDE06DAD
:101BD00020F4807040F00200E0652068806810F01A
:101BE000010F11D14FF0A04080684D4900F0010075
:101BF000896801F00101084306D14A48616882689A
:101C000022F47C120A438260E168E06B627F084341
:101C1000A16841EA4231084394F8241040EA0140A7
:101C2000012904D1218D404A02EB41410843E16A78
:101C300029B101F47871226B014342EA0100216865
:101C4000CA683A4B1A400243CA6020680169626B55
:101C500021F0406111430161206801F015FD064645
:101C6000206801F00DFD30432ED1207F94F838100C
:101C7000800340EA41022068C16844F202039943AC
:101C80001143C16020690028206801690AD041F42D
:101C900080310161206850F8C01F22696FF30D0187
:101CA000114307E021F480310161206850F8C01F22
:101CB0006FF30D01016094F8400001280CD02068FA
:101CC000016921F001010161606901282068016B4F
:101CD00021F00F0111D013E0D4E911010843D4E938
:101CE00013121143084321680A6940F2FC739A43B6
:101CF000104340F001000861E6E7226A521E1143DA
:101D00000163E06D20F0020040F00100E0655CE757
:101D1000C0FFFF5FC0FFFF7F64000020400D030095
:101D200000010050000300500000FEFF0740F0FFDC
:101D300010B598B00446142111A8FEF709FC4421FF
:101D40006846FEF705FC15492068884223D1C40186
:101D5000400500940F90684600F0DEFA08B1FFF7E6
:101D6000D7FC0F48C16C41F40051C164C16C01F44F
:101D700000511691C16C41F00201C164C06C11A9FF
:101D800000F0020016900320CDE9114000201390CE
:101D9000044800F095F818B010BD00000001005094
:101DA00000100240000400482DE9F0410446384884
:101DB000806800F01F05206801F066FC18B1022160
:101DC0000846BDE8F08194F8580001280CD00120A5
:101DD00084F858002046FFF7B5FB01004FF00003E0
:101DE00004D084F85830EBE70220EAE7E06D40F6D3
:101DF0000162904340F48070E065264A20684FF00D
:101E0000A046904201D1374600E00746874200D005
:101E10001DB9E76D27F48017E765E76DFF0404D56A
:101E2000276E27F00607276600E023661C27076059
:101E300084F858302068904201D1334600E00346D0
:101E4000834215D0A5B1052D12D0092D10D0E36D18
:101E500043F48013E365904200D13046C0688001AE
:101E6000AED5E06D20F4005040F48050E065A7E767
:101E7000C268920105D5E26D22F4005242F480520C
:101E8000E2658268044B1A40121D826098E70000E8
:101E90000003005000010050C0FFFF7F70B50446F2
:101EA00000F03CF90546601C02D004484068044438
:101EB00000F034F9401BA042FAD370BD5800002056
:101EC0002DE9F04FDFF82092002301260324A9F129
:101ED000040B85B00F2709F1040AABF1040EFAE0F8
:101EE00006FA03F52A407CD091F804C00CF0030CEC
:101EF000BCF1010F02D0BCF1020F26D1D0F808C00E
:101F0000CDF800C04FEA430C04FA0CF8CDF810C02D
:101F1000DDF800C02CEA080CCDF800C0D1F80C8028
:101F2000DDF810C008FA0CF8DDF800C048EA0C082B
:101F3000C0F80880D0F804C02CEA050C0D79C5F370
:101F400000159D4045EA0C0545600D79ED43AD0750
:101F50000ED0C5684FEA430804FA08FC25EA0C05D0
:101F6000D1F808C00CFA08FC4CEA050CC0F80CC00B
:101F70000D7905F00305022D16D1DD0800EB850C67
:101F8000CDF808C0DCF820805D074FEAD56C07FA71
:101F90000CF528EA05080D6905FA0CF5DDF808C00E
:101FA00045EA0805CCF8205005684FEA430CCDF807
:101FB00008C004FA0CFC25EA0C0591F804C00CF0EA
:101FC0000308DDF808C008FA0CF848EA0508C0F86C
:101FD00000804D6815F4403F7CD0444DD5F860C07A
:101FE00000E077E04CF0010CC5F860C02D6E23F0E6
:101FF000030C05F0010500953D4D65440295AD6863
:102000004FEA837C4FEA1C7807FA08FC25EA0C05A6
:10201000B0F1904F06D0DFF8DCC0604505D14FF03D
:10202000010C20E04FF0000C1DE0DFF8CCC0604553
:1020300002D14FF0020C16E0DFF8C0C0604502D1BB
:102040004FF0030C0FE0DFF8B8C0604502D14FF04D
:10205000040C08E0DFF8ACC0604502D14FF0050C7D
:1020600001E04FF0060C0CFA08FC4CEA050C029D4E
:10207000C5F808C0D9F80050CC46D1F80480954383
:102080005FEAC82800D51543CCF80050DAF80050B4
:10209000D446D1F8048095435FEA882800D51543DB
:1020A000CCF80050DBF80050DC46D1F804809543B2
:1020B0005FEA883800D51543CCF80050DEF80050B0
:1020C000F446D1F8048095435FEAC83800D515433B
:1020D000CCF800505B1C0A6832FA03F57FF400AFBD
:1020E00005B0BDE8F08F0000080401400010024078
:1020F000000001400004004800080048000C0048AF
:1021000000100048001400480069084000D0012079
:1021100070470AB1816170478162704701488068E9
:10212000704700005800002002488168426811444E
:10213000816070475800002010B50024032000F093
:1021400073F80F2000F008F808B1012401E000F056
:1021500025F8204610BD000070B50E4E054600243F
:10216000706898B14FF47A71B1FBF0F00A490968D0
:10217000B1FBF0F000F03EFD40B9102D06D2002278
:102180002946501E00F030F8356000E0012420465A
:1021900070BD000058000020640000200A4882B092
:1021A000016E41F001010166016E01F00101009133
:1021B000816D41F080518165806D00F0805000900C
:1021C00002B000F0A1B8000000100240002809DBB6
:1021D00000F01F02012191404009800000F1E02041
:1021E000C0F8001170470000F0B40E4B1B680C469D
:1021F000C3F30223C3F10705042D00D90425191DDB
:10220000072901D2002300E0DB1E012606FA05F1B2
:10221000491E214099409E40761E16403143F0BC35
:1022200001F093BD0CED00E0064900F007020868DC
:102230004FF6FF03184040EA0220034A10430860AB
:10224000704700000CED00E00000FA052B492C4B14
:102250000A6832214A432B4940B1B0F5007F086833
:1022600029D020F4C06040F480602CE00868C0F3FE
:102270004120022804D051F8800F20F4807022E021
:10228000D1F8800020F48070C1F88000086820F444
:10229000C06040F400700860B2FBF3F0401C00E046
:1022A000401E4A69520501D50028F9D14869400508
:1022B0000AD503207047C0F34120022806D051F808
:1022C000800F40F48070086000207047D1F88000D3
:1022D00040F48070C1F88000086820F4C06040F4C9
:1022E00000700860B2FBF3F0401C00E0401E4A6939
:1022F0005205DBD50028F9D1D8E7000064000020A2
:1023000040420F00007000400248816841F4804163
:1023100081607047007000402DE9F8430446006872
:1023200000269D4D00035ED5A86D0027C00008D48F
:10233000A86D40F08050A865A86D012700F080507E
:102340000090DFF85892D9F8001041F48071C9F874
:102350000010FFF7E3FE804606E000BFFFF7DEFE59
:10236000A0EB080002282BD8D9F80000C005F5D54D
:10237000D5F8900010F4407014D0216C814211D037
:10238000D5F89000D5F8901020F4407041F48031D9
:10239000C5F89010D5F8901021F48031C5F8901050
:1023A000C5F89000C00711D0FFF7B8FE804641F293
:1023B000883907E0FFF7B2FEA0EB0801494501D9D3
:1023C00003260BE0D5F890008007F3D5D5F89000F0
:1023D000216C20F440700843C5F890001FB1A86D2F
:1023E00020F08050A8652078C00707D0D5F8880075
:1023F000616820F003000843C5F888002078800752
:1024000007D5D5F88800A16820F00C000843C5F86E
:1024100088002078400707D5D5F88800E16820F0CB
:1024200030000843C5F888002078000707D5D5F8A4
:102430008800216920F0C0000843C5F88800207892
:10244000800607D5D5F88800616920F4406008430C
:10245000C5F888002078400607D5D5F88800A1691E
:1024600020F440500843C5F888002078000607D5BE
:10247000D5F88800E16920F440400843C5F8880099
:102480002088C00507D5D5F88800216A20F440309F
:102490000843C5F888002088800507D5D5F888004E
:1024A000616A20F440200843C5F888002088400570
:1024B0000FD5D5F88800A16A20F440100843C5F86C
:1024C0008800A06AB0F5801F03D1E86840F480104E
:1024D000E860208800050FD5D5F88800E16A20F46F
:1024E00040000843C5F88800E06AB0F5800F03D1CA
:1024F000E86840F48010E8602088C0040FD5D5F863
:102500008800216B20F040700843C5F88800206BDC
:10251000B0F1807F03D1E86840F48010E860208843
:102520004FF0006180040ED5D5F88800626B20F072
:1025300040601043C5F88800606B884203D1E868AA
:1025400040F48010E860208840040ED5D5F888005B
:10255000A26B20F040601043C5F88800A06B884251
:1025600003D1E86840F48010E860208800040FD5AB
:10257000D5F88800E16B20F040500843C5F888008A
:10258000E06BB0F1805F03D1E86840F48030E86030
:102590003046BDE8F88300000010024000700040A3
:1025A0002DE9F0470E4605004FF0000725D0DFF873
:1025B000AC81D8F8000000F00F00B0420CD2D8F87F
:1025C000001021F00F013143C8F80010D8F80000C6
:1025D00000F00F00B04210D12968614CC80741F2E9
:1025E000883A5AD06868DFF87C91032808D002281E
:1025F00020682DD0400500282CDB0120BDE8F087A5
:1026000020688001F9D5E06800F00302E068C0F3BB
:102610000310401C032A19D0534A00BFB2FBF0F04C
:10262000E268C2F306225043E268C2F34162521CE0
:102630005200B0FBF2F0484517D9A06810F0F00F37
:102640000CD0880711D5A86840B10EE0474AE5E7ED
:102650008003D0E700F092F8484506D9A06820F042
:10266000F00040F08000A0608027A068696820F03A
:1026700003000843A060FFF751FD814606E000BF5C
:10268000FFF74CFDA0EB090151453AD8A0686968F5
:1026900000F00C00B0EB810FF2D12868810714D54F
:1026A000400703D5A06840F4E060A06028780007E8
:1026B00005D5A06820F4605040F4E060A060A068F8
:1026C000A96820F0F000084304E0802F03D1A0683F
:1026D00020F0F000A060D8F80010404601F00F0193
:1026E000B14216D9016821F00F0131430160FFF7B3
:1026F00015FD074607E000BFFFF710FDC11B514560
:1027000001D903207AE7D8F8000000F00F00B042AA
:10271000F2D12878400705D5A068E96820F4E06088
:102720000843A0602878000706D5A068296920F42E
:10273000605040EAC100A06000F020F8A1680C4A97
:10274000C1F30311515C01F01F01C8400949086041
:1027500009480068BDE8F047FFF7FEBC00200240D2
:102760000010024000B4C4040024F40000127A00F7
:10277000BE5800086400002058000020184910B519
:102780008868C0F381021748012A0BD08A68431079
:10279000C2F38102022A06D08A68C2F38102032AA8
:1027A00003D0002010BD184610BDCA6802F0030413
:1027B000CA68C2F30312521C032C02D0B0FBF2F021
:1027C00001E0B3FBF2F0CA68C968C2F306225043C5
:1027D000C1F34161491C4900B0FBF1F010BD00009C
:1027E000001002400024F4002DE9F84304007AD0E0
:1027F0002078FA4DC00747D0A868E96800F00C00BF
:1028000001F003010C2802D0082817D001E00329A9
:1028100014D06068B0F5803F17D0B0F5A02F2868BD
:1028200017D020F480302860286820F480202860A9
:102830006068E0B1FFF772FC064614E02868800388
:1028400022D560680028D2D01EE0286840F480308D
:10285000EDE740F480202860F7E700BFFFF75EFC5B
:10286000801B642870D828688003F7D50CE0FFF738
:1028700055FC064605E000BFFFF750FC801B6428AE
:10288000F0D828688003F7D4207880074CD5A86852
:10289000E96800F00C0001F003010C2802D00428C4
:1028A0000DD001E002290AD0E068002828682BD06A
:1028B00040F480702860FFF731FC064619E0286874
:1028C000400502D5E068002891D06868217C20F09E
:1028D000FE4040EA01606860C1480068FFF73CFCC8
:1028E000002800D120E076E1FFF718FC801B0228C9
:1028F000B8D828684005F7D56868217C20F0FE40EC
:1029000040EA016068600FE020F480702860FFF703
:1029100005FC064605E000BFFFF700FC801B02280F
:10292000A0D828684005F7D42078000729D5606929
:102930000028D5F8940013D040F00100C5F89400A9
:10294000FFF7ECFB064606E090E000BFFFF7E6FB72
:10295000801B022886D8D5F894008007F6D510E0B1
:1029600020F00100C5F89400FFF7D8FB064604E00C
:10297000FFF7D4FB801B022878D8D5F89400800795
:10298000F6D42078400761D5A86D0026C00008D491
:10299000A86D40F08050A865A86D012600F0805019
:1029A000009090480168C90511D40168804641F43F
:1029B00080710160FFF7B2FB074604E0FFF7AEFB52
:1029C000C01B022852D8D8F80000C005F6D5A06870
:1029D000012815D00528D5F8900016D020F0010068
:1029E000C5F89000D5F8900020F00400C5F89000DC
:1029F000A06841F28838B8B1FFF790FB07460EE0B7
:102A0000D5F8900040F00100F0E740F00400C5F870
:102A10009000F5E7FFF782FBC11B414526D8D5F8AA
:102A200090008007F6D50CE0FFF778FB074604E03E
:102A3000FFF774FBC11B414518D8D5F890008007FB
:102A4000F6D41EB1A86D20F08050A86520788006CD
:102A500029D5A0690028D5F8980013D040F00100CE
:102A6000C5F89800FFF75AFB064606E077E000BF7E
:102A7000FFF754FB801B022877D8D5F89800800711
:102A8000F6D510E020F00100C5F89800FFF746FBEE
:102A9000064604E0FFF742FB801B022865D8D5F804
:102AA00098008007F6D4E069F0B3A968C1F381010A
:102AB000032961D00228286820F0807028600BD09C
:102AC000E86820F00300E860E86847490840E860EB
:102AD000FFF724FB04464BE0FFF720FB064604E02B
:102AE000FFF71CFB801B02283FD828688001F7D421
:102AF000F4E908016FF00F0202EB01110843218A8B
:102B00005204490802EB4151A26841EA02210843FC
:102B1000217D4FF07E42490802EB41610843217B51
:102B200040EAC160E96800E062E0304A11400843D1
:102B3000E860286840F080702860E86840F08070A5
:102B4000E860FFF7EBFA044605E000BFFFF7E6FA9E
:102B5000001B022809D828688001F7D548E004E066
:102B6000FFF7DCFA001B022802D90320BDE8F88336
:102B700028688001F4D43BE00128F7D0E868226A95
:102B800000F00301914226D1616A00F0F0020901D0
:102B9000103991421FD1A26A00F4FE41B1EB022F1D
:102BA00019D194F82C2000F07841B1EBC26F12D10A
:102BB000218E00F4C00249084905A1F50011914297
:102BC00009D194F8341000F0C06049084906A1F119
:102BD000007181420CD00120C8E7000000100240C3
:102BE0005800002000700040FFFFEEFE0C809F01A7
:102BF0000020BBE710B5401EB0F1807F01D301205B
:102C000010BD4FF0E02460610F21601701F09DF8C6
:102C10000020A06107202061002010BD7047704790
:102C20007047704770477047F0B590F83C20012A14
:102C30003AD0012580F83C50022280F83D200368FC
:102C40005A689C68194E1A4FB34201D0BB4204D156
:102C500022F4700C4A6842EA0C02DFF858C002EA1B
:102C60000C02D1F800C04CEA020CC3F804C00268A0
:102C7000B2420DD0B2F1804F0AD00F4B9A4207D02A
:102C80000E4B9A4204D0BA4202D00D4B9A4204D164
:102C9000896824F080031943916080F83D50002139
:102CA00080F83C100846F0BD0220F0BD002C014029
:102CB000003401408FFFFFFD000400400008004089
:102CC00000400140704710B5040003D094F83D0067
:102CD00010B107E0012010BD002084F83C00204620
:102CE00000F022F8022084F83D00211D206800F049
:102CF000BBFF012084F8480084F83E0084F83F00C0
:102D000084F8400084F8410084F8420084F84300CD
:102D100084F8440084F8450084F8460084F84700AD
:102D200084F83D00002010BD08B500680B498842BA
:102D300012D10B48816D41F010018165806D002238
:102D400000F01000009003213620FFF74DFABDE897
:102D500008403620FFF73ABA08BD000000100040D6
:102D60000010024090F83D10012901D00120704769
:102D7000022180F83D100168CA6842F00102CA6071
:102D80000068104988420ED0B0F1804F0BD00E4938
:102D9000884208D00D49884205D00D49884202D0AA
:102DA0000C49884207D181680B4A1140062906D098
:102DB000B1F5803F03D0016841F0010101600020BE
:102DC00070470000002C0140000400400008004053
:102DD0000034014000400140070001000168CA685A
:102DE00022F00102CA6001680A6A41F211131A4214
:102DF00007D10A6A9B001A4203D10A6822F0010235
:102E00000A60012180F83D1000207047704770B5BE
:102E10000446006801694FF00005C943890715D4CD
:102E2000C168C943890711D4E91E016101202077D7
:102E3000206880698007204602D0FFF7E7FF04E0A2
:102E400000F0E3F8204600F0E1F8257720680169FA
:102E5000C943490717D4C168C943490713D46FF060
:102E600004010161022020772068806910F4407F0E
:102E7000204602D0FFF7CAFF04E000F0C6F8204663
:102E800000F0C4F8257720680169C943090716D402
:102E9000C168C943090712D46FF008010161042019
:102EA00020772068C0698007204602D0FFF7AEFF78
:102EB00004E000F0AAF8204600F0A8F82577206882
:102EC0000169C943C90617D4C168C943C90613D4E7
:102ED0006FF010010161082020772068C06910F4AC
:102EE000407F204602D0FFF791FF04E000F08DF80C
:102EF000204600F08BF8257720680169C943C9078F
:102F000008D1C168C943C90704D1891E016120469F
:102F100000F07EF820680169C943090609D4C16838
:102F2000C943090605D46FF0800101612046FFF70F
:102F300076FE20680169C943C90509D4C168C9433F
:102F4000090605D46FF4807101612046FFF766FE23
:102F500020680169C943490609D4C168C9434906C3
:102F600005D46FF040010161204600F05FF8206851
:102F70000169C943890609D4C168C943890605D4D2
:102F80006FF0200101612046FFF74AFE20680169C9
:102F9000C943C90209D4C168C943C90205D46FF441
:102FA000801101612046FFF73DFE20680169C94399
:102FB000890209D4C168C943890205D46FF400119C
:102FC00001612046FFF72DFE20680169C9434902CF
:102FD00009D4C168C943490205D46FF48001016175
:102FE0002046FFF720FE20680169C94309020BD47F
:102FF000C168C943090207D46FF40001016120468A
:10300000BDE87040FFF75EBE70BD704770470000BE
:1030100000680449884203D103488169491C8161E1
:103020007047000000100040080000207047FEE7D5
:1030300010B540482DED048B01683F4CE268891AB9
:1030400064292BD90068E06000F088F86070E178AE
:1030500020EA0101A170E070012922D002299FED30
:10306000370B9FED388B9FED399B4BD0032915D142
:103070002079002812D053EC102B94ED0A0B51EC60
:10308000100B00F0B3FE41EC100B53EC182B84ED49
:103090000A0B01F005FA01D884ED0A9BBDEC048B04
:1030A00010BD2079F0B19FED2B0B0020207153EC67
:1030B000102B94ED0A0B51EC100B00F097FE94EDE1
:1030C000081B53EC112B01F0B1F80ED894ED080B4E
:1030D00084ED0C0B94ED0A0B84ED0E0BA07920F01F
:1030E00002000DE001202071D8E794ED0C0B84ED77
:1030F000080B94ED0E0B84ED0A0BA07940F0020052
:10310000A071CBE720790028C8D053EC102B94EDA8
:10311000080B51EC100B00F069FE41EC100B53EC66
:10312000182B84ED080B01F0BBF9B7D884ED089B90
:10313000B4E7000060000020080000209A999999E7
:103140009999B93F3333333333330B4000000000D8
:1031500000000000000000000000F03F70B50E4DC0
:10316000002401212846FEF7CFFF00B901240221E7
:103170002846FEF7C9FF00B9022404212846FEF7BD
:10318000C3FF00B9032401214FF09040FEF7BCFFBC
:1031900000B90424204670BD0004004800B585B085
:1031A00014216846FDF7D4F94FF6FF700090002017
:1031B0000321CDE90201019069460248FEF780FE35
:1031C00005B000BD0008004800B585B01421684670
:1031D000FDF7BEF94FF6FF7000900120019003202B
:1031E00003900020029069460248FEF769FE05B090
:1031F00000BD00000008004870B5002406462146C6
:10320000204600F093F900F0D1F94FF4963530469E
:1032100000F0A0F9641CAC42F9D370BD30B587B0A2
:1032200014216846FDF794F91E48C16C41F0040171
:10323000C164C16C01F004010591C16C41F0010150
:10324000C164C16C01F001010591C16C41F0020142
:10325000C164C06C012500F0020005904FF4487075
:10326000CDE9000500240394694602940E48FEF758
:1032700027FE280203940090CDE901544FF09044BA
:1032800069462046FEF71CFEFFF79EFFA06940F44A
:103290008070A06104481830016841F40871016031
:1032A00007B030BD0010024000040048203AD2B2FE
:1032B000034B02EB420203EB021200F019B80000CC
:1032C000EE460008F0B50E460746002540F23F14D2
:1032D00007E021463846FFF7E9FF103C6D1CA4B219
:1032E000761C3278002A01D0142DF2D3F0BD0000F4
:1032F0002DE9F04791468A460026044600F016F96B
:10330000DFF84080012700BF00F050F95FF00005B2
:1033100039F8160007FA05F10842404601D1408805
:1033200000E0008800F016F96D1C102DF0D3641C2D
:10333000E4B25146204600F0F9F8761C182EE3D38B
:10334000BDE8F0870000002010B5FFF767FF002000
:1033500000F0A4F8084CA080A088A0F50241303904
:1033600006D000F039FB002000F098F8A08010BDD6
:1033700000F0A9FAF7E700000000002010B520488F
:103380000168204CA268891AB1F5FA7F37D9006824
:10339000A0602079E8B11CA10020FFF793FF94ED15
:1033A000080B1FA153EC102B2348FCF795FF224973
:1033B0003020FFF787FF94ED0A0B20A153EC102B70
:1033C0001D48FCF789FFBDE810401B494820FFF766
:1033D00079BF20A10020FFF775FF94ED100B23A10A
:1033E00053EC102B1448FCF777FF13493020FFF7FC
:1033F00069FF24A11048A269FCF76EFFE3E710BD46
:1034000060000020080000202020202020205061A3
:103410007261202020202020202020200000000099
:1034200020566D61783A25322E316C665620202068
:1034300020202020200000006800002020566D6918
:103440006E3A25322E316C66562020202020202016
:1034500020000000202020202020446174612020D2
:1034600020202020202020200000000020563A2587
:10347000332E326C66562020202020202020202051
:103480002020000020543A2530326C757320202013
:1034900020202020202020202020200070B51D4941
:1034A0000A6842F400720A600A6842F480720A6094
:1034B000184C103C226842F020022260164A10602C
:1034C000086840F02000086000BF00BF00BF20680F
:1034D00040F020002060206840F480702060FFF7FA
:1034E0005DFE4FF09041886A40F48070886200BFB2
:1034F00000BF00BF0848001F006885B2886940F41B
:1035000080708861FFF760FE206840F400702060E2
:10351000284670BD280400481408004801B5BDF8CD
:1035200000000149488008BD0000002010B50C468D
:103530000146202000F068F82146BDE81040212017
:1035400000F062B801B5BDF800000149088008BD6F
:1035500000000020134A116841F400711160114904
:1035600010390B6843F480730B600B6843F0200341
:103570000B600D4B1860106840F02000106000BF19
:1035800000BF00BF086840F020000860086840F4F1
:103590008070086000BF00BF00BF086840F4007082
:1035A0000860704728040048140800481449086857
:1035B00040F400700860086840F4807008601048AB
:1035C0001038026842F0200202600E4B22221A607C
:1035D0000A6842F020020A6000BF00BF00BF016815
:1035E00041F020010160016841F48071016000BF79
:1035F00000BF00BF016841F4007101607047000026
:103600002804004814080048184B10B51A6842F402
:1036100000721A601A6842F480721A60134A103AF3
:10362000146844F020041460114C2060186840F0C5
:103630002000186000BF00BF00BF106840F02000ED
:103640001060106840F4807010602160186840F0CD
:103650002000186000BF00BF00BF106840F02000CD
:103660001060106840F48070106010BD280400489D
:103670001408004800EB8100006E00F0F84070472D
:103680008068C0F3C00070478068C0F38000704756
:10369000042303EAD15310B518444369C1F304511C
:1036A00007248C40A3438A401343436110BD00EBC1
:1036B0008100016E21F00041114301667047000056
:1036C00070B5124D044601224FF47F412846FEF7A3
:1036D00020FD0F4E012204213046FEF71AFD002284
:1036E00004213046FEF715FD210200222846FEF790
:1036F00010FD012204213046FEF70BFD3046BDE8E7
:10370000704000220421FEF704BD000000080048BC
:10371000000C004806490A6806484369D21A322A52
:1037200004D9096841618079FFF7CABF704700007A
:10373000600000200800002030B589B020216846D4
:10374000FCF706FF19481849002401604902C0E946
:103750000114C46004250461C0E905450477447779
:103760000121016280F82440C462046380F838407B
:10377000C46380F84040FEF7DDF908B1FDF7C8FFEB
:103780000B4800900620CDE901047F200594CDE987
:10379000030569460548FDF7BDFF002801D0FDF788
:1037A000B7FF09B030BD00000001005080000020CC
:1037B0000080F03EF0B587B014216846FCF7C8FEE3
:1037C0002948C16C41F00401C164C16C01F00401DD
:1037D0000591C16C41F00101C164C16C01F00101AE
:1037E0000591C16C41F00201C164C16C01F002019C
:1037F0000591C16C41F00801C164C06C1B4E00F022
:1038000008004FF47F440590012221463046FEF720
:1038100080FC174F002204213846FEF77AFC012570
:10382000CDE9004500240294694630460394FEF732
:1038300047FBCDE9005469464FF090400294FEF7F3
:103840003FFB0720CDE9000469460A480294FEF7D1
:1038500037FB04200090CDE90154694638460394B3
:10386000FEF72EFB07B0F0BD001002400008004834
:10387000000C0048000400483EB500240F480094A6
:1038800001940D490294016041F63F71C0E90114B1
:1038900042F210718461C160FFF715FA08B1FDF7BB
:1038A00037FF0094694605480294FFF7BDF90028E8
:1038B00001D0FDF72DFF3EBD00100040EC000020C0
:1038C000FEE7FEE7704730B501210020FFF79CFEC0
:1038D0004FF47A70FDF70EFF00210120FFF794FEF0
:1038E00041F290711020FFF78FFE4FF41C516020C1
:1038F000FFF78AFE01216120FFF786FE02214620A4
:10390000FFF782FE48F210011320FFF77DFE48F218
:10391000FE011220FFF778FE4FF4A0610220FFF7AE
:1039200073FE41F230010320FFF76EFE40F20334D4
:1039300021463020FFF768FE21463120FFF764FE64
:1039400021463220FFF760FEE51E29463320FFF7AF
:103950005BFE03213420FFF757FE21463520FFF799
:1039600053FE14213620FFF74FFE21463720FFF784
:103970004BFE21463820FFF747FE21463920FFF74E
:1039800043FE29463A20FFF73FFE03213B20FFF785
:103990003BFE21463C20FFF737FE4FF4A0513D206F
:1039A000FFF732FE4FF400719220FFF72DFE214603
:1039B0009320FFF729FE40F60D019020FFF724FE2B
:1039C00041F218010320FFF71FFEBDE8304040F22E
:1039D00073110720FFF718BE10B543F20801E3206A
:1039E000FFF712FE1221E720FFF70EFE41F2312110
:1039F000EF20FFF709FE00210120FFF705FE4FF43D
:103A0000E0610220FFF700FE41F230010320FFF7E2
:103A1000FBFD00210420FFF7F7FD40F207210820FD
:103A2000FFF7F2FD00210920FFF7EEFD00210A203B
:103A3000FFF7EAFD00210C20FFF7E6FD00210D2035
:103A4000FFF7E2FD00210F20FFF7DEFD002110202F
:103A5000FFF7DAFD07211120FFF7D6FD0021122024
:103A6000FFF7D2FD00211320FFF7CEFDC820FEF79F
:103A700015FA41F290611020FFF7C6FD40F22721B0
:103A80001120FFF7C1FD3220FEF708FA1D21122098
:103A9000FFF7BAFD3220FEF701FA4FF40061132060
:103AA000FFF7B2FD14212920FFF7AEFD0B212B20DB
:103AB000FFF7AAFD3220FEF7F1F900212020FFF7E1
:103AC000A3FD00212120FFF79FFD07213020FFF7F4
:103AD0009BFD40F207713120FFF796FD0621322051
:103AE000FFF792FD40F204713520FFF78DFD41F69E
:103AF00004713620FFF788FD04213720FFF784FD8D
:103B000000213820FFF780FD40F206713920FFF7D1
:103B10007BFD40F201713C20FFF776FD0F213D2037
:103B2000FFF772FD00215020FFF76EFDEF215120BD
:103B3000FFF76AFD00215220FFF766FD40F23F11BA
:103B40005320FFF761FD4FF41C516020FFF75CFD2F
:103B500001216120FFF758FD00216A20FFF754FD85
:103B600000218020FFF750FD00218120FFF74CFD50
:103B700000218220FFF748FD00218320FFF744FD4C
:103B800000218420FFF740FD00218520FFF73CFD48
:103B900010219020FFF738FD00219220FFF734FD1F
:103BA00003219320FFF730FD4FF488719520FFF734
:103BB0002BFD00219720FFF727FD00219820FFF71C
:103BC00023FD41F218010320FFF71EFDBDE8104060
:103BD00040F273110720FFF717BD7047FEF7A4BA34
:103BE00000B593B038216846FCF7B2FC14210EA84A
:103BF000FCF7AEFC4FF40070FEF728FB0220C10179
:103C00000391402104910121CDE9080100900A218E
:103C1000CDE90A1007900C900D906846FEF7E4FD80
:103C200008B172B6FEE70F200E9003200F9000201F
:103C300010901190129002210EA8FEF7B1FC0028FE
:103C400001D072B6FEE713B000BD00000248016863
:103C500041F470010160704788ED00E00148FFF712
:103C6000D6B80000EC0000202DE9F0430268234B99
:103C7000234D244E244C4FF08049984207D04845AC
:103C800005D0A84203D0B04201D0A04203D122F017
:103C900070074A683A431D4FDFF874C0DFF874803C
:103CA00098420DD048450BD0A84209D0B04207D069
:103CB000A04205D0B84203D0604501D0404503D1B1
:103CC00022F44075CA682A434D6922F080022A43D3
:103CD00002608A68C2620A688262984207D0A04283
:103CE00005D0B84203D0604501D0404501D10969F3
:103CF000016301214161BDE8F0830000002C014017
:103D00000004004000080040003401400040014031
:103D10000044014000480140FEE703B4019841001F
:103D2000009850EAC12018BF04204A0D18BF40F087
:103D3000010040F2FF72B2EB515F08BF40F0020099
:103D4000012808BF052002B070470907090E0028A6
:103D500004DB00F1E02080F80014704700F00F0051
:103D600000F1E02080F8141D704730380A2801D295
:103D70000120704700207047FEF7DEF9FFF730FFA3
:103D8000FFF718FDFFF7D8FCFFF776FDFFF7DCFA29
:103D90000020FFF731FA0020FFF7C0FB4FF6FF705D
:103DA000FFF7D0FB0020FFF78BFC00BFFFF7E6FA20
:103DB000FFF73EF9FDF700FCFFF7ACFCF6E700006B
:103DC00010B500290AD00878002807D005487844A3
:103DD000FCF79CFF002801D0002010BD0248784469
:103DE00010BD0000C61B0000BE1B000010B591EA0C
:103DF000030F48BF83F0004300F19083841A71EBF6
:103E0000030C05D2121943EB0C03001B61EB0C01F0
:103E1000DFF824E14FEA1154A4EB135C1EEA430FD0
:103E200018BF9EEA445F73D023EA0E03DCF1200E34
:103E300021EA045143F4801332D322FA0CFE10EB32
:103E40000E0023FA0CFE41EB0E01CCF1200E03FA1A
:103E50000EFE10EB0E0051F10001B1F5801FCCF108
:103E6000200E32D201EB045112FA0EF2BDE81040DE
:103E700058BF7047401C38BF5FEA420218BF704706
:103E8000002814BF20F0010041F100014FEA410376
:103E900013F5001F38BF7047A1F1C04100F0FABA16
:103EA000012A43EB0302ACF1200CDCF11F0E32BF00
:103EB0004FF0000E23FA0CF310EB030041EB04511A
:103EC000B4EB115FD0D0A1EB045101F5801149088A
:103ED0005FEA300001EB04510ED350F1000038BF0F
:103EE00012FA0EFE08D1BDE81040C9E7401C38BFE9
:103EF0005FEA4202CAD1C3E7BDE810404FEA41037E
:103F000013F5001F38BF7047A1F1C04100F0C2BADD
:103F10009EEA445F08D011EA5E0FBDE8104004BF7E
:103F200001F0004100207047BDE8104070B500F07E
:103F300063FA00BF64FBBE3E0000E0FF491058BFBB
:103F4000C1F140415B1058BFC3F140438B42EFF3D6
:103F5000008070472DE9C04130B4DFF8A0C23CEAD0
:103F6000111418BF3CEA131400F0EC8081EA030539
:103F70001CEA111444EAD57418BF1CEA131500F0AA
:103F8000C780A4EB05044FF0004545EAC12145EA8E
:103F9000C32341EA505143EA525304F17F749942DA
:103FA00004F500344FEAC0204FEAC22208BF904215
:103FB00000F09C804FEA13650FF24016765D4FEAE1
:103FC000134506FB05F7C7F1807706FB07F74FEAB5
:103FD000D737A7FB03687642C8F58038A7FB06CE23
:103FE00038BFA8F1010807FB08E64FF0000EA6FB5A
:103FF000028CE6FB03CEDCF1000CCEF1004E38BFA4
:10400000AEF1010EA6FB0C584FF000074FF0000573
:10401000E6FB0E87A1FB08C6A0FB07CE16EB0E063B
:1040200045F10005E1FB076515F1E04E7EBFA4F503
:1040300080345FEA46066D4116F1800745F10005C0
:104040004FEA17274FEA066647EA0567A6F1DE46FC
:10405000B6F1805F4FEA15251FD9384624F0010CD0
:1040600005EBC471BCF1FE6F01EB0C1102D8F0BC82
:10407000BDE8008124425CBF01F5801E9EEAC47F3A
:1040800002D4F0BCBDE80081244238D4F0BCA1F1D8
:10409000C041BDE8004100F0FDB94FEAD22242EA3A
:1040A00043524FEAD323A7FB02864FEAD02040EACF
:1040B000415007FB03661EEA0E0F4FEAD12105FBB4
:1040C000026658BFA6EB0056B6EB00564FEA520EFA
:1040D0004EEAC37E18EB0E0E56EB530EBDD518EB11
:1040E00002085E417F1C55F10005B6E74FF48015CC
:1040F0004FF000074FF000064FF00008ADE7F0BCAE
:104100004FF0000001F1C04101F00041BDE8008125
:1041100011EA0C1F0CEA131500D00CE013EA0C1F77
:1041200000F025804FF00000F0BC81EA030101F0AF
:104130000041BDE80081F0BCBDE8004181EA030117
:1041400000F0A8B9F0BCBDE8004170B500F054F92A
:10415000097EFC3E00F007B881EA03014FF0000041
:1041600001F00041704781EA030100F093B9F0BC0F
:10417000BDE800414FF0000021497047FFFDFBF909
:10418000F7F5F4F2F0EEEDEBE9E8E6E4E3E1E0DE8A
:10419000DDDBDAD8D7D5D4D3D1D0CFCDCCCBCAC8FC
:1041A000C7C6C5C4C2C1C0BFBEBDBCBBBAB9B8B723
:1041B000B6B5B4B3B2B1B0AFAEADACABAAA9A8A816
:1041C000A7A6A5A4A3A3A2A1A09F9F9E9D9C9C9BE4
:1041D0009A9999989797969595949393929191908F
:1041E0008F8F8E8E8D8C8C8B8B8A89898888878720
:1041F0008685858484838382828181800000FF0795
:104200000000F87FB0FA80F310FA03F10AD0C3F18E
:104210001D0303F580634FEA41504FEA035202EB5E
:10422000D12170474FF000007047000051EA030CA5
:1042300017D41CF5801F58BFBCF5801F00F1068005
:10424000994218BF704708BF9042704707D711F5D1
:10425000801F58BF13F5801F19D4994270478942B7
:1042600070471CF5801F08D5BCF5801FF7D58B4221
:1042700018BF704708BF824270474FF4001C1CEB08
:10428000410F38BF1CEB430F01D28B42704770B512
:1042900000F0B2F8922449004FF000514FF08053E3
:1042A000FFF74CBEDFF848C170B51CEA111E1EBFF7
:1042B0001CEA13159EEA0C0F95EA0C0F00F06F80B4
:1042C00081EA030423EA4C134EEAD47E21EA4C111E
:1042D00041F4801143F48013AE44A1FB024CA0FBD7
:1042E0000365AEF17F7E361955EB0C05A1FB034C3F
:1042F0004CF10003A0FB021C16EB0C06654153F1C8
:104300000003094218BF46F0010613F4007F0BD1E9
:104310004FEA03314FEA0530340341EA155140EAD0
:1043200016506FF003020AE04FEAC3214FEAC5209E
:10433000F40241EA555140EA56506FF0020202EB96
:104340002E4201EB025585EACE710AD05FEA440C99
:1043500018BF24F0004450F1000041F1000120EAB0
:10436000D47040F2FE7C624500D270BDA84214BFFA
:104370004FF080444FF04044002E08BF0024BEF1AF
:10438000806FA8BFA1F1C041BDE8704080F282807B
:104390004FF0000001F1C04101F0004170479EEA7A
:1043A0000C0F0CEA131518BF95EA0C0F06D04FF04E
:1043B000000081EA030E0EF0004170BD00F01CF811
:1043C0008900013E00F007B800F009B84FEA430C3D
:1043D0005FEA5C5C08D081EA030100F05BB84FEA59
:1043E000410C5FEA5C5CF6D14FF000000149704778
:1043F0000000FF070000F87F0EF1020E2EF0030E02
:104400005EF8046B364205D4012A43EB030515F52B
:10441000001F12D8012841EB010C1CF5001F0CD81D
:104420000ED14FEAD17C15F5001F0CEB4C0C0CF1B2
:10443000020C08BF4CEBD37C04E04FF0080C01E009
:104440004FEAD37C0CEB4C0526FA05F606F007067E
:10445000B6F1040C06D20EEB860CBDE870404CF0B1
:10446000010C6047DFE80CF0090B02024FF000413D
:104470004FF00000A1F5002170BD1946104601283B
:1044800051EB010418BFD4F5001484BF002001F0E3
:10449000004170BD0808A0F500114FEA31017047D6
:1044A00053EA010C17D41CF5801F58BFBCF5801FC0
:1044B00000F106808B4218BF704708BF82427047E8
:1044C00007D713F5801F58BF11F5801F19D48B42F1
:1044D00070479B4270471CF5801F08D5BCF5801FB4
:1044E000F7D5994218BF704708BF904270474FF404
:1044F000001C1CEB430F38BF1CEB410F01D299424B
:1045000070470FB40CBC03BCFFF7C1BE10B591EAF5
:10451000030F48BF83F000433FF570AC841A71EB82
:10452000030C07D212198CF0004C43EB0C03001B58
:1045300061EB0C01DFF8A4E14FEA1154A4EB135C2A
:104540001EEA430F18BF9EEA445F00F0B08023EAE2
:104550006E03524221EA0451C3EB6E0338BF5B1E67
:10456000DCF1200E25D322FA0CFE10EB0E0043FAEC
:104570000CFE41EB0E01CCF1200E03FA0EFE10EB07
:104580000E0051F10001CCF1200E29D412FA0EF2E6
:1045900001EB0451BDE8104058BF7047401C1CBFE0
:1045A000B2F1004F704700280CBF491C20F00100F9
:1045B000704712EB020E43EB030218BF4FF0010EDF
:1045C0004EEA4202ACF1200CDCF11E0E54D943FA43
:1045D0000CFE10EB0E0051F1FF31CCF11E0ED5D5C3
:1045E0000EF1010E12FA0EFE404141EB010101EB0A
:1045F000445C5FEA5C5C10D910EBDE7001EB0451A7
:1046000038BFBEF1004FBDE8104018BF704700280A
:104610000CBF491C20F00100704730D24FEAD42C67
:1046200011F5001124F400641BD0B1FA81F20B3AA9
:10463000A41AA41ED2F12003914030FA03F31943C7
:10464000904001EBCC71002C01EB0451BDE810400F
:10465000A8BF704701F1C0414FF0000001F00041D8
:104660007047B0FA80F310FA03F100D110BDE41ADC
:10467000173C4805C90AE4E701EB045110BD491095
:1046800001EB0451BDE810404FEA300002E04FF06A
:10469000000170474A0008BF0042F8D0B2F5001F81
:1046A00028BF704701F000414FF0000070479EEABC
:1046B000445F07D011EA5E0FBDE8104004BF00213F
:1046C00000207047BDE8104070B5FFF795FE00BFB1
:1046D00040DFF63E83F00041104670470000E0FFE7
:1046E0004FF04070E1EE100A7047FCF78DB8000003
:1046F00000000000000000000000000000000000BA
:1047000000000000000000000000000000000000A9
:104710000000000000000000000000000000000099
:104720008001800180018001800180018001800181
:104730008001800180018001800100000000800173
:1047400080010000000000000000000000000000E8
:104750000000CC00CC00CC00CC00CC00CC00000091
:104760000000000000000000000000000000000049
:104770000000000000000000000000000000000039
:1047800000000000000000000000600C600C600CE5
:1047900030063006FE1FFE1F300638071803FE1FC6
:1047A000FE1F180318038C018C018C01000000000F
:1047B0008000E003F80F9C0E8C1C8C188C00980075
:1047C000F801E007800E801C8C188C189C18B80C1F
:1047D000F00FE003800080000000000000000000F7
:1047E000000000000E181B0C110C1106110611031D
:1047F00011039B018E01C038C06C6044604430449A
:1048000030441844186C0C38000000000000000010
:10481000E001F0033807180618063003F001F00035
:10482000F8009C310E33061E061C061C063FFC7366
:10483000F021000000000000000000000000000067
:1048400000000C000C000C000C000C000C00000020
:104850000000000000000000000000000000000058
:104860000000000000000000000000000000000048
:10487000000200038001C000C00060006000300042
:104880003000300030003000300030003000600078
:104890006000C000C00080010003000200000000B2
:1048A00020006000C00080018001000300030006BA
:1048B00000060006000600060006000600060003CB
:1048C000000380018001C0006000200000000000A3
:1048D00000000000000000000000C000C000D8067A
:1048E000F807E00130033807000000000000000076
:1048F00000000000000000000000000000000000B8
:104900000000000000000000000080018001800124
:1049100080018001FC3FFC3F80018001800180011B
:104920008001000000000000000000000000000006
:104930000000000000000000000000000000000077
:104940000000000000000000000000000000000067
:1049500080018001000100018000000000000000D3
:104960000000000000000000000000000000000047
:10497000000000000000E007E00700000000000069
:104980000000000000000000000000000000000027
:104990000000000000000000000000000000000017
:1049A0000000000000000000000000000000000007
:1049B000C000C00000000000000000000000000077
:1049C000000C000C000600060006000300030003B4
:1049D0008003800180018001C000C000C000600031
:1049E0006000000000000000000000000000000067
:1049F000E003F007380E180C0C180C180C180C18E3
:104A00000C180C180C180C180C18180C380EF00791
:104A1000E0030000000000000000000000000000B3
:104A200000018001C001F00198018801800180012E
:104A3000800180018001800180018001800180016E
:104A400080010000000000000000000000000000E5
:104A5000E003F80F180C0C180C1800180018000CC4
:104A6000000600038001C000600030001800FC1F39
:104A7000FC1F00000000000000000000000000001B
:104A8000E001F807180E0C0C0C0C000C0006C0031B
:104A9000C007000C001800180C180C18180CF807A8
:104AA000E003000000000000000000000000000023
:104AB000000C000E000F000F800DC00C600C600C8D
:104AC000300C180C0C0CFC3FFC3F000C000C000CD4
:104AD000000C0000000000000000000000000000CA
:104AE000F80FF80F180018000C00EC03FC071C0E60
:104AF000001C0018001800180C181C0C180EF807E1
:104B0000E0030000000000000000000000000000C2
:104B1000C007F00F381C181818000C00CC03EC0F5D
:104B20003C0E1C1C0C180C180C18181C380EF00726
:104B3000E003000000000000000000000000000092
:104B4000FC1FFC1F000C0006000600038003800110
:104B5000C001C000E0006000600070003000300064
:104B60003000000000000000000000000000000015
:104B7000E003F007380E180C180C180C3806F00774
:104B8000F007180C0C180C180C180C18380CF80F2F
:104B9000E003000000000000000000000000000032
:104BA000E003F007380E1C0C0C180C180C181C1C19
:104BB000381EF81BE0190018000C000C1C0EF8073A
:104BC000F0010000000000000000000000000000F4
:104BD00000000000000000000000800180010000D3
:104BE0000000000000000000000000000000800144
:104BF0008001000000000000000000000000000034
:104C000000000000000000000000800180010000A2
:104C10000000000000000000000000000000800113
:104C20008001000100018000000000000000000081
:104C30000000000000000000000000000000001064
:104C4000001C800FE003F8001800F800E003800F5C
:104C5000001C001000000000000000000000000028
:104C60000000000000000000000000000000F81F2D
:104C7000000000000000F81F00000000000000001D
:104C80000000000000000000000000000000000024
:104C9000000000000000000000000000000008000C
:104CA0003800F001C007001F0018001FC007F00106
:104CB00038000800000000000000000000000000B4
:104CC000E003F80F180C0C180C180018000C000664
:104CD00000038001C000C000C00000000000C00050
:104CE000C000000000000000000000000000000004
:104CF0000000E00718180420C229224A1144094480
:104D00000944094409221113E20C02400420181836
:104D1000E0070000000000000000000000000000AC
:104D200080038003C006C006C006600C600C30180B
:104D300030183018F83FF83F1C700C600C6006C04B
:104D400006C000000000000000000000000000009D
:104D5000FC03FC0F0C0C0C180C180C180C0CFC07AA
:104D6000FC0F0C180C300C300C300C300C18FC1FE5
:104D7000FC07000000000000000000000000000030
:104D8000C007F01F38381C300C70066006000600A3
:104D9000060006000600060006600C701C30F01FBE
:104DA000E00700000000000000000000000000001C
:104DB000FE03FE0F060E06180618063006300630F3
:104DC000063006300630063006180618060EFE0FAE
:104DD000FE030000000000000000000000000000D2
:104DE000FC3FFC3F0C000C000C000C000C00FC1FF6
:104DF000FC1F0C000C000C000C000C000C00FC3F15
:104E0000FC3F000000000000000000000000000067
:104E1000F83FF83F18001800180018001800F81F95
:104E2000F81F1800180018001800180018001800C3
:104E3000180000000000000000000000000000005A
:104E4000E00FF83F3C780E6006E007C00300030067
:104E500003FE03FE03C007C006C00EC03CF0F83FCF
:104E6000E00F000000000000000000000000000053
:104E70000C300C300C300C300C300C300C30FC3F53
:104E8000FC3F0C300C300C300C300C300C300C3043
:104E90000C300000000000000000000000000000D6
:104EA00080018001800180018001800180018001FA
:104EB00080018001800180018001800180018001EA
:104EC0008001000000000000000000000000000061
:104ED00000060006000600060006000600060006A2
:104EE0000006000600060006180618063807F0033C
:104EF000E0010000000000000000000000000000D1
:104F000006300618060C060606038601C600660073
:104F10007600DE008E0106030606060C0618063033
:104F2000066000000000000000000000000000001B
:104F300018001800180018001800180018001800B1
:104F40001800180018001800180018001800F81FA2
:104F5000F81F00000000000000000000000000003A
:104F60000EE01EF01EF01EF036D836D836D836D8F1
:104F700066CC66CC66CCC6C6C6C6C6C6C6C686C322
:104F800086C30000000000000000000000000000D8
:104F90000C301C303C303C306C306C30CC30CC3081
:104FA0008C310C330C330C360C360C3C0C3C0C386E
:104FB0000C300000000000000000000000000000B5
:104FC000E007F81F1C380E70066003C003C003C062
:104FD00003C003C003C003C006600E701C38F81F76
:104FE000E0070000000000000000000000000000DA
:104FF000FC0FFC1F0C380C300C300C300C300C1833
:10500000FC1FFC070C000C000C000C000C000C003A
:105010000C00000000000000000000000000000084
:10502000E007F81F1C380E70066003E003C003C0E1
:1050300003C003C003C007E006630E3F1C3CF83FFB
:10504000E0F700C0000000000000000000000000C9
:10505000FE0FFE1F06380630063006300638FE1FEB
:10506000FE0706030606060C06180618063006306C
:1050700006600000000000000000000000000000CA
:10508000E003F80F1C0C0C180C180C001C00F803A3
:10509000E00F001E0038063006300E301C1CF80FE2
:1050A000E007000000000000000000000000000019
:1050B000FE7FFE7F800180018001800180018001F0
:1050C00080018001800180018001800180018001D8
:1050D000800100000000000000000000000000004F
:1050E0000C300C300C300C300C300C300C300C30E0
:1050F0000C300C300C300C300C300C301818F81F01
:10510000E0070000000000000000000000000000B8
:1051100003600630063006300C180C180C18180CFA
:10512000180C380E30063006700760036003C001AB
:10513000C0010000000000000000000000000000AE
:105140000360C361C361C36166336633663366332C
:10515000663366336C1B6C1B6C1B2C1A3C1E380EA2
:10516000380E0000000000000000000000000000F9
:105170000FE00C7018303018700C600EC007800300
:105180008003C003E006700C301C18180C300E6051
:1051900007E0000000000000000000000000000028
:1051A00003C006600C301C383818300C6006E0076D
:1051B000C0038001800180018001800180018001A5
:1051C000800100000000000000000000000000005E
:1051D000FC7FFC7F006000300018000C000600031C
:1051E0008001C0006000300018000C000600FE7F47
:1051F000FE7F000000000000000000000000000032
:10520000E003E00360006000600060006000600098
:10521000600060006000600060006000600060008E
:105220006000600060006000E003E0030000000038
:1052300030003000600060006000C000C000C000AE
:10524000C00180018001800100030003000300060B
:105250000006000000000000000000000000000048
:10526000E003E00300030003000300030003000366
:105270000003000300030003000300030003000316
:105280000003000300030003E003E003000000004C
:105290000000C001C00160036003600330063006F7
:1052A000180C180C000000000000000000000000B6
:1052B00000000000000000000000000000000000EE
:1052C00000000000000000000000000000000000DE
:1052D00000000000000000000000000000000000CE
:1052E000FFFFFFFF000000000000000000000000C2
:1052F0000C000C000C000C000C000C000000000066
:10530000000000000000000000000000000000009D
:10531000000000000000000000000000000000008D
:1053200000000000000000000000F003F8071C0C63
:105330000C0C000FF00FF80C0C0C0C0C1C0FF80FE1
:10534000F018000000000000000000000000000055
:1053500018001800180018001800D803F80F380CAF
:10536000181818181818181818181818380CF80FD2
:10537000D803000000000000000000000000000052
:1053800000000000000000000000C003F007300E25
:10539000180C1800180018001800180C300EF00730
:1053A000C00300000000000000000000000000003A
:1053B00000180018001800180018C01BF01F301C3F
:1053C000181818181818181818181818301CF01F62
:1053D000C01B0000000000000000000000000000F2
:1053E00000000000000000000000C003F00F300CBF
:1053F0001818F81FF81F180018003818301CF00F84
:10540000C0070000000000000000000000000000D5
:10541000800FC00FC000C000C000F007F007C00040
:10542000C000C000C000C000C000C000C000C0007C
:10543000C0000000000000000000000000000000AC
:1054400000000000000000000000E00DF80F180E42
:105450000C0C0C0C0C0C0C0C0C0C0C0C180EF80F8F
:10546000E00D000C0C0C1C06F807F0010000000019
:1054700018001800180018001800D807F80F381C7A
:10548000181818181818181818181818181818189C
:1054900018180000000000000000000000000000DC
:1054A000C000C000000000000000C000C000C0003C
:1054B000C000C000C000C000C000C000C000C000EC
:1054C000C00000000000000000000000000000001C
:1054D000C000C000000000000000C000C000C0000C
:1054E000C000C000C000C000C000C000C000C000BC
:1054F000C000C000C000C000F8007800000000003C
:105500000C000C000C000C000C000C0C0C060C0326
:105510008C01CC006C00FC009C018C030C030C067D
:105520000C0C000000000000000000000000000063
:10553000C000C000C000C000C000C000C000C0006B
:10554000C000C000C000C000C000C000C000C0005B
:10555000C00000000000000000000000000000008B
:10556000000000000000000000007C3CFF7EC7E35C
:1055700083C183C183C183C183C183C183C183C10B
:1055800083C10000000000000000000000000000D7
:10559000000000000000000000009807F80F381C11
:1055A000181818181818181818181818181818187B
:1055B00018180000000000000000000000000000BB
:1055C00000000000000000000000C003F00F300CDD
:1055D000181818181818181818181818300CF00F70
:1055E000C0030000000000000000000000000000F8
:1055F00000000000000000000000D803F80F380C85
:10560000181818181818181818181818380CF80F2F
:10561000D803180018001800180018000000000037
:1056200000000000000000000000C01BF01F301C44
:10563000181818181818181818181818301CF01FEF
:10564000C01B001800180018001800180000000007
:1056500000000000000000000000B007F003700030
:1056600030003000300030003000300030003000BA
:1056700030000000000000000000000000000000FA
:1056800000000000000000000000E003F003380EFE
:10569000180C3800F003C007000C180C380EF00787
:1056A000E003000000000000000000000000000017
:1056B00000008000C000C000C000F007F007C0007C
:1056C000C000C000C000C000C000C000C000C007D3
:1056D0008007000000000000000000000000000043
:1056E000000000000000000000001818181818182A
:1056F000181818181818181818181818381CF01F27
:10570000E0190000000000000000000000000000A0
:10571000000000000000000000000C18180C180C1D
:10572000180C300630063006600360036003C001C9
:10573000C0010000000000000000000000000000A8
:1057400000000000000000000000C141C141C36131
:105750006363636363633636363636361C1C1C1C43
:105760001C1C000000000000000000000000000001
:10577000000000000000000000001C38381C300C45
:10578000600660036003600360036006300C381C31
:105790001C380000000000000000000000000000B5
:1057A0000000000000000000000018303018301821
:1057B0007018600C600CE00CC006C006800380030B
:1057C000800380018001C001F00070000000000033
:1057D00000000000000000000000FC1FFC1F000C87
:1057E000000600038001C000600030001800FC1FAC
:1057F000FC1F00000000000000000000000000008E
:1058000000038001C000C000C000C000C000C00094
:1058100060006000300060004000C000C000C000B8
:10582000C000C000C00080010003000000000000B4
:105830008001800180018001800180018001800160
:105840008001800180018001800180018001800150
:105850008001800180018001800180010000000042
:105860006000C000C00180018001800180018001D2
:105870000003000300060003000180018001800195
:10588000800180018001C000600000000000000075
:105890000000000000000000000000000000F01008
:1058A000F81F080F000000000000000000000000CA
:1058B00000000000000000000000000000000000E8
:1058C00000000000000001020304060708090400AC
:1058D00000080000000000000002000100001000AD
:1058E00002400000000000A0000000000540000091
:1058F000000000C8000000000C4000000000409CB8
:1059000000000000194000000020BCBE00000000A4
:1059100034400000BFC91B8E00000004B5400000E9
:10592000504BCFD06607E2CF010000006C41000071
:105930003E8251AADFEEA73401000000D9420000E8
:10594000DCB5A0E23A301F97FFFFFFFFB44500002F
:10595000FD25A0C8E9A3C14FFFFFFFFFFF3F0000E7
:105960000000008000000000FF3F000000000080F9
:1059700000000000B059000800000020680000008E
:1059800014020008185A00086800002030070000C0
:10599000300200081C00000043000000F8FFFFFF79
:1059A0000C0000000E0000000F0000002E000000A0
:1059B0000000FFFF000000000000000000000000E9
:1059C00000000000000000000000000000000000D7
:1059D000000000000000000000000000000008407F
:1059E000000000000000F03F000000000000084040
:1059F000000000000000F03F000000000000000078
:105A00000000000000000000100000000100000085
:085A1000000000000024F40076
:04000005080001D915
:00000001FF
