:020000040800F2
:1000000028090020A50200082B39000867300008E5
:100010002939000847170008114B000800000000AC
:10002000000000000000000000000000433C000849
:1000300095170008000000002D390008453C000815
:10004000BF020008BF020008BF020008BF0200088C
:10005000BF020008BF020008BF020008BF0200087C
:10006000BF020008BF020008BF020008BF0200086C
:10007000BF020008BF020008BF020008BF0200085C
:10008000BF02000800000000BF020008BF02000815
:10009000BF020008BF020008BF020008BF0200083C
:1000A000BF020008BF020008BF020008BF0200082C
:1000B000BF020008BF020008BF020008BF0200081C
:1000C000BF020008BF020008BF020008BF0200080C
:1000D000BF020008054B0008BF020008BF0200086D
:1000E000BF020008BF020008BF020008BF020008EC
:1000F000BF020008BF020008BF02000800000000A5
:1001000000000000BF02000800000000BF0200085D
:10011000BF02000800000000BF020008BF02000884
:10012000BF020008BF020008BF020008BF020008AB
:10013000BF0200080000000000000000BF0200082D
:10014000BF020008BF02000800000000000000001D
:10015000000000000000000000000000000000009F
:10016000000000000000000000000000BF020008C6
:10017000BF020008000000000000000000000000B6
:1001800000000000BF0200080000000000000000A6
:10019000000000000000000000000000000000005F
:1001A0000000000000000000BF020008BF020008BD
:1001B000BF020008BF020008BF02000800000000E4
:1001C00000000000BF020008000000000000000066
:1001D000BF020008BF02000800F002F800F052F869
:1001E0000AA090E8000C82448344AAF10107DA4592
:1001F00001D100F047F8AFF2090EBAE80F0013F092
:10020000010F18BFFB1A43F00103184714660000E2
:1002100034660000103A24BF78C878C1FAD8520773
:1002200024BF30C830C144BF04680C607047000070
:100230000023002400250026103A28BF78C1FBD8EF
:10024000520728BF30C148BF0B607047662905F0D0
:100250009281642900F04681752900F04381732959
:1002600000F06F85002070471FB505F07FF900F0A2
:100270006DFD04000020002104F038FEE0601FBD89
:1002800010B510BD00F062FE1146FFF7EDFF04F05F
:10029000EDFD00F080FE03B4FFF7F2FF03BC00F0B9
:1002A00083FE00000948804709480047FEE7FEE753
:1002B000FEE7FEE7FEE7FEE7FEE7FEE7FEE7FEE716
:1002C00004480549054A064B70470000A53C000854
:1002D000D901000828030020280900202805002053
:1002E0002805002053EA020C00F069802DE9F04B4C
:1002F0004FF00006002B1FBFB3FA83F503FA05F495
:1003000024FA05F65E4012BF1643B2FA82F502FAED
:1003100005F4C5F120051EBF22FA05FC44EA0C04D1
:10032000203556EA044C4FEA144418BF641C4FF0C1
:1003300000084FF00009904271EB030C39D30029FB
:1003400019BFB1FA81F701FA07F6B0FA80F700FA9F
:1003500007F6C7F120071EBF20FA07FC46EA0C0685
:100360002037B6FBF4FCA7EB0507103F07F01F0B87
:10037000CBF120060CFA0BFB2CFA06F644BFB34671
:100380000026202FA4BF5E464FF0000B5BEA060C50
:1003900008BF4FF0010B19EB0B09ABFB027C48EBDC
:1003A0000608C01B06FB02CC0BFB03CC71EB0C0157
:1003B000C1E70B46024641464846BDE8F08B13B5FF
:1003C0004FF000004FF00001AFF30080BDE81C408B
:1003D000704710B54C1084EA530404D54042C1F173
:1003E000000138BF491E1B4204D55242C3F100032D
:1003F00038BF5B1EFFF776FF14F0804F04D04042F9
:10040000C1F1000138BF491E14F0004F04D0524220
:10041000C3F1000338BF5B1E10BD00000FB41CB554
:10042000074B06AA7B4469460090059800F05FFCE4
:100430000020694600F06EFC1CBC5DF814FB000057
:10044000ED08000070B5044685690068C10601D555
:10045000302600E02026C00707D070BDD4E9012176
:1004600030469047206A401C20626D1EF6D570BD54
:1004700070B5044685690078C00707D170BDD4E91E
:10048000012120209047206A401C20626D1EF6D575
:1004900070BD70B50C460546012A05D02878800647
:1004A00000D5EA69002302E0012305E05B1C9342CA
:1004B00002D2E05C0028F9D1A869E618C01AA86148
:1004C000286A184428622846FFF7BCFF04E0D5E9F3
:1004D000012114F8010B9047B442F8D32846FFF7E6
:1004E000C7FF70BD2DE9F04106460024106875294C
:1004F000314616A510D0AFF30080002802DA404242
:1005000013A507E031688A0701D512A502E0490763
:1005100004D511A5012401E0AFF3008000210A22D7
:1005200006F1240709E0B0FBF2FCB0FBF2F302FB9A
:100530001C00303078541846491C0028F3D123465B
:100540002A463046BDE8F04100F063B900000000E3
:100550002D0000002B000000200000002DE9F047D6
:100560004FF0000A89460446C0F820A02046E16802
:100570008847002876D0252806D0D4E90121904765
:10058000206A401C2062F1E7E16820460026884787
:10059000C4F81CA005460027C4F818A02A2D09D0CD
:1005A000284604F045FC38B304EB8708303DC8F812
:1005B000185019E059F8041B204604EB870291619A
:1005C000E1688847012F054618D1E069002820DA44
:1005D00026F020061DE0D8F8180000EB800005EB9F
:1005E00040003038C8F818002046E16888470546C2
:1005F00004F01EFC0028EED1012F0AD02E2D08D1C8
:100600002046E16888477F1C0546022F46F02006F9
:10061000C4DBA069002803DA404246F00106A0616D
:10062000F00701D026F010066C2D0AD0682D08D0F6
:100630004C2D39D06A2D35D0742D35D07A2D33D04C
:1006400016E0E1682F4620468847B84205460AD1A1
:100650006C2F27D04FF48060E1680643204688471E
:10066000054605E027E06C2F1AD04FF48070064352
:100670000DB3A5F14100192802D8203546F40066D3
:100680004A462946204626604E46FFF7DFFD80B1E8
:1006900001280BD0F61D26F0070000F1080965E7D8
:1006A0004020E4E78020D7E70020D5E706F10409E1
:1006B0005CE7284661E7206ABDE8F08710B5431C77
:1006C00002E010F8011B71B18107FAD14FF001323D
:1006D00002C88C1A8C4314EAC211F9D0C01A0A0657
:1006E00003D0C01E10BDC01A10BD0A0401D0801E68
:1006F00010BD0902FCD0401E10BD4FF000020429BD
:10070000C0F0128010F0030C00F01B80CCF1040C40
:10071000BCF1020F18BF00F8012BA8BF20F8022B74
:10072000A1EB0C0100F00DB85FEAC17C24BF00F81A
:10073000012B00F8012B48BF00F8012B70474FF048
:10074000000200B5134694469646203922BFA0E821
:100750000C50A0E80C50B1F12001BFF4F7AF09072D
:1007600028BFA0E80C5048BF0CC05DF804EB89001E
:1007700028BF40F8042B08BF704748BF20F8022B61
:1007800011F0804F18BF00F8012B70474FF0013C6B
:1007900050F8042B51F8043B9A4221D1A2EB0C03F0
:1007A000934313EACC1317D150F8042B51F8043BB0
:1007B0009A4215D1A2EB0C03934313EACC130BD14D
:1007C00050F8042B51F8043B9A4209D1A2EB0C03D8
:1007D000934313EACC13DBD04FF00000704700BF07
:1007E000D01A01BAB1FA81F101F0180122FA01F030
:1007F000CB40C1F12001DBB2C0B2C01A2CFA01F328
:10080000D11A914311EAC311E6D17047704770477E
:1008100070472DE9F0470D4699469246044600F18F
:1008200024080168880604D5E06921F010012160E0
:1008300000E00120A84201DD471B00E00027A1697C
:100840007A1902EB0900081AA0612078C00602D4C8
:100850002046FFF7F7FD002608E0D4E901211AF849
:1008600006009047206A401C761C20624E45F4DB4F
:100870002078C0060AD52046FFF7E4FD06E0D4E95B
:10088000012130209047206A401C2062381EA7F1C9
:100890000107F4DC07E0D4E9012118F805009047CE
:1008A000206A401C2062281EA5F10105F3DC2046C9
:1008B000FFF7DEFD2078000602D50220BDE8F087B4
:1008C0000120FBE770472DE9FF4F0C461E464FF015
:1008D000FF378BB0D2E90001DDF860800A908A46CC
:1008E000C1F30A5505B93D46002108464FF0000006
:1008F000BAF1000F00F4400005DA00EB80004FF47D
:10090000400101EA50004FEA9059B9F1010F00DDB2
:10091000B9460A9850EA4A000ED044F61050A5F2A3
:10092000FF3545432F14B8F1000F1ED07542291E24
:100930001EDDC9F100021CE0B8F1010F4FF000000C
:1009400001D0302103E0F24305E02154401CB042C5
:10095000FBDB30460022002121540B99C1F80880AE
:10096000C1E900200FB0BDE8F08FBD1B6D1CDEE7B4
:100970004A4600DA694206A800F072FA06AB93E82C
:10098000070003AB83E8070050460A9900F013FB09
:100990008DE80700A0F500501F3800900398002D47
:1009A0000ADD42F21F014A460844002303A90390CE
:1009B000684600F07CFD09E0A0F500504A461F386B
:1009C000002303A90390684600F086FD8DE8070028
:1009D0000004000C03D04FF0FF30410800E0104647
:1009E000B8F1000F03D00022009215461EE0751EDC
:1009F00005D400F0AFF9303262556D1EF9D5B3461B
:100A00000122084302D000227F1C04E02078302815
:100A100001D100227F1E002A099784D01DE0112DEC
:100A200007DA00F097F9303262556D1C50EA010286
:100A3000F5D1084302D00098C8B10EE00021681E2D
:100A400005E0235C625C63542254401E491C8142D1
:100A5000F7DBAB46A81B401E0990002004F80B00F2
:100A60000B98099AC0F80880C0E9002B7AE7112694
:100A70004FF0000857E72DE9F04F88460446D21D95
:100A800022F0070191B0D1E90001CDE90A0104F09B
:100A9000A7F902460B98C00F01D02D2007E020686F
:100AA000810701D52B2002E0202101EAC000032AA2
:100AB000099001D0072A05DB03464146204600F095
:100AC0008FF90BE12078800601D5E06900E006206F
:100AD000B8F1650F814606D0B8F1660F18D0B8F1AD
:100AE000670F70D131E00020B9F1110F009001DBE8
:100AF000112301E009F101030AAA01A90CA8FFF7DB
:100B0000E2FEDDE90C70002609F10105834647E0AD
:100B100001204B4600904FF000470AAA01A90CA8FB
:100B2000FFF7D1FEDDE90DB00C995D46002610B946
:100B300009F101000D18B9EB050003D4C0F1FF362F
:100B400009F10105A5EB09002BE0B9F1010F01DA6C
:100B50004FF001090020B9F1110F0090484601DD66
:100B6000112300E003460AAA01A90CA8FFF7ABFE77
:100B7000DDE90C704D4600268346207800070AD434
:100B8000AB4500DA5D4601A8012D04DD411911F8DD
:100B9000011C302907D04F4502DA17F1040F04DA9F
:100BA000012082460FE06D1EEEE7002F02DCED1BF8
:100BB0003E4403E0781CA84200DD7D1CB81B00F118
:100BC000010A4FF000472078000703D4AA4501DB53
:100BD0004FF0FF3A0021B7F1004F0DF143088DF8B7
:100BE000431024D002202B23002F01DA7F422D2333
:100BF0000A21021EA0F1010000DC5FB197FBF1FCAD
:100C000097FBF1F201FB1C7C17460CF1300C08F845
:100C100001CDEEE7A8F1010003702188090501D597
:100C2000452100E06521A0F1010800F8011C0998A8
:100C30000FA9A1EB0807FF1D00B10120411901EB2D
:100C4000EA70A1693844081A401EA0612078C006E5
:100C500002D42046FFF7F6FB099828B1D4E9012118
:100C60009047206A401C20622078C00622D520468A
:100C7000FFF7E8FB1EE0002E04DBB34502DD01A810
:100C8000805D00E03020D4E901219047206A401CBB
:100C90002062761CAAF101005FEA000A0AD100F086
:100CA00055F8C0680168405CD4E901219047206A8A
:100CB000401C2062281EA5F10105DCDC07E0D4E918
:100CC000012118F8010B9047206A401C2062381E51
:100CD000A7F10107F3DC2046FFF7CAFB032011B0A0
:100CE00041E6000001694A1C02610878704700B5BE
:100CF0008FB0CDE901310021059105497944CDE955
:100D0000031011466846FFF729FC0FB000BD000034
:100D1000E5FFFFFF0A6802F8010B0A60704710B593
:100D2000436913B1AFF3008001E0FFF7B2FB01208C
:100D300010BD127800F124010A7000224A700122CD
:100D4000EDE711684FF0FF32E9E700000048704717
:100D5000E402002030B5B0F10A024FEA900E71F1C2
:100D600000034EEA817EB0EB0E0061EB91014FEA89
:100D7000101E4EEA017E10EB0E0041EB11114FEAFE
:100D8000102E4EEA016E10EB0E0041EB11214FEADE
:100D9000104E4EEA014E10EB0E0041EB114140188F
:100DA00041F100014FEAD00040EA41704FEAD10121
:100DB00010EB80054FEA810444EA907444EB01048F
:100DC0006D1944EB0404521BA3414FF0000348BFCC
:100DD0000A3200D530BD401C41F1000130BD000099
:100DE0002DE9F0411F46044603260168072A01F455
:100DF000006004DB08B116A505E016A503E008B104
:100E000015A500E015A521F010002060A069C01E06
:100E1000A0610FB1401EA0612046FFF713FB4FB148
:100E2000D4E9012138469047206A401C2062C01C4A
:100E3000206206E0206AFAE7D4E9012115F8010BE7
:100E40009047761EF8D22046FFF712FBBDE8F081EE
:100E50004E414E006E616E00494E4600696E66005E
:100E60002DE9F047814616468AB0354878440DC8CA
:100E70008DE80D0032487844801C03AC0DC884E82E
:100E80000D0041F69B300844372190FBF1F290FBB6
:100E9000F1F5A5F1800501FB12041B3C02D564426B
:100EA000012000E00020DFF898A080460027FA44E7
:100EB000AAF1BE0A0EE0E0070AD03246684607EB08
:100EC000470101230AEB810100F006FB8DE80700D2
:100ED00064107F1C002CEED1194F7F44AE3F19E007
:100EE000E80715D007EB04100DF1180A90E80E0082
:100EF0008AE80E00C068F04201D198190890324685
:100F0000012306A903A800F0E7FA03AB83E8070072
:100F10006D10641C002DE3D14FF001033246694689
:100F2000B8F1000F03A802D000F0C1FA01E000F010
:100F3000D3FAC9E90001C9F808200AB0BDE8F08772
:100F40009859000000487047C40200207546FFF71A
:100F5000F9FFAE4605006946534620F00700854676
:100F600018B020B5FFF7ACF9BDE820404FF00006FF
:100F70004FF000074FF000084FF0000B21F0070181
:100F8000AC46ACE8C009ACE8C009ACE8C009ACE8C4
:100F9000C0098D46704710B50446AFF30080204667
:100FA000BDE81040FFF777B901491820ABBEFEE756
:100FB0002600020070475FEA400C08BF91F0000F66
:100FC0004FEA8C234FEAC12243EA51514FEA1C50A9
:100FD00018BF00F5F0404FEA300018BF41F0004163
:100FE0005FEA6C5C00F02980BCF1FF3F08BF40F075
:100FF00080407047130C06BF12044FF0100C4FF0E6
:10100000000C130E04BF12020CF1080C130F04BFE6
:1010100012010CF1040C930F04BF92000CF1020CAE
:10102000D30F04BF52000CF1010C11464FF0000227
:10103000A0F11F00A0EB0C00704711F0004F08BF9B
:10104000704731F000413FF4D5AF0B0C06BF0904E7
:101050004FF0100C4FF0000C0B0E04BF09020CF106
:10106000080C0B0F04BF09010CF1040C8B0F04BF1B
:1010700089000CF1020CCB0F04BF49000CF1010CEC
:10108000CCF12003A0EB0C0022FA03F302FA0CF2DD
:1010900041EA030100F10100704720F07F4C80EA33
:1010A000030023F07F47ACEB070303F57C5300F00C
:1010B000004003F1FF032DE980494FEA154B09B4C5
:1010C0004FEA144325EA0B4E24EA03480FF20426A4
:1010D00006EB132749083E785FEA320203FB0667F6
:1010E000C7F5000707FB06F64FEA54374FEAD64626
:1010F00006F1020607FB066CCCF1005C4FEA1C47C8
:101100002CEA074C07FB06F40CFB06F504EB15462E
:101110004FEA961634BF00204FF000404FEAD13717
:1011200006FB07FC4FEA1C4C0CFB0BF7D21B03FB26
:101130000CF761EB07010CFB0EF7B0EB074072EB0D
:1011400017420CFB08F734BFA2EB0742B2EB074291
:1011500061EB17414FEA0C444FEA910706FB07FC8D
:101160004FEA1C4C0CFB0BF7B0EBC74072EB57324D
:1011700003FB0CF734BFA2EBC742B2EBC74261EBF3
:1011800057310CFB0EF7B0EBC70072EB57720CFB3C
:1011900008F734BFA2EBC702B2EBC70261EB57718D
:1011A000039F4FEA816141EA921104EBCC044FEABC
:1011B000D1374FEA826206FB07FC42EA90124FEAFF
:1011C00080604FEA1C4C0CFB0BF7D21B03FB0CF7A7
:1011D00061EB07010CFB0EF7B0EB074072EB174217
:1011E0000CFB08F734BFA2EB0742B2EB074261EBFE
:1011F00017414FEA8C554FEA910704EB9C2406FBFC
:1012000007FC4FEA1C4C0CFB0BF7B0EBC74072EB32
:10121000573203FB0CF734BFA2EBC742B2EBC74215
:1012200061EB57310CFB0EF7B0EBC70072EB577256
:101230000CFB08F734BFA2EBC702B2EBC70261EBAD
:10124000577115EB4C254FEA816141EA92114FEA43
:1012500082624FEAD13742EA901206FB07FC44F162
:1012600000044FEA80604FEA1C4C0CFB0BF7D21BCA
:1012700003FB0CF761EB07010CFB0EF7B0EB07402B
:1012800072EB17420CFB08F734BFA2EB0742B2EB3C
:10129000074261EB174115EB1C154FEA813141EA1A
:1012A00092414FEA823242EA90424FEA80304FEA5E
:1012B0000C7644F1000448EA03434EEA0B484FF031
:1012C000000EB2EB080C71EB030724BF62463946EF
:1012D0004EEB0E0E4FF0000B0018524149414BEB04
:1012E0000B0BB2EB080C71EB03077BF1000B24BF77
:1012F000624639464EEB0E0E4FF0000B001852417D
:1013000049414BEB0B0BB2EB080C71EB03077BF184
:10131000000B24BF624639464EEB0E0E51EA02071F
:1013200018BF46F0010616EB0E7655F1000254F197
:10133000000103D5BDE88901BDE80088BDE8890149
:10134000BDE80048B619524141EB0101A3F1010388
:10135000704780807F7E7D7C7B7A79787776767522
:101360007473727171706F6E6E6D6C6C6B6A6A699A
:101370006868676666656464636362616160605F34
:101380005F5E5E5D5D5C5C5B5B5A5A5959585857AD
:101390005756565555555454535352525251515015
:1013A00050504F4F4F4E4E4D4D4D4C4C4C4B4B4B68
:1013B0004A4A4A49494948484847474747464646AE
:1013C00045454544444444434343434242424241E9
:1013D0004141002B9C4630D477002BD01CB54FEAFE
:1013E000370703B44FF010004FF01001BAF1000FAF
:1013F00006D0BCF1000FDCBF40F0080040F008014F
:101400004FF000000FBCBDE810400BF1010BBBF129
:10141000010F08BF5FEA170722BF12F1010211F1A5
:1014200001014FF0004143F1000300F0004043EAA6
:1014300000007047F9D35708D0E746EA064613F193
:10144000400F4FEA16461FDD13F1200FDFBF164392
:101450000A46002120335B42BED0C3F1200746EA92
:10146000064602FA07F74FEA164646EA0706C3F1B0
:10147000200722FA03F201FA07F721FA03F14FF0ED
:10148000000342EA0702A7E746EA020646EA0646E2
:101490004FEA164646EA0106BCBF46EA0646360C47
:1014A0004FF000034FF000024FF0000194E72DE9E8
:1014B000804C9A46934670B491E8380007C831EAE8
:1014C000400C48BF34EA430C03D5FFF7E6FDFFF7B5
:1014D00080FFF0BCBDE8008C2DE9804C9A46934615
:1014E00070B491E8380007C810F0804F08BF13F0BF
:1014F000804F03D100F005F8FFF76BFFF0BCBDE8AB
:10150000008C20F07F4780EA030023F07F4C07EB3C
:101510000C03A3F57C5300F00040A3F1FE0392F00E
:10152000000F00F0B38095F0000F00F077802DE9F8
:1015300001494FEA11404FEA144621EA004800FBF6
:1015400006FC24EA064708FB06F607FB08F800FB42
:1015500007F718EB06484CEB164C4FEA124B18EB0A
:1015600007484FEA15464CEB174022EA0B4E0BFB9F
:1015700006FC25EA06470EFB06F607FB0EFE0BFBF4
:1015800007F71EEB064E4CEB164C4FF000061EEB19
:10159000074E4CEB174B18EB0B0840F1000018EB13
:1015A0000E0B58EB000840F100008F1A4FF00001BD
:1015B0003CBFC943661B14BFB5EB040C00213CBF04
:1015C000C943F61B4FEA17444EEA8E0E27EA04453C
:1015D0004FEA1C4704FB07622CEA074C05FB07F7A0
:1015E0000CFB05F604FB0CFC16EB074642EB17421E
:1015F00016EB0C4642EB1C421BEB060658EB0202B4
:10160000414146EA9E0601D5BDE80189B61952411D
:1016100041EB0101A3F10103BDE801894FEA144543
:101620004FEA114724EA054621EA074C05FB07F477
:1016300006FB07F70CFB06F105FB0CFC11EB074161
:1016400044EB17444FEA124711EB0C4144EB1C44A6
:1016500022EA074C05FB07F206FB07F70CFB06F630
:1016600005FB0CFC16EB074642EB174216EB0C464B
:1016700042EB1C456A1854F1000148BF7047B61987
:10168000524141EB0101A3F10103704795F0000FB6
:1016900037D04FEA11424FEA144721EA024624EAC2
:1016A000074C02FB07F106FB07F70CFB06F402FBF5
:1016B0000CFC14EB074441EB17414FEA154714EBC0
:1016C0000C4441EB1C4125EA074C02FB07F506FBE5
:1016D00007F70CFB06F602FB0CFC16EB074645EB86
:1016E000174516EB0C4645EB1C42121951F100014F
:1016F00048BF7047B619524141EB0101A3F1010304
:1017000070474FEA14454FEA114724EA054621EA9B
:10171000074C05FB07F106FB07F70CFB06F24FF041
:10172000000605FB0CFC12EB074241EB174112EBE4
:101730000C4251EB1C4148BF7047921841EB01012C
:10174000A3F101037047FEE71149497A162918D120
:101750000178432901D0562918D141784E2915D155
:101760008178422912D1C17852290FD101793A29C1
:101770000CD1417A3A2909D10A21425C303A0A2A2D
:1017800001D300207047491C1629F6DB0120704761
:10179000080000207047002240F6B83306E0002120
:1017A000491C89B29942FBD3521C92B28242F6D3B1
:1017B000704772B6FEE700000649002000EB0012F9
:1017C0000A44127C002A04D0401CC0B20828F5D379
:1017D000FF2070475D01002010B590F825300021F2
:1017E0000122022B03D00421C163012122E00368FE
:1017F0001C6824F00E041C60836C1C6824F4807444
:101800001C6003681C6824F001041C6090F84430DC
:10181000046C03F01F0302FA03F36360D0E913348E
:101820005C60436D33B11C6824F480741C60D0E9A3
:1018300016345C6080F82520002280F824200846B9
:1018400010BD70B590F82520002401212346022AFE
:1018500007D00422C26380F8251080F824300124C8
:1018600029E00268156825F00E0515600268156804
:1018700025F001051560826C156825F480751560EA
:1018800090F84420056C02F01F0201FA02F26A602F
:10189000D0E913255560426D32B1156825F4807585
:1018A0001560D0E91625556080F8251080F82430A1
:1018B000816B01B18847204670BD000070B50446B9
:1018C00000F03CF90546601C02D00448406804441E
:1018D00000F034F9401BA042FAD370BD480000204C
:1018E0002DE9F04FDFF82092002301260324A9F10F
:1018F000040B85B00F2709F1040AABF1040EFAE0DE
:1019000006FA03F52A407CD091F804C00CF0030CD1
:10191000BCF1010F02D0BCF1020F26D1D0F808C0F3
:10192000CDF800C04FEA430C04FA0CF8CDF810C013
:10193000DDF800C02CEA080CCDF800C0D1F80C800E
:10194000DDF810C008FA0CF8DDF800C048EA0C0811
:10195000C0F80880D0F804C02CEA050C0D79C5F356
:1019600000159D4045EA0C0545600D79ED43AD0736
:101970000ED0C5684FEA430804FA08FC25EA0C05B6
:10198000D1F808C00CFA08FC4CEA050CC0F80CC0F1
:101990000D7905F00305022D16D1DD0800EB850C4D
:1019A000CDF808C0DCF820805D074FEAD56C07FA57
:1019B0000CF528EA05080D6905FA0CF5DDF808C0F4
:1019C00045EA0805CCF8205005684FEA430CCDF8ED
:1019D00008C004FA0CFC25EA0C0591F804C00CF0D0
:1019E0000308DDF808C008FA0CF848EA0508C0F852
:1019F00000804D6815F4403F7CD0444DD5F860C060
:101A000000E077E04CF0010CC5F860C02D6E23F0CB
:101A1000030C05F0010500953D4D65440295AD6848
:101A20004FEA837C4FEA1C7807FA08FC25EA0C058C
:101A3000B0F1904F06D0DFF8DCC0604505D14FF023
:101A4000010C20E04FF0000C1DE0DFF8CCC0604539
:101A500002D14FF0020C16E0DFF8C0C0604502D1A1
:101A60004FF0030C0FE0DFF8B8C0604502D14FF033
:101A7000040C08E0DFF8ACC0604502D14FF0050C63
:101A800001E04FF0060C0CFA08FC4CEA050C029D34
:101A9000C5F808C0D9F80050CC46D1F80480954369
:101AA0005FEAC82800D51543CCF80050DAF800509A
:101AB000D446D1F8048095435FEA882800D51543C1
:101AC000CCF80050DBF80050DC46D1F80480954398
:101AD0005FEA883800D51543CCF80050DEF8005096
:101AE000F446D1F8048095435FEAC83800D5154321
:101AF000CCF800505B1C0A6832FA03F57FF400AFA3
:101B000005B0BDE8F08F000008040140001002405D
:101B1000000001400004004800080048000C004894
:101B200000100048001400480069084000D001205F
:101B300070470AB1816170478162704701488068CF
:101B40007047000048000020024881684268114444
:101B5000816070474800002010B50024032000F089
:101B600073F80F2000F008F808B1012401E000F03C
:101B700025F8204610BD000070B50E4E0546002425
:101B8000706898B14FF47A71B1FBF0F00A490968B6
:101B9000B1FBF0F000F062FD40B9102D06D200223A
:101BA0002946501E00F030F8356000E00124204640
:101BB00070BD000048000020540000200A4882B098
:101BC000016E41F001010166016E01F00101009119
:101BD000816D41F080518165806D00F080500090F2
:101BE00002B000F0A1B8000000100240002809DB9C
:101BF00000F01F02012191404009800000F1E02027
:101C0000C0F8001170470000F0B40E4B1B680C4682
:101C1000C3F30223C3F10705042D00D90425191DC0
:101C2000072901D2002300E0DB1E012606FA05F198
:101C3000491E214099409E40761E16403143F0BC1B
:101C400003F0E6B80CED00E0064900F00702086872
:101C50004FF6FF03184040EA0220034A1043086091
:101C6000704700000CED00E00000FA052B492C4BFA
:101C70000A6832214A432B4940B1B0F5007F086819
:101C800029D020F4C06040F480602CE00868C0F3E4
:101C90004120022804D051F8800F20F4807022E007
:101CA000D1F8800020F48070C1F88000086820F42A
:101CB000C06040F400700860B2FBF3F0401C00E02C
:101CC000401E4A69520501D50028F9D148694005EE
:101CD0000AD503207047C0F34120022806D051F8EE
:101CE000800F40F48070086000207047D1F88000B9
:101CF00040F48070C1F88000086820F4C06040F4AF
:101D000000700860B2FBF3F0401C00E0401E4A691E
:101D10005205DBD50028F9D1D8E700005400002097
:101D200040420F00007000400248816841F4804149
:101D300081607047007000402DE9F8430446006858
:101D400000269D4D00035ED5A86D0027C00008D475
:101D5000A86D40F08050A865A86D012700F0805064
:101D60000090DFF85892D9F8001041F48071C9F85A
:101D70000010FFF7E3FE804606E000BFFFF7DEFE3F
:101D8000A0EB080002282BD8D9F80000C005F5D533
:101D9000D5F8900010F4407014D0216C814211D01D
:101DA000D5F89000D5F8901020F4407041F48031BF
:101DB000C5F89010D5F8901021F48031C5F8901036
:101DC000C5F89000C00711D0FFF7B8FE804641F279
:101DD000883907E0FFF7B2FEA0EB0801494501D9B9
:101DE00003260BE0D5F890008007F3D5D5F89000D6
:101DF000216C20F440700843C5F890001FB1A86D15
:101E000020F08050A8652078C00707D0D5F888005A
:101E1000616820F003000843C5F888002078800737
:101E200007D5D5F88800A16820F00C000843C5F854
:101E300088002078400707D5D5F88800E16820F0B1
:101E400030000843C5F888002078000707D5D5F88A
:101E50008800216920F0C0000843C5F88800207878
:101E6000800607D5D5F88800616920F440600843F2
:101E7000C5F888002078400607D5D5F88800A16904
:101E800020F440500843C5F888002078000607D5A4
:101E9000D5F88800E16920F440400843C5F888007F
:101EA0002088C00507D5D5F88800216A20F4403085
:101EB0000843C5F888002088800507D5D5F8880034
:101EC000616A20F440200843C5F888002088400556
:101ED0000FD5D5F88800A16A20F440100843C5F852
:101EE0008800A06AB0F5801F03D1E86840F4801034
:101EF000E860208800050FD5D5F88800E16A20F455
:101F000040000843C5F88800E06AB0F5800F03D1AF
:101F1000E86840F48010E8602088C0040FD5D5F848
:101F20008800216B20F040700843C5F88800206BC2
:101F3000B0F1807F03D1E86840F48010E860208829
:101F40004FF0006180040ED5D5F88800626B20F058
:101F500040601043C5F88800606B884203D1E86890
:101F600040F48010E860208840040ED5D5F8880041
:101F7000A26B20F040601043C5F88800A06B884237
:101F800003D1E86840F48010E860208800040FD591
:101F9000D5F88800E16B20F040500843C5F8880070
:101FA000E06BB0F1805F03D1E86840F48030E86016
:101FB0003046BDE8F8830000001002400070004089
:101FC0002DE9F0470E4605004FF0000725D0DFF859
:101FD000AC81D8F8000000F00F00B0420CD2D8F865
:101FE000001021F00F013143C8F80010D8F80000AC
:101FF00000F00F00B04210D12968614CC80741F2CF
:10200000883A5AD06868DFF87C91032808D0022803
:1020100020682DD0400500282CDB0120BDE8F0878A
:1020200020688001F9D5E06800F00302E068C0F3A1
:102030000310401C032A19D0534A00BFB2FBF0F032
:10204000E268C2F306225043E268C2F34162521CC6
:102050005200B0FBF2F0484517D9A06810F0F00F1D
:102060000CD0880711D5A86840B10EE0474AE5E7D3
:102070008003D0E700F0B6F8484506D9A06820F004
:10208000F00040F08000A0608027A068696820F020
:1020900003000843A060FFF751FD814606E000BF42
:1020A000FFF74CFDA0EB090151453AD8A0686968DB
:1020B00000F00C00B0EB810FF2D12868810714D535
:1020C000400703D5A06840F4E060A06028780007CE
:1020D00005D5A06820F4605040F4E060A060A068DE
:1020E000A96820F0F000084304E0802F03D1A06825
:1020F00020F0F000A060D8F80010404601F00F0179
:10210000B14216D9016821F00F0131430160FFF798
:1021100015FD074607E000BFFFF710FDC11B514545
:1021200001D903207AE7D8F8000000F00F00B04290
:10213000F2D12878400705D5A068E96820F4E0606E
:102140000843A0602878000706D5A068296920F414
:10215000605040EAC100A06000F044F8A1680C4A59
:10216000C1F30311515C01F01F01C8400949086027
:1021700009480068BDE8F047FFF7FEBC00200240B8
:102180000010024000B4C4040024F40000127A00DD
:1021900072670008540000204800002005480649E6
:1021A00000688968054AC1F30221515C01F01F01F2
:1021B000C8407047540000200010024082670008A9
:1021C0000548064900688968054AC1F3C221515C87
:1021D00001F01F01C8407047540000200010024069
:1021E00082670008184910B58868C0F38102174853
:1021F000012A0BD08A684310C2F38102022A06D05A
:102200008A68C2F38102032A03D0002010BD184659
:1022100010BDCA6802F00304CA68C2F30312521C5C
:10222000032C02D0B0FBF2F001E0B3FBF2F0CA687D
:10223000C968C2F306225043C1F34161491C4900F9
:10224000B0FBF1F010BD0000001002400024F400CB
:102250002DE9F84304007AD02078FA4DC00747D022
:10226000A868E96800F00C0001F003010C2802D016
:10227000082817D001E0032914D06068B0F5803F2A
:1022800017D0B0F5A02F286817D020F48030286030
:10229000286820F4802028606068E0B1FFF74EFCD9
:1022A000064614E02868800322D560680028D2D052
:1022B0001EE0286840F48030EDE740F4802028607C
:1022C000F7E700BFFFF73AFC801B642870D8286846
:1022D0008003F7D50CE0FFF731FC064605E000BFB0
:1022E000FFF72CFC801B6428F0D828688003F7D403
:1022F000207880074CD5A868E96800F00C0001F050
:1023000003010C2802D004280DD001E002290AD0D4
:10231000E068002828682BD040F480702860FFF720
:102320000DFC064619E02868400502D5E068002843
:1023300091D06868217C20F0FE4040EA016068602E
:10234000C1480068FFF718FC002800D120E076E1C2
:10235000FFF7F4FB801B0228B8D828684005F7D5A2
:102360006868217C20F0FE4040EA016068600FE070
:1023700020F480702860FFF7E1FB064605E000BF0F
:10238000FFF7DCFB801B0228A0D828684005F7D4A3
:102390002078000729D560690028D5F8940013D06B
:1023A00040F00100C5F89400FFF7C8FB064606E0C0
:1023B00090E000BFFFF7C2FB801B022886D8D5F84B
:1023C00094008007F6D510E020F00100C5F89400D5
:1023D000FFF7B4FB064604E0FFF7B0FB801B0228C2
:1023E00078D8D5F894008007F6D42078400761D5D6
:1023F000A86D0026C00008D4A86D40F08050A865E4
:10240000A86D012600F08050009090480168C90531
:1024100011D40168804641F480710160FFF78EFBA2
:10242000074604E0FFF78AFBC01B022852D8D8F801
:102430000000C005F6D5A068012815D00528D5F8FC
:10244000900016D020F00100C5F89000D5F890005B
:1024500020F00400C5F89000A06841F28838B8B1B7
:10246000FFF76CFB07460EE0D5F8900040F0010046
:10247000F0E740F00400C5F89000F5E7FFF75EFBD9
:10248000C11B414526D8D5F890008007F6D50CE051
:10249000FFF754FB074604E0FFF750FBC11B414523
:1024A00018D8D5F890008007F6D41EB1A86D20F09A
:1024B0008050A8652078800629D5A0690028D5F825
:1024C000980013D040F00100C5F89800FFF736FBE4
:1024D000064606E077E000BFFFF730FB801B0228CE
:1024E00077D8D5F898008007F6D510E020F00100E5
:1024F000C5F89800FFF722FB064604E0FFF71EFB35
:10250000801B022865D8D5F898008007F6D4E069CA
:10251000F0B3A968C1F38101032961D002282868BA
:1025200020F0807028600BD0E86820F00300E8609D
:10253000E86847490840E860FFF700FB04464BE0C5
:10254000FFF7FCFA064604E0FFF7F8FA801B0228C2
:102550003FD828688001F7D4F4E908016FF00F0232
:1025600002EB01110843218A5204490802EB415150
:10257000A26841EA02210843217D4FF07E424908CA
:1025800002EB41610843217B40EAC160E96800E059
:1025900062E0304A11400843E860286840F08070EB
:1025A0002860E86840F08070E860FFF7C7FA0446EA
:1025B00005E000BFFFF7C2FA001B022809D828680F
:1025C0008001F7D548E004E0FFF7B8FA001B0228C5
:1025D00002D90320BDE8F88328688001F4D43BE0E9
:1025E0000128F7D0E868226A00F00301914226D161
:1025F000616A00F0F0020901103991421FD1A26A0C
:1026000000F4FE41B1EB022F19D194F82C2000F018
:102610007841B1EBC26F12D1218E00F4C00249089B
:102620004905A1F50011914209D194F8341000F048
:10263000C06049084906A1F1007181420CD0012017
:10264000C8E7000000100240480000200070004071
:10265000FFFFEEFE0C809F010020BBE710B5401E7F
:10266000B0F1807F01D3012010BD4FF0E024606104
:102670000F21601702F0CCFB0020A0610720206131
:10268000002010BDF0B590F83C20012A4AD001226C
:1026900080F83C20CA688B6822F440721A434B6869
:1026A00022F480621A430B6822F400621A430B6919
:1026B00022F480521A434B6922F400521A430B6BE6
:1026C00022F480421A430B8B22F4702242EA034226
:1026D000154C03680026154DA34201D0AB4203D12F
:1026E000CF6922F080523A43A34201D0AB4214D1C9
:1026F0000F8D22F4700242EA07520F6A22F08072B4
:102700003A434F6A22F000723A43A34201D0AB42EF
:1027100003D1C96A22F000520A435A6480F83C602F
:102720000020F0BD0220F0BD002C0140003401402B
:1027300010B5040003D094F83D0010B107E001206B
:1027400010BD002084F83C00204600F023F8022051
:1027500084F83D00211D206801F0ACFA012084F8C6
:10276000480084F83E0084F83F0084F8400084F874
:10277000410084F8420084F8430084F8440084F85F
:10278000450084F8460084F8470084F83D000020A6
:1027900010BD000010B586B0044614216846FDF750
:1027A000CEFF1249206888421ED11148016E41F4C3
:1027B00080210166016E01F480210591C16C41F018
:1027C0000101C164C06C694600F0010005908020E1
:1027D00000900220019000200290039001200490BC
:1027E0004FF09040FFF77CF806B010BD0048014064
:1027F0000010024070B5044690F83C0000260D46DB
:1028000001280BD0012084F83C000C2A4AD007DCB8
:1028100082B1042A20D0082A06D131E0022070BDFE
:10282000102A53D0142A63D00126002084F83C00DB
:10283000304670BD206801F0A3FA2068816941F03C
:10284000080181612068816921F0040181612068AB
:1028500081692A69114311E0206801F0DFFA2068DC
:10286000816941F4006181612068816921F480619E
:102870008161206881692A6941EA02218161D4E786
:10288000206801F013FB2068C16941F00801C161B3
:102890002068C16921F00401C1612068C1692A6909
:1028A000114311E0206801F049FB2068C16941F43F
:1028B0000061C1612068C16921F48061C161206843
:1028C000C1692A6941EA0221C161AEE7206801F0CD
:1028D0007DFB2068016D41F0080101652068016DF4
:1028E00021F0040101652068016D2A69114311E09E
:1028F000206801F0A3FB2068016D41F400610165CF
:102900002068016D21F4806101652068016D2A69EC
:1029100041EA0221016588E710B5040003D094F86C
:102920003D0010B107E0012010BD002084F83C00FC
:10293000204600F022F8022084F83D00211D206886
:1029400001F0B8F9012084F8480084F83E0084F8CA
:102950003F0084F8400084F8410084F8420084F885
:10296000430084F8440084F8450084F8460084F865
:10297000470084F83D00002010BD704730B5044684
:10298000022269B1042912D0082917D00C291CD0C1
:10299000102921D094F84300012824D0012030BD13
:1029A00094F83E000128F9D184F83E201DE094F807
:1029B0003F000128F2D184F83F2016E094F840004F
:1029C0000128EBD184F840200FE094F84100012861
:1029D000E4D184F8412008E094F842000128DDD1D8
:1029E00084F8422001E084F843200122206801F0AD
:1029F000B9F9194B20681949194A984209D08842F7
:102A000007D0904205D0174DA84202D0164DA842DB
:102A100003D1456C45F400454564206898420CD0CC
:102A2000B0F1804F09D0114B984206D0104B98421C
:102A300003D0884201D0904207D181680D4A1140ED
:102A4000062906D0B1F5803F03D0016841F00101AD
:102A50000160002030BD0000002C01400034014026
:102A60000040014000440140004801400004004093
:102A7000000800400700010090F88010012918D0DC
:102A8000012180F880102421C0F8841050F8641BC4
:102A90000A680B6823F001030B6022F0005100224A
:102AA000026050F8643C19602021016202771046F0
:102AB0007047022070477047704770B5044690F821
:102AC000800001281DD0012084F880002420C4F853
:102AD000840020680568026822F001020260206814
:102AE000826822F060620A438260204601F0DEFACA
:102AF000206805602020C4F88400002084F880004D
:102B000070BD022070BD70B5044690F880000128A9
:102B10001DD0012084F880002420C4F8840020689F
:102B20000568026822F0010202602068826822F0D3
:102B300060420A438260204601F0B8FA20680560CE
:102B40002020C4F88400002084F8800070BD02209A
:102B500070BD7047704770472DE9F0410368044627
:102B6000D86919689A6840F60F0528424FF00005A9
:102B700009D186067ED501F0200602F080573E433B
:102B800078D0216F27E1A94EA94F16400F40374357
:102B900070D0C70709D0CF0507D501271F62D4F829
:102BA0008C3043F00103C4F88C3083070AD5D30777
:102BB00008D0276802233B62D4F88C3043F004032A
:102BC000C4F88C3043070AD5D30708D027680423FC
:102BD0003B62D4F88C3043F00203C4F88C30030716
:102BE0000CD501F02003334308D026680823336254
:102BF000D4F88C3043F00803C4F88C3003050BD5AF
:102C00004B0109D526684FF400633362D4F88C3049
:102C100043F02003C4F88C30D4F88C30002B3AD029
:102C2000800609D501F0200002F08051084303D04E
:102C3000216F09B120468847D4F88C002168896843
:102C4000490602D410F0280F27D0204601F0EEFAF2
:102C50002068806840061BD52068083050E8001FB7
:102C600021F0400140E80012002AF5D1E06F78B170
:102C7000704900E017E08163E06FFEF7E2FD002895
:102C800009D0E06F816B00E02046BDE8F0410847C5
:102C90002046FFF760FFBDE8F0812046FFF75BFFAD
:102CA000C4F88C50F7E7E76E2026012F7ED1C706C7
:102CB0007CD5CF067AD5102018622068806840063F
:102CC00042D5E16F086840680004000CE3D0B4F816
:102CD0005C208242DFD9A4F85E00086800688006A4
:102CE0002BD4206850E8001F21F4807140E80012C6
:102CF000002AF6D12068083050E8001F21F00101B9
:102D000040E80012002AF5D12068083050E8001F82
:102D100021F0400140E80012002AF5D1C4F8886093
:102D2000E566216851E8000F20F0100041E800023C
:102D3000002AF6D1E06FFEF74FFDB4F85C00B4F85E
:102D40005E10401A81B22CE0B4F85C00B4F85E105A
:102D5000401A81B2B4F85E0000289CD000299AD0B5
:102D6000226852E8000F20F4907042E80003002B24
:102D7000F6D12E4BDB432068083050E8002F1A4074
:102D800040E80027002FF6D1C4F88860E566256783
:102D9000226852E8000F20F0100042E80003002BE8
:102DA000F6D12046FFF787FE75E7FFE7C70209D592
:102DB000570207D54FF4801018622046BDE8F04155
:102DC000FFF7C8BE03060AD501F0800302F4000233
:102DD000134304D0616F00297FF456AF5BE74206CE
:102DE00011D54A060FD52046016851E8002F22F080
:102DF000400241E80023002BF6D1C0F8846045670B
:102E000000F030F947E7020206D54A0004D5204613
:102E1000BDE8F041FFF79DBEC001C5D50029C3DA6A
:102E20002046BDE8F041FFF747BE0000010000105A
:102E3000200100041942000810B5040003D0D4F8A2
:102E4000840010B107E0012010BD002084F880004C
:102E5000204600F027F82420C4F884002068016888
:102E600021F001010160204601F022FC0128EBD095
:102E7000A06A10B1204601F03BF92068416821F4B6
:102E8000904141602068816821F02A0181602068BA
:102E9000016841F0010101602046BDE8104001F0E9
:102EA0008BB9000010B598B00446142111A8FDF7A5
:102EB00046FC44216846FDF742FC1B4920688842D5
:102EC00030D101200024CDE900046846FEF734FF2C
:102ED00008B1FEF76EFC1548016E41F480410166B1
:102EE000016E01F480411691C16C41F00101C16491
:102EF000C06C11A900F0010016904FF4C060119051
:102F00000220CDE912040720CDE914404FF0904093
:102F1000FEF7E6FC002201212520FEF775FE2520A4
:102F2000FEF764FE18B010BD0038014000100240EA
:102F300030B4D0F88830202B20D1E1B1DAB190F84C
:102F40008030012B1AD0012380F880300023C36623
:102F50000B4C0368A3420BD05B681B0208D50468C6
:102F600054E8003F43F0806344E80035002DF6D17B
:102F700030BC01F0D7BC012030BC70470220FBE719
:102F8000008000400549064B487A8A7A1A54401C52
:102F9000487201220A310348FFF7CABF0800002027
:102FA0006D000020340200202DE9F8430446D0F8DB
:102FB00084001F4616460D46202851D1DDB1D6B1FA
:102FC00094F8800001284BD0012084F880004FF055
:102FD0000008C4F88C802120C4F884001834FEF75F
:102FE000ADFDA6878146E68754F8100C183CB0F575
:102FF000805F03D004E00120BDE8F883206920B1A0
:103000002E46002584F8808010E00026FAE7802113
:10301000204601F013FDB8B9C6B116F8010B2168BE
:103020008862B4F85600401EA4F85600B4F8560062
:103030004B464FF0000200970028E8D14FF04001C6
:10304000204601F0FBFC30B10320D5E735F8020B38
:10305000C0F30800E3E72020C4F884000020CBE799
:103060000220C9E77047FEE710B53B482DED048B01
:1030700001683A4CA269891A64291CD90068A061C8
:1030800000F078F8E0706179012220EA01012171F5
:1030900060710020012911D002299FED319B13D0CE
:1030A000032929D0042906D1A3782F49EBB3A070B6
:1030B000642009684863BDEC048B10BD617809B1D8
:1030C0006070F8E76270F6E760780028F3D094ED5E
:1030D0000C0B53EC192B51EC100B01F01DFFC4E944
:1030E0000C0194ED0E0B53EC192B51EC100B01F06D
:1030F00013FFC4E90E01DEE760789FED1C8B00280A
:10310000D9D094ED0C0B53EC192B51EC100B02F0B1
:1031100043F941EC100B53EC182B84ED0C0B02F02F
:1031200001F801D284ED0C8B00E013E094ED0E0B5E
:1031300053EC192B51EC100B02F02EF941EC100B53
:1031400053EC182B84ED0E0B01F0ECFFB3D284EDA1
:103150000E8BB0E7A270ACE7500000200800002002
:10316000000000000000E03FE80100200000000037
:103170000000000070B50E4D01212846FEF7D4FC7A
:1031800000B9012402212846FEF7CEFC00B9022432
:1031900004212846FEF7C8FC00B9032401214FF0A2
:1031A0009040FEF7C1FC00B90424204670BD000029
:1031B0000004004800B585B014216846FDF7BFFA49
:1031C0004FF6FF70009000200321CDE9020101902D
:1031D00069460248FEF784FB05B000BD00080048C0
:1031E00000B585B014216846FDF7A9FA4FF6FF70C7
:1031F0000090012001900320039000200290694676
:103200000248FEF76DFB05B000BD00000008004855
:1032100070B5002406462146204600F003F900F070
:1032200041F94FF49635304600F010F9641CAC4279
:10323000F9D370BD30B587B014216846FDF77FFA29
:103240001E48C16C41F00401C164C16C01F004016D
:103250000591C16C41F00101C164C16C01F0010133
:103260000591C16C41F00201C164C06C012500F000
:10327000020005904FF44870CDE900050024039446
:10328000694602940E48FEF72BFB28020394009037
:10329000CDE901544FF0904469462046FEF720FBEB
:1032A000FFF79EFFA06940F48070A06104481830C9
:1032B000016841F40871016007B030BD00100240A0
:1032C00000040048203AD2B2034B02EB420203EB67
:1032D000021200F019B800007A550008F0B50E4649
:1032E0000746002540F23F1407E021463846FFF725
:1032F000E9FF103C6D1CA4B2761C3278002A01D084
:10330000142DF2D3F0BD00002DE9F04791468A4616
:103310000026044600F086F8DFF84080012700BF51
:1033200000F0C0F85FF0000539F8160007FA05F163
:103330000842404601D1408800E0008800F086F84D
:103340006D1C102DF0D3641CE4B25146204600F0F1
:1033500069F8761C182EE3D3BDE8F0870000002042
:1033600010B5FFF767FF002000F014F8084CA080AC
:10337000A088A0F50241303906D000F061FB0020A2
:1033800000F008F8A08010BD00F0D1FAF7E70000C7
:103390000000002070B51D490A6842F400720A60FE
:1033A0000A6842F480720A60184C103C226842F0AD
:1033B00020022260164A1060086840F02000086071
:1033C00000BF00BF00BF206840F0200020602068E0
:1033D00040F480702060FFF7EDFE4FF09041886A66
:1033E00040F48070886200BF00BF00BF0848001F23
:1033F000006885B2886940F480708861FFF7F0FE4C
:10340000206840F400702060284670BD2804004801
:103410001408004801B5BDF800000149488008BD06
:103420000000002010B50C460146202000F068F88E
:103430002146BDE81040212000F062B801B5BDF87A
:1034400000000149088008BD00000020134A1168EF
:1034500041F400711160114910390B6843F4807315
:103460000B600B6843F020030B600D4B1860106875
:1034700040F02000106000BF00BF00BF086840F0AF
:1034800020000860086840F48070086000BF00BF3A
:1034900000BF086840F400700860704728040048C6
:1034A000140800481449086840F40070086008686F
:1034B00040F48070086010481038026842F0200222
:1034C00002600E4B22221A600A6842F020020A6053
:1034D00000BF00BF00BF016841F02001016001682A
:1034E00041F48071016000BF00BF00BF016841F47A
:1034F000007101607047000028040048140800486B
:10350000184B10B51A6842F400721A601A6842F437
:1035100080721A60134A103A146844F02004146050
:10352000114C2060186840F02000186000BF00BFF8
:1035300000BF106840F020001060106840F48070F8
:1035400010602160186840F02000186000BF00BFC4
:1035500000BF106840F020001060106840F48070D8
:10356000106010BD280400481408004810B5274812
:103570000168274C6269891A642946D9006860612C
:103580006078002825D023A11820FFF7A7FE94ED2E
:103590000C0B26A153EC102B2A48FCF73FFF2949BE
:1035A0004820FFF79BFE94ED0E0B27A153EC102B48
:1035B0002448FCF733FF23497820FFF78FFE28A12A
:1035C0002048FCF72BFFBDE810401E49A820FFF75C
:1035D00085BE29A11820FFF781FEA2792CA11948E8
:1035E000FCF71CFF17494820FFF778FEE2792EA16F
:1035F0001448FCF713FF13497820FFF76FFE227879
:103600002FA11048FCF70AFFDDE710BD5000002095
:1036100008000020202020202020205061726120FE
:1036200020202020202020200000000020202043F7
:103630004E42523A25332E326C6620202020202024
:103640002020000058000020202020564E42523AF0
:1036500025332E326C6620202020202020200000E0
:10366000202020202020202020202020202020205A
:1036700020202020000000002020202020202044A6
:1036800061746120202020202020202000000000E4
:10369000202020434E42523A253175202020202000
:1036A0002020202020000000202020564E42523AA8
:1036B00025317520202020202020202020000000FF
:1036C00020202049444C453A2531752020202020D7
:1036D000202020202000000070B5124D0446012259
:1036E0004FF47F412846FEF724FA0F4E01220421B1
:1036F0003046FEF71EFA002204213046FEF719FA82
:10370000210201222846FEF714FA01220421304644
:10371000FEF70FFA3046BDE8704000220421FEF7A4
:1037200008BA000000080048000C00480B490A686D
:103730000B48C369D21A642A0ED90968C1610146CF
:103740008278097A2AB141F002010172C8B2FFF70A
:10375000C3BF21F00201F8E77047000050000020CD
:1037600008000020F0B587B014216846FCF7E7FF99
:103770002948C16C41F00401C164C16C01F004012D
:103780000591C16C41F00101C164C16C01F00101FE
:103790000591C16C41F00201C164C16C01F00201EC
:1037A0000591C16C41F00801C164C06C1B4E00F072
:1037B00008004FF47F440590002221463046FEF772
:1037C000B8F9174F002204213846FEF7B2F9012557
:1037D000CDE9004500240294694630460394FEF783
:1037E0007FF8CDE9005469464FF090400294FEF70F
:1037F00077F80720CDE9000469460A480294FEF7ED
:103800006FF804200090CDE90154694638460394CE
:10381000FEF766F807B0F0BD00100240000800484F
:10382000000C00480004004810B594B01C210DA8FD
:10383000FCF785FF34216846FCF781FF1F481E49CD
:10384000002401604F21C0E901144FF4FA71C0E96E
:10385000031444618461FEF76BFF08B1FDF7A9FF13
:103860001648FFF759F808B1FDF7A3FF60200D9047
:103870006420CDE90E0410941194129400220DA935
:103880000E481394FEF7B6FF08B1FDF792FF0094BF
:103890004FF40050CDE9044001940294039406943F
:1038A000694606480C94FEF7EDFE002801D0FDF7AE
:1038B00080FF14B010BD000000480140E801002066
:1038C000184810B5164901604FF4165141600021A7
:1038D00081600C22C160C0E904128161C161016292
:1038E00041628162FFF7A8FA08B1FDF762FF00218B
:1038F0000C48FFF708F908B1FDF75BFF0021094804
:10390000FFF7DBF808B1FDF754FF0648FFF7B4F8FE
:10391000002803D0BDE81040FDF74BBF10BD0000EC
:103920000038014034020020FEE7FEE7704730B562
:1039300001210020FFF7E4FD4FF47A70FDF72BFF23
:1039400000210120FFF7DCFD41F290711020FFF70C
:10395000D7FD4FF41C516020FFF7D2FD01216120FB
:10396000FFF7CEFD02214620FFF7CAFD48F2100105
:103970001320FFF7C5FD48F2FE011220FFF7C0FD3E
:103980004FF4A0610220FFF7BBFD41F2300103209C
:10399000FFF7B6FD40F2033421463020FFF7B0FDBB
:1039A00021463120FFF7ACFD21463220FFF7A8FD6C
:1039B000E51E29463320FFF7A3FD03213420FFF73E
:1039C0009FFD21463520FFF79BFD14213620FFF790
:1039D00097FD21463720FFF793FD21463820FFF75A
:1039E0008FFD21463920FFF78BFD29463A20FFF74E
:1039F00087FD03213B20FFF783FD21463C20FFF795
:103A00007FFD4FF4A0513D20FFF77AFD4FF4007188
:103A10009220FFF775FD21469320FFF771FD40F6D8
:103A20000D019020FFF76CFD41F218010320FFF714
:103A300067FDBDE8304040F273110720FFF760BD1D
:103A400010B543F20801E320FFF75AFD1221E720E9
:103A5000FFF756FD41F23121EF20FFF751FD002124
:103A60000120FFF74DFD4FF4E0610220FFF748FD14
:103A700041F230010320FFF743FD00210420FFF74E
:103A80003FFD40F207210820FFF73AFD0021092001
:103A9000FFF736FD00210A20FFF732FD00210C2040
:103AA000FFF72EFD00210D20FFF72AFD00210F203A
:103AB000FFF726FD00211020FFF722FD072111202E
:103AC000FFF71EFD00211220FFF71AFD0021132031
:103AD000FFF716FDC820FDF7F1FE41F290611020BE
:103AE000FFF70EFD40F227211120FFF709FD3220DC
:103AF000FDF7E4FE1D211220FFF702FD3220FDF745
:103B0000DDFE4FF400611320FFF7FAFC1421292099
:103B1000FFF7F6FC0B212B20FFF7F2FC3220FDF71C
:103B2000CDFE00212020FFF7EBFC00212120FFF734
:103B3000E7FC07213020FFF7E3FC40F2077131205A
:103B4000FFF7DEFC06213220FFF7DAFC40F20471B9
:103B50003520FFF7D5FC41F604713620FFF7D0FC85
:103B600004213720FFF7CCFC00213820FFF7C8FCE8
:103B700040F206713920FFF7C3FC40F201713C208E
:103B8000FFF7BEFC0F213D20FFF7BAFC00215020BB
:103B9000FFF7B6FCEF215120FFF7B2FC00215220C5
:103BA000FFF7AEFC40F23F115320FFF7A9FC4FF4A2
:103BB0001C516020FFF7A4FC01216120FFF7A0FC4D
:103BC00000216A20FFF79CFC00218020FFF798FC71
:103BD00000218120FFF794FC00218220FFF790FC58
:103BE00000218320FFF78CFC00218420FFF788FC54
:103BF00000218520FFF784FC10219020FFF780FC36
:103C000000219220FFF77CFC03219320FFF778FC32
:103C10004FF488719520FFF773FC00219720FFF780
:103C20006FFC00219820FFF76BFC41F21801032084
:103C3000FFF766FCBDE8104040F273110720FFF764
:103C40005FBC7047FDF780BF10B594B0382168465F
:103C5000FCF775FD14210EA8FCF771FD4FF4007000
:103C6000FEF704F802200090C001039040200024D9
:103C7000049007946846FEF7EBFA08B172B6FEE7C7
:103C80000F200E900120CDE90F04119400210EA801
:103C90001294FEF795F9002801D072B6FEE714B031
:103CA00010BD00000248016841F4700101607047D6
:103CB00088ED00E02DE9F0430268234B234D244EAC
:103CC000244C4FF08049984207D0484505D0A8427F
:103CD00003D0B04201D0A04203D122F070074A685D
:103CE0003A431D4FDFF874C0DFF8748098420DD05E
:103CF00048450BD0A84209D0B04207D0A04205D019
:103D0000B84203D0604501D0404503D122F440754C
:103D1000CA682A434D6922F080022A4302608A68F9
:103D2000C2620A688262984207D0A04205D0B842B7
:103D300003D0604501D0404501D1096901630121EB
:103D40004161BDE8F0830000002C01400004004008
:103D500000080040003401400040014000440140A0
:103D60000048014010B501F01F030121046A994089
:103D70008C430462016A9A401143016210BD000045
:103D80002DE9F043026A22F001020262056A4368EB
:103D900082691C4C25F0020522400C6822F00302C7
:103DA00014438A68194E2A43174D194FDFF864C02F
:103DB000DFF86490A84207D0B04205D0B84203D0E3
:103DC000604501D0484506D122F00808CA6842EA99
:103DD000080222F00402A84207D0B04205D0B8423F
:103DE00003D0604501D0484505D14D6923F44073A7
:103DF0001D438B692B4343608461496841630262C0
:103E0000BDE8F0838FFFFEFF002C0140003401402D
:103E1000004001400044014000480140F0B5026A02
:103E200022F010020262056A42688369194C1B4E37
:103E300023400C6823F4407343EA042425F0200354
:103E40008D6843EA0513144DA84201D0B04206D153
:103E5000CF6823F0800343EA071323F04003A8420E
:103E60000AD0B04208D00E4DA84205D00D4DA84250
:103E700002D00D4DA84207D14D6922F4406242EABA
:103E800085028D6942EA85024260846149688163E6
:103E90000362F0BDFF8FFFFE002C014000340140A3
:103EA000004001400044014000480140F0B5026A72
:103EB00022F480720262056A4368C269194C1B4E83
:103EC00022400C6822F00302144325F400728D682E
:103ED00042EA0522144DA84201D0B04206D1CF6873
:103EE00022F4006242EA072222F48062A8420AD049
:103EF000B04208D00E4DA84205D00E4DA84202D0C7
:103F00000D4DA84207D14D6923F4405343EA0513F0
:103F10008D6943EA05134360C4614968C163026265
:103F2000F0BD00008FFFFEFF002C01400034014077
:103F3000004001400044014000480140F0B5026AE1
:103F400022F480520262056A4268C369194C1B4E12
:103F500023400C6823F4407343EA042425F40053FF
:103F60008D6843EA0533144DA84201D0B04206D112
:103F7000CF6823F4004343EA073323F48043A84285
:103F80000AD0B04208D00E4DA84205D00D4DA8422F
:103F900002D00D4DA84207D14D6922F4404242EAB9
:103FA00085128D6942EA85124260C46149680164E4
:103FB0000362F0BDFF8FFFFE002C01400034014082
:103FC00000400140004401400048014030B5026A11
:103FD00022F480320262046A4268036D114D2B4064
:103FE0000D681D4324F400330C8943EA04430E4C4E
:103FF000A0420BD00D4CA04208D00D4CA04205D0E1
:104000000C4CA04202D00C4CA04204D14C6922F4CA
:10401000803242EA04224260056549688164036295
:1040200030BD00008FFFFEFF002C01400034014036
:1040300000400140004401400048014030B5026AA0
:1040400022F480120262046A4268036D114D24F466
:1040500000142B400D6843EA05230D8944EA0554FA
:104060000D4DA8420BD00D4DA84208D00C4DA842D2
:1040700005D00C4DA84202D00B4DA84204D14D6989
:1040800022F4802242EA8522426003654968C164C5
:10409000046230BDFF8FFFFE002C01400034014060
:1040A00000400140004401400048014030B5416EED
:1040B000B9B1026891689268C1F342610B4B520F2B
:1040C0009C5CE50003F10804A25CB5FBF2F2A0F8E9
:1040D0006A205A5C615CD200B2FBF1F1A0F8681072
:1040E00030BD0121A0F86A10F8E7000062670008FF
:1040F00090F82810C90706D001684A68C36A22F4FC
:1041000000321A434A6090F82810890706D50168E2
:104110004A68036B22F480321A434A6090F82810F0
:10412000490706D501684A68436B22F480221A4386
:104130004A6090F82810090706D501684A68836B21
:1041400022F400421A434A6090F82810C90606D5A6
:1041500001688A68C36B22F480521A438A6090F81F
:104160002810890606D501688A68036C22F400527B
:104170001A438A6090F82810490611D501684A68E8
:10418000436C22F480121A434A60416CB1F5801FDF
:1041900006D101684A68836C22F4C0021A434A605F
:1041A00090F82810090606D501684A68C06C22F408
:1041B000002202434A607047F8B500260446C0F862
:1041C0008C60FDF7BBFC0546206800686FF07E47F9
:1041D000000708D52B4600224FF400112046009717
:1041E00000F02CFC60B92068006840070AD52B4617
:1041F00000224FF480012046009700F01FFC08B118
:104200000320F8BD2020C4F88400C4F8880044F8D6
:104210006C6F00202675F8BD10B5806A0021A0F8EB
:104220005E10A0F85610FEF796FC10BD10B502689F
:1042300052E8001F21F4907142E80013002BF6D1E0
:104240000E4B0268083252E8001F194042E8001481
:10425000002CF6D1C16E012908D1016851E8002F68
:1042600022F0100241E80023002BF6D12021C0F8F3
:1042700088100021C166016710BD0000FEFFFFEF3E
:1042800010B5B0F86020D0F888300168222B04D037
:10429000886940F00800886110BD496A836D11404B
:1042A0001980816D891C8165B0F85E10491EA0F8E7
:1042B0005E10B0F85E100029EED1026852E8001FCF
:1042C00021F4907142E80013002BF6D10168083107
:1042D00051E8002F22F0010241E80023002BF5D124
:1042E0002021C0F8881000210167C26E012A02D087
:1042F000FEF748FE10BDC166026852E8001F21F0BB
:10430000100142E80013002BF6D10168CA69D243BC
:10431000D20601D410220A62B0F85C10FEF7CBFB83
:1043200010BD00002DE9F0470446B0F86060006859
:10433000C569D0F800A0D0F80880D4F888102229E8
:1043400005D0816941F008018161BDE8F087B4F8CA
:1043500068704FF0000963E02068406AA16D30404A
:104360000880A06D801CA065B4F85E00401EA4F813
:104370005E002068C569690730D0E9070AD05FEAA6
:10438000CA5107D501210162D4F88C0040F0010028
:10439000C4F88C00A8070BD55FEAC87008D0216864
:1043A00002200862D4F88C0040F00400C4F88C00AD
:1043B00068070BD55FEAC87008D02168042008623E
:1043C000D4F88C0040F00200C4F88C00D4F88C00C3
:1043D00020B12046FEF7BFFBC4F88C90B4F85E0015
:1043E000F0B9216851E8000F20F4807041E8000224
:1043F000002AF6D1264A2068083050E8001F1140F4
:1044000040E80013002BF6D12020C4F88800C4F83F
:104410007090E16E4846012923D02046FEF7B2FD98
:104420000FB1A80698D4B4F85E0000288DD0B4F877
:104430006810814289D92068083050E8001F21F0B7
:10444000805140E80012002AF5D112482067206808
:1044500050E8001F41F0200140E80012002AF6D188
:1044600073E7E066216851E8000F20F0100041E892
:104470000002002AF6D12068C169C943C90601D4E7
:1044800010210162B4F85C102046FEF714FBC7E768
:10449000FEFFFFEF8142000810B5B0F86020D0F8B1
:1044A00088300168222B04D0886940F008008861B8
:1044B00010BD496A1140826D1170816D491C816582
:1044C000B0F85E10491EA0F85E10B0F85E1000292A
:1044D000EED1026852E8001F21F4907142E8001307
:1044E000002BF6D10168083151E8002F22F00102BB
:1044F00041E80023002BF5D12021C0F888100021CD
:104500000167C26E012A02D0FEF73CFD10BDC166F4
:10451000026852E8001F21F0100142E80013002B4E
:10452000F6D10168CA69D243D20601D410220A62C8
:10453000B0F85C10FEF7BFFA10BD00002DE9F0479F
:104540000446B0F860600068C569D0F800A0D0F8F3
:104550000880D4F88810222905D0816941F008012B
:104560008161BDE8F087B4F868704FF0000963E03E
:104570002068406AA16D30400870A06D401CA065A5
:10458000B4F85E00401EA4F85E002068C5696907A3
:1045900030D0E9070AD05FEACA5107D5012101628C
:1045A000D4F88C0040F00100C4F88C00A8070BD5AB
:1045B0005FEAC87008D0216802200862D4F88C0035
:1045C00040F00400C4F88C0068070BD55FEAC8709F
:1045D00008D0216804200862D4F88C0040F0020062
:1045E000C4F88C00D4F88C0020B12046FEF7B3FA52
:1045F000C4F88C90B4F85E00F0B9216851E8000F5F
:1046000020F4807041E80002002AF6D1264A206892
:10461000083050E8001F114040E80013002BF6D18D
:104620002020C4F88800C4F87090E16E4846012943
:1046300023D02046FEF7A6FC0FB1A80698D4B4F804
:104640005E0000288DD0B4F86810814289D92068B6
:10465000083050E8001F21F0805140E80012002A85
:10466000F5D112482067216851E8000F40F0200082
:1046700041E80002002AF6D173E7E066216851E8BC
:10468000000F20F0100041E80002002AF6D1206857
:10469000C169C943C90601D410210162B4F85C1094
:1046A0002046FEF708FAC7E7FEFFFFEF994400082F
:1046B0002DE9F0410446016880682269E3691043EE
:1046C000626900251A431043DFF82CC20A688B4B3D
:1046D0001A4002430A6020684168E26821F44051B0
:1046E000114341602168A069614501D0226A1043ED
:1046F0008A68834B1A4002438A602068C16A626AF2
:1047000021F00F011143C1627E4923687E488B422C
:104710000DD1D0F8880010F0030006D0012855D044
:10472000022842D003283FD152E001203DE07749E2
:104730008B420BD1D0F8880010F00C0035D0042843
:1047400033D0082840D00C282ED141E070498B424C
:104750000BD1D0F8880010F0300026D0102835D0CA
:10476000202831D030281FD132E06A498B420BD14A
:10477000D0F8880010F0C00017D0402826D080283C
:1047800022D0C02810D123E063450DD1D0F8880095
:1047900010F4406009D0B0F5806F17D0B0F5006F0D
:1047A00012D0B0F5406F13D010205B495B4F00264C
:1047B0004FF4004263453BD160B1022813D0042876
:1047C0000BD0082872D10DE00220EEE70420ECE7C0
:1047D0000820EAE7FDF7E2FC01E0FDF703FD010038
:1047E00001D17CE01146606A37F810206768B1FBA0
:1047F000F2F007EB4703834270D8B0EB073F6DD868
:10480000002308461946FBF76DFD090241EA1061D5
:1048100002027808101871413A460023FBF762FD46
:104820003F4AA0F54071914258D82168C86056E0CF
:10483000E3694FF6EF7893422CD109284ED2DFE896
:1048400000F00508114D0D4D4D4D1000FDF7A6FC73
:1048500001E0FDF7B5FC010004D140E0FDF7C2FC2A
:10486000F9E71146606A37F81000B1FBF0F041003B
:10487000606801EB5001B1FBF0F0A0F1100141457F
:104880002CD84FF6F0710140C0F34200014320687C
:10489000C16024E0092821D2DFE800F005091220D8
:1048A0000E2020201100FDF779FC02E016E0FDF754
:1048B00087FC010004D112E0FDF794FCF9E71146F2
:1048C000606A37F81000B1FBF0F1606801EB50014D
:1048D000B1FBF0F0A0F1100141450AD901250120FA
:1048E000A4F86A0024F8680F2846A660E660BDE8D0
:1048F000F08180B299E7000000800040F369FFCFAB
:10490000FFF4FF1100380140001002400044004055
:1049100000480040004C00400024F4004A670008B2
:10492000FFFC0F0070B58165A0F85C20A0F85E2048
:104930000021016783684FF48055FF24AB4204D106
:104940000369FBB940F2FF1322E07F26C3B1B3F144
:10495000805F1AD0A0F86010C0F88C102223C0F835
:1049600088300368083353E8004F44F0010443E8FB
:104970000046002EF5D1436EB3F1005F0ED032E059
:10498000036943B9A0F86040E6E703691BB13F2320
:10499000A0F86030E0E7A0F86060DDE7B0F86830CC
:1049A000934220D88268AA4201D10269CAB11F4A43
:1049B000026780F88010016941B1026852E8001F67
:1049C00041F4807142E80013002BF6D101680831F0
:1049D00051E8002F42F0805241E80023002BF5D12E
:1049E00021E0134AE4E78268AA4201D102697AB160
:1049F000104A026780F88010016959B1026852E8D4
:104A0000001F41F4907142E80013002BF6D10AE038
:104A1000094AEEE7026852E8001F41F0200142E82F
:104A20000013002BF6D1002070BD00003D450008AA
:104A30002543000899440008814200082DE9F04709
:104A40009A4617460E4604464FF000094FF02008DC
:104A5000089D4AE0681C48D0FDF770F8A0EB0A00FA
:104A6000A8422AD84DB32068016849073DD5C069DE
:104A7000C043000539D421684FF400600862206803
:104A800050E8001F21F4D07140E80012002AF6D14E
:104A90002068083050E8001F21F0010140E80012B2
:104AA000002AF5D144F8848FC4F80480C4F8088043
:104AB00004F8049C0320BDE8F087216851E8000F4A
:104AC00020F4D07041E80002002AF6D120680830B6
:104AD00050E8001F21F0010140E80012002AF5D142
:104AE00044F8848FC4F80480E2E72068C06936EA9D
:104AF000000004D00020B842ACD00020DBE7012049
:104B0000F9E700000148FEF727B800003402002052
:104B1000FEE700002DE9FF41A4480168A44C226A89
:104B2000891A64297AD900682062A248FCF70CFE31
:104B3000002873D09F48817AC27A303901EB810313
:104B40006FF02F0101EB43031A44E272027B437BB7
:104B5000303A02EB820201EB42021A44D6B22673CB
:104B6000827BC37B303A02EB820201EB42021A44A1
:104B7000D3B26373027C457C303A02EB820201EBD4
:104B800042022A44D2B2A273857CC77C303D05EB39
:104B9000850501EB45053D44EDB2E573477D007D9C
:104BA000303800EB800001EB40003844C0B20127F0
:104BB00020740C2E07D81F2B05D8172A03D83B2D9D
:104BC00001D83B2802D9384667748CE07848042322
:104BD00005227849243000F07DF97548042300222D
:104BE0007449293000F076F97148243000F028F932
:104BF000DFF8C081FF2808F1F00810D06C4824309D
:104C000000F01EF900EB0017694807EB08010D469C
:104C10002930FBF7BBFD70B3032063E07AE0FCF7BB
:104C2000CBFDFF2825D000EB0016614906EB0805F7
:104C3000042300222931284600F04CF95C49681D04
:104C400004230022243100F045F9E07AA872207B89
:104C5000E872607B2873A07B6873E07BA873207C7C
:104C6000E8732F7418F80600432805D0562807D09B
:104C700009E0022036E00AE0A079401CA07102E0C1
:104C8000E079401CE0712078401E20703CE0A87A5A
:104C9000E17A091A40F26D1011FB00F0E97A227BEB
:104CA000511AC1EB011100EB4100297B627B511AC3
:104CB00008444149A27B4843697B511AC1EB411228
:104CC000C2EB012100EB0110A97BE27B511AC1EB81
:104CD000011100EB8100E97B227C511A0144C817C5
:104CE0001AD504206074C2B2324834A1C830FBF730
:104CF00095FB3048C830FBF7E1FC2E4982B23223E5
:104D0000C8313148FEF750F9C8212A48FBF7F5FCB5
:104D100000206072BDE8FF8140F60F628E1840F1FE
:104D20000001521C00233046FBF753FB064600F0FF
:104D3000A7F941EC110B18F80700432824D094ED93
:104D40000E0B00BF53EC102B51EC110B00F026FAA8
:104D5000CDE902011748009646466B1D2A461BA165
:104D6000C830FBF75BFB1348C830FBF7A7FC1149C1
:104D700082B23223C8311448FEF716F9F05D432899
:104D800005D0562807D009E094ED0C0BDAE7A0799E
:104D9000401EA07102E0E079401EE07120781121F0
:104DA000401C20702846FBF7A8FCADE7500000200F
:104DB000080000206D000020805101004572726FD4
:104DC000723A2531750D0A003402002025733A2508
:104DD000733A25643A252E326C660D0A00000000F5
:104DE00003B401984100009850EAC12018BF042084
:104DF0004A0D18BF40F0010040F2FF72B2EB515F64
:104E000008BF40F00200012808BF052002B070472B
:104E10000907090E002804DB00F1E02080F80014E7
:104E2000704700F00F0000F1E02080F8141D70477B
:104E300030380A2801D20120704700207047000056
:104E400070B5094D0646002404EB041041193046A4
:104E5000491DFBF79BFC28B1641CE4B2082CF3D37A
:104E6000FF2070BD204670BD5D010020FCF774FE80
:104E7000FEF7EAFEFEF776FCFEF7D6FCFEF720FD15
:104E8000FEF76EFA0020FEF7C3F90020FEF7C2FA23
:104E90004FF6FF70FEF7D2FA0B490020096848630D
:104EA00001460948FDF76AFD012208490848FEF756
:104EB0003FF800BFFEF75AFBFEF7D6F8FEF736FCC8
:104EC000FFF728FEF6E70000E801002012000020AE
:104ED0003402002030B5002403E015194D5D05555E
:104EE000641C9C42F9DB0021C15430BD10B500297F
:104EF0000AD00878002807D005487844FBF746FC1C
:104F0000002801D0002010BD0248784410BD0000E8
:104F1000461900003E19000010B591EA030F48BF82
:104F200083F0004300F14082841A71EB030C05D238
:104F3000121943EB0C03001B61EB0C01DFF824E1B9
:104F40004FEA1154A4EB135C1EEA430F18BF9EEA0C
:104F5000445F73D023EA0E03DCF1200E21EA0451F2
:104F600043F4801332D322FA0CFE10EB0E0023FA26
:104F70000CFE41EB0E01CCF1200E03FA0EFE10EBFD
:104F80000E0051F10001B1F5801FCCF1200E32D29C
:104F900001EB045112FA0EF2BDE8104058BF704701
:104FA000401C38BF5FEA420218BF7047002814BF98
:104FB00020F0010041F100014FEA410313F5001F09
:104FC00038BF7047A1F1C04100F0E0B9012A43EBBE
:104FD0000302ACF1200CDCF11F0E32BF4FF0000ECB
:104FE00023FA0CF310EB030041EB0451B4EB115F17
:104FF000D0D0A1EB045101F5801149085FEA3000DF
:1050000001EB04510ED350F1000038BF12FA0EFE2E
:1050100008D1BDE81040C9E7401C38BF5FEA420232
:10502000CAD1C3E7BDE810404FEA410313F5001FA2
:1050300038BF7047A1F1C04100F0A8B99EEA445FB3
:1050400008D011EA5E0FBDE8104004BF01F0004136
:1050500000207047BDE8104070B500F049F900BF6E
:1050600064FBBE3E0000E0FF491058BFC1F1404163
:105070005B1058BFC3F140438B42EFF30080704791
:105080007FEAE17202D1101A62EB0101B1FA81F3F9
:105090000B3B24D3994012D1B0FA80F310FA03F1FC
:1050A00008BF7047C3F11D0303F5406303EBC22340
:1050B0004FEAD1224FEA415002EB03517047C3F14E
:1050C000200C20FA0CFC9840C3F1320303F5406336
:1050D00003EBC22341EA0C0101EB0351704710B509
:1050E000C3F1320CC3F10004C4F1200E0CF5406C86
:1050F0000CEBC22201FA0EFC21FA04F100FA0EF3C5
:10510000E040BDE8104040EA0C0001EB025138BF1E
:105110007047401C41F100015B0008BF20F0010016
:105120007047000051EA030C17D41CF5801F58BFCC
:10513000BCF5801F00F10680994218BF704708BF78
:105140009042704707D711F5801F58BF13F5801F95
:1051500019D499427047894270471CF5801F08D5C1
:10516000BCF5801FF7D58B4218BF704708BF82423D
:1051700070474FF4001C1CEB410F38BF1CEB430F72
:1051800001D28B42704770B500F0B2F8922449000A
:105190004FF000514FF08053FFF766BFDFF848C172
:1051A00070B51CEA111E1EBF1CEA13159EEA0C0FF7
:1051B00095EA0C0F00F06F8081EA030423EA4C1398
:1051C0004EEAD47E21EA4C1141F4801143F480135D
:1051D000AE44A1FB024CA0FB0365AEF17F7E361905
:1051E00055EB0C05A1FB034C4CF10003A0FB021C8A
:1051F00016EB0C06654153F10003094218BF46F057
:10520000010613F4007F0BD14FEA03314FEA05305A
:10521000340341EA155140EA16506FF003020AE0E8
:105220004FEAC3214FEAC520F40241EA555140EA52
:1052300056506FF0020202EB2E4201EB025585EA56
:10524000CE710AD05FEA440C18BF24F0004450F13C
:10525000000041F1000120EAD47040F2FE7C62457A
:1052600000D270BDA84214BF4FF080444FF04044BC
:10527000002E08BF0024BEF1806FA8BFA1F1C0417D
:10528000BDE8704080F282804FF0000001F1C04123
:1052900001F0004170479EEA0C0F0CEA131518BF8D
:1052A00095EA0C0F06D04FF0000081EA030E0EF0D5
:1052B000004170BD00F01CF88900013E00F007B805
:1052C00000F009B84FEA430C5FEA5C5C08D081EA61
:1052D000030100F05BB84FEA410C5FEA5C5CF6D179
:1052E0004FF00000014970470000FF070000F87F01
:1052F0000EF1020E2EF0030E5EF8046B364205D45A
:10530000012A43EB030515F5001F12D8012841EBD4
:10531000010C1CF5001F0CD80ED14FEAD17C15F5FD
:10532000001F0CEB4C0C0CF1020C08BF4CEBD37CB7
:1053300004E04FF0080C01E04FEAD37C0CEB4C0585
:1053400026FA05F606F00706B6F1040C06D20EEBB7
:10535000860CBDE870404CF0010C6047DFE80CF0B3
:10536000090B02024FF000414FF00000A1F50021AF
:1053700070BD19461046012851EB010418BFD4F541
:10538000001484BF002001F0004170BD0808A0F5A2
:1053900000114FEA3101704710B591EA030F48BF81
:1053A00083F000433FF5C0AD841A71EB030C07D2C4
:1053B00012198CF0004C43EB0C03001B61EB0C0149
:1053C000DFF8A4E14FEA1154A4EB135C1EEA430F8B
:1053D00018BF9EEA445F00F0B08023EA6E03524299
:1053E00021EA0451C3EB6E0338BF5B1EDCF1200ED3
:1053F00025D322FA0CFE10EB0E0043FA0CFE41EB13
:105400000E01CCF1200E03FA0EFE10EB0E0051F14E
:105410000001CCF1200E29D412FA0EF201EB045156
:10542000BDE8104058BF7047401C1CBFB2F1004F90
:10543000704700280CBF491C20F00100704712EB98
:10544000020E43EB030218BF4FF0010E4EEA420278
:10545000ACF1200CDCF11E0E54D943FA0CFE10EB1B
:105460000E0051F1FF31CCF11E0ED5D50EF1010E1B
:1054700012FA0EFE404141EB010101EB445C5FEA90
:105480005C5C10D910EBDE7001EB045138BFBEF14B
:10549000004FBDE8104018BF704700280CBF491CE2
:1054A00020F00100704730D24FEAD42C11F50011E2
:1054B00024F400641BD0B1FA81F20B3AA41AA41EA2
:1054C000D2F12003914030FA03F31943904001EBED
:1054D000CC71002C01EB0451BDE81040A8BF70470F
:1054E00001F1C0414FF0000001F000417047B0FAF7
:1054F00080F310FA03F100D110BDE41A173C4805FF
:10550000C90AE4E701EB045110BD491001EB045155
:10551000BDE810404FEA300002E04FF00001704754
:105520004A0008BF0042F8D0B2F5001F28BF7047FC
:1055300001F000414FF0000070479EEA445F07D041
:1055400011EA5E0FBDE8104004BF00210020704743
:10555000BDE8104070B5FFF7CBFE00BF40DFF63E60
:1055600083F00041104670470000E0FF4FF04070AC
:10557000E1EE100A7047FBF77EBA00000000000061
:10558000000000000000000000000000000000001B
:10559000000000000000000000000000000000000B
:1055A00000000000000000000000000080018001F9
:1055B00080018001800180018001800180018001E3
:1055C0008001800180010000000080018001000056
:1055D0000000000000000000000000000000CC00FF
:1055E000CC00CC00CC00CC00CC00000000000000BF
:1055F00000000000000000000000000000000000AB
:10560000000000000000000000000000000000009A
:10561000000000000000600C600C600C30063006DA
:10562000FE1FFE1F300638071803FE1FFE1F18035B
:1056300018038C018C018C01000000008000E00345
:10564000F80F9C0E8C1C8C188C009800F801E00759
:10565000800E801C8C188C189C18B80CF00FE0037E
:10566000800080000000000000000000000000003A
:105670000E181B0C110C11061106110311039B01CE
:105680008E01C038C06C60446044304430441844DB
:10569000186C0C380000000000000000E001F0036E
:1056A0003807180618063003F001F000F8009C31A6
:1056B0000E33061E061C061C063FFC73F02100007C
:1056C00000000000000000000000000000000C00CE
:1056D0000C000C000C000C000C000000000000008E
:1056E00000000000000000000000000000000000BA
:1056F00000000000000000000000000000020003A5
:105700008001C000C0006000600030003000300048
:105710003000300030003000300060006000C00019
:10572000C0008001000300020000000020006000B3
:10573000C00080018001000300030006000600068F
:1057400000060006000600060006000300038001B4
:105750008001C00060002000000000000000000088
:10576000000000000000C000C000D806F807E001FB
:1057700030033807000000000000000000000000B7
:105780000000000000000000000000000000000019
:105790000000000000008001800180018001800184
:1057A000FC3FFC3F800180018001800180010000FE
:1057B00000000000000000000000000000000000E9
:1057C00000000000000000000000000000000000D9
:1057D00000000000000000000000000080018001C7
:1057E0000001000180000000000000000000000037
:1057F00000000000000000000000000000000000A9
:105800000000E007E00700000000000000000000CA
:105810000000000000000000000000000000000088
:105820000000000000000000000000000000000078
:10583000000000000000000000000000C000C000E8
:10584000000000000000000000000000000C000C40
:105850000006000600060003000300038003800129
:1058600080018001C000C000C00060006000000036
:10587000000000000000000000000000E003F0074E
:10588000380E180C0C180C180C180C180C180C18D6
:105890000C180C180C18180C380EF007E003000058
:1058A0000000000000000000000000000001800176
:1058B000C001F00198018801800180018001800110
:1058C0008001800180018001800180018001000051
:1058D000000000000000000000000000E003F80FDE
:1058E000180C0C180C1800180018000C0006000307
:1058F0008001C000600030001800FC1FFC1F000089
:10590000000000000000000000000000E001F807B7
:10591000180E0C0C0C0C000C0006C003C007000C89
:10592000001800180C180C18180CF807E0030000F9
:10593000000000000000000000000000000C000E4D
:10594000000F000F800DC00C600C600C300C180CA8
:105950000C0CFC3FFC3F000C000C000C000C000089
:10596000000000000000000000000000F80FF80F29
:10597000180018000C00EC03FC071C0E001C00189B
:10598000001800180C181C0C180EF807E003000093
:10599000000000000000000000000000C007F00F41
:1059A000381C181818000C00CC03EC0F3C0E1C1C03
:1059B0000C180C180C18181C380EF007E003000027
:1059C000000000000000000000000000FC1FFC1FA1
:1059D000000C00060006000380038001C001C00027
:1059E000E000600060007000300030003000000017
:1059F000000000000000000000000000E003F007CD
:105A0000380E180C180C180C3806F007F007180C94
:105A10000C180C180C180C18380CF80FE0030000C8
:105A2000000000000000000000000000E003F0079C
:105A3000380E1C0C0C180C180C181C1C381EF81BEB
:105A4000E0190018000C000C1C0EF807F001000013
:105A50000000000000000000000000000000000046
:105A60000000000000008001800100000000000034
:105A70000000000000000000000080018001000024
:105A80000000000000000000000000000000000016
:105A90000000000000008001800100000000000004
:105AA00000000000000000000000800180010001F3
:105AB0000001800000000000000000000000000065
:105AC000000000000000000000000010001C800F1B
:105AD000E003F8001800F800E003800F001C00103D
