:020000040800F2
:10000000E807002099020008D34000089334000854
:10001000D1400008C9170008714F00080000000017
:100020000000000000000000000000008D440008F7
:10003000CB17000800000000D54000088F440008DE
:10004000B3020008B3020008B3020008B3020008BC
:10005000B3020008B3020008B3020008B3020008AC
:10006000B3020008B3020008B3020008B30200089C
:10007000B3020008B3020008B3020008B30200088C
:10008000B302000800000000B3020008B302000839
:10009000B3020008B3020008B3020008B30200086C
:1000A000B3020008B3020008B3020008B30200085C
:1000B000B3020008B3020008B3020008B30200084C
:1000C000B3020008B3020008B3020008B30200083C
:1000D000B3020008654F0008B3020008B30200082D
:1000E000B3020008B3020008B3020008B30200081C
:1000F000B3020008B3020008B302000800000000C9
:1001000000000000B302000800000000B302000875
:10011000B302000800000000B3020008B3020008A8
:10012000B3020008B3020008B3020008B3020008DB
:10013000B30200080000000000000000B302000845
:10014000B3020008B3020008000000000000000035
:10015000000000000000000000000000000000009F
:10016000000000000000000000000000B3020008D2
:10017000B3020008000000000000000000000000C2
:1001800000000000B30200080000000000000000B2
:10019000000000000000000000000000000000005F
:1001A0000000000000000000B3020008B3020008D5
:1001B000B3020008B3020008B30200080000000008
:1001C00000000000B3020008000000000000000072
:1001D000B3020008B302000800F002F800F04CF887
:1001E0000AA090E8000C82448344AAF10107DA4592
:1001F00001D100F041F8AFF2090EBAE80F0013F098
:10020000010F18BFFB1A43F0010318479466000062
:10021000B4660000103A24BF78C878C1FAD85207F3
:1002200024BF30C830C144BF04680C607047000070
:100230000023002400250026103A28BF78C1FBD8EF
:10024000520728BF30C148BF0B607047662905F0D0
:10025000CA81752900F0F480002070471FB505F0B1
:10026000BDF900F0BDFC04000020002104F00AFFED
:10027000E0601FBD10B510BD00F0B2FD1146FFF7E4
:10028000EDFF04F0B7FE00F0D0FD03B4FFF7F2FF7E
:1002900003BC00F013FE00000948804709480047EE
:1002A000FEE7FEE7FEE7FEE7FEE7FEE7FEE7FEE726
:1002B000FEE7FEE704480549054A064B7047000083
:1002C000FD440008D9010008E8010020E8070020EB
:1002D000E8030020E803002053EA020C00F06980E4
:1002E0002DE9F04B4FF00006002B1FBFB3FA83F54A
:1002F00003FA05F424FA05F65E4012BF1643B2FA7B
:1003000082F502FA05F4C5F120051EBF22FA05FCAC
:1003100044EA0C04203556EA044C4FEA144418BF52
:10032000641C4FF000084FF00009904271EB030C81
:1003300039D3002919BFB1FA81F701FA07F6B0FAEB
:1003400080F700FA07F6C7F120071EBF20FA07FC66
:1003500046EA0C062037B6FBF4FCA7EB0507103F76
:1003600007F01F0BCBF120060CFA0BFB2CFA06F65C
:1003700044BFB3460026202FA4BF5E464FF0000BBB
:100380005BEA060C08BF4FF0010B19EB0B09ABFB46
:10039000027C48EB0608C01B06FB02CC0BFB03CC1F
:1003A00071EB0C01C1E70B46024641464846BDE8E9
:1003B000F08B13B54FF000004FF00001AFF3008059
:1003C000BDE81C40704700000FB41CB5074B06AADF
:1003D0007B4469460090059800F0E9FB00206946DF
:1003E00000F0F8FB1CBC5DF814FB000001080000E5
:1003F00070B5044685690068C10601D5302600E065
:100400002026C00707D070BDD4E9012130469047AF
:10041000206A401C20626D1EF6D570BD70B5044682
:1004200085690078C00707D170BDD4E9012120207B
:100430009047206A401C20626D1EF6D570BD0000FA
:100440002DE9F0410646002410687529314616A5AD
:1004500010D0AFF30080002802DA404213A507E075
:1004600031688A0701D512A502E0490704D511A514
:10047000012401E0AFF3008000210A2206F12407E5
:1004800009E0B0FBF2FCB0FBF2F302FB1C003030E1
:1004900078541846491C0028F3D123462A46304692
:1004A000BDE8F04100F015B9000000002D0000008B
:1004B0002B000000200000002DE9F05F8946044673
:1004C0004FF0000ADFF874B1FB44C0F820A02046CA
:1004D000E1688847002874D0252806D0D4E9012196
:1004E0009047206A401C2062F1E700265F462046C4
:1004F000E16888472028054607DB312D05D27819A9
:1005000010F8200C08B10643F1E7B00701D526F03A
:100510000406C4F81CA00027C4F818A02A2D09D08E
:10052000284604F04EFD38B304EB8708303DC8F888
:10053000185019E059F8041B204604EB870291611A
:10054000E1688847012F054618D1E069002820DAC4
:1005500026F020061DE0D8F8180000EB800005EB1F
:1005600040003038C8F818002046E1688847054642
:1005700004F027FD0028EED1012F0AD02E2D08D13E
:100580002046E16888477F1C0546022F46F020067A
:10059000C4DBA069002803DA404246F00106A061EE
:1005A000F00701D026F010066C2D0BD0682D09D075
:1005B0004C2D39D06A2D35D0742D35D07A2D33D0CD
:1005C00016E038E0E1682F4620468847B8420546E5
:1005D00009D16C2F26D04FF48060E1680643204695
:1005E0008847054604E06C2F1AD04FF4807006430C
:1005F0000DB3A5F14100192802D8203546F4006654
:100600004A462946204626604E46FFF71FFE80B127
:1006100001280BD0F61D26F0070000F1080956E767
:100620004020E4E78020D8E70020D6E706F104095F
:100630004DE7284652E7206ABDE8F09F2E63000090
:1006400010B5431C02E010F8011B71B18107FAD10B
:100650004FF0013202C88C1A8C4314EAC211F9D04F
:10066000C01A0A0603D0C01E10BDC01A10BD0A046D
:1006700001D0801E10BD0902FCD0401E10BD4FF0FD
:10068000000200B5134694469646203922BFA0E8E2
:100690000C50A0E80C50B1F12001BFF4F7AF0907EE
:1006A00028BFA0E80C5048BF0CC05DF804EB8900DF
:1006B00028BF40F8042B08BF704748BF20F8022B22
:1006C00011F0804F18BF00F8012B7047704770473A
:1006D00070472DE9F0470D4699469246044600F1D1
:1006E00024080168880604D5E06921F01001216022
:1006F00000E00120A84201DD471B00E00027A169BE
:100700007A1902EB0900081AA0612078C00602D409
:100710002046FFF76DFE002608E0D4E901211AF813
:1007200006009047206A401C761C20624E45F4DB90
:100730002078C0060AD52046FFF75AFE06E0D4E925
:10074000012130209047206A401C2062381EA7F10A
:100750000107F4DC07E0D4E9012118F8050090470F
:10076000206A401C2062281EA5F10105F3DC20460A
:10077000FFF754FE2078000602D50220BDE8F0877E
:100780000120FBE770472DE9FF4F0C461E464FF056
:10079000FF378BB0D2E90001DDF860800A908A460D
:1007A000C1F30A5505B93D46002108464FF0000047
:1007B000BAF1000F00F4400005DA00EB80004FF4BE
:1007C000400101EA50004FEA9059B9F1010F00DDF4
:1007D000B9460A9850EA4A000ED044F61050A5F2E5
:1007E000FF3545432F14B8F1000F1ED07542291E66
:1007F0001EDDC9F100021CE0B8F1010F4FF000004E
:1008000001D0302103E0F24305E02154401CB04206
:10081000FBDB30460022002121540B99C1F80880EF
:10082000C1E900200FB0BDE8F08FBD1B6D1CDEE7F5
:100830004A4600DA694206A800F05CFA06AB93E883
:10084000070003AB83E8070050460A9900F03DFB20
:100850008DE80700A0F500501F3800900398002D88
:100860000ADD42F21F014A460844002303A903900F
:10087000684600F0A6FD09E0A0F500504A461F3882
:10088000002303A90390684600F0B0FD8DE807003F
:100890000004000C03D04FF0FF30410800E0104688
:1008A000B8F1000F03D00022009215461EE0751E1D
:1008B00005D400F099F9303262556D1EF9D5B34672
:1008C0000122084302D000227F1C04E02078302857
:1008D00001D100227F1E002A099784D01DE0112D2E
:1008E00007DA00F081F9303262556D1C50EA0102DE
:1008F000F5D1084302D00098C8B10EE00021681E6F
:1009000005E0235C625C63542254401E491C814212
:10091000F7DBAB46A81B401E0990002004F80B0033
:100920000B98099AC0F80880C0E9002B7AE71126D5
:100930004FF0000857E72DE9F04F88460446D21DD6
:1009400022F0070191B0D1E90001CDE90A0104F0DC
:1009500010FB02460B98C00F01D02D2007E0206845
:10096000810701D52B2002E0202101EAC000032AE3
:10097000099001D0072A05DB03464146204600F0D6
:1009800079F90BE12078800601D5E06900E00620C6
:10099000B8F1650F814606D0B8F1660F18D0B8F1EE
:1009A000670F70D131E00020B9F1110F009001DB29
:1009B000112301E009F101030AAA01A90CA8FFF71C
:1009C000E2FEDDE90C70002609F10105834647E0EF
:1009D00001204B4600904FF000470AAA01A90CA83D
:1009E000FFF7D1FEDDE90DB00C995D46002610B988
:1009F00009F101000D18B9EB050003D4C0F1FF3671
:100A000009F10105A5EB09002BE0B9F1010F01DAAD
:100A10004FF001090020B9F1110F0090484601DDA7
:100A2000112300E003460AAA01A90CA8FFF7ABFEB8
:100A3000DDE90C704D4600268346207800070AD475
:100A4000AB4500DA5D4601A8012D04DD411911F81E
:100A5000011C302907D04F4502DA17F1040F04DAE0
:100A6000012082460FE06D1EEEE7002F02DCED1B39
:100A70003E4403E0781CA84200DD7D1CB81B00F159
:100A8000010A4FF000472078000703D4AA4501DB94
:100A90004FF0FF3A0021B7F1004F0DF143088DF8F8
:100AA000431024D002202B23002F01DA7F422D2374
:100AB0000A21021EA0F1010000DC5FB197FBF1FCEE
:100AC00097FBF1F201FB1C7C17460CF1300C08F887
:100AD00001CDEEE7A8F1010003702188090501D5D9
:100AE000452100E06521A0F1010800F8011C0998EA
:100AF0000FA9A1EB0807FF1D00B10120411901EB6F
:100B0000EA70A1693844081A401EA0612078C00626
:100B100002D42046FFF76CFC099828B1D4E90121E2
:100B20009047206A401C20622078C00622D52046CB
:100B3000FFF75EFC1EE0002E04DBB34502DD01A8DA
:100B4000805D00E03020D4E901219047206A401CFC
:100B50002062761CAAF101005FEA000A0AD100F0C7
:100B60003FF8C0680168405CD4E901219047206AE1
:100B7000401C2062281EA5F10105DCDC07E0D4E959
:100B8000012118F8010B9047206A401C2062381E92
:100B9000A7F10107F3DC2046FFF740FC032011B06A
:100BA00041E6000001694A1C02610878704700B5FF
:100BB0008FB0CDE901310021059105497944CDE996
:100BC000031011466846FFF777FC0FB000BD000028
:100BD000E5FFFFFF0A6802F8010B0A60704700009A
:100BE00000487047A401002030B5B0F10A024FEA76
:100BF000900E71F100034EEA817EB0EB0E0061EBC6
:100C000091014FEA101E4EEA017E10EB0E0041EBFF
:100C100011114FEA102E4EEA016E10EB0E0041EB5F
:100C200011214FEA104E4EEA014E10EB0E0041EB3F
:100C30001141401841F100014FEAD00040EA4170F3
:100C40004FEAD10110EB80054FEA810444EA907429
:100C500044EB01046D1944EB0404521BA3414FF013
:100C6000000348BF0A3200D530BD401C41F10001ED
:100C700030BD00002DE9F0411F46044603260168FF
:100C8000072A01F4006004DB08B116A505E016A5EB
:100C900003E008B115A500E015A521F010002060C3
:100CA000A069C01EA0610FB1401EA0612046FFF7E1
:100CB0009FFB4FB1D4E9012138469047206A401C80
:100CC0002062C01C206206E0206AFAE7D4E9012114
:100CD00015F8010B9047761EF8D22046FFF79EFBD1
:100CE000BDE8F0814E414E006E616E00494E4600F7
:100CF000696E66002DE9F047814616468AB0354890
:100D000078440DC88DE80D0032487844801C03AC4F
:100D10000DC884E80D0041F69B300844372190FB54
:100D2000F1F290FBF1F5A5F1800501FB12041B3CEB
:100D300002D56442012000E00020DFF898A0804640
:100D40000027FA44AAF1BE0A0EE0E0070AD03246B4
:100D5000684607EB470101230AEB810100F046FBDF
:100D60008DE8070064107F1C002CEED1194F7F44E2
:100D7000AE3F19E0E80715D007EB04100DF1180A93
:100D800090E80E008AE80E00C068F04201D1981980
:100D900008903246012306A903A800F027FB03AB05
:100DA00083E807006D10641C002DE3D14FF00103B0
:100DB00032466946B8F1000F03A802D000F001FBEB
:100DC00001E000F013FBC9E90001C9F808200AB0EE
:100DD000BDE8F087845B0000004870478401002074
:100DE0007546FFF7F9FFAE4605006946534620F009
:100DF0000700854618B020B5FFF75CFABDE8204033
:100E00004FF000064FF000074FF000084FF0000BC6
:100E100021F00701AC46ACE8C009ACE8C009ACE879
:100E2000C009ACE8C0098D46704710B50446AFF361
:100E300000802046BDE81040FFF727BA4FF0013C84
:100E400050F8042B51F8043B9A4221D1A2EB0C0339
:100E5000934313EACC1317D150F8042B51F8043BF9
:100E60009A4215D1A2EB0C03934313EACC130BD196
:100E700050F8042B51F8043B9A4209D1A2EB0C0321
:100E8000934313EACC13DBD04FF00000704700BF50
:100E9000D01A01BAB1FA81F101F0180122FA01F079
:100EA000CB40C1F12001DBB2C0B2C01A2CFA01F371
:100EB000D11A914311EAC311E6D1704701491820B4
:100EC000ABBEFEE72600020070475FEA400C08BF99
:100ED00091F0000F4FEA8C234FEAC12243EA5151AF
:100EE0004FEA1C5018BF00F5F0404FEA300018BF21
:100EF00041F000415FEA6C5C00F02980BCF1FF3FEB
:100F000008BF40F080407047130C06BF12044FF03A
:100F1000100C4FF0000C130E04BF12020CF1080C61
:100F2000130F04BF12010CF1040C930F04BF9200C5
:100F30000CF1020CD30F04BF52000CF1010C11464E
:100F40004FF00002A0F11F00A0EB0C00704711F061
:100F5000004F08BF704731F000413FF4D5AF0B0C94
:100F600006BF09044FF0100C4FF0000C0B0E04BF2D
:100F700009020CF1080C0B0F04BF09010CF1040C61
:100F80008B0F04BF89000CF1020CCB0F04BF49008A
:100F90000CF1010CCCF12003A0EB0C0022FA03F3BE
:100FA00002FA0CF241EA030100F10100704720F05F
:100FB0007F4C80EA030023F07F47ACEB070303F587
:100FC0007C5300F0004003F1FF032DE980494FEA14
:100FD000154B09B44FEA144325EA0B4E24EA0348A3
:100FE0000FF2042606EB132749083E785FEA320227
:100FF00003FB0667C7F5000707FB06F64FEA543701
:101000004FEAD64606F1020607FB066CCCF1005CFF
:101010004FEA1C472CEA074C07FB06F40CFB06F5CD
:1010200004EB15464FEA961634BF00204FF00040FF
:101030004FEAD13706FB07FC4FEA1C4C0CFB0BF7C1
:10104000D21B03FB0CF761EB07010CFB0EF7B0EBB7
:10105000074072EB17420CFB08F734BFA2EB0742C4
:10106000B2EB074261EB17414FEA0C444FEA91079C
:1010700006FB07FC4FEA1C4C0CFB0BF7B0EBC74020
:1010800072EB573203FB0CF734BFA2EBC742B2EB53
:10109000C74261EB57310CFB0EF7B0EBC70072EBA8
:1010A00057720CFB08F734BFA2EBC702B2EBC702C2
:1010B00061EB5771039F4FEA816141EA921104EBA2
:1010C000CC044FEAD1374FEA826206FB07FC42EAC2
:1010D00090124FEA80604FEA1C4C0CFB0BF7D21BBE
:1010E00003FB0CF761EB07010CFB0EF7B0EB0740BD
:1010F00072EB17420CFB08F734BFA2EB0742B2EBCE
:10110000074261EB17414FEA8C554FEA910704EB18
:101110009C2406FB07FC4FEA1C4C0CFB0BF7B0EBC6
:10112000C74072EB573203FB0CF734BFA2EBC74248
:10113000B2EBC74261EB57310CFB0EF7B0EBC700C7
:1011400072EB57720CFB08F734BFA2EBC702B2EB8D
:10115000C70261EB577115EB4C254FEA816141EAFB
:1011600092114FEA82624FEAD13742EA901206FBAF
:1011700007FC44F100044FEA80604FEA1C4C0CFB72
:101180000BF7D21B03FB0CF761EB07010CFB0EF70F
:10119000B0EB074072EB17420CFB08F734BFA2EB31
:1011A0000742B2EB074261EB174115EB1C154FEA02
:1011B000813141EA92414FEA823242EA90424FEA5B
:1011C00080304FEA0C7644F1000448EA03434EEACB
:1011D0000B484FF0000EB2EB080C71EB030724BF75
:1011E000624639464EEB0E0E4FF0000B001852418E
:1011F00049414BEB0B0BB2EB080C71EB03077BF196
:10120000000B24BF624639464EEB0E0E4FF0000B2A
:101210000018524149414BEB0B0BB2EB080C71EB40
:1012200003077BF1000B24BF624639464EEB0E0EDE
:1012300051EA020718BF46F0010616EB0E7655F18B
:10124000000254F1000103D5BDE88901BDE8008822
:10125000BDE88901BDE80048B619524141EB0101E2
:10126000A3F10103704780807F7E7D7C7B7A797853
:10127000777676757473727171706F6E6E6D6C6C5B
:101280006B6A6A69686867666665646463636261FD
:101290006160605F5F5E5E5D5D5C5C5B5B5A5A597E
:1012A00059585857575656555555545453535252EA
:1012B0005251515050504F4F4F4E4E4D4D4D4C4C42
:1012C0004C4B4B4B4A4A4A4949494848484747478B
:1012D00047464646454545444444444343434342C8
:1012E000424242414141002B9C4630D477002BD0F2
:1012F0001CB54FEA370703B44FF010004FF0100150
:10130000BAF1000F06D0BCF1000FDCBF40F00800BE
:1013100040F008014FF000000FBCBDE810400BF199
:10132000010BBBF1010F08BF5FEA170722BF12F1E3
:10133000010211F101014FF0004143F1000300F0FF
:10134000004043EA00007047F9D35708D0E746EA67
:10135000064613F1400F4FEA16461FDD13F1200F2A
:10136000DFBF16430A46002120335B42BED0C3F1E3
:10137000200746EA064602FA07F74FEA164646EA0B
:101380000706C3F1200722FA03F201FA07F721FA50
:1013900003F14FF0000342EA0702A7E746EA02061C
:1013A00046EA06464FEA164646EA0106BCBF46EA4A
:1013B0000646360C4FF000034FF000024FF00001DC
:1013C00094E72DE9804C9A46934670B491E8380032
:1013D00007C831EA400C48BF34EA430C03D5FFF795
:1013E000E6FDFFF780FFF0BCBDE8008C2DE9804CE6
:1013F0009A46934670B491E8380007C810F0804FC1
:1014000008BF13F0804F03D100F005F8FFF76BFF22
:10141000F0BCBDE8008C20F07F4780EA030023F099
:101420007F4C07EB0C03A3F57C5300F00040A3F1C5
:10143000FE0392F0000F00F0B38095F0000F00F073
:1014400077802DE901494FEA11404FEA144621EA1D
:10145000004800FB06FC24EA064708FB06F607FBEB
:1014600008F800FB07F718EB06484CEB164C4FEA60
:10147000124B18EB07484FEA15464CEB174022EA8F
:101480000B4E0BFB06FC25EA06470EFB06F607FB98
:101490000EFE0BFB07F71EEB064E4CEB164C4FF007
:1014A00000061EEB074E4CEB174B18EB0B0840F1F8
:1014B000000018EB0E0B58EB000840F100008F1AEB
:1014C0004FF000013CBFC943661B14BFB5EB040CD1
:1014D00000213CBFC943F61B4FEA17444EEA8E0E6B
:1014E00027EA04454FEA1C4704FB07622CEA074C35
:1014F00005FB07F70CFB05F604FB0CFC16EB074697
:1015000042EB174216EB0C4642EB1C421BEB060665
:1015100058EB0202414146EA9E0601D5BDE8018929
:10152000B619524141EB0101A3F10103BDE8018964
:101530004FEA14454FEA114724EA054621EA074CD1
:1015400005FB07F406FB07F70CFB06F105FB0CFC9B
:1015500011EB074144EB17444FEA124711EB0C41E2
:1015600044EB1C4422EA074C05FB07F206FB07F795
:101570000CFB06F605FB0CFC16EB074642EB17428C
:1015800016EB0C4642EB1C456A1854F1000148BFAB
:101590007047B619524141EB0101A3F101037047B5
:1015A00095F0000F37D04FEA11424FEA144721EA75
:1015B000024624EA074C02FB07F106FB07F70CFB87
:1015C00006F402FB0CFC14EB074441EB17414FEA15
:1015D000154714EB0C4441EB1C4125EA074C02FB78
:1015E00007F506FB07F70CFB06F602FB0CFC16EBF7
:1015F000074645EB174516EB0C4645EB1C42121906
:1016000051F1000148BF7047B619524141EB010149
:10161000A3F1010370474FEA14454FEA114724EA4A
:10162000054621EA074C05FB07F106FB07F70CFB13
:1016300006F24FF0000605FB0CFC12EB074241EBF3
:10164000174112EB0C4251EB1C4148BF70479218F6
:1016500041EB0101A3F101037047000070B504469E
:101660000068816811F0010F2DD18168174A11427D
:101670001AD18168D5432940491C816000F02CFEB5
:1016800006461BE0816811F0010F03D181682940F3
:10169000491C816000F020FE801B02280ED92068C2
:1016A0000068C043C00709D0E06D40F01000E0655D
:1016B000206E40F001002066012070BD20680168A6
:1016C000C943C907DED1002070BD00003F00008083
:1016D00070B529480168294CA269891A642949D33F
:1016E0000068A06103F07AFC03F067FE9FED241B05
:1016F00053EC112B03F0DCFC9FED231B53EC112B5F
:1017000003F06EFE41EC100B9FED211B84ED0A0BE4
:1017100053EC112B03F064FE03F022FEC2B22270E0
:10172000E17904F10E00217203780125934201D979
:1017300000200AE04378934201D9E57106E0807801
:10174000904201D9022000E00320E071E3798B424E
:1017500010D001D910A100E014A11948FEF734FE01
:101760001748FEF76DFF82B232231549154801F084
:1017700031FE257370BD00004000002008000020ED
:101780000000000000FEAF406666666666660A40BE
:10179000CDCCCCCCCC4C3E40413A48253032752B98
:1017A0004C2531752B550D0A00000000413A4825A3
:1017B0003032752B4C2531752B440D0A000000008A
:1017C0005D000020F4000020FEE77047002240F694
:1017D000B83306E00021491C89B29942FBD3521C60
:1017E00092B28242F6D3704772B6FEE72DE9F84F07
:1017F00000270446009790F85800DFF8D8930D466C
:10180000B846012811D0012684F85860206802F0FB
:1018100009FA60B1E06D40F02000E0655FF001077B
:1018200084F858803846BDE8F88F0220FBE7D5E9F8
:1018300000210C23206803EA91131844036B01F084
:101840001F014FF01F0C0CFA01FCC2F3846223EA63
:101850000C038A4013430363206802F0E3F98246D5
:10186000206802F0DBF95AEA00003CD1AA68296836
:101870002068B2F1004F37D002F0D8F920684169F2
:1018800021F00041416120686969C268C2F3C10268
:10189000520091402A69042A31D000EB82002B6863
:1018A000026EDFF834C303F0F84302EA0C020B4384
:1018B0001A4342F00041016620682A69A96900EBD9
:1018C0008200026E22F080720A430266297F22683B
:1018D0002869012910D0002102EB8000026E22F05D
:1018E00000720A4302667DE0002202F09FF9206840
:1018F000416941F00041C5E74FF00071ECE700217C
:1019000002F086F9400320684FF0000172D002F027
:101910007FF990FAA0F0B0FA80F1286842036ED007
:1019200090FAA0F0B0FA80F0814204D10022114672
:10193000206802F08AF90121206802F069F9400369
:1019400020684FF001015DD002F062F990FAA0F03A
:10195000B0FA80F12868420359D090FAA0F0B0FAAA
:1019600080F0814204D100220121206802F06DF94B
:101970000221206802F04CF9400320684FF0020178
:1019800048D002F045F990FAA0F0B0FA80F128684A
:10199000420344D090FAA0F0B0FA80F0814204D122
:1019A00000220221206802F050F90321206802F091
:1019B0002FF9400320684FF0030133D002F028F9DB
:1019C00090FAA0F0B0FA80F1286842032FD090FA84
:1019D000A0F0B0FA80F0814204D1002203212068F7
:1019E00002F033F92068816811F0010F22D0A8E0DD
:1019F00000E004E002F00CF9C0F384618DE7C0F36D
:101A0000846091E702F004F9C0F38461A2E7C0F3B7
:101A10008460A6E702F0FCF8C0F38461B7E7C0F386
:101A20008460BBE702F0F4F8C0F38461CCE7C0F354
:101A30008460D0E7EB6829684B4550F8B03FC1F3AC
:101A4000120101D10B4300E08B430360E868484575
:101A500077D1286841031CD090FAA0F1B1FA81F146
:101A6000491C01F01F0109294FEA403132D80029F1
:101A700012D000BF90FAA0F1B1FA81F101F1010199
:101A800001F01F0106FA01F609D100BFC0F384611D
:101A900009E0C0F38461E3E7C0F38461EEE790FA04
:101AA000A0F1B1FA81F101F1010101F01F0146EA53
:101AB000816102D1C0F3846003E090FAA0F0B0FA33
:101AC00080F000F1010000F01F0000EB400041EA4F
:101AD000005132E000290ED090FAA0F1B1FA81F164
:101AE00001F1010101F01F0106FA01F606D100BF64
:101AF000C0F3846106E0C0F38461F1E790FAA0F1DD
:101B0000B1FA81F101F1010101F01F0146EA8161A1
:101B100002D1C0F3846003E090FAA0F0B0FA80F044
:101B200000F1010000F01F002C4A00EB400002EB26
:101B3000005041EA000141F00071AA68206802F0FB
:101B400075F827482A6802423FF46AAE2548816842
:101B5000254B01F0E0719A4202D0244B9A421CD1ED
:101B60000B021AD42268B2F1A04F7FF459AE8268FA
:101B700041F4000122F0E0720A4382601C481D49D2
:101B80000068B0FBF1F0401C00EB4000800000E07A
:101B9000401E00900028FBD142E6174D174BAA4289
:101BA00007D1CD0105D422689A42F5D041F0807169
:101BB00009E0134DAA42EFD14A02EDD422689A42BD
:101BC000EAD041F48001826822F0E0720A43826028
:101BD00026E6000000007F4000F0FF03000020FE2A
:101BE0000000088000030050000021C31000C090D6
:101BF00044000020400D0300000052C700010050C7
:101C0000000084CB0068006C70470000F8B54FF00E
:101C1000000504002E46009502D0E06D10B107E0EB
:101C20000120F8BD204600F0EFF8266684F85860E1
:101C300020688168C1F3407119B181686A4A114016
:101C4000816020688168C1F3007189B98168674A41
:101C5000114041F080518160654866490068B0FBE1
:101C6000F1F04000801C00E0401E00900028FBD1F5
:101C700020688168C1F3007141B9E16D41F0100144
:101C8000E165216E41F001012166012501F0CAFFE5
:101C9000E16DC90600D430B1E06D40F01000E065A0
:101CA00001252846F8BDE06D20F4807040F0020068
:101CB000E0652068806810F0010F11D14FF0A0405E
:101CC00080684D4900F00100896801F00101084376
:101CD00006D14A486168826822F47C120A43826015
:101CE000E168E06B627F0843A16841EA4231084342
:101CF00094F8241040EA0140012904D1218D404A82
:101D000002EB41410843E16A29B101F47871226B89
:101D1000014342EA01002168CA683A4B1A40024373
:101D2000CA6020680169626B21F040611143016162
:101D3000206801F077FF0646206801F06FFF30430E
:101D40002ED1207F94F83810800340EA41022068A9
:101D5000C16844F2020399431143C160206900281D
:101D6000206801690AD041F480310161206850F88F
:101D7000C01F22696FF30D01114307E021F4803188
:101D80000161206850F8C01F6FF30D01016094F8E5
:101D9000400001280CD02068016921F00101016197
:101DA000606901282068016B21F00F0111D013E058
:101DB000D4E911010843D4E91312114308432168FF
:101DC0000A6940F2FC739A43104340F00100086135
:101DD000E6E7226A521E11430163E06D20F0020023
:101DE00040F00100E0655CE7C0FFFF5FC0FFFF7FE0
:101DF00044000020400D030000010050000300508B
:101E00000000FEFF0740F0FF10B598B00446142113
:101E100011A8FEF734FC44216846FEF730FC154952
:101E20002068884223D1C401400500940F90684681
:101E300000F050FB08B1FFF7D7FC0F48C16C41F42C
:101E40000051C164C16C01F400511691C16C41F0A4
:101E50000201C164C06C11A900F0020016900320B9
:101E6000CDE9114000201390044800F007F918B0A4
:101E700010BD0000000100500010024000040048A6
:101E80002DE9F04104463848806800F01F052068BD
:101E900001F0C8FE18B102210846BDE8F08194F8AF
:101EA000580001280CD0012084F858002046FFF784
:101EB000D5FB01004FF0000304D084F85830EBE765
:101EC0000220EAE7E06D40F60162904340F4807042
:101ED000E065264A20684FF0A046904201D137467F
:101EE00000E00746874200D01DB9E76D27F4801750
:101EF000E765E76DFF0404D5276E27F00607276620
:101F000000E023661C27076084F858302068904260
:101F100001D1334600E00346834215D0A5B1052D1B
:101F200012D0092D10D0E36D43F48013E365904285
:101F300000D13046C0688001AED5E06D20F400507D
:101F400040F48050E065A7E7C268920105D5E26DD4
:101F500022F4005242F48052E2658268044B1A4037
:101F6000121D826098E7000000030050000100503D
:101F7000C0FFFF7F10B590F8253000210122022B11
:101F800003D00421C163012122E003681C6824F00E
:101F90000E041C60836C1C6824F480741C6003684D
:101FA0001C6824F001041C6090F84430046C03F0B9
:101FB0001F0302FA03F36360D0E913345C60436DDE
:101FC00033B11C6824F480741C60D0E916345C6062
:101FD00080F82520002280F82420084610BD70B526
:101FE00090F82520002401212346022A07D004224C
:101FF000C26380F8251080F82430012429E00268AB
:10200000156825F00E0515600268156825F00105B4
:102010001560826C156825F48075156090F8442071
:10202000056C02F01F0201FA02F26A60D0E9132582
:102030005560426D32B1156825F480751560D0E9A0
:102040001625556080F8251080F82430816B01B189
:102050008847204670BD000070B5044600F03CF98A
:102060000546601C02D004484068044400F034F97E
:10207000401BA042FAD370BD380000202DE9F04F7C
:10208000DFF82092002301260324A9F1040B85B078
:102090000F2709F1040AABF1040EFAE006FA03F582
:1020A0002A407CD091F804C00CF0030CBCF1010F65
:1020B00002D0BCF1020F26D1D0F808C0CDF800C084
:1020C0004FEA430C04FA0CF8CDF810C0DDF800C05C
:1020D0002CEA080CCDF800C0D1F80C80DDF810C057
:1020E00008FA0CF8DDF800C048EA0C08C0F80880CF
:1020F000D0F804C02CEA050C0D79C5F300159D40FD
:1021000045EA0C0545600D79ED43AD070ED0C56875
:102110004FEA430804FA08FC25EA0C05D1F808C088
:102120000CFA08FC4CEA050CC0F80CC00D7905F05F
:102130000305022D16D1DD0800EB850CCDF808C093
:10214000DCF820805D074FEAD56C07FA0CF528EA29
:1021500005080D6905FA0CF5DDF808C045EA080523
:10216000CCF8205005684FEA430CCDF808C004FABB
:102170000CFC25EA0C0591F804C00CF00308DDF80E
:1021800008C008FA0CF848EA0508C0F800804D6855
:1021900015F4403F7CD0444DD5F860C000E077E0B6
:1021A0004CF0010CC5F860C02D6E23F0030C05F057
:1021B000010500953D4D65440295AD684FEA837C6D
:1021C0004FEA1C7807FA08FC25EA0C05B0F1904F9D
:1021D00006D0DFF8DCC0604505D14FF0010C20E0EF
:1021E0004FF0000C1DE0DFF8CCC0604502D14FF08D
:1021F000020C16E0DFF8C0C0604502D14FF0030CBE
:102200000FE0DFF8B8C0604502D14FF0040C08E0E1
:10221000DFF8ACC0604502D14FF0050C01E04FF093
:10222000060C0CFA08FC4CEA050C029DC5F808C027
:10223000D9F80050CC46D1F8048095435FEAC8280D
:1022400000D51543CCF80050DAF80050D446D1F848
:10225000048095435FEA882800D51543CCF80050E8
:10226000DBF80050DC46D1F8048095435FEA8838FB
:1022700000D51543CCF80050DEF80050F446D1F8F4
:10228000048095435FEAC83800D51543CCF8005068
:102290005B1C0A6832FA03F57FF400AF05B0BDE8B5
:1022A000F08F0000080401400010024000000140CF
:1022B0000004004800080048000C004800100048D6
:1022C000001400480069084000D0012070470AB19E
:1022D00081617047816270470148806870470000E3
:1022E00038000020024881684268114481607047CC
:1022F0003800002010B50024032000F073F80F20F0
:1023000000F008F808B1012401E000F025F82046AB
:1023100010BD000070B50E4E05460024706898B1DF
:102320004FF47A71B1FBF0F00A490968B1FBF0F0A3
:1023300000F062FD40B9102D06D200222946501E41
:1023400000F030F8356000E00124204670BD000048
:1023500038000020440000200A4882B0016E41F09D
:1023600001010166016E01F001010091816D41F0F2
:1023700080518165806D00F08050009002B000F0C7
:10238000A1B8000000100240002809DB00F01F0285
:10239000012191404009800000F1E020C0F80011C7
:1023A00070470000F0B40E4B1B680C46C3F30223C9
:1023B000C3F10705042D00D90425191D072901D2F1
:1023C000002300E0DB1E012606FA05F1491E21402C
:1023D00099409E40761E16403143F0BC02F0E1BDAC
:1023E0000CED00E0064900F0070208684FF6FF0315
:1023F000184040EA0220034A10430860704700007A
:102400000CED00E00000FA052B492C4B0A68322144
:102410004A432B4940B1B0F5007F086829D020F429
:10242000C06040F480602CE00868C0F341200228BE
:1024300004D051F8800F20F4807022E0D1F88000A1
:1024400020F48070C1F88000086820F4C06040F477
:1024500000700860B2FBF3F0401C00E0401E4A69C7
:10246000520501D50028F9D1486940050AD5032055
:102470007047C0F34120022806D051F8800F40F485
:102480008070086000207047D1F8800040F48070B0
:10249000C1F88000086820F4C06040F40070086053
:1024A000B2FBF3F0401C00E0401E4A695205DBD548
:1024B0000028F9D1D8E700004400002040420F0076
:1024C000007000400248816841F48041816070479B
:1024D000007000402DE9F8430446006800269D4D39
:1024E00000035ED5A86D0027C00008D4A86D40F099
:1024F0008050A865A86D012700F080500090DFF89B
:102500005892D9F8001041F48071C9F80010FFF713
:10251000E3FE804606E000BFFFF7DEFEA0EB08000A
:1025200002282BD8D9F80000C005F5D5D5F89000C1
:1025300010F4407014D0216C814211D0D5F8900075
:10254000D5F8901020F4407041F48031C5F8901017
:10255000D5F8901021F48031C5F89010C5F890009E
:10256000C00711D0FFF7B8FE804641F2883907E076
:10257000FFF7B2FEA0EB0801494501D903260BE0A5
:10258000D5F890008007F3D5D5F89000216C20F4A1
:1025900040700843C5F890001FB1A86D20F080502E
:1025A000A8652078C00707D0D5F88800616820F0BA
:1025B00003000843C5F888002078800707D5D5F8C0
:1025C0008800A16820F00C000843C5F88800207836
:1025D000400707D5D5F88800E16820F030000843AF
:1025E000C5F888002078000707D5D5F8880021694C
:1025F00020F0C0000843C5F888002078800607D581
:10260000D5F88800616920F440600843C5F8880067
:102610002078400607D5D5F88800A16920F44050FD
:102620000843C5F888002078000607D5D5F888004B
:10263000E16920F440400843C5F888002088C005BF
:1026400007D5D5F88800216A20F440300843C5F842
:1026500088002088800507D5D5F88800616A20F4B5
:1026600040200843C5F88800208840050FD5D5F8DC
:102670008800A16A20F440100843C5F88800A06AC9
:10268000B0F5801F03D1E86840F48010E86020882E
:1026900000050FD5D5F88800E16A20F44000084312
:1026A000C5F88800E06AB0F5800F03D1E86840F40F
:1026B0008010E8602088C0040FD5D5F88800216B11
:1026C00020F040700843C5F88800206BB0F1807F8F
:1026D00003D1E86840F48010E86020884FF0006182
:1026E00080040ED5D5F88800626B20F0406010435E
:1026F000C5F88800606B884203D1E86840F4801018
:10270000E860208840040ED5D5F88800A26B20F040
:1027100040601043C5F88800A06B884203D1E86888
:1027200040F48010E860208800040FD5D5F88800B8
:10273000E16B20F040500843C5F88800E06BB0F131
:10274000805F03D1E86840F48030E8603046BDE83F
:10275000F883000000100240007000402DE9F047AF
:102760000E4605004FF0000725D0DFF8AC81D8F801
:10277000000000F00F00B0420CD2D8F8001021F099
:102780000F013143C8F80010D8F8000000F00F0026
:10279000B04210D12968614CC80741F2883A5AD03A
:1027A0006868DFF87C91032808D0022820682DD0C3
:1027B000400500282CDB0120BDE8F087206880015F
:1027C000F9D5E06800F00302E068C0F30310401C94
:1027D000032A19D0534A00BFB2FBF0F0E268C2F3FB
:1027E00006225043E268C2F34162521C5200B0FB21
:1027F000F2F0484517D9A06810F0F00F0CD0880708
:1028000011D5A86840B10EE0474AE5E78003D0E75C
:1028100000F0B6F8484506D9A06820F0F00040F076
:102820008000A0608027A068696820F0030008434A
:10283000A060FFF751FD814606E000BFFFF74CFDA9
:10284000A0EB090151453AD8A068696800F00C0076
:10285000B0EB810FF2D12868810714D5400703D56A
:10286000A06840F4E060A0602878000705D5A06863
:1028700020F4605040F4E060A060A068A96820F0F7
:10288000F000084304E0802F03D1A06820F0F0009E
:10289000A060D8F80010404601F00F01B14216D9EF
:1028A000016821F00F0131430160FFF715FD074674
:1028B00007E000BFFFF710FDC11B514501D9032000
:1028C0007AE7D8F8000000F00F00B042F2D1287883
:1028D000400705D5A068E96820F4E0600843A060DF
:1028E0002878000706D5A068296920F4605040EADE
:1028F000C100A06000F044F8A1680C4AC1F30311C4
:10290000515C01F01F01C84009490860094800688E
:10291000BDE8F047FFF7FEBC002002400010024077
:1029200000B4C4040024F40000127A00E267000836
:1029300044000020380000200548064900688968E6
:10294000054AC1F30221515C01F01F01C8407047E4
:102950004400002000100240F267000805480649C4
:1029600000688968054AC1F3C221515C01F01F016A
:10297000C84070474400002000100240F267000881
:10298000184910B58868C0F381021748012A0BD096
:102990008A684310C2F38102022A06D08A68C2F311
:1029A0008102032A03D0002010BD184610BDCA685A
:1029B00002F00304CA68C2F30312521C032C02D0B3
:1029C000B0FBF2F001E0B3FBF2F0CA68C968C2F3F1
:1029D00006225043C1F34161491C4900B0FBF1F0AC
:1029E00010BD0000001002400024F4002DE9F8435F
:1029F00004007AD02078FA4DC00747D0A868E9686B
:102A000000F00C0001F003010C2802D0082817D0B8
:102A100001E0032914D06068B0F5803F17D0B0F50D
:102A2000A02F286817D020F480302860286820F470
:102A3000802028606068E0B1FFF74EFC064614E095
:102A40002868800322D560680028D2D01EE028685C
:102A500040F48030EDE740F480202860F7E700BFC5
:102A6000FFF73AFC801B642870D828688003F7D5EC
:102A70000CE0FFF731FC064605E000BFFFF72CFC39
:102A8000801B6428F0D828688003F7D4207880075A
:102A90004CD5A868E96800F00C0001F003010C288F
:102AA00002D004280DD001E002290AD0E0680028F5
:102AB00028682BD040F480702860FFF70DFC064694
:102AC00019E02868400502D5E068002891D06868C0
:102AD000217C20F0FE4040EA01606860C148006847
:102AE000FFF718FC002800D120E076E1FFF7F4FBA7
:102AF000801B0228B8D828684005F7D56868217C73
:102B000020F0FE4040EA016068600FE020F4807031
:102B10002860FFF7E1FB064605E000BFFFF7DCFB9E
:102B2000801B0228A0D828684005F7D42078000729
:102B300029D560690028D5F8940013D040F0010031
:102B4000C5F89400FFF7C8FB064606E090E000BF1A
:102B5000FFF7C2FB801B022886D8D5F894008007B7
:102B6000F6D510E020F00100C5F89400FFF7B4FBA3
:102B7000064604E0FFF7B0FB801B022878D8D5F8A2
:102B800094008007F6D42078400761D5A86D002610
:102B9000C00008D4A86D40F08050A865A86D01263B
:102BA00000F08050009090480168C90511D4016878
:102BB000804641F480710160FFF78EFB074604E018
:102BC000FFF78AFBC01B022852D8D8F80000C005C6
:102BD000F6D5A068012815D00528D5F8900016D0A4
:102BE00020F00100C5F89000D5F8900020F0040016
:102BF000C5F89000A06841F28838B8B1FFF76CFBC7
:102C000007460EE0D5F8900040F00100F0E740F0F4
:102C10000400C5F89000F5E7FFF75EFBC11B4145D6
:102C200026D8D5F890008007F6D50CE0FFF754FBC6
:102C3000074604E0FFF750FBC11B414518D8D5F803
:102C400090008007F6D41EB1A86D20F08050A865D2
:102C50002078800629D5A0690028D5F8980013D0DF
:102C600040F00100C5F89800FFF736FB064606E085
:102C700077E000BFFFF730FB801B022877D8D5F83C
:102C800098008007F6D510E020F00100C5F8980004
:102C9000FFF722FB064604E0FFF71EFB801B02281D
:102CA00065D8D5F898008007F6D4E069F0B3A96834
:102CB000C1F38101032961D00228286820F08070C7
:102CC00028600BD0E86820F00300E860E868474916
:102CD0000840E860FFF700FB04464BE0FFF7FCFA12
:102CE000064604E0FFF7F8FA801B02283FD8286860
:102CF0008001F7D4F4E908016FF00F0202EB011133
:102D00000843218A5204490802EB4151A26841EA72
:102D100002210843217D4FF07E42490802EB4161C8
:102D20000843217B40EAC160E96800E062E0304A84
:102D300011400843E860286840F080702860E86827
:102D400040F08070E860FFF7C7FA044605E000BF76
:102D5000FFF7C2FA001B022809D828688001F7D5BE
:102D600048E004E0FFF7B8FA001B022802D903206C
:102D7000BDE8F88328688001F4D43BE00128F7D04F
:102D8000E868226A00F00301914226D1616A00F0EE
:102D9000F0020901103991421FD1A26A00F4FE41EC
:102DA000B1EB022F19D194F82C2000F07841B1EB4F
:102DB000C26F12D1218E00F4C00249084905A1F565
:102DC0000011914209D194F8341000F0C060490814
:102DD0004906A1F1007181420CD00120C8E7000032
:102DE000001002403800002000700040FFFFEEFE9F
:102DF0000C809F010020BBE710B5401EB0F1807F22
:102E000001D3012010BD4FF0E02460610F21601755
:102E100002F0C7F80020A06107202061002010BD4B
:102E200090F88010012918D0012180F88010242109
:102E3000C0F8841050F8641B0A680B6823F0010383
:102E40000B6022F000510022026050F8643C1960CF
:102E500020210162027710467047022070477047B8
:102E6000704770B5044690F8800001281DD00120FD
:102E700084F880002420C4F8840020680568026873
:102E800022F0010202602068826822F060620A4338
:102E90008260204601F03AFB206805602020C4F8DB
:102EA0008400002084F8800070BD022070BD70B5E1
:102EB000044690F8800001281DD0012084F880008D
:102EC0002420C4F8840020680568026822F001020A
:102ED00002602068826822F060420A4382602046D5
:102EE00001F014FB206805602020C4F88400002055
:102EF00084F8800070BD022070BD70477047704735
:102F00002DE9F04103680446D86919689A6840F6CB
:102F10000F0528424FF0000509D186067ED501F045
:102F2000200602F080573E4378D0216F27E1A94E5A
:102F3000A94F16400F40374370D0C70709D0CF05BF
:102F400007D501271F62D4F88C3043F00103C4F881
:102F50008C3083070AD5D30708D0276802233B6249
:102F6000D4F88C3043F00403C4F88C3043070AD5FE
:102F7000D30708D0276804233B62D4F88C3043F091
:102F80000203C4F88C3003070CD501F0200333434F
:102F900008D0266808233362D4F88C3043F0080345
:102FA000C4F88C3003050BD54B0109D526684FF4C6
:102FB00000633362D4F88C3043F02003C4F88C30C3
:102FC000D4F88C30002B3AD0800609D501F02000CF
:102FD00002F08051084303D0216F09B12046884791
:102FE000D4F88C0021688968490602D410F0280FB3
:102FF00027D0204601F04AFB2068806840061BD598
:103000002068083050E8001F21F0400140E800121D
:10301000002AF5D1E06F78B1704900E017E08163D4
:10302000E06FFEF7DCFF002809D0E06F816B00E065
:103030002046BDE8F04108472046FFF760FFBDE8A5
:10304000F0812046FFF75BFFC4F88C50F7E7E76E8E
:103050002026012F7ED1C7067CD5CF067AD5102039
:10306000186220688068400642D5E16F08684068B1
:103070000004000CE3D0B4F85C208242DFD9A4F84D
:103080005E000868006880062BD4206850E8001FA6
:1030900021F4807140E80012002AF6D1206808303F
:1030A00050E8001F21F0010140E80012002AF5D18C
:1030B0002068083050E8001F21F0400140E800126D
:1030C000002AF5D1C4F88860E566216851E8000F50
:1030D00020F0100041E80002002AF6D1E06FFEF770
:1030E00049FFB4F85C00B4F85E10401A81B22CE0DD
:1030F000B4F85C00B4F85E10401A81B2B4F85E0017
:1031000000289CD000299AD0226852E8000F20F4B1
:10311000907042E80003002BF6D12E4BDB43206871
:10312000083050E8002F1A4040E80027002FF6D161
:10313000C4F88860E5662567226852E8000F20F031
:10314000100042E80003002BF6D12046FFF787FE6F
:1031500075E7FFE7C70209D5570207D54FF480107E
:1031600018622046BDE8F041FFF7C8BE03060AD545
:1031700001F0800302F40002134304D0616F0029C0
:103180007FF456AF5BE7420611D54A060FD52046BD
:10319000016851E8002F22F0400241E80023002B93
:1031A000F6D1C0F88460456700F072F947E7020283
:1031B00006D54A0004D52046BDE8F041FFF79DBE84
:1031C000C001C5D50029C3DA2046BDE8F041FFF7AC
:1031D00047BE0000010000102001000479460008ED
:1031E00010B5040003D0D4F8840010B107E001202A
:1031F00010BD002084F88000204600F027F824202D
:10320000C4F884002068016821F0010101602046B3
:1032100001F07EFC0128EBD0A06A10B1204601F03D
:1032200097F92068416821F49041416020688168E5
:1032300021F02A0181602068016841F001010160EC
:103240002046BDE8104001F0E7B9000010B598B085
:103250000446142111A8FDF712FA44216846FDF72F
:103260000EFA1B492068884230D101200024CDE9A4
:1032700000046846FFF72EF908B1FEF7B5FA1548C5
:10328000016E41F480410166016E01F480411691A6
:10329000C16C41F00101C164C06C11A900F00100D2
:1032A00016904FF4C06011900220CDE9120407205F
:1032B000CDE914404FF09040FEF7E0FE00220321DC
:1032C0002520FFF76FF82520FFF75EF818B010BD36
:1032D000003801400010024030B4D0F88830202B74
:1032E00020D1E1B1DAB190F88030012B1AD001235E
:1032F00080F880300023C3660B4C0368A3420BD0D8
:103300005B681B0208D5046854E8003F43F0806303
:1033100044E80035002DF6D130BC01F033BD01206A
:1033200030BC70470220FBE70080004038B51C4CE1
:10333000A4F10A05207843280ED1EB792A7819A147
:103340001C48FDF741F81B48FDF77AF982B2322399
:103350001849194800F03EF82078532812D1104837
:10336000001D817800914378027814A11148FDF77F
:103370002BF81048FDF764F982B232230D490E484C
:1033800000F028F82078432801D0532801D10120EB
:103390006873BDE83840012201490748FFF79CBF28
:1033A00012000020433A48253032752B4C253175E8
:1033B0000D0A00005D000020F4000020533A544C38
:1033C000253032752B544D2532752B54482530321B
:1033D000750D0A002DE9F8430446D0F884001F4615
:1033E00016460D46202851D1DDB1D6B194F88000A3
:1033F00001284BD0012084F880004FF00008C4F869
:103400008C802120C4F884001834FEF765FFA6875D
:103410008146E68754F8100C183CB0F5805F03D065
:1034200004E00120BDE8F883206920B12E46002584
:1034300084F8808010E00026FAE78021204601F021
:103440002DFDB8B9C6B116F8010B21688862B4F831
:103450005600401EA4F85600B4F856004B464FF0F4
:10346000000200970028E8D14FF04001204601F00B
:1034700015FD30B10320D5E735F8020BC0F3080085
:10348000E3E72020C4F884000020CBE70220C9E74E
:103490007047FEE700B585B014216846FDF7EFF8E8
:1034A000C020009001200190029002200390694604
:1034B0000248FEF7E3FD05B000BD0000000400482F
:1034C00070B50824002500F0A9FF13E06806050E7A
:1034D000002000F08BFF142001F07AFD142001F091
:1034E00077FD012000F082FF142001F071FD00F053
:1034F00089FF0543641EE4B2E8D2002000F076FFA5
:10350000142001F065FD00F0ABFF284670BD10B53A
:10351000002000F099FF142001F05AFD142001F062
:1035200057FD012000F062FF142001F051FD002042
:1035300000F05CFFBDE81040142001F049BD70B5FB
:103540000446082516E000F051FF142001F040FD6C
:1035500004F0800000F078FF142001F039FD6006CF
:10356000040E142001F034FD012000F03FFF142070
:1035700001F02EFD6D1EEDB24FF00000E3D200F021
:1035800035FFBDE87040142001F022BD10B50120C8
:1035900000F05AFF142001F01BFD142001F018FD6B
:1035A000012000F023FF142001F012FD002000F0A4
:1035B0001DFFBDE81040142001F00ABD10B5012028
:1035C00000F042FF142001F003FD012000F00EFF87
:1035D000142001F0FDFC002000F036FF142001F063
:1035E000F7FC002000F002FFBDE81040142001F0BD
:1035F000EFBC10B5002000F0F9FE142001F0E8FC4B
:10360000002000F021FF142001F0E2FC012000F076
:10361000EDFE142001F0DCFC012000F015FFBDE8F8
:103620001040142001F0D4BC10B5052400F0F6FEC3
:10363000142001F0CDFC012000F0D8FE142001F090
:10364000C7FC05E0641EA4B2142001F0C1FC6CB1FB
:1036500000F0D8FE0028F5D100F002FF002000F0B5
:10366000C5FE142001F0B4FC002010BD00F0F8FEEF
:10367000FFF7BFFF012010BD70B515460E4604468A
:10368000FFF79CFFA020FFF75AFFFFF7CDFF304662
:10369000FFF755FFFFF7C8FFFFF790FFA120FFF7E7
:1036A0004EFFFFF7C1FF09E0FFF70AFF04F8010B27
:1036B00015B1FFF72CFF01E0FFF768FF6D1EEDB2BB
:1036C000F2D2BDE87040FFF794BF000070B5154618
:1036D0000E460446FFF772FFA020FFF730FFFFF70A
:1036E000A3FF304602E000BF14F8010BFFF727FFED
:1036F000FFF79AFF6D1EEDB2F6D2FFF77AFFBDE835
:1037000070404FF4FA7001F063BC0000344810B50B
:103710000168344CE269891A322922D30068E061D9
:1037200000F07AF8E070A17920EA010241402271AC
:1037300081436171A071012104F10E00012A11D0B1
:10374000022A38D0032A3FD0042A0AD1617A0029FC
:1037500007D0014411F8010C052802D9401F01F8D7
:10376000010C10BD627ABAB1027841788A4215D252
:103770008078814212D2002060721BA1482000F0A4
:10378000FFF81848032200210E30FFF79FFFBDE825
:1037900010400520FEF760BC617210BD4FF4784008
:1037A00000F09EF916A1482000F0EAF8BDE81040AC
:1037B0001F2000F095B9607A0028EED0401CC0B2FE
:1037C00060720428E8D010BD617A0029FBD008445B
:1037D00010F8011C5F29F6D2491D00F8011C10BD2C
:1037E0004000002008000020202020202020202051
:1037F0002020202020202020202020200000000049
:103800002020205468726573686F6C642045727262
:103810006F7220202000000070B50E4D00240121A1
:103820002846FEF74FFD00B9012402212846FEF785
:1038300049FD00B9022404212846FEF743FD00B9E2
:10384000032401214FF09040FEF73CFD00B9042411
:10385000204670BD0004004800B585B014216846BC
:10386000FCF70DFF4FF6FF70009000200321CDE91B
:103870000201019069460248FEF700FC05B000BD58
:103880000008004800B585B014216846FCF7F7FE33
:103890004FF6FF700090012001900320039000205C
:1038A000029069460248FEF7E9FB05B000BD000042
:1038B0000008004870B5002406462146204600F066
:1038C00003F900F041F94FF49635304600F010F955
:1038D000641CAC42F9D370BD30B587B01421684682
:1038E000FCF7CDFE1E48C16C41F00401C164C16CFF
:1038F00001F004010591C16C41F00101C164C16C8A
:1039000001F001010591C16C41F00201C164C06C7C
:10391000012500F0020005904FF44870CDE9000544
:1039200000240394694602940E48FEF7A7FB280280
:1039300003940090CDE901544FF09044694620462D
:10394000FEF79CFBFFF79EFFA06940F48070A0612A
:1039500004481830016841F40871016007B030BDB7
:103960000010024000040048203AD2B2034B02EBA0
:10397000420203EB021200F019B80000EA550008F9
:10398000F0B50E460746002540F23F1407E02146F9
:103990003846FFF7E9FF103C6D1CA4B2761C327864
:1039A000002A01D0142DF2D3F0BD00002DE9F0471C
:1039B00091468A460026044600F086F8DFF84080EB
:1039C000012700BF00F0C0F85FF0000539F81600CD
:1039D00007FA05F10842404601D1408800E000881E
:1039E00000F086F86D1C102DF0D3641CE4B2514633
:1039F000204600F069F8761C182EE3D3BDE8F08766
:103A00000000002010B5FFF767FF002000F014F859
:103A1000084CA080A088A0F50241303906D000F003
:103A2000E3FB002000F008F8A08010BD00F053FB7D
:103A3000F7E700000000002070B51D490A6842F455
:103A400000720A600A6842F480720A60184C103CE6
:103A5000226842F020022260164A1060086840F096
:103A60002000086000BF00BF00BF206840F02000B9
:103A70002060206840F480702060FFF7EDFE4FF07A
:103A80009041886A40F48070886200BF00BF00BF28
:103A90000848001F006885B2886940F4807088611A
:103AA000FFF7F0FE206840F400702060284670BDEB
:103AB000280400481408004801B5BDF80000014979
:103AC000488008BD0000002010B50C4601462020AB
:103AD00000F068F82146BDE81040212000F062B8EF
:103AE00001B5BDF800000149088008BD00000020B4
:103AF000134A116841F400711160114910390B68C3
:103B000043F480730B600B6843F020030B600D4B94
:103B10001860106840F02000106000BF00BF00BFB8
:103B2000086840F020000860086840F48070086071
:103B300000BF00BF00BF086840F400700860704715
:103B400028040048140800481449086840F400702C
:103B50000860086840F480700860104810380268F7
:103B600042F0200202600E4B22221A600A6842F0E4
:103B700020020A6000BF00BF00BF016841F02001C1
:103B80000160016841F48071016000BF00BF00BFA7
:103B9000016841F40071016070470000280400488A
:103BA00014080048184B10B51A6842F400721A60E5
:103BB0001A6842F480721A60134A103A146844F08A
:103BC00020041460114C2060186840F02000186038
:103BD00000BF00BF00BF106840F0200010601068F8
:103BE00040F4807010602160186840F02000186078
:103BF00000BF00BF00BF106840F0200010601068D8
:103C000040F48070106010BD28040048140800487B
:103C100000EB8100006E00F0F84070478068C0F350
:103C2000C00070478068C0F380007047042303EA37
:103C3000D15310B518444369C1F3045107248C4093
:103C4000A3438A401343436110BD00EB8100016E22
:103C500021F0004111430166704700002DE9F04159
:103C60003B4908683B4C6269821A2046642A407AC4
:103C700001D200286AD00968616180B136A118209C
:103C8000FFF77EFE334D3AA10E353F482A78FCF708
:103C90009BFB607A4FF47847012824D026E03BA1B3
:103CA0001820FFF76DFE22783EA13748FCF78CFB09
:103CB00035496020FFF764FE94ED0A0B3FA153ECF9
:103CC000102B3148FCF780FB2F499020FFF758FE5E
:103CD000E27940A12C48FCF777FBBDE8F0412A4986
:103CE000C020FFF74DBE3846FFF7E6FE26496020AC
:103CF000FFF746FE4FF6FF763046FFF7DDFE6A78A7
:103D00003AA12148FCF760FB607A022802D13846CC
:103D1000FFF7D2FE1C499020FFF732FE3046FFF736
:103D2000CBFEAA7837A11848FCF74EFB607A03282F
:103D300003D14FF6E070FFF7BFFE1349C020FFF735
:103D40001FFE3046BDE8F041FFF7B6BEBDE8F0818A
:103D5000400000200800002020205468726573682D
:103D60006F6C642053657475702020200000000083
:103D700020205468726573686F6C6420313A202586
:103D8000303275636D202000480000202020202064
:103D90004C6971756964204C6576656C2020202023
:103DA00000000000202020204865696768743A25DB
:103DB0003375636D2020202020000000202020206B
:103DC000565233373A25342E326C66562020202046
:103DD00020200000202020204C6576656C3A25319B
:103DE0007520202020202020200000002020546862
:103DF000726573686F6C6420323A202530327563C7
:103E00006D20200020205468726573686F6C6420F8
:103E1000333A2025303275636D20200070B5124D85
:103E2000044601224FF47F412846FEF750FA0F4E18
:103E3000012204213046FEF74AFA002204213046CE
:103E4000FEF745FA210200222846FEF740FA012239
:103E500004213046FEF73BFA3046BDE870400022B0
:103E60000421FEF734BA000000080048000C0048A6
:103E7000154930B40A681548036AD21AC82A21D3F2
:103E800009680162017B00220A2351B141784C1E6E
:103E9000447004D3C17A81F00201C17201E002735F
:103EA0004370417B51B181784C1E847004D3C17A38
:103EB00081F00401C17201E042738370C07A30BCAA
:103EC000FFF7ACBF30BC7047400000200800002066
:103ED00007490A680748436AD21AB2F57A7F05D3C0
:103EE00009684162C17A81F00101C1727047000026
:103EF000400000200800002030B589B0202168462D
:103F0000FCF7BDFB19481849002401604902C0E9CB
:103F10000114C46004250461C0E9054504774477B1
:103F20000121016280F82440C462046380F83840B3
:103F3000C46380F84040FDF769FE08B1FDF754FC0A
:103F40000B4800900620CDE901047F200594CDE9BF
:103F5000030569460548FDF749FC002801D0FDF737
:103F600043FC09B030BD0000000100508800002073
:103F70000080F03E2DE9F04186B014216846FCF740
:103F80007EFB3548C16C41F00401C164C16C01F095
:103F900004010591C16C41F02001C164C16C01F0C4
:103FA00020010591C16C41F00101C164C16C01F0B7
:103FB00001010591C16C41F00201C164C16C01F0C5
:103FC00002010591C16C41F00801C164C06C234F2E
:103FD00000F00800059001224FF47F413846FEF7BB
:103FE00076F9DFF87C80012204214046FEF76FF964
:103FF0004FF46040009001250024CDE9015469464A
:1040000038460394FEF73AF8CDE9005469464FF07C
:1040100090400294FEF732F80720CDE9000469468B
:1040200010480294FEF72AF84FF4F8500226CDE922
:104030000005CDE9024669463846FEF71FF8042020
:10404000CDE90005CDE9024669464046FEF716F87F
:1040500006B0BDE8F08100000010024000080048F2
:10406000000C004800040048184810B516490160CB
:104070004FF416514160002181600C22C160C0E9FB
:1040800004128161C161016241628162FFF7A8F897
:1040900008B1FDF7A9FB00210C48FEF708FF08B1A5
:1040A000FDF7A2FB00210948FEF7DBFE08B1FDF792
:1040B0009BFB0648FEF7B4FE002803D0BDE8104085
:1040C000FDF792BB10BD000000380140F400002055
:1040D000FEE7FEE7704730B501210020FFF762FDE3
:1040E0004FF47A70FDF772FB00210120FFF75AFDB3
:1040F00041F290711020FFF755FD4FF41C516020E4
:10410000FFF750FD01216120FFF74CFD0221462001
:10411000FFF748FD48F210011320FFF743FD48F276
:10412000FE011220FFF73EFD4FF4A0610220FFF7D1
:1041300039FD41F230010320FFF734FD40F2033432
:1041400021463020FFF72EFD21463120FFF72AFDC2
:1041500021463220FFF726FDE51E29463320FFF7D2
:1041600021FD03213420FFF71DFD21463520FFF7F7
:1041700019FD14213620FFF715FD21463720FFF7E2
:1041800011FD21463820FFF70DFD21463920FFF7AC
:1041900009FD29463A20FFF705FD03213B20FFF7E3
:1041A00001FD21463C20FFF7FDFC4FF4A0513D20CE
:1041B000FFF7F8FC4FF400719220FFF7F3FC214663
:1041C0009320FFF7EFFC40F60D019020FFF7EAFC8B
:1041D00041F218010320FFF7E5FCBDE8304040F252
:1041E00073110720FFF7DEBC10B543F20801E3208E
:1041F000FFF7D8FC1221E720FFF7D4FC41F2312170
:10420000EF20FFF7CFFC00210120FFF7CBFC4FF49C
:10421000E0610220FFF7C6FC41F230010320FFF706
:10422000C1FC00210420FFF7BDFC40F2072108205B
:10423000FFF7B8FC00210920FFF7B4FC00210A2099
:10424000FFF7B0FC00210C20FFF7ACFC00210D2093
:10425000FFF7A8FC00210F20FFF7A4FC002110208D
:10426000FFF7A0FC07211120FFF79CFC0021122082
:10427000FFF798FC00211320FFF794FCC820FDF7FE
:10428000EBFE41F290611020FFF78CFC40F22721F9
:104290001120FFF787FC3220FDF7DEFE1D211220E2
:1042A000FFF780FC3220FDF7D7FE4FF400611320AA
:1042B000FFF778FC14212920FFF774FC0B212B2039
:1042C000FFF770FC3220FDF7C7FE00212020FFF72A
:1042D00069FC00212120FFF765FC07213020FFF752
:1042E00061FC40F207713120FFF75CFC06213220AF
:1042F000FFF758FC40F204713520FFF753FC41F6FC
:1043000004713620FFF74EFC04213720FFF74AFCEA
:1043100000213820FFF746FC40F206713920FFF7F4
:1043200041FC40F201713C20FFF73CFC0F213D2095
:10433000FFF738FC00215020FFF734FCEF2151201B
:10434000FFF730FC00215220FFF72CFC40F23F1118
:104350005320FFF727FC4FF41C516020FFF722FC8D
:1043600001216120FFF71EFC00216A20FFF71AFCE3
:1043700000218020FFF716FC00218120FFF712FCAE
:1043800000218220FFF70EFC00218320FFF70AFCAA
:1043900000218420FFF706FC00218520FFF702FCA6
:1043A00010219020FFF7FEFB00219220FFF7FAFB7F
:1043B00003219320FFF7F6FB4FF488719520FFF758
:1043C000F1FB00219720FFF7EDFB00219820FFF77C
:1043D000E9FB41F218010320FFF7E4FBBDE81040C0
:1043E00040F273110720FFF7DDBB000008B104485D
:1043F00001E003481030016841F04001016070475E
:104400001804004810B580210348FDF75BFF012820
:1044100000D0002010BD00000004004800B585B0A9
:1044200014216846FCF72BF98020009000200190B1
:10443000012002900220039069460248FDF71EFE0B
:1044400005B000BD0004004808B1044801E003487D
:104450001030016841F08001016070471804004885
:1044600000B585B014216846FCF709F9802000905A
:10447000112001900020029002200390694602481A
:10448000FDF7FCFD05B000BD000400487047FDF7D6
:1044900029BF00B593B038216846FCF7F0F8142125
:1044A0000EA8FCF7ECF84FF40070FDF7ADFF02200A
:1044B000C1010391402104910121CDE9080100903F
:1044C0000A21CDE90A1007900C900D906846FEF77E
:1044D0008DFA08B172B6FEE70F200E9003200F9000
:1044E000002010901190129002210EA8FEF736F9CC
:1044F000002801D072B6FEE713B000BD0248016883
:1045000041F470010160704788ED00E030B5416E04
:10451000B9B1026891689268C1F342610B4B520FC6
:104520009C5CE50003F10804A25CB5FBF2F2A0F884
:104530006A205A5C615CD200B2FBF1F1A0F868100D
:1045400030BD0121A0F86A10F8E70000D26700082A
:1045500090F82810C90706D001684A68C36A22F497
:1045600000321A434A6090F82810890706D501687E
:104570004A68036B22F480321A434A6090F828108C
:10458000490706D501684A68436B22F480221A4322
:104590004A6090F82810090706D501684A68836BBD
:1045A00022F400421A434A6090F82810C90606D542
:1045B00001688A68C36B22F480521A438A6090F8BB
:1045C0002810890606D501688A68036C22F4005217
:1045D0001A438A6090F82810490611D501684A6884
:1045E000436C22F480121A434A60416CB1F5801F7B
:1045F00006D101684A68836C22F4C0021A434A60FB
:1046000090F82810090606D501684A68C06C22F4A3
:10461000002202434A607047F8B500260446C0F8FD
:104620008C60FDF759FE0546206800686FF07E47F4
:10463000000708D52B4600224FF4001120460097B2
:1046400000F02CFC60B92068006840070AD52B46B2
:1046500000224FF480012046009700F01FFC08B1B3
:104660000320F8BD2020C4F88400C4F8880044F872
:104670006C6F00202675F8BD10B5806A0021A0F887
:104680005E10A0F85610FEF73AFC10BD10B5026897
:1046900052E8001F21F4907142E80013002BF6D17C
:1046A0000E4B0268083252E8001F194042E800141D
:1046B000002CF6D1C16E012908D1016851E8002F04
:1046C00022F0100241E80023002BF6D12021C0F88F
:1046D00088100021C166016710BD0000FEFFFFEFDA
:1046E00010B5B0F86020D0F888300168222B04D0D3
:1046F000886940F00800886110BD496A836D1140E7
:104700001980816D891C8165B0F85E10491EA0F882
:104710005E10B0F85E100029EED1026852E8001F6A
:1047200021F4907142E80013002BF6D101680831A2
:1047300051E8002F22F0010241E80023002BF5D1BF
:104740002021C0F8881000210167C26E012A02D022
:10475000FEF7ECFD10BDC166026852E8001F21F0B3
:10476000100142E80013002BF6D10168CA69D24358
:10477000D20601D410220A62B0F85C10FEF76FFB7B
:1047800010BD00002DE9F0470446B0F860600068F5
:10479000C569D0F800A0D0F80880D4F88810222984
:1047A00005D0816941F008018161BDE8F087B4F866
:1047B00068704FF0000963E02068406AA16D3040E6
:1047C0000880A06D801CA065B4F85E00401EA4F8AF
:1047D0005E002068C569690730D0E9070AD05FEA42
:1047E000CA5107D501210162D4F88C0040F00100C4
:1047F000C4F88C00A8070BD55FEAC87008D0216800
:1048000002200862D4F88C0040F00400C4F88C0048
:1048100068070BD55FEAC87008D0216804200862D9
:10482000D4F88C0040F00200C4F88C00D4F88C005E
:1048300020B12046FEF763FBC4F88C90B4F85E000C
:10484000F0B9216851E8000F20F4807041E80002BF
:10485000002AF6D1264A2068083050E8001F11408F
:1048600040E80013002BF6D12020C4F88800C4F8DB
:104870007090E16E4846012923D02046FEF756FD90
:104880000FB1A80698D4B4F85E0000288DD0B4F813
:104890006810814289D92068083050E8001F21F053
:1048A000805140E80012002AF5D1124820672068A4
:1048B00050E8001F41F0200140E80012002AF6D124
:1048C00073E7E066216851E8000F20F0100041E82E
:1048D0000002002AF6D12068C169C943C90601D483
:1048E00010210162B4F85C102046FEF7B8FAC7E761
:1048F000FEFFFFEFE146000810B5B0F86020D0F8E9
:1049000088300168222B04D0886940F00800886153
:1049100010BD496A1140826D1170816D491C81651D
:10492000B0F85E10491EA0F85E10B0F85E100029C5
:10493000EED1026852E8001F21F4907142E80013A2
:10494000002BF6D10168083151E8002F22F0010256
:1049500041E80023002BF5D12021C0F88810002168
:104960000167C26E012A02D0FEF7E0FC10BDC166ED
:10497000026852E8001F21F0100142E80013002BEA
:10498000F6D10168CA69D243D20601D410220A6264
:10499000B0F85C10FEF763FA10BD00002DE9F04797
:1049A0000446B0F860600068C569D0F800A0D0F88F
:1049B0000880D4F88810222905D0816941F00801C7
:1049C0008161BDE8F087B4F868704FF0000963E0DA
:1049D0002068406AA16D30400870A06D401CA06541
:1049E000B4F85E00401EA4F85E002068C56969073F
:1049F00030D0E9070AD05FEACA5107D50121016228
:104A0000D4F88C0040F00100C4F88C00A8070BD546
:104A10005FEAC87008D0216802200862D4F88C00D0
:104A200040F00400C4F88C0068070BD55FEAC8703A
:104A300008D0216804200862D4F88C0040F00200FD
:104A4000C4F88C00D4F88C0020B12046FEF757FA49
:104A5000C4F88C90B4F85E00F0B9216851E8000FFA
:104A600020F4807041E80002002AF6D1264A20682E
:104A7000083050E8001F114040E80013002BF6D129
:104A80002020C4F88800C4F87090E16E48460129DF
:104A900023D02046FEF74AFC0FB1A80698D4B4F8FC
:104AA0005E0000288DD0B4F86810814289D9206852
:104AB000083050E8001F21F0805140E80012002A21
:104AC000F5D112482067216851E8000F40F020001E
:104AD00041E80002002AF6D173E7E066216851E858
:104AE000000F20F0100041E80002002AF6D12068F3
:104AF000C169C943C90601D410210162B4F85C1030
:104B00002046FEF7ACF9C7E7FEFFFFEFF9480008C3
:104B10002DE9F0410446016880682269E369104389
:104B2000626900251A431043DFF82CC20A688B4BD8
:104B30001A4002430A6020684168E26821F440514B
:104B4000114341602168A069614501D0226A104388
:104B50008A68834B1A4002438A602068C16A626A8D
:104B600021F00F011143C1627E4923687E488B42C8
:104B70000DD1D0F8880010F0030006D0012855D0E0
:104B8000022842D003283FD152E001203DE077497E
:104B90008B420BD1D0F8880010F00C0035D00428DF
:104BA00033D0082840D00C282ED141E070498B42E8
:104BB0000BD1D0F8880010F0300026D0102835D066
:104BC000202831D030281FD132E06A498B420BD1E6
:104BD000D0F8880010F0C00017D0402826D08028D8
:104BE00022D0C02810D123E063450DD1D0F8880031
:104BF00010F4406009D0B0F5806F17D0B0F5006FA9
:104C000012D0B0F5406F13D010205B495B4F0026E7
:104C10004FF4004263453BD160B1022813D0042811
:104C20000BD0082872D10DE00220EEE70420ECE75B
:104C30000820EAE7FDF780FE01E0FDF7A1FE010094
:104C400001D17CE01146606A37F810206768B1FB3B
:104C5000F2F007EB4703834270D8B0EB073F6DD803
:104C6000002308461946FBF737FB090241EA1061A9
:104C700002027808101871413A460023FBF72CFB1A
:104C80003F4AA0F54071914258D82168C86056E06B
:104C9000E3694FF6EF7893422CD109284ED2DFE832
:104CA00000F00508114D0D4D4D4D1000FDF744FE6F
:104CB00001E0FDF753FE010004D140E0FDF760FE86
:104CC000F9E71146606A37F81000B1FBF0F04100D7
:104CD000606801EB5001B1FBF0F0A0F1100141451B
:104CE0002CD84FF6F0710140C0F342000143206818
:104CF000C16024E0092821D2DFE800F00509122074
:104D00000E2020201100FDF717FE02E016E0FDF74F
:104D100025FE010004D112E0FDF732FEF9E711464D
:104D2000606A37F81000B1FBF0F1606801EB5001E8
:104D3000B1FBF0F0A0F1100141450AD90125012095
:104D4000A4F86A0024F8680F2846A660E660BDE86B
:104D5000F08180B299E7000000800040F369FFCF46
:104D6000FFF4FF11003801400010024000440040F1
:104D700000480040004C00400024F400BA670008DE
:104D8000FFFC0F0070B58165A0F85C20A0F85E20E4
:104D90000021016783684FF48055FF24AB4204D1A2
:104DA0000369FBB940F2FF1322E07F26C3B1B3F1E0
:104DB000805F1AD0A0F86010C0F88C102223C0F8D1
:104DC00088300368083353E8004F44F0010443E897
:104DD0000046002EF5D1436EB3F1005F0ED032E0F5
:104DE000036943B9A0F86040E6E703691BB13F23BC
:104DF000A0F86030E0E7A0F86060DDE7B0F8683068
:104E0000934220D88268AA4201D10269CAB11F4ADE
:104E1000026780F88010016941B1026852E8001F02
:104E200041F4807142E80013002BF6D1016808318B
:104E300051E8002F42F0805241E80023002BF5D1C9
:104E400021E0134AE4E78268AA4201D102697AB1FB
:104E5000104A026780F88010016959B1026852E86F
:104E6000001F41F4907142E80013002BF6D10AE0D4
:104E7000094AEEE7026852E8001F41F0200142E8CB
:104E80000013002BF6D1002070BD00009D490008E2
:104E900085470008F9480008E14600082DE9F04779
:104EA0009A4617460E4604464FF000094FF0200878
:104EB000089D4AE0681C48D0FDF70EFAA0EB0A00F6
:104EC000A8422AD84DB32068016849073DD5C0697A
:104ED000C043000539D421684FF40060086220689F
:104EE00050E8001F21F4D07140E80012002AF6D1EA
:104EF0002068083050E8001F21F0010140E800124E
:104F0000002AF5D144F8848FC4F80480C4F80880DE
:104F100004F8049C0320BDE8F087216851E8000FE5
:104F200020F4D07041E80002002AF6D12068083051
:104F300050E8001F21F0010140E80012002AF5D1DD
:104F400044F8848FC4F80480E2E72068C06936EA38
:104F5000000004D00020B842ACD00020DBE70120E4
:104F6000F9E700000148FDF7CBBF0000F400002086
:104F7000FEE703B401984100009850EAC12018BF31
:104F800004204A0D18BF40F0010040F2FF72B2EB5E
:104F9000515F08BF40F00200012808BF052002B0A1
:104FA00070470907090E002804DB00F1E02080F8B3
:104FB0000014704700F00F0000F1E02080F8141D8D
:104FC000704730380A2801D201207047002070470E
:104FD000002100E0491C8142FCD3704710B5044811
:104FE000FCF74EFF0248FCF70DFE80B210BD00003A
:104FF00088000020FDF77EF9FFF74BFAFEF7BAFFB5
:10500000FEF77AFFFFF730F8FEF7FCFC4FF6FF746F
:105010002046FEF74FFC2046FEF74EFD1F20FEF710
:105020005FFD012215491648FEF756F9FEF732FAE0
:10503000124803220021001DFEF71EFB0520FDF78C
:105040000BF80E48001D0178642901D90A2101706E
:105050004178642901D9142141708178642901D9EA
:105060001E218170FEF704FFFEF732FFFCF730FBD4
:10507000FEF74CFBFEF7F2FDF4E700001200002003
:10508000F400002010B500290AD00878002807D0C5
:1050900005487844FBF7D2FE002801D0002010BD5F
:1050A0000248784410BD00002E18000026180000A9
:1050B0002DE9C04130B4DFF8A0C23CEA111418BF9A
:1050C0003CEA131400F0EC8081EA03051CEA111499
:1050D00044EAD57418BF1CEA131500F0C780A4EB8E
:1050E00005044FF0004545EAC12145EAC32341EAE2
:1050F000505143EA525304F17F74994204F500344D
:105100004FEAC0204FEAC22208BF904200F09C80C4
:105110004FEA13650FF24016765D4FEA134506FB22
:1051200005F7C7F1807706FB07F74FEAD737A7FBEC
:1051300003687642C8F58038A7FB06CE38BFA8F1D1
:10514000010807FB08E64FF0000EA6FB028CE6FB09
:1051500003CEDCF1000CCEF1004E38BFAEF1010EF3
:10516000A6FB0C584FF000074FF00005E6FB0E873A
:10517000A1FB08C6A0FB07CE16EB0E0645F1000505
:10518000E1FB076515F1E04E7EBFA4F580345FEAD0
:1051900046066D4116F1800745F100054FEA1727D5
:1051A0004FEA066647EA0567A6F1DE46B6F1805F7C
:1051B0004FEA15251FD9384624F0010C05EBC471C0
:1051C000BCF1FE6F01EB0C1102D8F0BCBDE8008110
:1051D00024425CBF01F5801E9EEAC47F02D4F0BC6D
:1051E000BDE80081244238D4F0BCA1F1C041BDE843
:1051F000004100F0EDB94FEAD22242EA43524FEAB1
:10520000D323A7FB02864FEAD02040EA415007FB98
:1052100003661EEA0E0F4FEAD12105FB026658BF56
:10522000A6EB0056B6EB00564FEA520E4EEAC37E8E
:1052300018EB0E0E56EB530EBDD518EB02085E416F
:105240007F1C55F10005B6E74FF480154FF00007BD
:105250004FF000064FF00008ADE7F0BC4FF0000043
:1052600001F1C04101F00041BDE8008111EA0C1FCD
:105270000CEA131500D00CE013EA0C1F00F0258097
:105280004FF00000F0BC81EA030101F00041BDE8ED
:105290000081F0BCBDE8004181EA030100F098B94B
:1052A000F0BCBDE8004170B500F044F9097EFC3E59
:1052B00000F007B881EA03014FF0000001F000415F
:1052C000704781EA030100F083B9F0BCBDE80041FA
:1052D0004FF0000021497047FFFDFBF9F7F5F4F2AC
:1052E000F0EEEDEBE9E8E6E4E3E1E0DEDDDBDAD881
:1052F000D7D5D4D3D1D0CFCDCCCBCAC8C7C6C5C4DF
:10530000C2C1C0BFBEBDBCBBBAB9B8B7B6B5B4B3F5
:10531000B2B1B0AFAEADACABAAA9A8A8A7A6A5A4E0
:10532000A3A3A2A1A09F9F9E9D9C9C9B9A999998A4
:105330009797969595949393929191908F8F8E8E47
:105340008D8C8C8B8B8A89898888878786858584D4
:1053500084838382828181800000FF070000F87FC0
:105360004FEA1153A3F58063D3F11E03A8BFD3F115
:10537000200C08DB4FF0004242EAC12252EA5052B0
:1053800032FA03F0704709420BD4102BC4BF00203F
:10539000704703F5787CBCF1FF3F05D04FF0FF303C
:1053A00070474FF00000704770B500F0C3F800BFC1
:1053B0004992248000207047F0E7B0FA80F310FA99
:1053C00003F10AD0C3F11D0303F580634FEA415096
:1053D0004FEA035202EBD12170474FF000007047B3
:1053E000DFF848C170B51CEA111E1EBF1CEA131578
:1053F0009EEA0C0F95EA0C0F00F06F8081EA03041F
:1054000023EA4C134EEAD47E21EA4C1141F4801178
:1054100043F48013AE44A1FB024CA0FB0365AEF144
:105420007F7E361955EB0C05A1FB034C4CF10003B4
:10543000A0FB021C16EB0C06654153F10003094268
:1054400018BF46F0010613F4007F0BD14FEA033179
:105450004FEA0530340341EA155140EA16506FF027
:1054600003020AE04FEAC3214FEAC520F40241EAF1
:10547000555140EA56506FF0020202EB2E4201EB0A
:10548000025585EACE710AD05FEA440C18BF24F0B9
:10549000004450F1000041F1000120EAD47040F2D4
:1054A000FE7C624500D270BDA84214BF4FF080441C
:1054B0004FF04044002E08BF0024BEF1806FA8BF0B
:1054C000A1F1C041BDE8704080F282804FF0000041
:1054D00001F1C04101F0004170479EEA0C0F0CEA57
:1054E000131518BF95EA0C0F06D04FF0000081EAA3
:1054F000030E0EF0004170BD00F01CF88900013E63
:1055000000F007B800F009B84FEA430C5FEA5C5CB2
:1055100008D081EA030100F05BB84FEA410C5FEA72
:105520005C5CF6D14FF00000014970470000FF07B6
:105530000000F87F0EF1020E2EF0030E5EF8046BF1
:10554000364205D4012A43EB030515F5001F12D896
:10555000012841EB010C1CF5001F0CD80ED14FEABD
:10556000D17C15F5001F0CEB4C0C0CF1020C08BFA4
:105570004CEBD37C04E04FF0080C01E04FEAD37C05
:105580000CEB4C0526FA05F606F00706B6F1040CFE
:1055900006D20EEB860CBDE870404CF0010C604763
:1055A000DFE80CF0090B02024FF000414FF0000061
:1055B000A1F5002170BD19461046012851EB0104E8
:1055C00018BFD4F5001484BF002001F0004170BD65
:1055D0000808A0F500114FEA310170474FF0407004
:1055E000E1EE100A7047FBF7A6B9000000000000CA
:1055F00000000000000000000000000000000000AB
:10560000000000000000000000000000000000009A
:105610000000000000000000000000008001800188
:105620008001800180018001800180018001800172
:1056300080018001800100000000800180010000E5
:105640000000000000000000000000000000CC008E
:10565000CC00CC00CC00CC00CC000000000000004E
:10566000000000000000000000000000000000003A
:10567000000000000000000000000000000000002A
:10568000000000000000600C600C600C300630066A
:10569000FE1FFE1F300638071803FE1FFE1F1803EB
:1056A00018038C018C018C01000000008000E003D5
:1056B000F80F9C0E8C1C8C188C009800F801E007E9
:1056C000800E801C8C188C189C18B80CF00FE0030E
:1056D00080008000000000000000000000000000CA
:1056E0000E181B0C110C11061106110311039B015E
:1056F0008E01C038C06C604460443044304418446B
:10570000186C0C380000000000000000E001F003FD
:105710003807180618063003F001F000F8009C3135
:105720000E33061E061C061C063FFC73F02100000B
:1057300000000000000000000000000000000C005D
:105740000C000C000C000C000C000000000000001D
:105750000000000000000000000000000000000049
:105760000000000000000000000000000002000334
:105770008001C000C00060006000300030003000D8
:105780003000300030003000300060006000C000A9
:10579000C000800100030002000000002000600043
:1057A000C00080018001000300030006000600061F
:1057B0000006000600060006000600030003800144
:1057C0008001C00060002000000000000000000018
:1057D000000000000000C000C000D806F807E0018B
:1057E0003003380700000000000000000000000047
:1057F00000000000000000000000000000000000A9
:105800000000000000008001800180018001800113
:10581000FC3FFC3F8001800180018001800100008D
:105820000000000000000000000000000000000078
:105830000000000000000000000000000000000068
:105840000000000000000000000000008001800156
:1058500000010001800000000000000000000000C6
:105860000000000000000000000000000000000038
:105870000000E007E007000000000000000000005A
:105880000000000000000000000000000000000018
:105890000000000000000000000000000000000008
:1058A000000000000000000000000000C000C00078
:1058B000000000000000000000000000000C000CD0
:1058C00000060006000600030003000380038001B9
:1058D00080018001C000C000C000600060000000C6
:1058E000000000000000000000000000E003F007DE
:1058F000380E180C0C180C180C180C180C180C1866
:105900000C180C180C18180C380EF007E0030000E7
:105910000000000000000000000000000001800105
:10592000C001F0019801880180018001800180019F
:1059300080018001800180018001800180010000E0
:10594000000000000000000000000000E003F80F6D
:10595000180C0C180C1800180018000C0006000396
:105960008001C000600030001800FC1FFC1F000018
:10597000000000000000000000000000E001F80747
:10598000180E0C0C0C0C000C0006C003C007000C19
:10599000001800180C180C18180CF807E003000089
:1059A000000000000000000000000000000C000EDD
:1059B000000F000F800DC00C600C600C300C180C38
:1059C0000C0CFC3FFC3F000C000C000C000C000019
:1059D000000000000000000000000000F80FF80FB9
:1059E000180018000C00EC03FC071C0E001C00182B
:1059F000001800180C181C0C180EF807E003000023
:105A0000000000000000000000000000C007F00FD0
:105A1000381C181818000C00CC03EC0F3C0E1C1C92
:105A20000C180C180C18181C380EF007E0030000B6
:105A3000000000000000000000000000FC1FFC1F30
:105A4000000C00060006000380038001C001C000B6
:105A5000E0006000600070003000300030000000A6
:105A6000000000000000000000000000E003F0075C
:105A7000380E180C180C180C3806F007F007180C24
:105A80000C180C180C180C18380CF80FE003000058
:105A9000000000000000000000000000E003F0072C
:105AA000380E1C0C0C180C180C181C1C381EF81B7B
:105AB000E0190018000C000C1C0EF807F0010000A3
:105AC00000000000000000000000000000000000D6
:105AD00000000000000080018001000000000000C4
